{
  "compilerInput": "{\"language\":\"Solidity\",\"sources\":{\"contracts/LotteryFactory.sol\":{\"content\":\"// SPDX-License-Identifier: GPL-3.0\\n\\npragma solidity >=0.7.0 <0.9.0;\\n\\nimport {Loterie} from \\\"./Loterie.sol\\\";\\n\\n/**\\n * @title Loterie\\n * @dev Store & retrieve value in a variable\\n */\\ncontract LotteryFactory {\\n\\n\\n    mapping (address => Loterie) loteries;\\n    address[] addresses;\\n    address owner;\\n\\n    constructor () {\\n        owner = msg.sender;\\n    }\\n\\n    function randomDraw(address loterie) public returns (address) {\\n        address winner = loteries[loterie].randomDraw();\\n\\n        return winner;\\n    }\\n\\n    function getName(address loterie) public view returns (string memory) {\\n        require(containsAddress(loterie),\\\"Loterie doesn't exist\\\");\\n        return loteries[loterie].getName();\\n    }\\n    \\n    function getSolde(address loterie) public view returns (uint) {\\n        require(containsAddress(loterie),\\\"Loterie doesn't exist\\\");\\n        return loteries[loterie].getSolde();\\n    }\\n\\n    function participate(address loterie) public payable {\\n        require(containsAddress(loterie),\\\"Loterie doesn't exist\\\");\\n        loteries[loterie].participate{value:msg.value}();\\n    }\\n\\n    function getPrice(address loterie) public view returns (uint256) {\\n        require(containsAddress(loterie),\\\"Loterie doesn't exist\\\");\\n        return loteries[loterie].getPrice();\\n    }\\n\\n    function addLoterie(uint fee, string memory _name) public {\\n        require(msg.sender == owner, \\\"Only the owner can add a lottery\\\");\\n        Loterie loterie = new Loterie(fee, _name);\\n        addresses.push(address(loterie));\\n        loteries[address(loterie)] = loterie;\\n    }\\n\\n    function containsAddress(address loterie) private view returns (bool) {\\n        for (uint256 i = 0; i < addresses.length; i++) {\\n            if (addresses[i] == loterie) {\\n                return true;\\n            }\\n        }\\n        return false;\\n    }\\n\\n    function getLoteries() public view returns (address[] memory, string[] memory) {\\n        string[] memory names = new string[](addresses.length);\\n\\n        for (uint256 i = 0; i < addresses.length; i++) {\\n            names[i] = getName(addresses[i]);\\n        }\\n\\n        return (addresses,names);\\n    }\\n\\n    function removeLoterie(address loterie) public {\\n        require(msg.sender == owner, \\\"Only the owner can remove a lottery\\\");\\n        for(uint256 i = 0; i < addresses.length; i++){\\n            if (addresses[i] == loterie) {\\n                addresses[i] = addresses[addresses.length - 1];\\n                addresses.pop();\\n                return;\\n            }\\n        }\\n    }\\n\\n\\n\\n}\"},\"contracts/Loterie.sol\":{\"content\":\"// SPDX-License-Identifier: GPL-3.0\\n\\npragma solidity >=0.7.0 <0.9.0;\\n\\n/**\\n * @title Loterie\\n * @dev Store & retrieve value in a variable\\n */\\ncontract Loterie {\\n\\n    uint256 private randNonce;\\n    uint256 public price;\\n    string name;\\n\\n    address[]  participants;\\n    address owner;\\n\\n    constructor(uint256 p, string memory _name){\\n        owner = tx.origin;\\n        name = _name;\\n        price = p * 10**16;\\n    }\\n\\n    function randomDraw() public returns (address) {\\n        require(tx.origin == owner, \\\"Only owner can do that!\\\");\\n        require(participants.length > 2, \\\"The numbers of participants must be larger than 2\\\");\\n\\n        address winner = participants[random(participants.length)];\\n        payable(winner).transfer(address(this).balance);\\n\\n        delete participants;\\n\\n        return winner;\\n    }\\n\\n    function getPrice() public view returns (uint256) {\\n        return price;\\n    }\\n\\n    function random(uint _modulus) private returns (uint) {\\n        randNonce++; // Variable d’état à déclarer et initialiser à 0\\n        return\\n            uint(\\n                keccak256(\\n                    abi.encodePacked(block.timestamp, tx.origin,\\n                    randNonce)\\n                )\\n            ) % _modulus;\\n    }\\n    \\n    function getSolde() public view returns (uint) {\\n        return address(this).balance;\\n    }\\n\\n    function getName() public view returns (string memory) {\\n        return name;\\n    }\\n\\n    function participate() public payable {\\n        require(tx.origin != owner,\\\"Owner can't participate\\\");\\n        require(msg.value == price, \\\"Price must be equal to the price defined by the owner of the lottery\\\");\\n\\n        bool isAlreadyParticipant = false;\\n\\n        for (uint256 i = 0; i < participants.length; i++) {\\n            if (participants[i] == tx.origin) {\\n                isAlreadyParticipant = true;\\n                break;\\n            }\\n        }\\n        require(!isAlreadyParticipant, \\\"A participant cannot participate several times\\\");\\n        \\n        participants.push(tx.origin);\\n    }\\n}\"}},\"settings\":{\"optimizer\":{\"enabled\":false,\"runs\":200},\"outputSelection\":{\"*\":{\"\":[\"ast\"],\"*\":[\"abi\",\"metadata\",\"devdoc\",\"userdoc\",\"storageLayout\",\"evm.legacyAssembly\",\"evm.bytecode\",\"evm.deployedBytecode\",\"evm.methodIdentifiers\",\"evm.gasEstimates\",\"evm.assembly\"]}},\"remappings\":[]}}",
  "name": "LotteryFactory",
  "bytecode": {
    "linkReferences": {},
    "object": "6080604052348015600e575f5ffd5b503360025f6101000a81548173ffffffffffffffffffffffffffffffffffffffff021916908373ffffffffffffffffffffffffffffffffffffffff1602179055506127748061005c5f395ff3fe60806040526004361061007a575f3560e01c80635a8ad3dd1161004d5780635a8ad3dd146101495780635fd4b08a146101715780639c2f6944146101ad578063b91038c7146101e95761007a565b806309e786be1461007e5780632dc93daa146100a65780633bbfddc7146100d157806341976e091461010d575b5f5ffd5b348015610089575f5ffd5b506100a4600480360381019061009f9190610e78565b610205565b005b3480156100b1575f5ffd5b506100ba6103a9565b6040516100c89291906110d4565b60405180910390f35b3480156100dc575f5ffd5b506100f760048036038101906100f29190611133565b610515565b604051610104919061116d565b60405180910390f35b348015610118575f5ffd5b50610133600480360381019061012e9190611133565b61062d565b604051610140919061116d565b60405180910390f35b348015610154575f5ffd5b5061016f600480360381019061016a9190611133565b610745565b005b34801561017c575f5ffd5b5061019760048036038101906101929190611133565b610954565b6040516101a491906111ce565b60405180910390f35b3480156101b8575f5ffd5b506101d360048036038101906101ce9190611133565b610a70565b6040516101e091906111fd565b60405180910390f35b61020360048036038101906101fe9190611133565b610b46565b005b60025f9054906101000a900473ffffffffffffffffffffffffffffffffffffffff1673ffffffffffffffffffffffffffffffffffffffff163373ffffffffffffffffffffffffffffffffffffffff1614610294576040517f08c379a000000000000000000000000000000000000000000000000000000000815260040161028b90611260565b60405180910390fd5b5f82826040516102a390610ceb565b6102ae92919061127e565b604051809103905ff0801580156102c7573d5f5f3e3d5ffd5b509050600181908060018154018082558091505060019003905f5260205f20015f9091909190916101000a81548173ffffffffffffffffffffffffffffffffffffffff021916908373ffffffffffffffffffffffffffffffffffffffff160217905550805f5f8373ffffffffffffffffffffffffffffffffffffffff1673ffffffffffffffffffffffffffffffffffffffff1681526020019081526020015f205f6101000a81548173ffffffffffffffffffffffffffffffffffffffff021916908373ffffffffffffffffffffffffffffffffffffffff160217905550505050565b6060805f60018054905067ffffffffffffffff8111156103cc576103cb610d54565b5b6040519080825280602002602001820160405280156103ff57816020015b60608152602001906001900390816103ea5790505b5090505f5f90505b600180549050811015610483576104586001828154811061042b5761042a6112ac565b5b905f5260205f20015f9054906101000a900473ffffffffffffffffffffffffffffffffffffffff16610954565b82828151811061046b5761046a6112ac565b5b60200260200101819052508080600101915050610407565b506001818180548060200260200160405190810160405280929190818152602001828054801561050557602002820191905f5260205f20905b815f9054906101000a900473ffffffffffffffffffffffffffffffffffffffff1673ffffffffffffffffffffffffffffffffffffffff16815260200190600101908083116104bc575b5050505050915092509250509091565b5f61051f82610c49565b61055e576040517f08c379a000000000000000000000000000000000000000000000000000000000815260040161055590611323565b60405180910390fd5b5f5f8373ffffffffffffffffffffffffffffffffffffffff1673ffffffffffffffffffffffffffffffffffffffff1681526020019081526020015f205f9054906101000a900473ffffffffffffffffffffffffffffffffffffffff1673ffffffffffffffffffffffffffffffffffffffff166355e5ae046040518163ffffffff1660e01b8152600401602060405180830381865afa158015610602573d5f5f3e3d5ffd5b505050506040513d601f19601f820116820180604052508101906106269190611355565b9050919050565b5f61063782610c49565b610676576040517f08c379a000000000000000000000000000000000000000000000000000000000815260040161066d90611323565b60405180910390fd5b5f5f8373ffffffffffffffffffffffffffffffffffffffff1673ffffffffffffffffffffffffffffffffffffffff1681526020019081526020015f205f9054906101000a900473ffffffffffffffffffffffffffffffffffffffff1673ffffffffffffffffffffffffffffffffffffffff166398d5fdca6040518163ffffffff1660e01b8152600401602060405180830381865afa15801561071a573d5f5f3e3d5ffd5b505050506040513d601f19601f8201168201806040525081019061073e9190611355565b9050919050565b60025f9054906101000a900473ffffffffffffffffffffffffffffffffffffffff1673ffffffffffffffffffffffffffffffffffffffff163373ffffffffffffffffffffffffffffffffffffffff16146107d4576040517f08c379a00000000000000000000000000000000000000000000000000000000081526004016107cb906113f0565b60405180910390fd5b5f5f90505b60018054905081101561094f578173ffffffffffffffffffffffffffffffffffffffff1660018281548110610811576108106112ac565b5b905f5260205f20015f9054906101000a900473ffffffffffffffffffffffffffffffffffffffff1673ffffffffffffffffffffffffffffffffffffffff1603610942576001808080549050610866919061143b565b81548110610877576108766112ac565b5b905f5260205f20015f9054906101000a900473ffffffffffffffffffffffffffffffffffffffff16600182815481106108b3576108b26112ac565b5b905f5260205f20015f6101000a81548173ffffffffffffffffffffffffffffffffffffffff021916908373ffffffffffffffffffffffffffffffffffffffff160217905550600180548061090a5761090961146e565b5b600190038181905f5260205f20015f6101000a81549073ffffffffffffffffffffffffffffffffffffffff0219169055905550610951565b80806001019150506107d9565b505b50565b606061095f82610c49565b61099e576040517f08c379a000000000000000000000000000000000000000000000000000000000815260040161099590611323565b60405180910390fd5b5f5f8373ffffffffffffffffffffffffffffffffffffffff1673ffffffffffffffffffffffffffffffffffffffff1681526020019081526020015f205f9054906101000a900473ffffffffffffffffffffffffffffffffffffffff1673ffffffffffffffffffffffffffffffffffffffff166317d7de7c6040518163ffffffff1660e01b81526004015f60405180830381865afa158015610a41573d5f5f3e3d5ffd5b505050506040513d5f823e3d601f19601f82011682018060405250810190610a699190611509565b9050919050565b5f5f5f5f8473ffffffffffffffffffffffffffffffffffffffff1673ffffffffffffffffffffffffffffffffffffffff1681526020019081526020015f205f9054906101000a900473ffffffffffffffffffffffffffffffffffffffff1673ffffffffffffffffffffffffffffffffffffffff16631e62e2026040518163ffffffff1660e01b81526004016020604051808303815f875af1158015610b17573d5f5f3e3d5ffd5b505050506040513d601f19601f82011682018060405250810190610b3b9190611564565b905080915050919050565b610b4f81610c49565b610b8e576040517f08c379a0000000000000000000000000000000000000000000000000000000008152600401610b8590611323565b60405180910390fd5b5f5f8273ffffffffffffffffffffffffffffffffffffffff1673ffffffffffffffffffffffffffffffffffffffff1681526020019081526020015f205f9054906101000a900473ffffffffffffffffffffffffffffffffffffffff1673ffffffffffffffffffffffffffffffffffffffff1663d11711a2346040518263ffffffff1660e01b81526004015f604051808303818588803b158015610c2f575f5ffd5b505af1158015610c41573d5f5f3e3d5ffd5b505050505050565b5f5f5f90505b600180549050811015610ce1578273ffffffffffffffffffffffffffffffffffffffff1660018281548110610c8757610c866112ac565b5b905f5260205f20015f9054906101000a900473ffffffffffffffffffffffffffffffffffffffff1673ffffffffffffffffffffffffffffffffffffffff1603610cd4576001915050610ce6565b8080600101915050610c4f565b505f90505b919050565b6111af8061159083390190565b5f604051905090565b5f5ffd5b5f5ffd5b5f819050919050565b610d1b81610d09565b8114610d25575f5ffd5b50565b5f81359050610d3681610d12565b92915050565b5f5ffd5b5f5ffd5b5f601f19601f8301169050919050565b7f4e487b71000000000000000000000000000000000000000000000000000000005f52604160045260245ffd5b610d8a82610d44565b810181811067ffffffffffffffff82111715610da957610da8610d54565b5b80604052505050565b5f610dbb610cf8565b9050610dc78282610d81565b919050565b5f67ffffffffffffffff821115610de657610de5610d54565b5b610def82610d44565b9050602081019050919050565b828183375f83830152505050565b5f610e1c610e1784610dcc565b610db2565b905082815260208101848484011115610e3857610e37610d40565b5b610e43848285610dfc565b509392505050565b5f82601f830112610e5f57610e5e610d3c565b5b8135610e6f848260208601610e0a565b91505092915050565b5f5f60408385031215610e8e57610e8d610d01565b5b5f610e9b85828601610d28565b925050602083013567ffffffffffffffff811115610ebc57610ebb610d05565b5b610ec885828601610e4b565b9150509250929050565b5f81519050919050565b5f82825260208201905092915050565b5f819050602082019050919050565b5f73ffffffffffffffffffffffffffffffffffffffff82169050919050565b5f610f2482610efb565b9050919050565b610f3481610f1a565b82525050565b5f610f458383610f2b565b60208301905092915050565b5f602082019050919050565b5f610f6782610ed2565b610f718185610edc565b9350610f7c83610eec565b805f5b83811015610fac578151610f938882610f3a565b9750610f9e83610f51565b925050600181019050610f7f565b5085935050505092915050565b5f81519050919050565b5f82825260208201905092915050565b5f819050602082019050919050565b5f81519050919050565b5f82825260208201905092915050565b8281835e5f83830152505050565b5f61101482610fe2565b61101e8185610fec565b935061102e818560208601610ffc565b61103781610d44565b840191505092915050565b5f61104d838361100a565b905092915050565b5f602082019050919050565b5f61106b82610fb9565b6110758185610fc3565b93508360208202850161108785610fd3565b805f5b858110156110c257848403895281516110a38582611042565b94506110ae83611055565b925060208a0199505060018101905061108a565b50829750879550505050505092915050565b5f6040820190508181035f8301526110ec8185610f5d565b905081810360208301526111008184611061565b90509392505050565b61111281610f1a565b811461111c575f5ffd5b50565b5f8135905061112d81611109565b92915050565b5f6020828403121561114857611147610d01565b5b5f6111558482850161111f565b91505092915050565b61116781610d09565b82525050565b5f6020820190506111805f83018461115e565b92915050565b5f82825260208201905092915050565b5f6111a082610fe2565b6111aa8185611186565b93506111ba818560208601610ffc565b6111c381610d44565b840191505092915050565b5f6020820190508181035f8301526111e68184611196565b905092915050565b6111f781610f1a565b82525050565b5f6020820190506112105f8301846111ee565b92915050565b7f4f6e6c7920746865206f776e65722063616e206164642061206c6f74746572795f82015250565b5f61124a602083611186565b915061125582611216565b602082019050919050565b5f6020820190508181035f8301526112778161123e565b9050919050565b5f6040820190506112915f83018561115e565b81810360208301526112a38184611196565b90509392505050565b7f4e487b71000000000000000000000000000000000000000000000000000000005f52603260045260245ffd5b7f4c6f746572696520646f65736e277420657869737400000000000000000000005f82015250565b5f61130d601583611186565b9150611318826112d9565b602082019050919050565b5f6020820190508181035f83015261133a81611301565b9050919050565b5f8151905061134f81610d12565b92915050565b5f6020828403121561136a57611369610d01565b5b5f61137784828501611341565b91505092915050565b7f4f6e6c7920746865206f776e65722063616e2072656d6f76652061206c6f74745f8201527f6572790000000000000000000000000000000000000000000000000000000000602082015250565b5f6113da602383611186565b91506113e582611380565b604082019050919050565b5f6020820190508181035f830152611407816113ce565b9050919050565b7f4e487b71000000000000000000000000000000000000000000000000000000005f52601160045260245ffd5b5f61144582610d09565b915061145083610d09565b92508282039050818111156114685761146761140e565b5b92915050565b7f4e487b71000000000000000000000000000000000000000000000000000000005f52603160045260245ffd5b5f6114ad6114a884610dcc565b610db2565b9050828152602081018484840111156114c9576114c8610d40565b5b6114d4848285610ffc565b509392505050565b5f82601f8301126114f0576114ef610d3c565b5b815161150084826020860161149b565b91505092915050565b5f6020828403121561151e5761151d610d01565b5b5f82015167ffffffffffffffff81111561153b5761153a610d05565b5b611547848285016114dc565b91505092915050565b5f8151905061155e81611109565b92915050565b5f6020828403121561157957611578610d01565b5b5f61158684828501611550565b9150509291505056fe608060405234801561000f575f5ffd5b506040516111af3803806111af83398181016040528101906100319190610221565b3260045f6101000a81548173ffffffffffffffffffffffffffffffffffffffff021916908373ffffffffffffffffffffffffffffffffffffffff16021790555080600290816100809190610482565b50662386f26fc1000082610094919061057e565b60018190555050506105bf565b5f604051905090565b5f5ffd5b5f5ffd5b5f819050919050565b6100c4816100b2565b81146100ce575f5ffd5b50565b5f815190506100df816100bb565b92915050565b5f5ffd5b5f5ffd5b5f601f19601f8301169050919050565b7f4e487b71000000000000000000000000000000000000000000000000000000005f52604160045260245ffd5b610133826100ed565b810181811067ffffffffffffffff82111715610152576101516100fd565b5b80604052505050565b5f6101646100a1565b9050610170828261012a565b919050565b5f67ffffffffffffffff82111561018f5761018e6100fd565b5b610198826100ed565b9050602081019050919050565b8281835e5f83830152505050565b5f6101c56101c084610175565b61015b565b9050828152602081018484840111156101e1576101e06100e9565b5b6101ec8482856101a5565b509392505050565b5f82601f830112610208576102076100e5565b5b81516102188482602086016101b3565b91505092915050565b5f5f60408385031215610237576102366100aa565b5b5f610244858286016100d1565b925050602083015167ffffffffffffffff811115610265576102646100ae565b5b610271858286016101f4565b9150509250929050565b5f81519050919050565b7f4e487b71000000000000000000000000000000000000000000000000000000005f52602260045260245ffd5b5f60028204905060018216806102c957607f821691505b6020821081036102dc576102db610285565b5b50919050565b5f819050815f5260205f209050919050565b5f6020601f8301049050919050565b5f82821b905092915050565b5f6008830261033e7fffffffffffffffffffffffffffffffffffffffffffffffffffffffffffffffff82610303565b6103488683610303565b95508019841693508086168417925050509392505050565b5f819050919050565b5f61038361037e610379846100b2565b610360565b6100b2565b9050919050565b5f819050919050565b61039c83610369565b6103b06103a88261038a565b84845461030f565b825550505050565b5f5f905090565b6103c76103b8565b6103d2818484610393565b505050565b5b818110156103f5576103ea5f826103bf565b6001810190506103d8565b5050565b601f82111561043a5761040b816102e2565b610414846102f4565b81016020851015610423578190505b61043761042f856102f4565b8301826103d7565b50505b505050565b5f82821c905092915050565b5f61045a5f198460080261043f565b1980831691505092915050565b5f610472838361044b565b9150826002028217905092915050565b61048b8261027b565b67ffffffffffffffff8111156104a4576104a36100fd565b5b6104ae82546102b2565b6104b98282856103f9565b5f60209050601f8311600181146104ea575f84156104d8578287015190505b6104e28582610467565b865550610549565b601f1984166104f8866102e2565b5f5b8281101561051f578489015182556001820191506020850194506020810190506104fa565b8683101561053c5784890151610538601f89168261044b565b8355505b6001600288020188555050505b505050505050565b7f4e487b71000000000000000000000000000000000000000000000000000000005f52601160045260245ffd5b5f610588826100b2565b9150610593836100b2565b92508282026105a1816100b2565b915082820484148315176105b8576105b7610551565b5b5092915050565b610be3806105cc5f395ff3fe608060405260043610610054575f3560e01c806317d7de7c146100585780631e62e2021461008257806355e5ae04146100ac57806398d5fdca146100d6578063a035b1fe14610100578063d11711a21461012a575b5f5ffd5b348015610063575f5ffd5b5061006c610134565b6040516100799190610668565b60405180910390f35b34801561008d575f5ffd5b506100966101c4565b6040516100a391906106c7565b60405180910390f35b3480156100b7575f5ffd5b506100c0610340565b6040516100cd91906106f8565b60405180910390f35b3480156100e1575f5ffd5b506100ea610347565b6040516100f791906106f8565b60405180910390f35b34801561010b575f5ffd5b50610114610350565b60405161012191906106f8565b60405180910390f35b610132610356565b005b6060600280546101439061073e565b80601f016020809104026020016040519081016040528092919081815260200182805461016f9061073e565b80156101ba5780601f10610191576101008083540402835291602001916101ba565b820191905f5260205f20905b81548152906001019060200180831161019d57829003601f168201915b5050505050905090565b5f60045f9054906101000a900473ffffffffffffffffffffffffffffffffffffffff1673ffffffffffffffffffffffffffffffffffffffff163273ffffffffffffffffffffffffffffffffffffffff1614610254576040517f08c379a000000000000000000000000000000000000000000000000000000000815260040161024b906107b8565b60405180910390fd5b60026003805490501161029c576040517f08c379a000000000000000000000000000000000000000000000000000000000815260040161029390610846565b60405180910390fd5b5f60036102ad600380549050610568565b815481106102be576102bd610864565b5b905f5260205f20015f9054906101000a900473ffffffffffffffffffffffffffffffffffffffff1690508073ffffffffffffffffffffffffffffffffffffffff166108fc4790811502906040515f60405180830381858888f1935050505015801561032b573d5f5f3e3d5ffd5b5060035f61033991906105bf565b8091505090565b5f47905090565b5f600154905090565b60015481565b60045f9054906101000a900473ffffffffffffffffffffffffffffffffffffffff1673ffffffffffffffffffffffffffffffffffffffff163273ffffffffffffffffffffffffffffffffffffffff16036103e5576040517f08c379a00000000000000000000000000000000000000000000000000000000081526004016103dc906108db565b60405180910390fd5b6001543414610429576040517f08c379a00000000000000000000000000000000000000000000000000000000081526004016104209061098f565b60405180910390fd5b5f5f90505f5f90505b6003805490508110156104c3573273ffffffffffffffffffffffffffffffffffffffff166003828154811061046a57610469610864565b5b905f5260205f20015f9054906101000a900473ffffffffffffffffffffffffffffffffffffffff1673ffffffffffffffffffffffffffffffffffffffff16036104b657600191506104c3565b8080600101915050610432565b508015610505576040517f08c379a00000000000000000000000000000000000000000000000000000000081526004016104fc90610a1d565b60405180910390fd5b600332908060018154018082558091505060019003905f5260205f20015f9091909190916101000a81548173ffffffffffffffffffffffffffffffffffffffff021916908373ffffffffffffffffffffffffffffffffffffffff16021790555050565b5f5f5f81548092919061057a90610a68565b91905055508142325f5460405160200161059693929190610b14565b604051602081830303815290604052805190602001205f1c6105b89190610b7d565b9050919050565b5080545f8255905f5260205f20908101906105da91906105dd565b50565b5b808211156105f4575f815f9055506001016105de565b5090565b5f81519050919050565b5f82825260208201905092915050565b8281835e5f83830152505050565b5f601f19601f8301169050919050565b5f61063a826105f8565b6106448185610602565b9350610654818560208601610612565b61065d81610620565b840191505092915050565b5f6020820190508181035f8301526106808184610630565b905092915050565b5f73ffffffffffffffffffffffffffffffffffffffff82169050919050565b5f6106b182610688565b9050919050565b6106c1816106a7565b82525050565b5f6020820190506106da5f8301846106b8565b92915050565b5f819050919050565b6106f2816106e0565b82525050565b5f60208201905061070b5f8301846106e9565b92915050565b7f4e487b71000000000000000000000000000000000000000000000000000000005f52602260045260245ffd5b5f600282049050600182168061075557607f821691505b60208210810361076857610767610711565b5b50919050565b7f4f6e6c79206f776e65722063616e20646f2074686174210000000000000000005f82015250565b5f6107a2601783610602565b91506107ad8261076e565b602082019050919050565b5f6020820190508181035f8301526107cf81610796565b9050919050565b7f546865206e756d62657273206f66207061727469636970616e7473206d7573745f8201527f206265206c6172676572207468616e2032000000000000000000000000000000602082015250565b5f610830603183610602565b915061083b826107d6565b604082019050919050565b5f6020820190508181035f83015261085d81610824565b9050919050565b7f4e487b71000000000000000000000000000000000000000000000000000000005f52603260045260245ffd5b7f4f776e65722063616e27742070617274696369706174650000000000000000005f82015250565b5f6108c5601783610602565b91506108d082610891565b602082019050919050565b5f6020820190508181035f8301526108f2816108b9565b9050919050565b7f5072696365206d75737420626520657175616c20746f207468652070726963655f8201527f20646566696e656420627920746865206f776e6572206f6620746865206c6f7460208201527f7465727900000000000000000000000000000000000000000000000000000000604082015250565b5f610979604483610602565b9150610984826108f9565b606082019050919050565b5f6020820190508181035f8301526109a68161096d565b9050919050565b7f41207061727469636970616e742063616e6e6f742070617274696369706174655f8201527f207365766572616c2074696d6573000000000000000000000000000000000000602082015250565b5f610a07602e83610602565b9150610a12826109ad565b604082019050919050565b5f6020820190508181035f830152610a34816109fb565b9050919050565b7f4e487b71000000000000000000000000000000000000000000000000000000005f52601160045260245ffd5b5f610a72826106e0565b91507fffffffffffffffffffffffffffffffffffffffffffffffffffffffffffffffff8203610aa457610aa3610a3b565b5b600182019050919050565b5f819050919050565b610ac9610ac4826106e0565b610aaf565b82525050565b5f8160601b9050919050565b5f610ae582610acf565b9050919050565b5f610af682610adb565b9050919050565b610b0e610b09826106a7565b610aec565b82525050565b5f610b1f8286610ab8565b602082019150610b2f8285610afd565b601482019150610b3f8284610ab8565b602082019150819050949350505050565b7f4e487b71000000000000000000000000000000000000000000000000000000005f52601260045260245ffd5b5f610b87826106e0565b9150610b92836106e0565b925082610ba257610ba1610b50565b5b82820690509291505056fea264697066735822122083b554fc568b26350c086c3d7afa1b3e1141573b77104da099014f7838a37e8d64736f6c634300081e0033a26469706673582212204359c149889f24664d44e458ba2ef93cbb99f435d27f49e9961ffda59288300764736f6c634300081e0033",
    "opcodes": "PUSH1 0x80 PUSH1 0x40 MSTORE CALLVALUE DUP1 ISZERO PUSH1 0xE JUMPI PUSH0 PUSH0 REVERT JUMPDEST POP CALLER PUSH1 0x2 PUSH0 PUSH2 0x100 EXP DUP2 SLOAD DUP2 PUSH20 0xFFFFFFFFFFFFFFFFFFFFFFFFFFFFFFFFFFFFFFFF MUL NOT AND SWAP1 DUP4 PUSH20 0xFFFFFFFFFFFFFFFFFFFFFFFFFFFFFFFFFFFFFFFF AND MUL OR SWAP1 SSTORE POP PUSH2 0x2774 DUP1 PUSH2 0x5C PUSH0 CODECOPY PUSH0 RETURN INVALID PUSH1 0x80 PUSH1 0x40 MSTORE PUSH1 0x4 CALLDATASIZE LT PUSH2 0x7A JUMPI PUSH0 CALLDATALOAD PUSH1 0xE0 SHR DUP1 PUSH4 0x5A8AD3DD GT PUSH2 0x4D JUMPI DUP1 PUSH4 0x5A8AD3DD EQ PUSH2 0x149 JUMPI DUP1 PUSH4 0x5FD4B08A EQ PUSH2 0x171 JUMPI DUP1 PUSH4 0x9C2F6944 EQ PUSH2 0x1AD JUMPI DUP1 PUSH4 0xB91038C7 EQ PUSH2 0x1E9 JUMPI PUSH2 0x7A JUMP JUMPDEST DUP1 PUSH4 0x9E786BE EQ PUSH2 0x7E JUMPI DUP1 PUSH4 0x2DC93DAA EQ PUSH2 0xA6 JUMPI DUP1 PUSH4 0x3BBFDDC7 EQ PUSH2 0xD1 JUMPI DUP1 PUSH4 0x41976E09 EQ PUSH2 0x10D JUMPI JUMPDEST PUSH0 PUSH0 REVERT JUMPDEST CALLVALUE DUP1 ISZERO PUSH2 0x89 JUMPI PUSH0 PUSH0 REVERT JUMPDEST POP PUSH2 0xA4 PUSH1 0x4 DUP1 CALLDATASIZE SUB DUP2 ADD SWAP1 PUSH2 0x9F SWAP2 SWAP1 PUSH2 0xE78 JUMP JUMPDEST PUSH2 0x205 JUMP JUMPDEST STOP JUMPDEST CALLVALUE DUP1 ISZERO PUSH2 0xB1 JUMPI PUSH0 PUSH0 REVERT JUMPDEST POP PUSH2 0xBA PUSH2 0x3A9 JUMP JUMPDEST PUSH1 0x40 MLOAD PUSH2 0xC8 SWAP3 SWAP2 SWAP1 PUSH2 0x10D4 JUMP JUMPDEST PUSH1 0x40 MLOAD DUP1 SWAP2 SUB SWAP1 RETURN JUMPDEST CALLVALUE DUP1 ISZERO PUSH2 0xDC JUMPI PUSH0 PUSH0 REVERT JUMPDEST POP PUSH2 0xF7 PUSH1 0x4 DUP1 CALLDATASIZE SUB DUP2 ADD SWAP1 PUSH2 0xF2 SWAP2 SWAP1 PUSH2 0x1133 JUMP JUMPDEST PUSH2 0x515 JUMP JUMPDEST PUSH1 0x40 MLOAD PUSH2 0x104 SWAP2 SWAP1 PUSH2 0x116D JUMP JUMPDEST PUSH1 0x40 MLOAD DUP1 SWAP2 SUB SWAP1 RETURN JUMPDEST CALLVALUE DUP1 ISZERO PUSH2 0x118 JUMPI PUSH0 PUSH0 REVERT JUMPDEST POP PUSH2 0x133 PUSH1 0x4 DUP1 CALLDATASIZE SUB DUP2 ADD SWAP1 PUSH2 0x12E SWAP2 SWAP1 PUSH2 0x1133 JUMP JUMPDEST PUSH2 0x62D JUMP JUMPDEST PUSH1 0x40 MLOAD PUSH2 0x140 SWAP2 SWAP1 PUSH2 0x116D JUMP JUMPDEST PUSH1 0x40 MLOAD DUP1 SWAP2 SUB SWAP1 RETURN JUMPDEST CALLVALUE DUP1 ISZERO PUSH2 0x154 JUMPI PUSH0 PUSH0 REVERT JUMPDEST POP PUSH2 0x16F PUSH1 0x4 DUP1 CALLDATASIZE SUB DUP2 ADD SWAP1 PUSH2 0x16A SWAP2 SWAP1 PUSH2 0x1133 JUMP JUMPDEST PUSH2 0x745 JUMP JUMPDEST STOP JUMPDEST CALLVALUE DUP1 ISZERO PUSH2 0x17C JUMPI PUSH0 PUSH0 REVERT JUMPDEST POP PUSH2 0x197 PUSH1 0x4 DUP1 CALLDATASIZE SUB DUP2 ADD SWAP1 PUSH2 0x192 SWAP2 SWAP1 PUSH2 0x1133 JUMP JUMPDEST PUSH2 0x954 JUMP JUMPDEST PUSH1 0x40 MLOAD PUSH2 0x1A4 SWAP2 SWAP1 PUSH2 0x11CE JUMP JUMPDEST PUSH1 0x40 MLOAD DUP1 SWAP2 SUB SWAP1 RETURN JUMPDEST CALLVALUE DUP1 ISZERO PUSH2 0x1B8 JUMPI PUSH0 PUSH0 REVERT JUMPDEST POP PUSH2 0x1D3 PUSH1 0x4 DUP1 CALLDATASIZE SUB DUP2 ADD SWAP1 PUSH2 0x1CE SWAP2 SWAP1 PUSH2 0x1133 JUMP JUMPDEST PUSH2 0xA70 JUMP JUMPDEST PUSH1 0x40 MLOAD PUSH2 0x1E0 SWAP2 SWAP1 PUSH2 0x11FD JUMP JUMPDEST PUSH1 0x40 MLOAD DUP1 SWAP2 SUB SWAP1 RETURN JUMPDEST PUSH2 0x203 PUSH1 0x4 DUP1 CALLDATASIZE SUB DUP2 ADD SWAP1 PUSH2 0x1FE SWAP2 SWAP1 PUSH2 0x1133 JUMP JUMPDEST PUSH2 0xB46 JUMP JUMPDEST STOP JUMPDEST PUSH1 0x2 PUSH0 SWAP1 SLOAD SWAP1 PUSH2 0x100 EXP SWAP1 DIV PUSH20 0xFFFFFFFFFFFFFFFFFFFFFFFFFFFFFFFFFFFFFFFF AND PUSH20 0xFFFFFFFFFFFFFFFFFFFFFFFFFFFFFFFFFFFFFFFF AND CALLER PUSH20 0xFFFFFFFFFFFFFFFFFFFFFFFFFFFFFFFFFFFFFFFF AND EQ PUSH2 0x294 JUMPI PUSH1 0x40 MLOAD PUSH32 0x8C379A000000000000000000000000000000000000000000000000000000000 DUP2 MSTORE PUSH1 0x4 ADD PUSH2 0x28B SWAP1 PUSH2 0x1260 JUMP JUMPDEST PUSH1 0x40 MLOAD DUP1 SWAP2 SUB SWAP1 REVERT JUMPDEST PUSH0 DUP3 DUP3 PUSH1 0x40 MLOAD PUSH2 0x2A3 SWAP1 PUSH2 0xCEB JUMP JUMPDEST PUSH2 0x2AE SWAP3 SWAP2 SWAP1 PUSH2 0x127E JUMP JUMPDEST PUSH1 0x40 MLOAD DUP1 SWAP2 SUB SWAP1 PUSH0 CREATE DUP1 ISZERO DUP1 ISZERO PUSH2 0x2C7 JUMPI RETURNDATASIZE PUSH0 PUSH0 RETURNDATACOPY RETURNDATASIZE PUSH0 REVERT JUMPDEST POP SWAP1 POP PUSH1 0x1 DUP2 SWAP1 DUP1 PUSH1 0x1 DUP2 SLOAD ADD DUP1 DUP3 SSTORE DUP1 SWAP2 POP POP PUSH1 0x1 SWAP1 SUB SWAP1 PUSH0 MSTORE PUSH1 0x20 PUSH0 KECCAK256 ADD PUSH0 SWAP1 SWAP2 SWAP1 SWAP2 SWAP1 SWAP2 PUSH2 0x100 EXP DUP2 SLOAD DUP2 PUSH20 0xFFFFFFFFFFFFFFFFFFFFFFFFFFFFFFFFFFFFFFFF MUL NOT AND SWAP1 DUP4 PUSH20 0xFFFFFFFFFFFFFFFFFFFFFFFFFFFFFFFFFFFFFFFF AND MUL OR SWAP1 SSTORE POP DUP1 PUSH0 PUSH0 DUP4 PUSH20 0xFFFFFFFFFFFFFFFFFFFFFFFFFFFFFFFFFFFFFFFF AND PUSH20 0xFFFFFFFFFFFFFFFFFFFFFFFFFFFFFFFFFFFFFFFF AND DUP2 MSTORE PUSH1 0x20 ADD SWAP1 DUP2 MSTORE PUSH1 0x20 ADD PUSH0 KECCAK256 PUSH0 PUSH2 0x100 EXP DUP2 SLOAD DUP2 PUSH20 0xFFFFFFFFFFFFFFFFFFFFFFFFFFFFFFFFFFFFFFFF MUL NOT AND SWAP1 DUP4 PUSH20 0xFFFFFFFFFFFFFFFFFFFFFFFFFFFFFFFFFFFFFFFF AND MUL OR SWAP1 SSTORE POP POP POP POP JUMP JUMPDEST PUSH1 0x60 DUP1 PUSH0 PUSH1 0x1 DUP1 SLOAD SWAP1 POP PUSH8 0xFFFFFFFFFFFFFFFF DUP2 GT ISZERO PUSH2 0x3CC JUMPI PUSH2 0x3CB PUSH2 0xD54 JUMP JUMPDEST JUMPDEST PUSH1 0x40 MLOAD SWAP1 DUP1 DUP3 MSTORE DUP1 PUSH1 0x20 MUL PUSH1 0x20 ADD DUP3 ADD PUSH1 0x40 MSTORE DUP1 ISZERO PUSH2 0x3FF JUMPI DUP2 PUSH1 0x20 ADD JUMPDEST PUSH1 0x60 DUP2 MSTORE PUSH1 0x20 ADD SWAP1 PUSH1 0x1 SWAP1 SUB SWAP1 DUP2 PUSH2 0x3EA JUMPI SWAP1 POP JUMPDEST POP SWAP1 POP PUSH0 PUSH0 SWAP1 POP JUMPDEST PUSH1 0x1 DUP1 SLOAD SWAP1 POP DUP2 LT ISZERO PUSH2 0x483 JUMPI PUSH2 0x458 PUSH1 0x1 DUP3 DUP2 SLOAD DUP2 LT PUSH2 0x42B JUMPI PUSH2 0x42A PUSH2 0x12AC JUMP JUMPDEST JUMPDEST SWAP1 PUSH0 MSTORE PUSH1 0x20 PUSH0 KECCAK256 ADD PUSH0 SWAP1 SLOAD SWAP1 PUSH2 0x100 EXP SWAP1 DIV PUSH20 0xFFFFFFFFFFFFFFFFFFFFFFFFFFFFFFFFFFFFFFFF AND PUSH2 0x954 JUMP JUMPDEST DUP3 DUP3 DUP2 MLOAD DUP2 LT PUSH2 0x46B JUMPI PUSH2 0x46A PUSH2 0x12AC JUMP JUMPDEST JUMPDEST PUSH1 0x20 MUL PUSH1 0x20 ADD ADD DUP2 SWAP1 MSTORE POP DUP1 DUP1 PUSH1 0x1 ADD SWAP2 POP POP PUSH2 0x407 JUMP JUMPDEST POP PUSH1 0x1 DUP2 DUP2 DUP1 SLOAD DUP1 PUSH1 0x20 MUL PUSH1 0x20 ADD PUSH1 0x40 MLOAD SWAP1 DUP2 ADD PUSH1 0x40 MSTORE DUP1 SWAP3 SWAP2 SWAP1 DUP2 DUP2 MSTORE PUSH1 0x20 ADD DUP3 DUP1 SLOAD DUP1 ISZERO PUSH2 0x505 JUMPI PUSH1 0x20 MUL DUP3 ADD SWAP2 SWAP1 PUSH0 MSTORE PUSH1 0x20 PUSH0 KECCAK256 SWAP1 JUMPDEST DUP2 PUSH0 SWAP1 SLOAD SWAP1 PUSH2 0x100 EXP SWAP1 DIV PUSH20 0xFFFFFFFFFFFFFFFFFFFFFFFFFFFFFFFFFFFFFFFF AND PUSH20 0xFFFFFFFFFFFFFFFFFFFFFFFFFFFFFFFFFFFFFFFF AND DUP2 MSTORE PUSH1 0x20 ADD SWAP1 PUSH1 0x1 ADD SWAP1 DUP1 DUP4 GT PUSH2 0x4BC JUMPI JUMPDEST POP POP POP POP POP SWAP2 POP SWAP3 POP SWAP3 POP POP SWAP1 SWAP2 JUMP JUMPDEST PUSH0 PUSH2 0x51F DUP3 PUSH2 0xC49 JUMP JUMPDEST PUSH2 0x55E JUMPI PUSH1 0x40 MLOAD PUSH32 0x8C379A000000000000000000000000000000000000000000000000000000000 DUP2 MSTORE PUSH1 0x4 ADD PUSH2 0x555 SWAP1 PUSH2 0x1323 JUMP JUMPDEST PUSH1 0x40 MLOAD DUP1 SWAP2 SUB SWAP1 REVERT JUMPDEST PUSH0 PUSH0 DUP4 PUSH20 0xFFFFFFFFFFFFFFFFFFFFFFFFFFFFFFFFFFFFFFFF AND PUSH20 0xFFFFFFFFFFFFFFFFFFFFFFFFFFFFFFFFFFFFFFFF AND DUP2 MSTORE PUSH1 0x20 ADD SWAP1 DUP2 MSTORE PUSH1 0x20 ADD PUSH0 KECCAK256 PUSH0 SWAP1 SLOAD SWAP1 PUSH2 0x100 EXP SWAP1 DIV PUSH20 0xFFFFFFFFFFFFFFFFFFFFFFFFFFFFFFFFFFFFFFFF AND PUSH20 0xFFFFFFFFFFFFFFFFFFFFFFFFFFFFFFFFFFFFFFFF AND PUSH4 0x55E5AE04 PUSH1 0x40 MLOAD DUP2 PUSH4 0xFFFFFFFF AND PUSH1 0xE0 SHL DUP2 MSTORE PUSH1 0x4 ADD PUSH1 0x20 PUSH1 0x40 MLOAD DUP1 DUP4 SUB DUP2 DUP7 GAS STATICCALL ISZERO DUP1 ISZERO PUSH2 0x602 JUMPI RETURNDATASIZE PUSH0 PUSH0 RETURNDATACOPY RETURNDATASIZE PUSH0 REVERT JUMPDEST POP POP POP POP PUSH1 0x40 MLOAD RETURNDATASIZE PUSH1 0x1F NOT PUSH1 0x1F DUP3 ADD AND DUP3 ADD DUP1 PUSH1 0x40 MSTORE POP DUP2 ADD SWAP1 PUSH2 0x626 SWAP2 SWAP1 PUSH2 0x1355 JUMP JUMPDEST SWAP1 POP SWAP2 SWAP1 POP JUMP JUMPDEST PUSH0 PUSH2 0x637 DUP3 PUSH2 0xC49 JUMP JUMPDEST PUSH2 0x676 JUMPI PUSH1 0x40 MLOAD PUSH32 0x8C379A000000000000000000000000000000000000000000000000000000000 DUP2 MSTORE PUSH1 0x4 ADD PUSH2 0x66D SWAP1 PUSH2 0x1323 JUMP JUMPDEST PUSH1 0x40 MLOAD DUP1 SWAP2 SUB SWAP1 REVERT JUMPDEST PUSH0 PUSH0 DUP4 PUSH20 0xFFFFFFFFFFFFFFFFFFFFFFFFFFFFFFFFFFFFFFFF AND PUSH20 0xFFFFFFFFFFFFFFFFFFFFFFFFFFFFFFFFFFFFFFFF AND DUP2 MSTORE PUSH1 0x20 ADD SWAP1 DUP2 MSTORE PUSH1 0x20 ADD PUSH0 KECCAK256 PUSH0 SWAP1 SLOAD SWAP1 PUSH2 0x100 EXP SWAP1 DIV PUSH20 0xFFFFFFFFFFFFFFFFFFFFFFFFFFFFFFFFFFFFFFFF AND PUSH20 0xFFFFFFFFFFFFFFFFFFFFFFFFFFFFFFFFFFFFFFFF AND PUSH4 0x98D5FDCA PUSH1 0x40 MLOAD DUP2 PUSH4 0xFFFFFFFF AND PUSH1 0xE0 SHL DUP2 MSTORE PUSH1 0x4 ADD PUSH1 0x20 PUSH1 0x40 MLOAD DUP1 DUP4 SUB DUP2 DUP7 GAS STATICCALL ISZERO DUP1 ISZERO PUSH2 0x71A JUMPI RETURNDATASIZE PUSH0 PUSH0 RETURNDATACOPY RETURNDATASIZE PUSH0 REVERT JUMPDEST POP POP POP POP PUSH1 0x40 MLOAD RETURNDATASIZE PUSH1 0x1F NOT PUSH1 0x1F DUP3 ADD AND DUP3 ADD DUP1 PUSH1 0x40 MSTORE POP DUP2 ADD SWAP1 PUSH2 0x73E SWAP2 SWAP1 PUSH2 0x1355 JUMP JUMPDEST SWAP1 POP SWAP2 SWAP1 POP JUMP JUMPDEST PUSH1 0x2 PUSH0 SWAP1 SLOAD SWAP1 PUSH2 0x100 EXP SWAP1 DIV PUSH20 0xFFFFFFFFFFFFFFFFFFFFFFFFFFFFFFFFFFFFFFFF AND PUSH20 0xFFFFFFFFFFFFFFFFFFFFFFFFFFFFFFFFFFFFFFFF AND CALLER PUSH20 0xFFFFFFFFFFFFFFFFFFFFFFFFFFFFFFFFFFFFFFFF AND EQ PUSH2 0x7D4 JUMPI PUSH1 0x40 MLOAD PUSH32 0x8C379A000000000000000000000000000000000000000000000000000000000 DUP2 MSTORE PUSH1 0x4 ADD PUSH2 0x7CB SWAP1 PUSH2 0x13F0 JUMP JUMPDEST PUSH1 0x40 MLOAD DUP1 SWAP2 SUB SWAP1 REVERT JUMPDEST PUSH0 PUSH0 SWAP1 POP JUMPDEST PUSH1 0x1 DUP1 SLOAD SWAP1 POP DUP2 LT ISZERO PUSH2 0x94F JUMPI DUP2 PUSH20 0xFFFFFFFFFFFFFFFFFFFFFFFFFFFFFFFFFFFFFFFF AND PUSH1 0x1 DUP3 DUP2 SLOAD DUP2 LT PUSH2 0x811 JUMPI PUSH2 0x810 PUSH2 0x12AC JUMP JUMPDEST JUMPDEST SWAP1 PUSH0 MSTORE PUSH1 0x20 PUSH0 KECCAK256 ADD PUSH0 SWAP1 SLOAD SWAP1 PUSH2 0x100 EXP SWAP1 DIV PUSH20 0xFFFFFFFFFFFFFFFFFFFFFFFFFFFFFFFFFFFFFFFF AND PUSH20 0xFFFFFFFFFFFFFFFFFFFFFFFFFFFFFFFFFFFFFFFF AND SUB PUSH2 0x942 JUMPI PUSH1 0x1 DUP1 DUP1 DUP1 SLOAD SWAP1 POP PUSH2 0x866 SWAP2 SWAP1 PUSH2 0x143B JUMP JUMPDEST DUP2 SLOAD DUP2 LT PUSH2 0x877 JUMPI PUSH2 0x876 PUSH2 0x12AC JUMP JUMPDEST JUMPDEST SWAP1 PUSH0 MSTORE PUSH1 0x20 PUSH0 KECCAK256 ADD PUSH0 SWAP1 SLOAD SWAP1 PUSH2 0x100 EXP SWAP1 DIV PUSH20 0xFFFFFFFFFFFFFFFFFFFFFFFFFFFFFFFFFFFFFFFF AND PUSH1 0x1 DUP3 DUP2 SLOAD DUP2 LT PUSH2 0x8B3 JUMPI PUSH2 0x8B2 PUSH2 0x12AC JUMP JUMPDEST JUMPDEST SWAP1 PUSH0 MSTORE PUSH1 0x20 PUSH0 KECCAK256 ADD PUSH0 PUSH2 0x100 EXP DUP2 SLOAD DUP2 PUSH20 0xFFFFFFFFFFFFFFFFFFFFFFFFFFFFFFFFFFFFFFFF MUL NOT AND SWAP1 DUP4 PUSH20 0xFFFFFFFFFFFFFFFFFFFFFFFFFFFFFFFFFFFFFFFF AND MUL OR SWAP1 SSTORE POP PUSH1 0x1 DUP1 SLOAD DUP1 PUSH2 0x90A JUMPI PUSH2 0x909 PUSH2 0x146E JUMP JUMPDEST JUMPDEST PUSH1 0x1 SWAP1 SUB DUP2 DUP2 SWAP1 PUSH0 MSTORE PUSH1 0x20 PUSH0 KECCAK256 ADD PUSH0 PUSH2 0x100 EXP DUP2 SLOAD SWAP1 PUSH20 0xFFFFFFFFFFFFFFFFFFFFFFFFFFFFFFFFFFFFFFFF MUL NOT AND SWAP1 SSTORE SWAP1 SSTORE POP PUSH2 0x951 JUMP JUMPDEST DUP1 DUP1 PUSH1 0x1 ADD SWAP2 POP POP PUSH2 0x7D9 JUMP JUMPDEST POP JUMPDEST POP JUMP JUMPDEST PUSH1 0x60 PUSH2 0x95F DUP3 PUSH2 0xC49 JUMP JUMPDEST PUSH2 0x99E JUMPI PUSH1 0x40 MLOAD PUSH32 0x8C379A000000000000000000000000000000000000000000000000000000000 DUP2 MSTORE PUSH1 0x4 ADD PUSH2 0x995 SWAP1 PUSH2 0x1323 JUMP JUMPDEST PUSH1 0x40 MLOAD DUP1 SWAP2 SUB SWAP1 REVERT JUMPDEST PUSH0 PUSH0 DUP4 PUSH20 0xFFFFFFFFFFFFFFFFFFFFFFFFFFFFFFFFFFFFFFFF AND PUSH20 0xFFFFFFFFFFFFFFFFFFFFFFFFFFFFFFFFFFFFFFFF AND DUP2 MSTORE PUSH1 0x20 ADD SWAP1 DUP2 MSTORE PUSH1 0x20 ADD PUSH0 KECCAK256 PUSH0 SWAP1 SLOAD SWAP1 PUSH2 0x100 EXP SWAP1 DIV PUSH20 0xFFFFFFFFFFFFFFFFFFFFFFFFFFFFFFFFFFFFFFFF AND PUSH20 0xFFFFFFFFFFFFFFFFFFFFFFFFFFFFFFFFFFFFFFFF AND PUSH4 0x17D7DE7C PUSH1 0x40 MLOAD DUP2 PUSH4 0xFFFFFFFF AND PUSH1 0xE0 SHL DUP2 MSTORE PUSH1 0x4 ADD PUSH0 PUSH1 0x40 MLOAD DUP1 DUP4 SUB DUP2 DUP7 GAS STATICCALL ISZERO DUP1 ISZERO PUSH2 0xA41 JUMPI RETURNDATASIZE PUSH0 PUSH0 RETURNDATACOPY RETURNDATASIZE PUSH0 REVERT JUMPDEST POP POP POP POP PUSH1 0x40 MLOAD RETURNDATASIZE PUSH0 DUP3 RETURNDATACOPY RETURNDATASIZE PUSH1 0x1F NOT PUSH1 0x1F DUP3 ADD AND DUP3 ADD DUP1 PUSH1 0x40 MSTORE POP DUP2 ADD SWAP1 PUSH2 0xA69 SWAP2 SWAP1 PUSH2 0x1509 JUMP JUMPDEST SWAP1 POP SWAP2 SWAP1 POP JUMP JUMPDEST PUSH0 PUSH0 PUSH0 PUSH0 DUP5 PUSH20 0xFFFFFFFFFFFFFFFFFFFFFFFFFFFFFFFFFFFFFFFF AND PUSH20 0xFFFFFFFFFFFFFFFFFFFFFFFFFFFFFFFFFFFFFFFF AND DUP2 MSTORE PUSH1 0x20 ADD SWAP1 DUP2 MSTORE PUSH1 0x20 ADD PUSH0 KECCAK256 PUSH0 SWAP1 SLOAD SWAP1 PUSH2 0x100 EXP SWAP1 DIV PUSH20 0xFFFFFFFFFFFFFFFFFFFFFFFFFFFFFFFFFFFFFFFF AND PUSH20 0xFFFFFFFFFFFFFFFFFFFFFFFFFFFFFFFFFFFFFFFF AND PUSH4 0x1E62E202 PUSH1 0x40 MLOAD DUP2 PUSH4 0xFFFFFFFF AND PUSH1 0xE0 SHL DUP2 MSTORE PUSH1 0x4 ADD PUSH1 0x20 PUSH1 0x40 MLOAD DUP1 DUP4 SUB DUP2 PUSH0 DUP8 GAS CALL ISZERO DUP1 ISZERO PUSH2 0xB17 JUMPI RETURNDATASIZE PUSH0 PUSH0 RETURNDATACOPY RETURNDATASIZE PUSH0 REVERT JUMPDEST POP POP POP POP PUSH1 0x40 MLOAD RETURNDATASIZE PUSH1 0x1F NOT PUSH1 0x1F DUP3 ADD AND DUP3 ADD DUP1 PUSH1 0x40 MSTORE POP DUP2 ADD SWAP1 PUSH2 0xB3B SWAP2 SWAP1 PUSH2 0x1564 JUMP JUMPDEST SWAP1 POP DUP1 SWAP2 POP POP SWAP2 SWAP1 POP JUMP JUMPDEST PUSH2 0xB4F DUP2 PUSH2 0xC49 JUMP JUMPDEST PUSH2 0xB8E JUMPI PUSH1 0x40 MLOAD PUSH32 0x8C379A000000000000000000000000000000000000000000000000000000000 DUP2 MSTORE PUSH1 0x4 ADD PUSH2 0xB85 SWAP1 PUSH2 0x1323 JUMP JUMPDEST PUSH1 0x40 MLOAD DUP1 SWAP2 SUB SWAP1 REVERT JUMPDEST PUSH0 PUSH0 DUP3 PUSH20 0xFFFFFFFFFFFFFFFFFFFFFFFFFFFFFFFFFFFFFFFF AND PUSH20 0xFFFFFFFFFFFFFFFFFFFFFFFFFFFFFFFFFFFFFFFF AND DUP2 MSTORE PUSH1 0x20 ADD SWAP1 DUP2 MSTORE PUSH1 0x20 ADD PUSH0 KECCAK256 PUSH0 SWAP1 SLOAD SWAP1 PUSH2 0x100 EXP SWAP1 DIV PUSH20 0xFFFFFFFFFFFFFFFFFFFFFFFFFFFFFFFFFFFFFFFF AND PUSH20 0xFFFFFFFFFFFFFFFFFFFFFFFFFFFFFFFFFFFFFFFF AND PUSH4 0xD11711A2 CALLVALUE PUSH1 0x40 MLOAD DUP3 PUSH4 0xFFFFFFFF AND PUSH1 0xE0 SHL DUP2 MSTORE PUSH1 0x4 ADD PUSH0 PUSH1 0x40 MLOAD DUP1 DUP4 SUB DUP2 DUP6 DUP9 DUP1 EXTCODESIZE ISZERO DUP1 ISZERO PUSH2 0xC2F JUMPI PUSH0 PUSH0 REVERT JUMPDEST POP GAS CALL ISZERO DUP1 ISZERO PUSH2 0xC41 JUMPI RETURNDATASIZE PUSH0 PUSH0 RETURNDATACOPY RETURNDATASIZE PUSH0 REVERT JUMPDEST POP POP POP POP POP POP JUMP JUMPDEST PUSH0 PUSH0 PUSH0 SWAP1 POP JUMPDEST PUSH1 0x1 DUP1 SLOAD SWAP1 POP DUP2 LT ISZERO PUSH2 0xCE1 JUMPI DUP3 PUSH20 0xFFFFFFFFFFFFFFFFFFFFFFFFFFFFFFFFFFFFFFFF AND PUSH1 0x1 DUP3 DUP2 SLOAD DUP2 LT PUSH2 0xC87 JUMPI PUSH2 0xC86 PUSH2 0x12AC JUMP JUMPDEST JUMPDEST SWAP1 PUSH0 MSTORE PUSH1 0x20 PUSH0 KECCAK256 ADD PUSH0 SWAP1 SLOAD SWAP1 PUSH2 0x100 EXP SWAP1 DIV PUSH20 0xFFFFFFFFFFFFFFFFFFFFFFFFFFFFFFFFFFFFFFFF AND PUSH20 0xFFFFFFFFFFFFFFFFFFFFFFFFFFFFFFFFFFFFFFFF AND SUB PUSH2 0xCD4 JUMPI PUSH1 0x1 SWAP2 POP POP PUSH2 0xCE6 JUMP JUMPDEST DUP1 DUP1 PUSH1 0x1 ADD SWAP2 POP POP PUSH2 0xC4F JUMP JUMPDEST POP PUSH0 SWAP1 POP JUMPDEST SWAP2 SWAP1 POP JUMP JUMPDEST PUSH2 0x11AF DUP1 PUSH2 0x1590 DUP4 CODECOPY ADD SWAP1 JUMP JUMPDEST PUSH0 PUSH1 0x40 MLOAD SWAP1 POP SWAP1 JUMP JUMPDEST PUSH0 PUSH0 REVERT JUMPDEST PUSH0 PUSH0 REVERT JUMPDEST PUSH0 DUP2 SWAP1 POP SWAP2 SWAP1 POP JUMP JUMPDEST PUSH2 0xD1B DUP2 PUSH2 0xD09 JUMP JUMPDEST DUP2 EQ PUSH2 0xD25 JUMPI PUSH0 PUSH0 REVERT JUMPDEST POP JUMP JUMPDEST PUSH0 DUP2 CALLDATALOAD SWAP1 POP PUSH2 0xD36 DUP2 PUSH2 0xD12 JUMP JUMPDEST SWAP3 SWAP2 POP POP JUMP JUMPDEST PUSH0 PUSH0 REVERT JUMPDEST PUSH0 PUSH0 REVERT JUMPDEST PUSH0 PUSH1 0x1F NOT PUSH1 0x1F DUP4 ADD AND SWAP1 POP SWAP2 SWAP1 POP JUMP JUMPDEST PUSH32 0x4E487B7100000000000000000000000000000000000000000000000000000000 PUSH0 MSTORE PUSH1 0x41 PUSH1 0x4 MSTORE PUSH1 0x24 PUSH0 REVERT JUMPDEST PUSH2 0xD8A DUP3 PUSH2 0xD44 JUMP JUMPDEST DUP2 ADD DUP2 DUP2 LT PUSH8 0xFFFFFFFFFFFFFFFF DUP3 GT OR ISZERO PUSH2 0xDA9 JUMPI PUSH2 0xDA8 PUSH2 0xD54 JUMP JUMPDEST JUMPDEST DUP1 PUSH1 0x40 MSTORE POP POP POP JUMP JUMPDEST PUSH0 PUSH2 0xDBB PUSH2 0xCF8 JUMP JUMPDEST SWAP1 POP PUSH2 0xDC7 DUP3 DUP3 PUSH2 0xD81 JUMP JUMPDEST SWAP2 SWAP1 POP JUMP JUMPDEST PUSH0 PUSH8 0xFFFFFFFFFFFFFFFF DUP3 GT ISZERO PUSH2 0xDE6 JUMPI PUSH2 0xDE5 PUSH2 0xD54 JUMP JUMPDEST JUMPDEST PUSH2 0xDEF DUP3 PUSH2 0xD44 JUMP JUMPDEST SWAP1 POP PUSH1 0x20 DUP2 ADD SWAP1 POP SWAP2 SWAP1 POP JUMP JUMPDEST DUP3 DUP2 DUP4 CALLDATACOPY PUSH0 DUP4 DUP4 ADD MSTORE POP POP POP JUMP JUMPDEST PUSH0 PUSH2 0xE1C PUSH2 0xE17 DUP5 PUSH2 0xDCC JUMP JUMPDEST PUSH2 0xDB2 JUMP JUMPDEST SWAP1 POP DUP3 DUP2 MSTORE PUSH1 0x20 DUP2 ADD DUP5 DUP5 DUP5 ADD GT ISZERO PUSH2 0xE38 JUMPI PUSH2 0xE37 PUSH2 0xD40 JUMP JUMPDEST JUMPDEST PUSH2 0xE43 DUP5 DUP3 DUP6 PUSH2 0xDFC JUMP JUMPDEST POP SWAP4 SWAP3 POP POP POP JUMP JUMPDEST PUSH0 DUP3 PUSH1 0x1F DUP4 ADD SLT PUSH2 0xE5F JUMPI PUSH2 0xE5E PUSH2 0xD3C JUMP JUMPDEST JUMPDEST DUP2 CALLDATALOAD PUSH2 0xE6F DUP5 DUP3 PUSH1 0x20 DUP7 ADD PUSH2 0xE0A JUMP JUMPDEST SWAP2 POP POP SWAP3 SWAP2 POP POP JUMP JUMPDEST PUSH0 PUSH0 PUSH1 0x40 DUP4 DUP6 SUB SLT ISZERO PUSH2 0xE8E JUMPI PUSH2 0xE8D PUSH2 0xD01 JUMP JUMPDEST JUMPDEST PUSH0 PUSH2 0xE9B DUP6 DUP3 DUP7 ADD PUSH2 0xD28 JUMP JUMPDEST SWAP3 POP POP PUSH1 0x20 DUP4 ADD CALLDATALOAD PUSH8 0xFFFFFFFFFFFFFFFF DUP2 GT ISZERO PUSH2 0xEBC JUMPI PUSH2 0xEBB PUSH2 0xD05 JUMP JUMPDEST JUMPDEST PUSH2 0xEC8 DUP6 DUP3 DUP7 ADD PUSH2 0xE4B JUMP JUMPDEST SWAP2 POP POP SWAP3 POP SWAP3 SWAP1 POP JUMP JUMPDEST PUSH0 DUP2 MLOAD SWAP1 POP SWAP2 SWAP1 POP JUMP JUMPDEST PUSH0 DUP3 DUP3 MSTORE PUSH1 0x20 DUP3 ADD SWAP1 POP SWAP3 SWAP2 POP POP JUMP JUMPDEST PUSH0 DUP2 SWAP1 POP PUSH1 0x20 DUP3 ADD SWAP1 POP SWAP2 SWAP1 POP JUMP JUMPDEST PUSH0 PUSH20 0xFFFFFFFFFFFFFFFFFFFFFFFFFFFFFFFFFFFFFFFF DUP3 AND SWAP1 POP SWAP2 SWAP1 POP JUMP JUMPDEST PUSH0 PUSH2 0xF24 DUP3 PUSH2 0xEFB JUMP JUMPDEST SWAP1 POP SWAP2 SWAP1 POP JUMP JUMPDEST PUSH2 0xF34 DUP2 PUSH2 0xF1A JUMP JUMPDEST DUP3 MSTORE POP POP JUMP JUMPDEST PUSH0 PUSH2 0xF45 DUP4 DUP4 PUSH2 0xF2B JUMP JUMPDEST PUSH1 0x20 DUP4 ADD SWAP1 POP SWAP3 SWAP2 POP POP JUMP JUMPDEST PUSH0 PUSH1 0x20 DUP3 ADD SWAP1 POP SWAP2 SWAP1 POP JUMP JUMPDEST PUSH0 PUSH2 0xF67 DUP3 PUSH2 0xED2 JUMP JUMPDEST PUSH2 0xF71 DUP2 DUP6 PUSH2 0xEDC JUMP JUMPDEST SWAP4 POP PUSH2 0xF7C DUP4 PUSH2 0xEEC JUMP JUMPDEST DUP1 PUSH0 JUMPDEST DUP4 DUP2 LT ISZERO PUSH2 0xFAC JUMPI DUP2 MLOAD PUSH2 0xF93 DUP9 DUP3 PUSH2 0xF3A JUMP JUMPDEST SWAP8 POP PUSH2 0xF9E DUP4 PUSH2 0xF51 JUMP JUMPDEST SWAP3 POP POP PUSH1 0x1 DUP2 ADD SWAP1 POP PUSH2 0xF7F JUMP JUMPDEST POP DUP6 SWAP4 POP POP POP POP SWAP3 SWAP2 POP POP JUMP JUMPDEST PUSH0 DUP2 MLOAD SWAP1 POP SWAP2 SWAP1 POP JUMP JUMPDEST PUSH0 DUP3 DUP3 MSTORE PUSH1 0x20 DUP3 ADD SWAP1 POP SWAP3 SWAP2 POP POP JUMP JUMPDEST PUSH0 DUP2 SWAP1 POP PUSH1 0x20 DUP3 ADD SWAP1 POP SWAP2 SWAP1 POP JUMP JUMPDEST PUSH0 DUP2 MLOAD SWAP1 POP SWAP2 SWAP1 POP JUMP JUMPDEST PUSH0 DUP3 DUP3 MSTORE PUSH1 0x20 DUP3 ADD SWAP1 POP SWAP3 SWAP2 POP POP JUMP JUMPDEST DUP3 DUP2 DUP4 MCOPY PUSH0 DUP4 DUP4 ADD MSTORE POP POP POP JUMP JUMPDEST PUSH0 PUSH2 0x1014 DUP3 PUSH2 0xFE2 JUMP JUMPDEST PUSH2 0x101E DUP2 DUP6 PUSH2 0xFEC JUMP JUMPDEST SWAP4 POP PUSH2 0x102E DUP2 DUP6 PUSH1 0x20 DUP7 ADD PUSH2 0xFFC JUMP JUMPDEST PUSH2 0x1037 DUP2 PUSH2 0xD44 JUMP JUMPDEST DUP5 ADD SWAP2 POP POP SWAP3 SWAP2 POP POP JUMP JUMPDEST PUSH0 PUSH2 0x104D DUP4 DUP4 PUSH2 0x100A JUMP JUMPDEST SWAP1 POP SWAP3 SWAP2 POP POP JUMP JUMPDEST PUSH0 PUSH1 0x20 DUP3 ADD SWAP1 POP SWAP2 SWAP1 POP JUMP JUMPDEST PUSH0 PUSH2 0x106B DUP3 PUSH2 0xFB9 JUMP JUMPDEST PUSH2 0x1075 DUP2 DUP6 PUSH2 0xFC3 JUMP JUMPDEST SWAP4 POP DUP4 PUSH1 0x20 DUP3 MUL DUP6 ADD PUSH2 0x1087 DUP6 PUSH2 0xFD3 JUMP JUMPDEST DUP1 PUSH0 JUMPDEST DUP6 DUP2 LT ISZERO PUSH2 0x10C2 JUMPI DUP5 DUP5 SUB DUP10 MSTORE DUP2 MLOAD PUSH2 0x10A3 DUP6 DUP3 PUSH2 0x1042 JUMP JUMPDEST SWAP5 POP PUSH2 0x10AE DUP4 PUSH2 0x1055 JUMP JUMPDEST SWAP3 POP PUSH1 0x20 DUP11 ADD SWAP10 POP POP PUSH1 0x1 DUP2 ADD SWAP1 POP PUSH2 0x108A JUMP JUMPDEST POP DUP3 SWAP8 POP DUP8 SWAP6 POP POP POP POP POP POP SWAP3 SWAP2 POP POP JUMP JUMPDEST PUSH0 PUSH1 0x40 DUP3 ADD SWAP1 POP DUP2 DUP2 SUB PUSH0 DUP4 ADD MSTORE PUSH2 0x10EC DUP2 DUP6 PUSH2 0xF5D JUMP JUMPDEST SWAP1 POP DUP2 DUP2 SUB PUSH1 0x20 DUP4 ADD MSTORE PUSH2 0x1100 DUP2 DUP5 PUSH2 0x1061 JUMP JUMPDEST SWAP1 POP SWAP4 SWAP3 POP POP POP JUMP JUMPDEST PUSH2 0x1112 DUP2 PUSH2 0xF1A JUMP JUMPDEST DUP2 EQ PUSH2 0x111C JUMPI PUSH0 PUSH0 REVERT JUMPDEST POP JUMP JUMPDEST PUSH0 DUP2 CALLDATALOAD SWAP1 POP PUSH2 0x112D DUP2 PUSH2 0x1109 JUMP JUMPDEST SWAP3 SWAP2 POP POP JUMP JUMPDEST PUSH0 PUSH1 0x20 DUP3 DUP5 SUB SLT ISZERO PUSH2 0x1148 JUMPI PUSH2 0x1147 PUSH2 0xD01 JUMP JUMPDEST JUMPDEST PUSH0 PUSH2 0x1155 DUP5 DUP3 DUP6 ADD PUSH2 0x111F JUMP JUMPDEST SWAP2 POP POP SWAP3 SWAP2 POP POP JUMP JUMPDEST PUSH2 0x1167 DUP2 PUSH2 0xD09 JUMP JUMPDEST DUP3 MSTORE POP POP JUMP JUMPDEST PUSH0 PUSH1 0x20 DUP3 ADD SWAP1 POP PUSH2 0x1180 PUSH0 DUP4 ADD DUP5 PUSH2 0x115E JUMP JUMPDEST SWAP3 SWAP2 POP POP JUMP JUMPDEST PUSH0 DUP3 DUP3 MSTORE PUSH1 0x20 DUP3 ADD SWAP1 POP SWAP3 SWAP2 POP POP JUMP JUMPDEST PUSH0 PUSH2 0x11A0 DUP3 PUSH2 0xFE2 JUMP JUMPDEST PUSH2 0x11AA DUP2 DUP6 PUSH2 0x1186 JUMP JUMPDEST SWAP4 POP PUSH2 0x11BA DUP2 DUP6 PUSH1 0x20 DUP7 ADD PUSH2 0xFFC JUMP JUMPDEST PUSH2 0x11C3 DUP2 PUSH2 0xD44 JUMP JUMPDEST DUP5 ADD SWAP2 POP POP SWAP3 SWAP2 POP POP JUMP JUMPDEST PUSH0 PUSH1 0x20 DUP3 ADD SWAP1 POP DUP2 DUP2 SUB PUSH0 DUP4 ADD MSTORE PUSH2 0x11E6 DUP2 DUP5 PUSH2 0x1196 JUMP JUMPDEST SWAP1 POP SWAP3 SWAP2 POP POP JUMP JUMPDEST PUSH2 0x11F7 DUP2 PUSH2 0xF1A JUMP JUMPDEST DUP3 MSTORE POP POP JUMP JUMPDEST PUSH0 PUSH1 0x20 DUP3 ADD SWAP1 POP PUSH2 0x1210 PUSH0 DUP4 ADD DUP5 PUSH2 0x11EE JUMP JUMPDEST SWAP3 SWAP2 POP POP JUMP JUMPDEST PUSH32 0x4F6E6C7920746865206F776E65722063616E206164642061206C6F7474657279 PUSH0 DUP3 ADD MSTORE POP JUMP JUMPDEST PUSH0 PUSH2 0x124A PUSH1 0x20 DUP4 PUSH2 0x1186 JUMP JUMPDEST SWAP2 POP PUSH2 0x1255 DUP3 PUSH2 0x1216 JUMP JUMPDEST PUSH1 0x20 DUP3 ADD SWAP1 POP SWAP2 SWAP1 POP JUMP JUMPDEST PUSH0 PUSH1 0x20 DUP3 ADD SWAP1 POP DUP2 DUP2 SUB PUSH0 DUP4 ADD MSTORE PUSH2 0x1277 DUP2 PUSH2 0x123E JUMP JUMPDEST SWAP1 POP SWAP2 SWAP1 POP JUMP JUMPDEST PUSH0 PUSH1 0x40 DUP3 ADD SWAP1 POP PUSH2 0x1291 PUSH0 DUP4 ADD DUP6 PUSH2 0x115E JUMP JUMPDEST DUP2 DUP2 SUB PUSH1 0x20 DUP4 ADD MSTORE PUSH2 0x12A3 DUP2 DUP5 PUSH2 0x1196 JUMP JUMPDEST SWAP1 POP SWAP4 SWAP3 POP POP POP JUMP JUMPDEST PUSH32 0x4E487B7100000000000000000000000000000000000000000000000000000000 PUSH0 MSTORE PUSH1 0x32 PUSH1 0x4 MSTORE PUSH1 0x24 PUSH0 REVERT JUMPDEST PUSH32 0x4C6F746572696520646F65736E27742065786973740000000000000000000000 PUSH0 DUP3 ADD MSTORE POP JUMP JUMPDEST PUSH0 PUSH2 0x130D PUSH1 0x15 DUP4 PUSH2 0x1186 JUMP JUMPDEST SWAP2 POP PUSH2 0x1318 DUP3 PUSH2 0x12D9 JUMP JUMPDEST PUSH1 0x20 DUP3 ADD SWAP1 POP SWAP2 SWAP1 POP JUMP JUMPDEST PUSH0 PUSH1 0x20 DUP3 ADD SWAP1 POP DUP2 DUP2 SUB PUSH0 DUP4 ADD MSTORE PUSH2 0x133A DUP2 PUSH2 0x1301 JUMP JUMPDEST SWAP1 POP SWAP2 SWAP1 POP JUMP JUMPDEST PUSH0 DUP2 MLOAD SWAP1 POP PUSH2 0x134F DUP2 PUSH2 0xD12 JUMP JUMPDEST SWAP3 SWAP2 POP POP JUMP JUMPDEST PUSH0 PUSH1 0x20 DUP3 DUP5 SUB SLT ISZERO PUSH2 0x136A JUMPI PUSH2 0x1369 PUSH2 0xD01 JUMP JUMPDEST JUMPDEST PUSH0 PUSH2 0x1377 DUP5 DUP3 DUP6 ADD PUSH2 0x1341 JUMP JUMPDEST SWAP2 POP POP SWAP3 SWAP2 POP POP JUMP JUMPDEST PUSH32 0x4F6E6C7920746865206F776E65722063616E2072656D6F76652061206C6F7474 PUSH0 DUP3 ADD MSTORE PUSH32 0x6572790000000000000000000000000000000000000000000000000000000000 PUSH1 0x20 DUP3 ADD MSTORE POP JUMP JUMPDEST PUSH0 PUSH2 0x13DA PUSH1 0x23 DUP4 PUSH2 0x1186 JUMP JUMPDEST SWAP2 POP PUSH2 0x13E5 DUP3 PUSH2 0x1380 JUMP JUMPDEST PUSH1 0x40 DUP3 ADD SWAP1 POP SWAP2 SWAP1 POP JUMP JUMPDEST PUSH0 PUSH1 0x20 DUP3 ADD SWAP1 POP DUP2 DUP2 SUB PUSH0 DUP4 ADD MSTORE PUSH2 0x1407 DUP2 PUSH2 0x13CE JUMP JUMPDEST SWAP1 POP SWAP2 SWAP1 POP JUMP JUMPDEST PUSH32 0x4E487B7100000000000000000000000000000000000000000000000000000000 PUSH0 MSTORE PUSH1 0x11 PUSH1 0x4 MSTORE PUSH1 0x24 PUSH0 REVERT JUMPDEST PUSH0 PUSH2 0x1445 DUP3 PUSH2 0xD09 JUMP JUMPDEST SWAP2 POP PUSH2 0x1450 DUP4 PUSH2 0xD09 JUMP JUMPDEST SWAP3 POP DUP3 DUP3 SUB SWAP1 POP DUP2 DUP2 GT ISZERO PUSH2 0x1468 JUMPI PUSH2 0x1467 PUSH2 0x140E JUMP JUMPDEST JUMPDEST SWAP3 SWAP2 POP POP JUMP JUMPDEST PUSH32 0x4E487B7100000000000000000000000000000000000000000000000000000000 PUSH0 MSTORE PUSH1 0x31 PUSH1 0x4 MSTORE PUSH1 0x24 PUSH0 REVERT JUMPDEST PUSH0 PUSH2 0x14AD PUSH2 0x14A8 DUP5 PUSH2 0xDCC JUMP JUMPDEST PUSH2 0xDB2 JUMP JUMPDEST SWAP1 POP DUP3 DUP2 MSTORE PUSH1 0x20 DUP2 ADD DUP5 DUP5 DUP5 ADD GT ISZERO PUSH2 0x14C9 JUMPI PUSH2 0x14C8 PUSH2 0xD40 JUMP JUMPDEST JUMPDEST PUSH2 0x14D4 DUP5 DUP3 DUP6 PUSH2 0xFFC JUMP JUMPDEST POP SWAP4 SWAP3 POP POP POP JUMP JUMPDEST PUSH0 DUP3 PUSH1 0x1F DUP4 ADD SLT PUSH2 0x14F0 JUMPI PUSH2 0x14EF PUSH2 0xD3C JUMP JUMPDEST JUMPDEST DUP2 MLOAD PUSH2 0x1500 DUP5 DUP3 PUSH1 0x20 DUP7 ADD PUSH2 0x149B JUMP JUMPDEST SWAP2 POP POP SWAP3 SWAP2 POP POP JUMP JUMPDEST PUSH0 PUSH1 0x20 DUP3 DUP5 SUB SLT ISZERO PUSH2 0x151E JUMPI PUSH2 0x151D PUSH2 0xD01 JUMP JUMPDEST JUMPDEST PUSH0 DUP3 ADD MLOAD PUSH8 0xFFFFFFFFFFFFFFFF DUP2 GT ISZERO PUSH2 0x153B JUMPI PUSH2 0x153A PUSH2 0xD05 JUMP JUMPDEST JUMPDEST PUSH2 0x1547 DUP5 DUP3 DUP6 ADD PUSH2 0x14DC JUMP JUMPDEST SWAP2 POP POP SWAP3 SWAP2 POP POP JUMP JUMPDEST PUSH0 DUP2 MLOAD SWAP1 POP PUSH2 0x155E DUP2 PUSH2 0x1109 JUMP JUMPDEST SWAP3 SWAP2 POP POP JUMP JUMPDEST PUSH0 PUSH1 0x20 DUP3 DUP5 SUB SLT ISZERO PUSH2 0x1579 JUMPI PUSH2 0x1578 PUSH2 0xD01 JUMP JUMPDEST JUMPDEST PUSH0 PUSH2 0x1586 DUP5 DUP3 DUP6 ADD PUSH2 0x1550 JUMP JUMPDEST SWAP2 POP POP SWAP3 SWAP2 POP POP JUMP INVALID PUSH1 0x80 PUSH1 0x40 MSTORE CALLVALUE DUP1 ISZERO PUSH2 0xF JUMPI PUSH0 PUSH0 REVERT JUMPDEST POP PUSH1 0x40 MLOAD PUSH2 0x11AF CODESIZE SUB DUP1 PUSH2 0x11AF DUP4 CODECOPY DUP2 DUP2 ADD PUSH1 0x40 MSTORE DUP2 ADD SWAP1 PUSH2 0x31 SWAP2 SWAP1 PUSH2 0x221 JUMP JUMPDEST ORIGIN PUSH1 0x4 PUSH0 PUSH2 0x100 EXP DUP2 SLOAD DUP2 PUSH20 0xFFFFFFFFFFFFFFFFFFFFFFFFFFFFFFFFFFFFFFFF MUL NOT AND SWAP1 DUP4 PUSH20 0xFFFFFFFFFFFFFFFFFFFFFFFFFFFFFFFFFFFFFFFF AND MUL OR SWAP1 SSTORE POP DUP1 PUSH1 0x2 SWAP1 DUP2 PUSH2 0x80 SWAP2 SWAP1 PUSH2 0x482 JUMP JUMPDEST POP PUSH7 0x2386F26FC10000 DUP3 PUSH2 0x94 SWAP2 SWAP1 PUSH2 0x57E JUMP JUMPDEST PUSH1 0x1 DUP2 SWAP1 SSTORE POP POP POP PUSH2 0x5BF JUMP JUMPDEST PUSH0 PUSH1 0x40 MLOAD SWAP1 POP SWAP1 JUMP JUMPDEST PUSH0 PUSH0 REVERT JUMPDEST PUSH0 PUSH0 REVERT JUMPDEST PUSH0 DUP2 SWAP1 POP SWAP2 SWAP1 POP JUMP JUMPDEST PUSH2 0xC4 DUP2 PUSH2 0xB2 JUMP JUMPDEST DUP2 EQ PUSH2 0xCE JUMPI PUSH0 PUSH0 REVERT JUMPDEST POP JUMP JUMPDEST PUSH0 DUP2 MLOAD SWAP1 POP PUSH2 0xDF DUP2 PUSH2 0xBB JUMP JUMPDEST SWAP3 SWAP2 POP POP JUMP JUMPDEST PUSH0 PUSH0 REVERT JUMPDEST PUSH0 PUSH0 REVERT JUMPDEST PUSH0 PUSH1 0x1F NOT PUSH1 0x1F DUP4 ADD AND SWAP1 POP SWAP2 SWAP1 POP JUMP JUMPDEST PUSH32 0x4E487B7100000000000000000000000000000000000000000000000000000000 PUSH0 MSTORE PUSH1 0x41 PUSH1 0x4 MSTORE PUSH1 0x24 PUSH0 REVERT JUMPDEST PUSH2 0x133 DUP3 PUSH2 0xED JUMP JUMPDEST DUP2 ADD DUP2 DUP2 LT PUSH8 0xFFFFFFFFFFFFFFFF DUP3 GT OR ISZERO PUSH2 0x152 JUMPI PUSH2 0x151 PUSH2 0xFD JUMP JUMPDEST JUMPDEST DUP1 PUSH1 0x40 MSTORE POP POP POP JUMP JUMPDEST PUSH0 PUSH2 0x164 PUSH2 0xA1 JUMP JUMPDEST SWAP1 POP PUSH2 0x170 DUP3 DUP3 PUSH2 0x12A JUMP JUMPDEST SWAP2 SWAP1 POP JUMP JUMPDEST PUSH0 PUSH8 0xFFFFFFFFFFFFFFFF DUP3 GT ISZERO PUSH2 0x18F JUMPI PUSH2 0x18E PUSH2 0xFD JUMP JUMPDEST JUMPDEST PUSH2 0x198 DUP3 PUSH2 0xED JUMP JUMPDEST SWAP1 POP PUSH1 0x20 DUP2 ADD SWAP1 POP SWAP2 SWAP1 POP JUMP JUMPDEST DUP3 DUP2 DUP4 MCOPY PUSH0 DUP4 DUP4 ADD MSTORE POP POP POP JUMP JUMPDEST PUSH0 PUSH2 0x1C5 PUSH2 0x1C0 DUP5 PUSH2 0x175 JUMP JUMPDEST PUSH2 0x15B JUMP JUMPDEST SWAP1 POP DUP3 DUP2 MSTORE PUSH1 0x20 DUP2 ADD DUP5 DUP5 DUP5 ADD GT ISZERO PUSH2 0x1E1 JUMPI PUSH2 0x1E0 PUSH2 0xE9 JUMP JUMPDEST JUMPDEST PUSH2 0x1EC DUP5 DUP3 DUP6 PUSH2 0x1A5 JUMP JUMPDEST POP SWAP4 SWAP3 POP POP POP JUMP JUMPDEST PUSH0 DUP3 PUSH1 0x1F DUP4 ADD SLT PUSH2 0x208 JUMPI PUSH2 0x207 PUSH2 0xE5 JUMP JUMPDEST JUMPDEST DUP2 MLOAD PUSH2 0x218 DUP5 DUP3 PUSH1 0x20 DUP7 ADD PUSH2 0x1B3 JUMP JUMPDEST SWAP2 POP POP SWAP3 SWAP2 POP POP JUMP JUMPDEST PUSH0 PUSH0 PUSH1 0x40 DUP4 DUP6 SUB SLT ISZERO PUSH2 0x237 JUMPI PUSH2 0x236 PUSH2 0xAA JUMP JUMPDEST JUMPDEST PUSH0 PUSH2 0x244 DUP6 DUP3 DUP7 ADD PUSH2 0xD1 JUMP JUMPDEST SWAP3 POP POP PUSH1 0x20 DUP4 ADD MLOAD PUSH8 0xFFFFFFFFFFFFFFFF DUP2 GT ISZERO PUSH2 0x265 JUMPI PUSH2 0x264 PUSH2 0xAE JUMP JUMPDEST JUMPDEST PUSH2 0x271 DUP6 DUP3 DUP7 ADD PUSH2 0x1F4 JUMP JUMPDEST SWAP2 POP POP SWAP3 POP SWAP3 SWAP1 POP JUMP JUMPDEST PUSH0 DUP2 MLOAD SWAP1 POP SWAP2 SWAP1 POP JUMP JUMPDEST PUSH32 0x4E487B7100000000000000000000000000000000000000000000000000000000 PUSH0 MSTORE PUSH1 0x22 PUSH1 0x4 MSTORE PUSH1 0x24 PUSH0 REVERT JUMPDEST PUSH0 PUSH1 0x2 DUP3 DIV SWAP1 POP PUSH1 0x1 DUP3 AND DUP1 PUSH2 0x2C9 JUMPI PUSH1 0x7F DUP3 AND SWAP2 POP JUMPDEST PUSH1 0x20 DUP3 LT DUP2 SUB PUSH2 0x2DC JUMPI PUSH2 0x2DB PUSH2 0x285 JUMP JUMPDEST JUMPDEST POP SWAP2 SWAP1 POP JUMP JUMPDEST PUSH0 DUP2 SWAP1 POP DUP2 PUSH0 MSTORE PUSH1 0x20 PUSH0 KECCAK256 SWAP1 POP SWAP2 SWAP1 POP JUMP JUMPDEST PUSH0 PUSH1 0x20 PUSH1 0x1F DUP4 ADD DIV SWAP1 POP SWAP2 SWAP1 POP JUMP JUMPDEST PUSH0 DUP3 DUP3 SHL SWAP1 POP SWAP3 SWAP2 POP POP JUMP JUMPDEST PUSH0 PUSH1 0x8 DUP4 MUL PUSH2 0x33E PUSH32 0xFFFFFFFFFFFFFFFFFFFFFFFFFFFFFFFFFFFFFFFFFFFFFFFFFFFFFFFFFFFFFFFF DUP3 PUSH2 0x303 JUMP JUMPDEST PUSH2 0x348 DUP7 DUP4 PUSH2 0x303 JUMP JUMPDEST SWAP6 POP DUP1 NOT DUP5 AND SWAP4 POP DUP1 DUP7 AND DUP5 OR SWAP3 POP POP POP SWAP4 SWAP3 POP POP POP JUMP JUMPDEST PUSH0 DUP2 SWAP1 POP SWAP2 SWAP1 POP JUMP JUMPDEST PUSH0 PUSH2 0x383 PUSH2 0x37E PUSH2 0x379 DUP5 PUSH2 0xB2 JUMP JUMPDEST PUSH2 0x360 JUMP JUMPDEST PUSH2 0xB2 JUMP JUMPDEST SWAP1 POP SWAP2 SWAP1 POP JUMP JUMPDEST PUSH0 DUP2 SWAP1 POP SWAP2 SWAP1 POP JUMP JUMPDEST PUSH2 0x39C DUP4 PUSH2 0x369 JUMP JUMPDEST PUSH2 0x3B0 PUSH2 0x3A8 DUP3 PUSH2 0x38A JUMP JUMPDEST DUP5 DUP5 SLOAD PUSH2 0x30F JUMP JUMPDEST DUP3 SSTORE POP POP POP POP JUMP JUMPDEST PUSH0 PUSH0 SWAP1 POP SWAP1 JUMP JUMPDEST PUSH2 0x3C7 PUSH2 0x3B8 JUMP JUMPDEST PUSH2 0x3D2 DUP2 DUP5 DUP5 PUSH2 0x393 JUMP JUMPDEST POP POP POP JUMP JUMPDEST JUMPDEST DUP2 DUP2 LT ISZERO PUSH2 0x3F5 JUMPI PUSH2 0x3EA PUSH0 DUP3 PUSH2 0x3BF JUMP JUMPDEST PUSH1 0x1 DUP2 ADD SWAP1 POP PUSH2 0x3D8 JUMP JUMPDEST POP POP JUMP JUMPDEST PUSH1 0x1F DUP3 GT ISZERO PUSH2 0x43A JUMPI PUSH2 0x40B DUP2 PUSH2 0x2E2 JUMP JUMPDEST PUSH2 0x414 DUP5 PUSH2 0x2F4 JUMP JUMPDEST DUP2 ADD PUSH1 0x20 DUP6 LT ISZERO PUSH2 0x423 JUMPI DUP2 SWAP1 POP JUMPDEST PUSH2 0x437 PUSH2 0x42F DUP6 PUSH2 0x2F4 JUMP JUMPDEST DUP4 ADD DUP3 PUSH2 0x3D7 JUMP JUMPDEST POP POP JUMPDEST POP POP POP JUMP JUMPDEST PUSH0 DUP3 DUP3 SHR SWAP1 POP SWAP3 SWAP2 POP POP JUMP JUMPDEST PUSH0 PUSH2 0x45A PUSH0 NOT DUP5 PUSH1 0x8 MUL PUSH2 0x43F JUMP JUMPDEST NOT DUP1 DUP4 AND SWAP2 POP POP SWAP3 SWAP2 POP POP JUMP JUMPDEST PUSH0 PUSH2 0x472 DUP4 DUP4 PUSH2 0x44B JUMP JUMPDEST SWAP2 POP DUP3 PUSH1 0x2 MUL DUP3 OR SWAP1 POP SWAP3 SWAP2 POP POP JUMP JUMPDEST PUSH2 0x48B DUP3 PUSH2 0x27B JUMP JUMPDEST PUSH8 0xFFFFFFFFFFFFFFFF DUP2 GT ISZERO PUSH2 0x4A4 JUMPI PUSH2 0x4A3 PUSH2 0xFD JUMP JUMPDEST JUMPDEST PUSH2 0x4AE DUP3 SLOAD PUSH2 0x2B2 JUMP JUMPDEST PUSH2 0x4B9 DUP3 DUP3 DUP6 PUSH2 0x3F9 JUMP JUMPDEST PUSH0 PUSH1 0x20 SWAP1 POP PUSH1 0x1F DUP4 GT PUSH1 0x1 DUP2 EQ PUSH2 0x4EA JUMPI PUSH0 DUP5 ISZERO PUSH2 0x4D8 JUMPI DUP3 DUP8 ADD MLOAD SWAP1 POP JUMPDEST PUSH2 0x4E2 DUP6 DUP3 PUSH2 0x467 JUMP JUMPDEST DUP7 SSTORE POP PUSH2 0x549 JUMP JUMPDEST PUSH1 0x1F NOT DUP5 AND PUSH2 0x4F8 DUP7 PUSH2 0x2E2 JUMP JUMPDEST PUSH0 JUMPDEST DUP3 DUP2 LT ISZERO PUSH2 0x51F JUMPI DUP5 DUP10 ADD MLOAD DUP3 SSTORE PUSH1 0x1 DUP3 ADD SWAP2 POP PUSH1 0x20 DUP6 ADD SWAP5 POP PUSH1 0x20 DUP2 ADD SWAP1 POP PUSH2 0x4FA JUMP JUMPDEST DUP7 DUP4 LT ISZERO PUSH2 0x53C JUMPI DUP5 DUP10 ADD MLOAD PUSH2 0x538 PUSH1 0x1F DUP10 AND DUP3 PUSH2 0x44B JUMP JUMPDEST DUP4 SSTORE POP JUMPDEST PUSH1 0x1 PUSH1 0x2 DUP9 MUL ADD DUP9 SSTORE POP POP POP JUMPDEST POP POP POP POP POP POP JUMP JUMPDEST PUSH32 0x4E487B7100000000000000000000000000000000000000000000000000000000 PUSH0 MSTORE PUSH1 0x11 PUSH1 0x4 MSTORE PUSH1 0x24 PUSH0 REVERT JUMPDEST PUSH0 PUSH2 0x588 DUP3 PUSH2 0xB2 JUMP JUMPDEST SWAP2 POP PUSH2 0x593 DUP4 PUSH2 0xB2 JUMP JUMPDEST SWAP3 POP DUP3 DUP3 MUL PUSH2 0x5A1 DUP2 PUSH2 0xB2 JUMP JUMPDEST SWAP2 POP DUP3 DUP3 DIV DUP5 EQ DUP4 ISZERO OR PUSH2 0x5B8 JUMPI PUSH2 0x5B7 PUSH2 0x551 JUMP JUMPDEST JUMPDEST POP SWAP3 SWAP2 POP POP JUMP JUMPDEST PUSH2 0xBE3 DUP1 PUSH2 0x5CC PUSH0 CODECOPY PUSH0 RETURN INVALID PUSH1 0x80 PUSH1 0x40 MSTORE PUSH1 0x4 CALLDATASIZE LT PUSH2 0x54 JUMPI PUSH0 CALLDATALOAD PUSH1 0xE0 SHR DUP1 PUSH4 0x17D7DE7C EQ PUSH2 0x58 JUMPI DUP1 PUSH4 0x1E62E202 EQ PUSH2 0x82 JUMPI DUP1 PUSH4 0x55E5AE04 EQ PUSH2 0xAC JUMPI DUP1 PUSH4 0x98D5FDCA EQ PUSH2 0xD6 JUMPI DUP1 PUSH4 0xA035B1FE EQ PUSH2 0x100 JUMPI DUP1 PUSH4 0xD11711A2 EQ PUSH2 0x12A JUMPI JUMPDEST PUSH0 PUSH0 REVERT JUMPDEST CALLVALUE DUP1 ISZERO PUSH2 0x63 JUMPI PUSH0 PUSH0 REVERT JUMPDEST POP PUSH2 0x6C PUSH2 0x134 JUMP JUMPDEST PUSH1 0x40 MLOAD PUSH2 0x79 SWAP2 SWAP1 PUSH2 0x668 JUMP JUMPDEST PUSH1 0x40 MLOAD DUP1 SWAP2 SUB SWAP1 RETURN JUMPDEST CALLVALUE DUP1 ISZERO PUSH2 0x8D JUMPI PUSH0 PUSH0 REVERT JUMPDEST POP PUSH2 0x96 PUSH2 0x1C4 JUMP JUMPDEST PUSH1 0x40 MLOAD PUSH2 0xA3 SWAP2 SWAP1 PUSH2 0x6C7 JUMP JUMPDEST PUSH1 0x40 MLOAD DUP1 SWAP2 SUB SWAP1 RETURN JUMPDEST CALLVALUE DUP1 ISZERO PUSH2 0xB7 JUMPI PUSH0 PUSH0 REVERT JUMPDEST POP PUSH2 0xC0 PUSH2 0x340 JUMP JUMPDEST PUSH1 0x40 MLOAD PUSH2 0xCD SWAP2 SWAP1 PUSH2 0x6F8 JUMP JUMPDEST PUSH1 0x40 MLOAD DUP1 SWAP2 SUB SWAP1 RETURN JUMPDEST CALLVALUE DUP1 ISZERO PUSH2 0xE1 JUMPI PUSH0 PUSH0 REVERT JUMPDEST POP PUSH2 0xEA PUSH2 0x347 JUMP JUMPDEST PUSH1 0x40 MLOAD PUSH2 0xF7 SWAP2 SWAP1 PUSH2 0x6F8 JUMP JUMPDEST PUSH1 0x40 MLOAD DUP1 SWAP2 SUB SWAP1 RETURN JUMPDEST CALLVALUE DUP1 ISZERO PUSH2 0x10B JUMPI PUSH0 PUSH0 REVERT JUMPDEST POP PUSH2 0x114 PUSH2 0x350 JUMP JUMPDEST PUSH1 0x40 MLOAD PUSH2 0x121 SWAP2 SWAP1 PUSH2 0x6F8 JUMP JUMPDEST PUSH1 0x40 MLOAD DUP1 SWAP2 SUB SWAP1 RETURN JUMPDEST PUSH2 0x132 PUSH2 0x356 JUMP JUMPDEST STOP JUMPDEST PUSH1 0x60 PUSH1 0x2 DUP1 SLOAD PUSH2 0x143 SWAP1 PUSH2 0x73E JUMP JUMPDEST DUP1 PUSH1 0x1F ADD PUSH1 0x20 DUP1 SWAP2 DIV MUL PUSH1 0x20 ADD PUSH1 0x40 MLOAD SWAP1 DUP2 ADD PUSH1 0x40 MSTORE DUP1 SWAP3 SWAP2 SWAP1 DUP2 DUP2 MSTORE PUSH1 0x20 ADD DUP3 DUP1 SLOAD PUSH2 0x16F SWAP1 PUSH2 0x73E JUMP JUMPDEST DUP1 ISZERO PUSH2 0x1BA JUMPI DUP1 PUSH1 0x1F LT PUSH2 0x191 JUMPI PUSH2 0x100 DUP1 DUP4 SLOAD DIV MUL DUP4 MSTORE SWAP2 PUSH1 0x20 ADD SWAP2 PUSH2 0x1BA JUMP JUMPDEST DUP3 ADD SWAP2 SWAP1 PUSH0 MSTORE PUSH1 0x20 PUSH0 KECCAK256 SWAP1 JUMPDEST DUP2 SLOAD DUP2 MSTORE SWAP1 PUSH1 0x1 ADD SWAP1 PUSH1 0x20 ADD DUP1 DUP4 GT PUSH2 0x19D JUMPI DUP3 SWAP1 SUB PUSH1 0x1F AND DUP3 ADD SWAP2 JUMPDEST POP POP POP POP POP SWAP1 POP SWAP1 JUMP JUMPDEST PUSH0 PUSH1 0x4 PUSH0 SWAP1 SLOAD SWAP1 PUSH2 0x100 EXP SWAP1 DIV PUSH20 0xFFFFFFFFFFFFFFFFFFFFFFFFFFFFFFFFFFFFFFFF AND PUSH20 0xFFFFFFFFFFFFFFFFFFFFFFFFFFFFFFFFFFFFFFFF AND ORIGIN PUSH20 0xFFFFFFFFFFFFFFFFFFFFFFFFFFFFFFFFFFFFFFFF AND EQ PUSH2 0x254 JUMPI PUSH1 0x40 MLOAD PUSH32 0x8C379A000000000000000000000000000000000000000000000000000000000 DUP2 MSTORE PUSH1 0x4 ADD PUSH2 0x24B SWAP1 PUSH2 0x7B8 JUMP JUMPDEST PUSH1 0x40 MLOAD DUP1 SWAP2 SUB SWAP1 REVERT JUMPDEST PUSH1 0x2 PUSH1 0x3 DUP1 SLOAD SWAP1 POP GT PUSH2 0x29C JUMPI PUSH1 0x40 MLOAD PUSH32 0x8C379A000000000000000000000000000000000000000000000000000000000 DUP2 MSTORE PUSH1 0x4 ADD PUSH2 0x293 SWAP1 PUSH2 0x846 JUMP JUMPDEST PUSH1 0x40 MLOAD DUP1 SWAP2 SUB SWAP1 REVERT JUMPDEST PUSH0 PUSH1 0x3 PUSH2 0x2AD PUSH1 0x3 DUP1 SLOAD SWAP1 POP PUSH2 0x568 JUMP JUMPDEST DUP2 SLOAD DUP2 LT PUSH2 0x2BE JUMPI PUSH2 0x2BD PUSH2 0x864 JUMP JUMPDEST JUMPDEST SWAP1 PUSH0 MSTORE PUSH1 0x20 PUSH0 KECCAK256 ADD PUSH0 SWAP1 SLOAD SWAP1 PUSH2 0x100 EXP SWAP1 DIV PUSH20 0xFFFFFFFFFFFFFFFFFFFFFFFFFFFFFFFFFFFFFFFF AND SWAP1 POP DUP1 PUSH20 0xFFFFFFFFFFFFFFFFFFFFFFFFFFFFFFFFFFFFFFFF AND PUSH2 0x8FC SELFBALANCE SWAP1 DUP2 ISZERO MUL SWAP1 PUSH1 0x40 MLOAD PUSH0 PUSH1 0x40 MLOAD DUP1 DUP4 SUB DUP2 DUP6 DUP9 DUP9 CALL SWAP4 POP POP POP POP ISZERO DUP1 ISZERO PUSH2 0x32B JUMPI RETURNDATASIZE PUSH0 PUSH0 RETURNDATACOPY RETURNDATASIZE PUSH0 REVERT JUMPDEST POP PUSH1 0x3 PUSH0 PUSH2 0x339 SWAP2 SWAP1 PUSH2 0x5BF JUMP JUMPDEST DUP1 SWAP2 POP POP SWAP1 JUMP JUMPDEST PUSH0 SELFBALANCE SWAP1 POP SWAP1 JUMP JUMPDEST PUSH0 PUSH1 0x1 SLOAD SWAP1 POP SWAP1 JUMP JUMPDEST PUSH1 0x1 SLOAD DUP2 JUMP JUMPDEST PUSH1 0x4 PUSH0 SWAP1 SLOAD SWAP1 PUSH2 0x100 EXP SWAP1 DIV PUSH20 0xFFFFFFFFFFFFFFFFFFFFFFFFFFFFFFFFFFFFFFFF AND PUSH20 0xFFFFFFFFFFFFFFFFFFFFFFFFFFFFFFFFFFFFFFFF AND ORIGIN PUSH20 0xFFFFFFFFFFFFFFFFFFFFFFFFFFFFFFFFFFFFFFFF AND SUB PUSH2 0x3E5 JUMPI PUSH1 0x40 MLOAD PUSH32 0x8C379A000000000000000000000000000000000000000000000000000000000 DUP2 MSTORE PUSH1 0x4 ADD PUSH2 0x3DC SWAP1 PUSH2 0x8DB JUMP JUMPDEST PUSH1 0x40 MLOAD DUP1 SWAP2 SUB SWAP1 REVERT JUMPDEST PUSH1 0x1 SLOAD CALLVALUE EQ PUSH2 0x429 JUMPI PUSH1 0x40 MLOAD PUSH32 0x8C379A000000000000000000000000000000000000000000000000000000000 DUP2 MSTORE PUSH1 0x4 ADD PUSH2 0x420 SWAP1 PUSH2 0x98F JUMP JUMPDEST PUSH1 0x40 MLOAD DUP1 SWAP2 SUB SWAP1 REVERT JUMPDEST PUSH0 PUSH0 SWAP1 POP PUSH0 PUSH0 SWAP1 POP JUMPDEST PUSH1 0x3 DUP1 SLOAD SWAP1 POP DUP2 LT ISZERO PUSH2 0x4C3 JUMPI ORIGIN PUSH20 0xFFFFFFFFFFFFFFFFFFFFFFFFFFFFFFFFFFFFFFFF AND PUSH1 0x3 DUP3 DUP2 SLOAD DUP2 LT PUSH2 0x46A JUMPI PUSH2 0x469 PUSH2 0x864 JUMP JUMPDEST JUMPDEST SWAP1 PUSH0 MSTORE PUSH1 0x20 PUSH0 KECCAK256 ADD PUSH0 SWAP1 SLOAD SWAP1 PUSH2 0x100 EXP SWAP1 DIV PUSH20 0xFFFFFFFFFFFFFFFFFFFFFFFFFFFFFFFFFFFFFFFF AND PUSH20 0xFFFFFFFFFFFFFFFFFFFFFFFFFFFFFFFFFFFFFFFF AND SUB PUSH2 0x4B6 JUMPI PUSH1 0x1 SWAP2 POP PUSH2 0x4C3 JUMP JUMPDEST DUP1 DUP1 PUSH1 0x1 ADD SWAP2 POP POP PUSH2 0x432 JUMP JUMPDEST POP DUP1 ISZERO PUSH2 0x505 JUMPI PUSH1 0x40 MLOAD PUSH32 0x8C379A000000000000000000000000000000000000000000000000000000000 DUP2 MSTORE PUSH1 0x4 ADD PUSH2 0x4FC SWAP1 PUSH2 0xA1D JUMP JUMPDEST PUSH1 0x40 MLOAD DUP1 SWAP2 SUB SWAP1 REVERT JUMPDEST PUSH1 0x3 ORIGIN SWAP1 DUP1 PUSH1 0x1 DUP2 SLOAD ADD DUP1 DUP3 SSTORE DUP1 SWAP2 POP POP PUSH1 0x1 SWAP1 SUB SWAP1 PUSH0 MSTORE PUSH1 0x20 PUSH0 KECCAK256 ADD PUSH0 SWAP1 SWAP2 SWAP1 SWAP2 SWAP1 SWAP2 PUSH2 0x100 EXP DUP2 SLOAD DUP2 PUSH20 0xFFFFFFFFFFFFFFFFFFFFFFFFFFFFFFFFFFFFFFFF MUL NOT AND SWAP1 DUP4 PUSH20 0xFFFFFFFFFFFFFFFFFFFFFFFFFFFFFFFFFFFFFFFF AND MUL OR SWAP1 SSTORE POP POP JUMP JUMPDEST PUSH0 PUSH0 PUSH0 DUP2 SLOAD DUP1 SWAP3 SWAP2 SWAP1 PUSH2 0x57A SWAP1 PUSH2 0xA68 JUMP JUMPDEST SWAP2 SWAP1 POP SSTORE POP DUP2 TIMESTAMP ORIGIN PUSH0 SLOAD PUSH1 0x40 MLOAD PUSH1 0x20 ADD PUSH2 0x596 SWAP4 SWAP3 SWAP2 SWAP1 PUSH2 0xB14 JUMP JUMPDEST PUSH1 0x40 MLOAD PUSH1 0x20 DUP2 DUP4 SUB SUB DUP2 MSTORE SWAP1 PUSH1 0x40 MSTORE DUP1 MLOAD SWAP1 PUSH1 0x20 ADD KECCAK256 PUSH0 SHR PUSH2 0x5B8 SWAP2 SWAP1 PUSH2 0xB7D JUMP JUMPDEST SWAP1 POP SWAP2 SWAP1 POP JUMP JUMPDEST POP DUP1 SLOAD PUSH0 DUP3 SSTORE SWAP1 PUSH0 MSTORE PUSH1 0x20 PUSH0 KECCAK256 SWAP1 DUP2 ADD SWAP1 PUSH2 0x5DA SWAP2 SWAP1 PUSH2 0x5DD JUMP JUMPDEST POP JUMP JUMPDEST JUMPDEST DUP1 DUP3 GT ISZERO PUSH2 0x5F4 JUMPI PUSH0 DUP2 PUSH0 SWAP1 SSTORE POP PUSH1 0x1 ADD PUSH2 0x5DE JUMP JUMPDEST POP SWAP1 JUMP JUMPDEST PUSH0 DUP2 MLOAD SWAP1 POP SWAP2 SWAP1 POP JUMP JUMPDEST PUSH0 DUP3 DUP3 MSTORE PUSH1 0x20 DUP3 ADD SWAP1 POP SWAP3 SWAP2 POP POP JUMP JUMPDEST DUP3 DUP2 DUP4 MCOPY PUSH0 DUP4 DUP4 ADD MSTORE POP POP POP JUMP JUMPDEST PUSH0 PUSH1 0x1F NOT PUSH1 0x1F DUP4 ADD AND SWAP1 POP SWAP2 SWAP1 POP JUMP JUMPDEST PUSH0 PUSH2 0x63A DUP3 PUSH2 0x5F8 JUMP JUMPDEST PUSH2 0x644 DUP2 DUP6 PUSH2 0x602 JUMP JUMPDEST SWAP4 POP PUSH2 0x654 DUP2 DUP6 PUSH1 0x20 DUP7 ADD PUSH2 0x612 JUMP JUMPDEST PUSH2 0x65D DUP2 PUSH2 0x620 JUMP JUMPDEST DUP5 ADD SWAP2 POP POP SWAP3 SWAP2 POP POP JUMP JUMPDEST PUSH0 PUSH1 0x20 DUP3 ADD SWAP1 POP DUP2 DUP2 SUB PUSH0 DUP4 ADD MSTORE PUSH2 0x680 DUP2 DUP5 PUSH2 0x630 JUMP JUMPDEST SWAP1 POP SWAP3 SWAP2 POP POP JUMP JUMPDEST PUSH0 PUSH20 0xFFFFFFFFFFFFFFFFFFFFFFFFFFFFFFFFFFFFFFFF DUP3 AND SWAP1 POP SWAP2 SWAP1 POP JUMP JUMPDEST PUSH0 PUSH2 0x6B1 DUP3 PUSH2 0x688 JUMP JUMPDEST SWAP1 POP SWAP2 SWAP1 POP JUMP JUMPDEST PUSH2 0x6C1 DUP2 PUSH2 0x6A7 JUMP JUMPDEST DUP3 MSTORE POP POP JUMP JUMPDEST PUSH0 PUSH1 0x20 DUP3 ADD SWAP1 POP PUSH2 0x6DA PUSH0 DUP4 ADD DUP5 PUSH2 0x6B8 JUMP JUMPDEST SWAP3 SWAP2 POP POP JUMP JUMPDEST PUSH0 DUP2 SWAP1 POP SWAP2 SWAP1 POP JUMP JUMPDEST PUSH2 0x6F2 DUP2 PUSH2 0x6E0 JUMP JUMPDEST DUP3 MSTORE POP POP JUMP JUMPDEST PUSH0 PUSH1 0x20 DUP3 ADD SWAP1 POP PUSH2 0x70B PUSH0 DUP4 ADD DUP5 PUSH2 0x6E9 JUMP JUMPDEST SWAP3 SWAP2 POP POP JUMP JUMPDEST PUSH32 0x4E487B7100000000000000000000000000000000000000000000000000000000 PUSH0 MSTORE PUSH1 0x22 PUSH1 0x4 MSTORE PUSH1 0x24 PUSH0 REVERT JUMPDEST PUSH0 PUSH1 0x2 DUP3 DIV SWAP1 POP PUSH1 0x1 DUP3 AND DUP1 PUSH2 0x755 JUMPI PUSH1 0x7F DUP3 AND SWAP2 POP JUMPDEST PUSH1 0x20 DUP3 LT DUP2 SUB PUSH2 0x768 JUMPI PUSH2 0x767 PUSH2 0x711 JUMP JUMPDEST JUMPDEST POP SWAP2 SWAP1 POP JUMP JUMPDEST PUSH32 0x4F6E6C79206F776E65722063616E20646F207468617421000000000000000000 PUSH0 DUP3 ADD MSTORE POP JUMP JUMPDEST PUSH0 PUSH2 0x7A2 PUSH1 0x17 DUP4 PUSH2 0x602 JUMP JUMPDEST SWAP2 POP PUSH2 0x7AD DUP3 PUSH2 0x76E JUMP JUMPDEST PUSH1 0x20 DUP3 ADD SWAP1 POP SWAP2 SWAP1 POP JUMP JUMPDEST PUSH0 PUSH1 0x20 DUP3 ADD SWAP1 POP DUP2 DUP2 SUB PUSH0 DUP4 ADD MSTORE PUSH2 0x7CF DUP2 PUSH2 0x796 JUMP JUMPDEST SWAP1 POP SWAP2 SWAP1 POP JUMP JUMPDEST PUSH32 0x546865206E756D62657273206F66207061727469636970616E7473206D757374 PUSH0 DUP3 ADD MSTORE PUSH32 0x206265206C6172676572207468616E2032000000000000000000000000000000 PUSH1 0x20 DUP3 ADD MSTORE POP JUMP JUMPDEST PUSH0 PUSH2 0x830 PUSH1 0x31 DUP4 PUSH2 0x602 JUMP JUMPDEST SWAP2 POP PUSH2 0x83B DUP3 PUSH2 0x7D6 JUMP JUMPDEST PUSH1 0x40 DUP3 ADD SWAP1 POP SWAP2 SWAP1 POP JUMP JUMPDEST PUSH0 PUSH1 0x20 DUP3 ADD SWAP1 POP DUP2 DUP2 SUB PUSH0 DUP4 ADD MSTORE PUSH2 0x85D DUP2 PUSH2 0x824 JUMP JUMPDEST SWAP1 POP SWAP2 SWAP1 POP JUMP JUMPDEST PUSH32 0x4E487B7100000000000000000000000000000000000000000000000000000000 PUSH0 MSTORE PUSH1 0x32 PUSH1 0x4 MSTORE PUSH1 0x24 PUSH0 REVERT JUMPDEST PUSH32 0x4F776E65722063616E2774207061727469636970617465000000000000000000 PUSH0 DUP3 ADD MSTORE POP JUMP JUMPDEST PUSH0 PUSH2 0x8C5 PUSH1 0x17 DUP4 PUSH2 0x602 JUMP JUMPDEST SWAP2 POP PUSH2 0x8D0 DUP3 PUSH2 0x891 JUMP JUMPDEST PUSH1 0x20 DUP3 ADD SWAP1 POP SWAP2 SWAP1 POP JUMP JUMPDEST PUSH0 PUSH1 0x20 DUP3 ADD SWAP1 POP DUP2 DUP2 SUB PUSH0 DUP4 ADD MSTORE PUSH2 0x8F2 DUP2 PUSH2 0x8B9 JUMP JUMPDEST SWAP1 POP SWAP2 SWAP1 POP JUMP JUMPDEST PUSH32 0x5072696365206D75737420626520657175616C20746F20746865207072696365 PUSH0 DUP3 ADD MSTORE PUSH32 0x20646566696E656420627920746865206F776E6572206F6620746865206C6F74 PUSH1 0x20 DUP3 ADD MSTORE PUSH32 0x7465727900000000000000000000000000000000000000000000000000000000 PUSH1 0x40 DUP3 ADD MSTORE POP JUMP JUMPDEST PUSH0 PUSH2 0x979 PUSH1 0x44 DUP4 PUSH2 0x602 JUMP JUMPDEST SWAP2 POP PUSH2 0x984 DUP3 PUSH2 0x8F9 JUMP JUMPDEST PUSH1 0x60 DUP3 ADD SWAP1 POP SWAP2 SWAP1 POP JUMP JUMPDEST PUSH0 PUSH1 0x20 DUP3 ADD SWAP1 POP DUP2 DUP2 SUB PUSH0 DUP4 ADD MSTORE PUSH2 0x9A6 DUP2 PUSH2 0x96D JUMP JUMPDEST SWAP1 POP SWAP2 SWAP1 POP JUMP JUMPDEST PUSH32 0x41207061727469636970616E742063616E6E6F74207061727469636970617465 PUSH0 DUP3 ADD MSTORE PUSH32 0x207365766572616C2074696D6573000000000000000000000000000000000000 PUSH1 0x20 DUP3 ADD MSTORE POP JUMP JUMPDEST PUSH0 PUSH2 0xA07 PUSH1 0x2E DUP4 PUSH2 0x602 JUMP JUMPDEST SWAP2 POP PUSH2 0xA12 DUP3 PUSH2 0x9AD JUMP JUMPDEST PUSH1 0x40 DUP3 ADD SWAP1 POP SWAP2 SWAP1 POP JUMP JUMPDEST PUSH0 PUSH1 0x20 DUP3 ADD SWAP1 POP DUP2 DUP2 SUB PUSH0 DUP4 ADD MSTORE PUSH2 0xA34 DUP2 PUSH2 0x9FB JUMP JUMPDEST SWAP1 POP SWAP2 SWAP1 POP JUMP JUMPDEST PUSH32 0x4E487B7100000000000000000000000000000000000000000000000000000000 PUSH0 MSTORE PUSH1 0x11 PUSH1 0x4 MSTORE PUSH1 0x24 PUSH0 REVERT JUMPDEST PUSH0 PUSH2 0xA72 DUP3 PUSH2 0x6E0 JUMP JUMPDEST SWAP2 POP PUSH32 0xFFFFFFFFFFFFFFFFFFFFFFFFFFFFFFFFFFFFFFFFFFFFFFFFFFFFFFFFFFFFFFFF DUP3 SUB PUSH2 0xAA4 JUMPI PUSH2 0xAA3 PUSH2 0xA3B JUMP JUMPDEST JUMPDEST PUSH1 0x1 DUP3 ADD SWAP1 POP SWAP2 SWAP1 POP JUMP JUMPDEST PUSH0 DUP2 SWAP1 POP SWAP2 SWAP1 POP JUMP JUMPDEST PUSH2 0xAC9 PUSH2 0xAC4 DUP3 PUSH2 0x6E0 JUMP JUMPDEST PUSH2 0xAAF JUMP JUMPDEST DUP3 MSTORE POP POP JUMP JUMPDEST PUSH0 DUP2 PUSH1 0x60 SHL SWAP1 POP SWAP2 SWAP1 POP JUMP JUMPDEST PUSH0 PUSH2 0xAE5 DUP3 PUSH2 0xACF JUMP JUMPDEST SWAP1 POP SWAP2 SWAP1 POP JUMP JUMPDEST PUSH0 PUSH2 0xAF6 DUP3 PUSH2 0xADB JUMP JUMPDEST SWAP1 POP SWAP2 SWAP1 POP JUMP JUMPDEST PUSH2 0xB0E PUSH2 0xB09 DUP3 PUSH2 0x6A7 JUMP JUMPDEST PUSH2 0xAEC JUMP JUMPDEST DUP3 MSTORE POP POP JUMP JUMPDEST PUSH0 PUSH2 0xB1F DUP3 DUP7 PUSH2 0xAB8 JUMP JUMPDEST PUSH1 0x20 DUP3 ADD SWAP2 POP PUSH2 0xB2F DUP3 DUP6 PUSH2 0xAFD JUMP JUMPDEST PUSH1 0x14 DUP3 ADD SWAP2 POP PUSH2 0xB3F DUP3 DUP5 PUSH2 0xAB8 JUMP JUMPDEST PUSH1 0x20 DUP3 ADD SWAP2 POP DUP2 SWAP1 POP SWAP5 SWAP4 POP POP POP POP JUMP JUMPDEST PUSH32 0x4E487B7100000000000000000000000000000000000000000000000000000000 PUSH0 MSTORE PUSH1 0x12 PUSH1 0x4 MSTORE PUSH1 0x24 PUSH0 REVERT JUMPDEST PUSH0 PUSH2 0xB87 DUP3 PUSH2 0x6E0 JUMP JUMPDEST SWAP2 POP PUSH2 0xB92 DUP4 PUSH2 0x6E0 JUMP JUMPDEST SWAP3 POP DUP3 PUSH2 0xBA2 JUMPI PUSH2 0xBA1 PUSH2 0xB50 JUMP JUMPDEST JUMPDEST DUP3 DUP3 MOD SWAP1 POP SWAP3 SWAP2 POP POP JUMP INVALID LOG2 PUSH5 0x6970667358 0x22 SLT KECCAK256 DUP4 0xB5 SLOAD 0xFC JUMP DUP12 0x26 CALLDATALOAD 0xC ADDMOD PUSH13 0x3D7AFA1B3E1141573B77104DA0 SWAP10 ADD 0x4F PUSH25 0x38A37E8D64736F6C634300081E0033A2646970667358221220 NUMBER MSIZE 0xC1 BLOBHASH DUP9 SWAP16 0x24 PUSH7 0x4D44E458BA2EF9 EXTCODECOPY 0xBB SWAP10 DELEGATECALL CALLDATALOAD 0xD2 PUSH32 0x49E9961FFDA59288300764736F6C634300081E00330000000000000000000000 "
  },
  "abi": [
    {
      "inputs": [
        {
          "internalType": "uint256",
          "name": "fee",
          "type": "uint256"
        },
        {
          "internalType": "string",
          "name": "_name",
          "type": "string"
        }
      ],
      "name": "addLoterie",
      "outputs": [],
      "stateMutability": "nonpayable",
      "type": "function"
    },
    {
      "inputs": [
        {
          "internalType": "address",
          "name": "loterie",
          "type": "address"
        }
      ],
      "name": "participate",
      "outputs": [],
      "stateMutability": "payable",
      "type": "function"
    },
    {
      "inputs": [
        {
          "internalType": "address",
          "name": "loterie",
          "type": "address"
        }
      ],
      "name": "randomDraw",
      "outputs": [
        {
          "internalType": "address",
          "name": "",
          "type": "address"
        }
      ],
      "stateMutability": "nonpayable",
      "type": "function"
    },
    {
      "inputs": [
        {
          "internalType": "address",
          "name": "loterie",
          "type": "address"
        }
      ],
      "name": "removeLoterie",
      "outputs": [],
      "stateMutability": "nonpayable",
      "type": "function"
    },
    {
      "inputs": [],
      "stateMutability": "nonpayable",
      "type": "constructor"
    },
    {
      "inputs": [],
      "name": "getLoteries",
      "outputs": [
        {
          "internalType": "address[]",
          "name": "",
          "type": "address[]"
        },
        {
          "internalType": "string[]",
          "name": "",
          "type": "string[]"
        }
      ],
      "stateMutability": "view",
      "type": "function"
    },
    {
      "inputs": [
        {
          "internalType": "address",
          "name": "loterie",
          "type": "address"
        }
      ],
      "name": "getName",
      "outputs": [
        {
          "internalType": "string",
          "name": "",
          "type": "string"
        }
      ],
      "stateMutability": "view",
      "type": "function"
    },
    {
      "inputs": [
        {
          "internalType": "address",
          "name": "loterie",
          "type": "address"
        }
      ],
      "name": "getPrice",
      "outputs": [
        {
          "internalType": "uint256",
          "name": "",
          "type": "uint256"
        }
      ],
      "stateMutability": "view",
      "type": "function"
    },
    {
      "inputs": [
        {
          "internalType": "address",
          "name": "loterie",
          "type": "address"
        }
      ],
      "name": "getSolde",
      "outputs": [
        {
          "internalType": "uint256",
          "name": "",
          "type": "uint256"
        }
      ],
      "stateMutability": "view",
      "type": "function"
    }
  ],
  "storageLayout": {
    "storage": [
      {
        "astId": 215,
        "contract": "contracts/LotteryFactory.sol:LotteryFactory",
        "label": "loteries",
        "offset": 0,
        "slot": "0",
        "type": "t_mapping(t_address,t_contract(Loterie)205)"
      },
      {
        "astId": 218,
        "contract": "contracts/LotteryFactory.sol:LotteryFactory",
        "label": "addresses",
        "offset": 0,
        "slot": "1",
        "type": "t_array(t_address)dyn_storage"
      },
      {
        "astId": 220,
        "contract": "contracts/LotteryFactory.sol:LotteryFactory",
        "label": "owner",
        "offset": 0,
        "slot": "2",
        "type": "t_address"
      }
    ],
    "types": {
      "t_address": {
        "encoding": "inplace",
        "label": "address",
        "numberOfBytes": "20"
      },
      "t_array(t_address)dyn_storage": {
        "base": "t_address",
        "encoding": "dynamic_array",
        "label": "address[]",
        "numberOfBytes": "32"
      },
      "t_contract(Loterie)205": {
        "encoding": "inplace",
        "label": "contract Loterie",
        "numberOfBytes": "20"
      },
      "t_mapping(t_address,t_contract(Loterie)205)": {
        "encoding": "mapping",
        "key": "t_address",
        "label": "mapping(address => contract Loterie)",
        "numberOfBytes": "32",
        "value": "t_contract(Loterie)205"
      }
    }
  },
  "web3Deploy": "var lotteryfactoryContract = new web3.eth.Contract([{\"inputs\":[],\"stateMutability\":\"nonpayable\",\"type\":\"constructor\"},{\"inputs\":[{\"internalType\":\"uint256\",\"name\":\"fee\",\"type\":\"uint256\"},{\"internalType\":\"string\",\"name\":\"_name\",\"type\":\"string\"}],\"name\":\"addLoterie\",\"outputs\":[],\"stateMutability\":\"nonpayable\",\"type\":\"function\"},{\"inputs\":[],\"name\":\"getLoteries\",\"outputs\":[{\"internalType\":\"address[]\",\"name\":\"\",\"type\":\"address[]\"},{\"internalType\":\"string[]\",\"name\":\"\",\"type\":\"string[]\"}],\"stateMutability\":\"view\",\"type\":\"function\"},{\"inputs\":[{\"internalType\":\"address\",\"name\":\"loterie\",\"type\":\"address\"}],\"name\":\"getName\",\"outputs\":[{\"internalType\":\"string\",\"name\":\"\",\"type\":\"string\"}],\"stateMutability\":\"view\",\"type\":\"function\"},{\"inputs\":[{\"internalType\":\"address\",\"name\":\"loterie\",\"type\":\"address\"}],\"name\":\"getPrice\",\"outputs\":[{\"internalType\":\"uint256\",\"name\":\"\",\"type\":\"uint256\"}],\"stateMutability\":\"view\",\"type\":\"function\"},{\"inputs\":[{\"internalType\":\"address\",\"name\":\"loterie\",\"type\":\"address\"}],\"name\":\"getSolde\",\"outputs\":[{\"internalType\":\"uint256\",\"name\":\"\",\"type\":\"uint256\"}],\"stateMutability\":\"view\",\"type\":\"function\"},{\"inputs\":[{\"internalType\":\"address\",\"name\":\"loterie\",\"type\":\"address\"}],\"name\":\"participate\",\"outputs\":[],\"stateMutability\":\"payable\",\"type\":\"function\"},{\"inputs\":[{\"internalType\":\"address\",\"name\":\"loterie\",\"type\":\"address\"}],\"name\":\"randomDraw\",\"outputs\":[{\"internalType\":\"address\",\"name\":\"\",\"type\":\"address\"}],\"stateMutability\":\"nonpayable\",\"type\":\"function\"},{\"inputs\":[{\"internalType\":\"address\",\"name\":\"loterie\",\"type\":\"address\"}],\"name\":\"removeLoterie\",\"outputs\":[],\"stateMutability\":\"nonpayable\",\"type\":\"function\"}]);\nvar lotteryfactory = lotteryfactoryContract.deploy({\n     data: '0x6080604052348015600e575f5ffd5b503360025f6101000a81548173ffffffffffffffffffffffffffffffffffffffff021916908373ffffffffffffffffffffffffffffffffffffffff1602179055506127748061005c5f395ff3fe60806040526004361061007a575f3560e01c80635a8ad3dd1161004d5780635a8ad3dd146101495780635fd4b08a146101715780639c2f6944146101ad578063b91038c7146101e95761007a565b806309e786be1461007e5780632dc93daa146100a65780633bbfddc7146100d157806341976e091461010d575b5f5ffd5b348015610089575f5ffd5b506100a4600480360381019061009f9190610e78565b610205565b005b3480156100b1575f5ffd5b506100ba6103a9565b6040516100c89291906110d4565b60405180910390f35b3480156100dc575f5ffd5b506100f760048036038101906100f29190611133565b610515565b604051610104919061116d565b60405180910390f35b348015610118575f5ffd5b50610133600480360381019061012e9190611133565b61062d565b604051610140919061116d565b60405180910390f35b348015610154575f5ffd5b5061016f600480360381019061016a9190611133565b610745565b005b34801561017c575f5ffd5b5061019760048036038101906101929190611133565b610954565b6040516101a491906111ce565b60405180910390f35b3480156101b8575f5ffd5b506101d360048036038101906101ce9190611133565b610a70565b6040516101e091906111fd565b60405180910390f35b61020360048036038101906101fe9190611133565b610b46565b005b60025f9054906101000a900473ffffffffffffffffffffffffffffffffffffffff1673ffffffffffffffffffffffffffffffffffffffff163373ffffffffffffffffffffffffffffffffffffffff1614610294576040517f08c379a000000000000000000000000000000000000000000000000000000000815260040161028b90611260565b60405180910390fd5b5f82826040516102a390610ceb565b6102ae92919061127e565b604051809103905ff0801580156102c7573d5f5f3e3d5ffd5b509050600181908060018154018082558091505060019003905f5260205f20015f9091909190916101000a81548173ffffffffffffffffffffffffffffffffffffffff021916908373ffffffffffffffffffffffffffffffffffffffff160217905550805f5f8373ffffffffffffffffffffffffffffffffffffffff1673ffffffffffffffffffffffffffffffffffffffff1681526020019081526020015f205f6101000a81548173ffffffffffffffffffffffffffffffffffffffff021916908373ffffffffffffffffffffffffffffffffffffffff160217905550505050565b6060805f60018054905067ffffffffffffffff8111156103cc576103cb610d54565b5b6040519080825280602002602001820160405280156103ff57816020015b60608152602001906001900390816103ea5790505b5090505f5f90505b600180549050811015610483576104586001828154811061042b5761042a6112ac565b5b905f5260205f20015f9054906101000a900473ffffffffffffffffffffffffffffffffffffffff16610954565b82828151811061046b5761046a6112ac565b5b60200260200101819052508080600101915050610407565b506001818180548060200260200160405190810160405280929190818152602001828054801561050557602002820191905f5260205f20905b815f9054906101000a900473ffffffffffffffffffffffffffffffffffffffff1673ffffffffffffffffffffffffffffffffffffffff16815260200190600101908083116104bc575b5050505050915092509250509091565b5f61051f82610c49565b61055e576040517f08c379a000000000000000000000000000000000000000000000000000000000815260040161055590611323565b60405180910390fd5b5f5f8373ffffffffffffffffffffffffffffffffffffffff1673ffffffffffffffffffffffffffffffffffffffff1681526020019081526020015f205f9054906101000a900473ffffffffffffffffffffffffffffffffffffffff1673ffffffffffffffffffffffffffffffffffffffff166355e5ae046040518163ffffffff1660e01b8152600401602060405180830381865afa158015610602573d5f5f3e3d5ffd5b505050506040513d601f19601f820116820180604052508101906106269190611355565b9050919050565b5f61063782610c49565b610676576040517f08c379a000000000000000000000000000000000000000000000000000000000815260040161066d90611323565b60405180910390fd5b5f5f8373ffffffffffffffffffffffffffffffffffffffff1673ffffffffffffffffffffffffffffffffffffffff1681526020019081526020015f205f9054906101000a900473ffffffffffffffffffffffffffffffffffffffff1673ffffffffffffffffffffffffffffffffffffffff166398d5fdca6040518163ffffffff1660e01b8152600401602060405180830381865afa15801561071a573d5f5f3e3d5ffd5b505050506040513d601f19601f8201168201806040525081019061073e9190611355565b9050919050565b60025f9054906101000a900473ffffffffffffffffffffffffffffffffffffffff1673ffffffffffffffffffffffffffffffffffffffff163373ffffffffffffffffffffffffffffffffffffffff16146107d4576040517f08c379a00000000000000000000000000000000000000000000000000000000081526004016107cb906113f0565b60405180910390fd5b5f5f90505b60018054905081101561094f578173ffffffffffffffffffffffffffffffffffffffff1660018281548110610811576108106112ac565b5b905f5260205f20015f9054906101000a900473ffffffffffffffffffffffffffffffffffffffff1673ffffffffffffffffffffffffffffffffffffffff1603610942576001808080549050610866919061143b565b81548110610877576108766112ac565b5b905f5260205f20015f9054906101000a900473ffffffffffffffffffffffffffffffffffffffff16600182815481106108b3576108b26112ac565b5b905f5260205f20015f6101000a81548173ffffffffffffffffffffffffffffffffffffffff021916908373ffffffffffffffffffffffffffffffffffffffff160217905550600180548061090a5761090961146e565b5b600190038181905f5260205f20015f6101000a81549073ffffffffffffffffffffffffffffffffffffffff0219169055905550610951565b80806001019150506107d9565b505b50565b606061095f82610c49565b61099e576040517f08c379a000000000000000000000000000000000000000000000000000000000815260040161099590611323565b60405180910390fd5b5f5f8373ffffffffffffffffffffffffffffffffffffffff1673ffffffffffffffffffffffffffffffffffffffff1681526020019081526020015f205f9054906101000a900473ffffffffffffffffffffffffffffffffffffffff1673ffffffffffffffffffffffffffffffffffffffff166317d7de7c6040518163ffffffff1660e01b81526004015f60405180830381865afa158015610a41573d5f5f3e3d5ffd5b505050506040513d5f823e3d601f19601f82011682018060405250810190610a699190611509565b9050919050565b5f5f5f5f8473ffffffffffffffffffffffffffffffffffffffff1673ffffffffffffffffffffffffffffffffffffffff1681526020019081526020015f205f9054906101000a900473ffffffffffffffffffffffffffffffffffffffff1673ffffffffffffffffffffffffffffffffffffffff16631e62e2026040518163ffffffff1660e01b81526004016020604051808303815f875af1158015610b17573d5f5f3e3d5ffd5b505050506040513d601f19601f82011682018060405250810190610b3b9190611564565b905080915050919050565b610b4f81610c49565b610b8e576040517f08c379a0000000000000000000000000000000000000000000000000000000008152600401610b8590611323565b60405180910390fd5b5f5f8273ffffffffffffffffffffffffffffffffffffffff1673ffffffffffffffffffffffffffffffffffffffff1681526020019081526020015f205f9054906101000a900473ffffffffffffffffffffffffffffffffffffffff1673ffffffffffffffffffffffffffffffffffffffff1663d11711a2346040518263ffffffff1660e01b81526004015f604051808303818588803b158015610c2f575f5ffd5b505af1158015610c41573d5f5f3e3d5ffd5b505050505050565b5f5f5f90505b600180549050811015610ce1578273ffffffffffffffffffffffffffffffffffffffff1660018281548110610c8757610c866112ac565b5b905f5260205f20015f9054906101000a900473ffffffffffffffffffffffffffffffffffffffff1673ffffffffffffffffffffffffffffffffffffffff1603610cd4576001915050610ce6565b8080600101915050610c4f565b505f90505b919050565b6111af8061159083390190565b5f604051905090565b5f5ffd5b5f5ffd5b5f819050919050565b610d1b81610d09565b8114610d25575f5ffd5b50565b5f81359050610d3681610d12565b92915050565b5f5ffd5b5f5ffd5b5f601f19601f8301169050919050565b7f4e487b71000000000000000000000000000000000000000000000000000000005f52604160045260245ffd5b610d8a82610d44565b810181811067ffffffffffffffff82111715610da957610da8610d54565b5b80604052505050565b5f610dbb610cf8565b9050610dc78282610d81565b919050565b5f67ffffffffffffffff821115610de657610de5610d54565b5b610def82610d44565b9050602081019050919050565b828183375f83830152505050565b5f610e1c610e1784610dcc565b610db2565b905082815260208101848484011115610e3857610e37610d40565b5b610e43848285610dfc565b509392505050565b5f82601f830112610e5f57610e5e610d3c565b5b8135610e6f848260208601610e0a565b91505092915050565b5f5f60408385031215610e8e57610e8d610d01565b5b5f610e9b85828601610d28565b925050602083013567ffffffffffffffff811115610ebc57610ebb610d05565b5b610ec885828601610e4b565b9150509250929050565b5f81519050919050565b5f82825260208201905092915050565b5f819050602082019050919050565b5f73ffffffffffffffffffffffffffffffffffffffff82169050919050565b5f610f2482610efb565b9050919050565b610f3481610f1a565b82525050565b5f610f458383610f2b565b60208301905092915050565b5f602082019050919050565b5f610f6782610ed2565b610f718185610edc565b9350610f7c83610eec565b805f5b83811015610fac578151610f938882610f3a565b9750610f9e83610f51565b925050600181019050610f7f565b5085935050505092915050565b5f81519050919050565b5f82825260208201905092915050565b5f819050602082019050919050565b5f81519050919050565b5f82825260208201905092915050565b8281835e5f83830152505050565b5f61101482610fe2565b61101e8185610fec565b935061102e818560208601610ffc565b61103781610d44565b840191505092915050565b5f61104d838361100a565b905092915050565b5f602082019050919050565b5f61106b82610fb9565b6110758185610fc3565b93508360208202850161108785610fd3565b805f5b858110156110c257848403895281516110a38582611042565b94506110ae83611055565b925060208a0199505060018101905061108a565b50829750879550505050505092915050565b5f6040820190508181035f8301526110ec8185610f5d565b905081810360208301526111008184611061565b90509392505050565b61111281610f1a565b811461111c575f5ffd5b50565b5f8135905061112d81611109565b92915050565b5f6020828403121561114857611147610d01565b5b5f6111558482850161111f565b91505092915050565b61116781610d09565b82525050565b5f6020820190506111805f83018461115e565b92915050565b5f82825260208201905092915050565b5f6111a082610fe2565b6111aa8185611186565b93506111ba818560208601610ffc565b6111c381610d44565b840191505092915050565b5f6020820190508181035f8301526111e68184611196565b905092915050565b6111f781610f1a565b82525050565b5f6020820190506112105f8301846111ee565b92915050565b7f4f6e6c7920746865206f776e65722063616e206164642061206c6f74746572795f82015250565b5f61124a602083611186565b915061125582611216565b602082019050919050565b5f6020820190508181035f8301526112778161123e565b9050919050565b5f6040820190506112915f83018561115e565b81810360208301526112a38184611196565b90509392505050565b7f4e487b71000000000000000000000000000000000000000000000000000000005f52603260045260245ffd5b7f4c6f746572696520646f65736e277420657869737400000000000000000000005f82015250565b5f61130d601583611186565b9150611318826112d9565b602082019050919050565b5f6020820190508181035f83015261133a81611301565b9050919050565b5f8151905061134f81610d12565b92915050565b5f6020828403121561136a57611369610d01565b5b5f61137784828501611341565b91505092915050565b7f4f6e6c7920746865206f776e65722063616e2072656d6f76652061206c6f74745f8201527f6572790000000000000000000000000000000000000000000000000000000000602082015250565b5f6113da602383611186565b91506113e582611380565b604082019050919050565b5f6020820190508181035f830152611407816113ce565b9050919050565b7f4e487b71000000000000000000000000000000000000000000000000000000005f52601160045260245ffd5b5f61144582610d09565b915061145083610d09565b92508282039050818111156114685761146761140e565b5b92915050565b7f4e487b71000000000000000000000000000000000000000000000000000000005f52603160045260245ffd5b5f6114ad6114a884610dcc565b610db2565b9050828152602081018484840111156114c9576114c8610d40565b5b6114d4848285610ffc565b509392505050565b5f82601f8301126114f0576114ef610d3c565b5b815161150084826020860161149b565b91505092915050565b5f6020828403121561151e5761151d610d01565b5b5f82015167ffffffffffffffff81111561153b5761153a610d05565b5b611547848285016114dc565b91505092915050565b5f8151905061155e81611109565b92915050565b5f6020828403121561157957611578610d01565b5b5f61158684828501611550565b9150509291505056fe608060405234801561000f575f5ffd5b506040516111af3803806111af83398181016040528101906100319190610221565b3260045f6101000a81548173ffffffffffffffffffffffffffffffffffffffff021916908373ffffffffffffffffffffffffffffffffffffffff16021790555080600290816100809190610482565b50662386f26fc1000082610094919061057e565b60018190555050506105bf565b5f604051905090565b5f5ffd5b5f5ffd5b5f819050919050565b6100c4816100b2565b81146100ce575f5ffd5b50565b5f815190506100df816100bb565b92915050565b5f5ffd5b5f5ffd5b5f601f19601f8301169050919050565b7f4e487b71000000000000000000000000000000000000000000000000000000005f52604160045260245ffd5b610133826100ed565b810181811067ffffffffffffffff82111715610152576101516100fd565b5b80604052505050565b5f6101646100a1565b9050610170828261012a565b919050565b5f67ffffffffffffffff82111561018f5761018e6100fd565b5b610198826100ed565b9050602081019050919050565b8281835e5f83830152505050565b5f6101c56101c084610175565b61015b565b9050828152602081018484840111156101e1576101e06100e9565b5b6101ec8482856101a5565b509392505050565b5f82601f830112610208576102076100e5565b5b81516102188482602086016101b3565b91505092915050565b5f5f60408385031215610237576102366100aa565b5b5f610244858286016100d1565b925050602083015167ffffffffffffffff811115610265576102646100ae565b5b610271858286016101f4565b9150509250929050565b5f81519050919050565b7f4e487b71000000000000000000000000000000000000000000000000000000005f52602260045260245ffd5b5f60028204905060018216806102c957607f821691505b6020821081036102dc576102db610285565b5b50919050565b5f819050815f5260205f209050919050565b5f6020601f8301049050919050565b5f82821b905092915050565b5f6008830261033e7fffffffffffffffffffffffffffffffffffffffffffffffffffffffffffffffff82610303565b6103488683610303565b95508019841693508086168417925050509392505050565b5f819050919050565b5f61038361037e610379846100b2565b610360565b6100b2565b9050919050565b5f819050919050565b61039c83610369565b6103b06103a88261038a565b84845461030f565b825550505050565b5f5f905090565b6103c76103b8565b6103d2818484610393565b505050565b5b818110156103f5576103ea5f826103bf565b6001810190506103d8565b5050565b601f82111561043a5761040b816102e2565b610414846102f4565b81016020851015610423578190505b61043761042f856102f4565b8301826103d7565b50505b505050565b5f82821c905092915050565b5f61045a5f198460080261043f565b1980831691505092915050565b5f610472838361044b565b9150826002028217905092915050565b61048b8261027b565b67ffffffffffffffff8111156104a4576104a36100fd565b5b6104ae82546102b2565b6104b98282856103f9565b5f60209050601f8311600181146104ea575f84156104d8578287015190505b6104e28582610467565b865550610549565b601f1984166104f8866102e2565b5f5b8281101561051f578489015182556001820191506020850194506020810190506104fa565b8683101561053c5784890151610538601f89168261044b565b8355505b6001600288020188555050505b505050505050565b7f4e487b71000000000000000000000000000000000000000000000000000000005f52601160045260245ffd5b5f610588826100b2565b9150610593836100b2565b92508282026105a1816100b2565b915082820484148315176105b8576105b7610551565b5b5092915050565b610be3806105cc5f395ff3fe608060405260043610610054575f3560e01c806317d7de7c146100585780631e62e2021461008257806355e5ae04146100ac57806398d5fdca146100d6578063a035b1fe14610100578063d11711a21461012a575b5f5ffd5b348015610063575f5ffd5b5061006c610134565b6040516100799190610668565b60405180910390f35b34801561008d575f5ffd5b506100966101c4565b6040516100a391906106c7565b60405180910390f35b3480156100b7575f5ffd5b506100c0610340565b6040516100cd91906106f8565b60405180910390f35b3480156100e1575f5ffd5b506100ea610347565b6040516100f791906106f8565b60405180910390f35b34801561010b575f5ffd5b50610114610350565b60405161012191906106f8565b60405180910390f35b610132610356565b005b6060600280546101439061073e565b80601f016020809104026020016040519081016040528092919081815260200182805461016f9061073e565b80156101ba5780601f10610191576101008083540402835291602001916101ba565b820191905f5260205f20905b81548152906001019060200180831161019d57829003601f168201915b5050505050905090565b5f60045f9054906101000a900473ffffffffffffffffffffffffffffffffffffffff1673ffffffffffffffffffffffffffffffffffffffff163273ffffffffffffffffffffffffffffffffffffffff1614610254576040517f08c379a000000000000000000000000000000000000000000000000000000000815260040161024b906107b8565b60405180910390fd5b60026003805490501161029c576040517f08c379a000000000000000000000000000000000000000000000000000000000815260040161029390610846565b60405180910390fd5b5f60036102ad600380549050610568565b815481106102be576102bd610864565b5b905f5260205f20015f9054906101000a900473ffffffffffffffffffffffffffffffffffffffff1690508073ffffffffffffffffffffffffffffffffffffffff166108fc4790811502906040515f60405180830381858888f1935050505015801561032b573d5f5f3e3d5ffd5b5060035f61033991906105bf565b8091505090565b5f47905090565b5f600154905090565b60015481565b60045f9054906101000a900473ffffffffffffffffffffffffffffffffffffffff1673ffffffffffffffffffffffffffffffffffffffff163273ffffffffffffffffffffffffffffffffffffffff16036103e5576040517f08c379a00000000000000000000000000000000000000000000000000000000081526004016103dc906108db565b60405180910390fd5b6001543414610429576040517f08c379a00000000000000000000000000000000000000000000000000000000081526004016104209061098f565b60405180910390fd5b5f5f90505f5f90505b6003805490508110156104c3573273ffffffffffffffffffffffffffffffffffffffff166003828154811061046a57610469610864565b5b905f5260205f20015f9054906101000a900473ffffffffffffffffffffffffffffffffffffffff1673ffffffffffffffffffffffffffffffffffffffff16036104b657600191506104c3565b8080600101915050610432565b508015610505576040517f08c379a00000000000000000000000000000000000000000000000000000000081526004016104fc90610a1d565b60405180910390fd5b600332908060018154018082558091505060019003905f5260205f20015f9091909190916101000a81548173ffffffffffffffffffffffffffffffffffffffff021916908373ffffffffffffffffffffffffffffffffffffffff16021790555050565b5f5f5f81548092919061057a90610a68565b91905055508142325f5460405160200161059693929190610b14565b604051602081830303815290604052805190602001205f1c6105b89190610b7d565b9050919050565b5080545f8255905f5260205f20908101906105da91906105dd565b50565b5b808211156105f4575f815f9055506001016105de565b5090565b5f81519050919050565b5f82825260208201905092915050565b8281835e5f83830152505050565b5f601f19601f8301169050919050565b5f61063a826105f8565b6106448185610602565b9350610654818560208601610612565b61065d81610620565b840191505092915050565b5f6020820190508181035f8301526106808184610630565b905092915050565b5f73ffffffffffffffffffffffffffffffffffffffff82169050919050565b5f6106b182610688565b9050919050565b6106c1816106a7565b82525050565b5f6020820190506106da5f8301846106b8565b92915050565b5f819050919050565b6106f2816106e0565b82525050565b5f60208201905061070b5f8301846106e9565b92915050565b7f4e487b71000000000000000000000000000000000000000000000000000000005f52602260045260245ffd5b5f600282049050600182168061075557607f821691505b60208210810361076857610767610711565b5b50919050565b7f4f6e6c79206f776e65722063616e20646f2074686174210000000000000000005f82015250565b5f6107a2601783610602565b91506107ad8261076e565b602082019050919050565b5f6020820190508181035f8301526107cf81610796565b9050919050565b7f546865206e756d62657273206f66207061727469636970616e7473206d7573745f8201527f206265206c6172676572207468616e2032000000000000000000000000000000602082015250565b5f610830603183610602565b915061083b826107d6565b604082019050919050565b5f6020820190508181035f83015261085d81610824565b9050919050565b7f4e487b71000000000000000000000000000000000000000000000000000000005f52603260045260245ffd5b7f4f776e65722063616e27742070617274696369706174650000000000000000005f82015250565b5f6108c5601783610602565b91506108d082610891565b602082019050919050565b5f6020820190508181035f8301526108f2816108b9565b9050919050565b7f5072696365206d75737420626520657175616c20746f207468652070726963655f8201527f20646566696e656420627920746865206f776e6572206f6620746865206c6f7460208201527f7465727900000000000000000000000000000000000000000000000000000000604082015250565b5f610979604483610602565b9150610984826108f9565b606082019050919050565b5f6020820190508181035f8301526109a68161096d565b9050919050565b7f41207061727469636970616e742063616e6e6f742070617274696369706174655f8201527f207365766572616c2074696d6573000000000000000000000000000000000000602082015250565b5f610a07602e83610602565b9150610a12826109ad565b604082019050919050565b5f6020820190508181035f830152610a34816109fb565b9050919050565b7f4e487b71000000000000000000000000000000000000000000000000000000005f52601160045260245ffd5b5f610a72826106e0565b91507fffffffffffffffffffffffffffffffffffffffffffffffffffffffffffffffff8203610aa457610aa3610a3b565b5b600182019050919050565b5f819050919050565b610ac9610ac4826106e0565b610aaf565b82525050565b5f8160601b9050919050565b5f610ae582610acf565b9050919050565b5f610af682610adb565b9050919050565b610b0e610b09826106a7565b610aec565b82525050565b5f610b1f8286610ab8565b602082019150610b2f8285610afd565b601482019150610b3f8284610ab8565b602082019150819050949350505050565b7f4e487b71000000000000000000000000000000000000000000000000000000005f52601260045260245ffd5b5f610b87826106e0565b9150610b92836106e0565b925082610ba257610ba1610b50565b5b82820690509291505056fea264697066735822122083b554fc568b26350c086c3d7afa1b3e1141573b77104da099014f7838a37e8d64736f6c634300081e0033a26469706673582212204359c149889f24664d44e458ba2ef93cbb99f435d27f49e9961ffda59288300764736f6c634300081e0033', \n     arguments: [\n     ]\n}).send({\n     from: web3.eth.accounts[0], \n     gas: '4700000'\n   }, function (e, contract){\n    console.log(e, contract);\n    if (typeof contract.address !== 'undefined') {\n         console.log('Contract mined! address: ' + contract.address + ' transactionHash: ' + contract.transactionHash);\n    }\n })",
  "functionHashes": {
    "09e786be": "addLoterie(uint256,string)",
    "2dc93daa": "getLoteries()",
    "5fd4b08a": "getName(address)",
    "41976e09": "getPrice(address)",
    "3bbfddc7": "getSolde(address)",
    "b91038c7": "participate(address)",
    "9c2f6944": "randomDraw(address)",
    "5a8ad3dd": "removeLoterie(address)"
  },
  "gasEstimates": {
    "Creation": {
      "codeDepositCost": "2020000",
      "executionCost": "26405",
      "totalCost": "2046405"
    },
    "External": {
      "addLoterie(uint256,string)": "infinite",
      "getLoteries()": "infinite",
      "getName(address)": "infinite",
      "getPrice(address)": "infinite",
      "getSolde(address)": "infinite",
      "participate(address)": "infinite",
      "randomDraw(address)": "infinite",
      "removeLoterie(address)": "infinite"
    },
    "Internal": {
      "containsAddress(address)": "infinite"
    }
  },
  "devdoc": {
    "details": "Store & retrieve value in a variable",
    "kind": "dev",
    "methods": {},
    "title": "Loterie",
    "version": 1
  },
  "userdoc": {
    "kind": "user",
    "methods": {},
    "version": 1
  },
  "Runtime Bytecode": {
    "immutableReferences": {},
    "linkReferences": {},
    "object": "60806040526004361061007a575f3560e01c80635a8ad3dd1161004d5780635a8ad3dd146101495780635fd4b08a146101715780639c2f6944146101ad578063b91038c7146101e95761007a565b806309e786be1461007e5780632dc93daa146100a65780633bbfddc7146100d157806341976e091461010d575b5f5ffd5b348015610089575f5ffd5b506100a4600480360381019061009f9190610e78565b610205565b005b3480156100b1575f5ffd5b506100ba6103a9565b6040516100c89291906110d4565b60405180910390f35b3480156100dc575f5ffd5b506100f760048036038101906100f29190611133565b610515565b604051610104919061116d565b60405180910390f35b348015610118575f5ffd5b50610133600480360381019061012e9190611133565b61062d565b604051610140919061116d565b60405180910390f35b348015610154575f5ffd5b5061016f600480360381019061016a9190611133565b610745565b005b34801561017c575f5ffd5b5061019760048036038101906101929190611133565b610954565b6040516101a491906111ce565b60405180910390f35b3480156101b8575f5ffd5b506101d360048036038101906101ce9190611133565b610a70565b6040516101e091906111fd565b60405180910390f35b61020360048036038101906101fe9190611133565b610b46565b005b60025f9054906101000a900473ffffffffffffffffffffffffffffffffffffffff1673ffffffffffffffffffffffffffffffffffffffff163373ffffffffffffffffffffffffffffffffffffffff1614610294576040517f08c379a000000000000000000000000000000000000000000000000000000000815260040161028b90611260565b60405180910390fd5b5f82826040516102a390610ceb565b6102ae92919061127e565b604051809103905ff0801580156102c7573d5f5f3e3d5ffd5b509050600181908060018154018082558091505060019003905f5260205f20015f9091909190916101000a81548173ffffffffffffffffffffffffffffffffffffffff021916908373ffffffffffffffffffffffffffffffffffffffff160217905550805f5f8373ffffffffffffffffffffffffffffffffffffffff1673ffffffffffffffffffffffffffffffffffffffff1681526020019081526020015f205f6101000a81548173ffffffffffffffffffffffffffffffffffffffff021916908373ffffffffffffffffffffffffffffffffffffffff160217905550505050565b6060805f60018054905067ffffffffffffffff8111156103cc576103cb610d54565b5b6040519080825280602002602001820160405280156103ff57816020015b60608152602001906001900390816103ea5790505b5090505f5f90505b600180549050811015610483576104586001828154811061042b5761042a6112ac565b5b905f5260205f20015f9054906101000a900473ffffffffffffffffffffffffffffffffffffffff16610954565b82828151811061046b5761046a6112ac565b5b60200260200101819052508080600101915050610407565b506001818180548060200260200160405190810160405280929190818152602001828054801561050557602002820191905f5260205f20905b815f9054906101000a900473ffffffffffffffffffffffffffffffffffffffff1673ffffffffffffffffffffffffffffffffffffffff16815260200190600101908083116104bc575b5050505050915092509250509091565b5f61051f82610c49565b61055e576040517f08c379a000000000000000000000000000000000000000000000000000000000815260040161055590611323565b60405180910390fd5b5f5f8373ffffffffffffffffffffffffffffffffffffffff1673ffffffffffffffffffffffffffffffffffffffff1681526020019081526020015f205f9054906101000a900473ffffffffffffffffffffffffffffffffffffffff1673ffffffffffffffffffffffffffffffffffffffff166355e5ae046040518163ffffffff1660e01b8152600401602060405180830381865afa158015610602573d5f5f3e3d5ffd5b505050506040513d601f19601f820116820180604052508101906106269190611355565b9050919050565b5f61063782610c49565b610676576040517f08c379a000000000000000000000000000000000000000000000000000000000815260040161066d90611323565b60405180910390fd5b5f5f8373ffffffffffffffffffffffffffffffffffffffff1673ffffffffffffffffffffffffffffffffffffffff1681526020019081526020015f205f9054906101000a900473ffffffffffffffffffffffffffffffffffffffff1673ffffffffffffffffffffffffffffffffffffffff166398d5fdca6040518163ffffffff1660e01b8152600401602060405180830381865afa15801561071a573d5f5f3e3d5ffd5b505050506040513d601f19601f8201168201806040525081019061073e9190611355565b9050919050565b60025f9054906101000a900473ffffffffffffffffffffffffffffffffffffffff1673ffffffffffffffffffffffffffffffffffffffff163373ffffffffffffffffffffffffffffffffffffffff16146107d4576040517f08c379a00000000000000000000000000000000000000000000000000000000081526004016107cb906113f0565b60405180910390fd5b5f5f90505b60018054905081101561094f578173ffffffffffffffffffffffffffffffffffffffff1660018281548110610811576108106112ac565b5b905f5260205f20015f9054906101000a900473ffffffffffffffffffffffffffffffffffffffff1673ffffffffffffffffffffffffffffffffffffffff1603610942576001808080549050610866919061143b565b81548110610877576108766112ac565b5b905f5260205f20015f9054906101000a900473ffffffffffffffffffffffffffffffffffffffff16600182815481106108b3576108b26112ac565b5b905f5260205f20015f6101000a81548173ffffffffffffffffffffffffffffffffffffffff021916908373ffffffffffffffffffffffffffffffffffffffff160217905550600180548061090a5761090961146e565b5b600190038181905f5260205f20015f6101000a81549073ffffffffffffffffffffffffffffffffffffffff0219169055905550610951565b80806001019150506107d9565b505b50565b606061095f82610c49565b61099e576040517f08c379a000000000000000000000000000000000000000000000000000000000815260040161099590611323565b60405180910390fd5b5f5f8373ffffffffffffffffffffffffffffffffffffffff1673ffffffffffffffffffffffffffffffffffffffff1681526020019081526020015f205f9054906101000a900473ffffffffffffffffffffffffffffffffffffffff1673ffffffffffffffffffffffffffffffffffffffff166317d7de7c6040518163ffffffff1660e01b81526004015f60405180830381865afa158015610a41573d5f5f3e3d5ffd5b505050506040513d5f823e3d601f19601f82011682018060405250810190610a699190611509565b9050919050565b5f5f5f5f8473ffffffffffffffffffffffffffffffffffffffff1673ffffffffffffffffffffffffffffffffffffffff1681526020019081526020015f205f9054906101000a900473ffffffffffffffffffffffffffffffffffffffff1673ffffffffffffffffffffffffffffffffffffffff16631e62e2026040518163ffffffff1660e01b81526004016020604051808303815f875af1158015610b17573d5f5f3e3d5ffd5b505050506040513d601f19601f82011682018060405250810190610b3b9190611564565b905080915050919050565b610b4f81610c49565b610b8e576040517f08c379a0000000000000000000000000000000000000000000000000000000008152600401610b8590611323565b60405180910390fd5b5f5f8273ffffffffffffffffffffffffffffffffffffffff1673ffffffffffffffffffffffffffffffffffffffff1681526020019081526020015f205f9054906101000a900473ffffffffffffffffffffffffffffffffffffffff1673ffffffffffffffffffffffffffffffffffffffff1663d11711a2346040518263ffffffff1660e01b81526004015f604051808303818588803b158015610c2f575f5ffd5b505af1158015610c41573d5f5f3e3d5ffd5b505050505050565b5f5f5f90505b600180549050811015610ce1578273ffffffffffffffffffffffffffffffffffffffff1660018281548110610c8757610c866112ac565b5b905f5260205f20015f9054906101000a900473ffffffffffffffffffffffffffffffffffffffff1673ffffffffffffffffffffffffffffffffffffffff1603610cd4576001915050610ce6565b8080600101915050610c4f565b505f90505b919050565b6111af8061159083390190565b5f604051905090565b5f5ffd5b5f5ffd5b5f819050919050565b610d1b81610d09565b8114610d25575f5ffd5b50565b5f81359050610d3681610d12565b92915050565b5f5ffd5b5f5ffd5b5f601f19601f8301169050919050565b7f4e487b71000000000000000000000000000000000000000000000000000000005f52604160045260245ffd5b610d8a82610d44565b810181811067ffffffffffffffff82111715610da957610da8610d54565b5b80604052505050565b5f610dbb610cf8565b9050610dc78282610d81565b919050565b5f67ffffffffffffffff821115610de657610de5610d54565b5b610def82610d44565b9050602081019050919050565b828183375f83830152505050565b5f610e1c610e1784610dcc565b610db2565b905082815260208101848484011115610e3857610e37610d40565b5b610e43848285610dfc565b509392505050565b5f82601f830112610e5f57610e5e610d3c565b5b8135610e6f848260208601610e0a565b91505092915050565b5f5f60408385031215610e8e57610e8d610d01565b5b5f610e9b85828601610d28565b925050602083013567ffffffffffffffff811115610ebc57610ebb610d05565b5b610ec885828601610e4b565b9150509250929050565b5f81519050919050565b5f82825260208201905092915050565b5f819050602082019050919050565b5f73ffffffffffffffffffffffffffffffffffffffff82169050919050565b5f610f2482610efb565b9050919050565b610f3481610f1a565b82525050565b5f610f458383610f2b565b60208301905092915050565b5f602082019050919050565b5f610f6782610ed2565b610f718185610edc565b9350610f7c83610eec565b805f5b83811015610fac578151610f938882610f3a565b9750610f9e83610f51565b925050600181019050610f7f565b5085935050505092915050565b5f81519050919050565b5f82825260208201905092915050565b5f819050602082019050919050565b5f81519050919050565b5f82825260208201905092915050565b8281835e5f83830152505050565b5f61101482610fe2565b61101e8185610fec565b935061102e818560208601610ffc565b61103781610d44565b840191505092915050565b5f61104d838361100a565b905092915050565b5f602082019050919050565b5f61106b82610fb9565b6110758185610fc3565b93508360208202850161108785610fd3565b805f5b858110156110c257848403895281516110a38582611042565b94506110ae83611055565b925060208a0199505060018101905061108a565b50829750879550505050505092915050565b5f6040820190508181035f8301526110ec8185610f5d565b905081810360208301526111008184611061565b90509392505050565b61111281610f1a565b811461111c575f5ffd5b50565b5f8135905061112d81611109565b92915050565b5f6020828403121561114857611147610d01565b5b5f6111558482850161111f565b91505092915050565b61116781610d09565b82525050565b5f6020820190506111805f83018461115e565b92915050565b5f82825260208201905092915050565b5f6111a082610fe2565b6111aa8185611186565b93506111ba818560208601610ffc565b6111c381610d44565b840191505092915050565b5f6020820190508181035f8301526111e68184611196565b905092915050565b6111f781610f1a565b82525050565b5f6020820190506112105f8301846111ee565b92915050565b7f4f6e6c7920746865206f776e65722063616e206164642061206c6f74746572795f82015250565b5f61124a602083611186565b915061125582611216565b602082019050919050565b5f6020820190508181035f8301526112778161123e565b9050919050565b5f6040820190506112915f83018561115e565b81810360208301526112a38184611196565b90509392505050565b7f4e487b71000000000000000000000000000000000000000000000000000000005f52603260045260245ffd5b7f4c6f746572696520646f65736e277420657869737400000000000000000000005f82015250565b5f61130d601583611186565b9150611318826112d9565b602082019050919050565b5f6020820190508181035f83015261133a81611301565b9050919050565b5f8151905061134f81610d12565b92915050565b5f6020828403121561136a57611369610d01565b5b5f61137784828501611341565b91505092915050565b7f4f6e6c7920746865206f776e65722063616e2072656d6f76652061206c6f74745f8201527f6572790000000000000000000000000000000000000000000000000000000000602082015250565b5f6113da602383611186565b91506113e582611380565b604082019050919050565b5f6020820190508181035f830152611407816113ce565b9050919050565b7f4e487b71000000000000000000000000000000000000000000000000000000005f52601160045260245ffd5b5f61144582610d09565b915061145083610d09565b92508282039050818111156114685761146761140e565b5b92915050565b7f4e487b71000000000000000000000000000000000000000000000000000000005f52603160045260245ffd5b5f6114ad6114a884610dcc565b610db2565b9050828152602081018484840111156114c9576114c8610d40565b5b6114d4848285610ffc565b509392505050565b5f82601f8301126114f0576114ef610d3c565b5b815161150084826020860161149b565b91505092915050565b5f6020828403121561151e5761151d610d01565b5b5f82015167ffffffffffffffff81111561153b5761153a610d05565b5b611547848285016114dc565b91505092915050565b5f8151905061155e81611109565b92915050565b5f6020828403121561157957611578610d01565b5b5f61158684828501611550565b9150509291505056fe608060405234801561000f575f5ffd5b506040516111af3803806111af83398181016040528101906100319190610221565b3260045f6101000a81548173ffffffffffffffffffffffffffffffffffffffff021916908373ffffffffffffffffffffffffffffffffffffffff16021790555080600290816100809190610482565b50662386f26fc1000082610094919061057e565b60018190555050506105bf565b5f604051905090565b5f5ffd5b5f5ffd5b5f819050919050565b6100c4816100b2565b81146100ce575f5ffd5b50565b5f815190506100df816100bb565b92915050565b5f5ffd5b5f5ffd5b5f601f19601f8301169050919050565b7f4e487b71000000000000000000000000000000000000000000000000000000005f52604160045260245ffd5b610133826100ed565b810181811067ffffffffffffffff82111715610152576101516100fd565b5b80604052505050565b5f6101646100a1565b9050610170828261012a565b919050565b5f67ffffffffffffffff82111561018f5761018e6100fd565b5b610198826100ed565b9050602081019050919050565b8281835e5f83830152505050565b5f6101c56101c084610175565b61015b565b9050828152602081018484840111156101e1576101e06100e9565b5b6101ec8482856101a5565b509392505050565b5f82601f830112610208576102076100e5565b5b81516102188482602086016101b3565b91505092915050565b5f5f60408385031215610237576102366100aa565b5b5f610244858286016100d1565b925050602083015167ffffffffffffffff811115610265576102646100ae565b5b610271858286016101f4565b9150509250929050565b5f81519050919050565b7f4e487b71000000000000000000000000000000000000000000000000000000005f52602260045260245ffd5b5f60028204905060018216806102c957607f821691505b6020821081036102dc576102db610285565b5b50919050565b5f819050815f5260205f209050919050565b5f6020601f8301049050919050565b5f82821b905092915050565b5f6008830261033e7fffffffffffffffffffffffffffffffffffffffffffffffffffffffffffffffff82610303565b6103488683610303565b95508019841693508086168417925050509392505050565b5f819050919050565b5f61038361037e610379846100b2565b610360565b6100b2565b9050919050565b5f819050919050565b61039c83610369565b6103b06103a88261038a565b84845461030f565b825550505050565b5f5f905090565b6103c76103b8565b6103d2818484610393565b505050565b5b818110156103f5576103ea5f826103bf565b6001810190506103d8565b5050565b601f82111561043a5761040b816102e2565b610414846102f4565b81016020851015610423578190505b61043761042f856102f4565b8301826103d7565b50505b505050565b5f82821c905092915050565b5f61045a5f198460080261043f565b1980831691505092915050565b5f610472838361044b565b9150826002028217905092915050565b61048b8261027b565b67ffffffffffffffff8111156104a4576104a36100fd565b5b6104ae82546102b2565b6104b98282856103f9565b5f60209050601f8311600181146104ea575f84156104d8578287015190505b6104e28582610467565b865550610549565b601f1984166104f8866102e2565b5f5b8281101561051f578489015182556001820191506020850194506020810190506104fa565b8683101561053c5784890151610538601f89168261044b565b8355505b6001600288020188555050505b505050505050565b7f4e487b71000000000000000000000000000000000000000000000000000000005f52601160045260245ffd5b5f610588826100b2565b9150610593836100b2565b92508282026105a1816100b2565b915082820484148315176105b8576105b7610551565b5b5092915050565b610be3806105cc5f395ff3fe608060405260043610610054575f3560e01c806317d7de7c146100585780631e62e2021461008257806355e5ae04146100ac57806398d5fdca146100d6578063a035b1fe14610100578063d11711a21461012a575b5f5ffd5b348015610063575f5ffd5b5061006c610134565b6040516100799190610668565b60405180910390f35b34801561008d575f5ffd5b506100966101c4565b6040516100a391906106c7565b60405180910390f35b3480156100b7575f5ffd5b506100c0610340565b6040516100cd91906106f8565b60405180910390f35b3480156100e1575f5ffd5b506100ea610347565b6040516100f791906106f8565b60405180910390f35b34801561010b575f5ffd5b50610114610350565b60405161012191906106f8565b60405180910390f35b610132610356565b005b6060600280546101439061073e565b80601f016020809104026020016040519081016040528092919081815260200182805461016f9061073e565b80156101ba5780601f10610191576101008083540402835291602001916101ba565b820191905f5260205f20905b81548152906001019060200180831161019d57829003601f168201915b5050505050905090565b5f60045f9054906101000a900473ffffffffffffffffffffffffffffffffffffffff1673ffffffffffffffffffffffffffffffffffffffff163273ffffffffffffffffffffffffffffffffffffffff1614610254576040517f08c379a000000000000000000000000000000000000000000000000000000000815260040161024b906107b8565b60405180910390fd5b60026003805490501161029c576040517f08c379a000000000000000000000000000000000000000000000000000000000815260040161029390610846565b60405180910390fd5b5f60036102ad600380549050610568565b815481106102be576102bd610864565b5b905f5260205f20015f9054906101000a900473ffffffffffffffffffffffffffffffffffffffff1690508073ffffffffffffffffffffffffffffffffffffffff166108fc4790811502906040515f60405180830381858888f1935050505015801561032b573d5f5f3e3d5ffd5b5060035f61033991906105bf565b8091505090565b5f47905090565b5f600154905090565b60015481565b60045f9054906101000a900473ffffffffffffffffffffffffffffffffffffffff1673ffffffffffffffffffffffffffffffffffffffff163273ffffffffffffffffffffffffffffffffffffffff16036103e5576040517f08c379a00000000000000000000000000000000000000000000000000000000081526004016103dc906108db565b60405180910390fd5b6001543414610429576040517f08c379a00000000000000000000000000000000000000000000000000000000081526004016104209061098f565b60405180910390fd5b5f5f90505f5f90505b6003805490508110156104c3573273ffffffffffffffffffffffffffffffffffffffff166003828154811061046a57610469610864565b5b905f5260205f20015f9054906101000a900473ffffffffffffffffffffffffffffffffffffffff1673ffffffffffffffffffffffffffffffffffffffff16036104b657600191506104c3565b8080600101915050610432565b508015610505576040517f08c379a00000000000000000000000000000000000000000000000000000000081526004016104fc90610a1d565b60405180910390fd5b600332908060018154018082558091505060019003905f5260205f20015f9091909190916101000a81548173ffffffffffffffffffffffffffffffffffffffff021916908373ffffffffffffffffffffffffffffffffffffffff16021790555050565b5f5f5f81548092919061057a90610a68565b91905055508142325f5460405160200161059693929190610b14565b604051602081830303815290604052805190602001205f1c6105b89190610b7d565b9050919050565b5080545f8255905f5260205f20908101906105da91906105dd565b50565b5b808211156105f4575f815f9055506001016105de565b5090565b5f81519050919050565b5f82825260208201905092915050565b8281835e5f83830152505050565b5f601f19601f8301169050919050565b5f61063a826105f8565b6106448185610602565b9350610654818560208601610612565b61065d81610620565b840191505092915050565b5f6020820190508181035f8301526106808184610630565b905092915050565b5f73ffffffffffffffffffffffffffffffffffffffff82169050919050565b5f6106b182610688565b9050919050565b6106c1816106a7565b82525050565b5f6020820190506106da5f8301846106b8565b92915050565b5f819050919050565b6106f2816106e0565b82525050565b5f60208201905061070b5f8301846106e9565b92915050565b7f4e487b71000000000000000000000000000000000000000000000000000000005f52602260045260245ffd5b5f600282049050600182168061075557607f821691505b60208210810361076857610767610711565b5b50919050565b7f4f6e6c79206f776e65722063616e20646f2074686174210000000000000000005f82015250565b5f6107a2601783610602565b91506107ad8261076e565b602082019050919050565b5f6020820190508181035f8301526107cf81610796565b9050919050565b7f546865206e756d62657273206f66207061727469636970616e7473206d7573745f8201527f206265206c6172676572207468616e2032000000000000000000000000000000602082015250565b5f610830603183610602565b915061083b826107d6565b604082019050919050565b5f6020820190508181035f83015261085d81610824565b9050919050565b7f4e487b71000000000000000000000000000000000000000000000000000000005f52603260045260245ffd5b7f4f776e65722063616e27742070617274696369706174650000000000000000005f82015250565b5f6108c5601783610602565b91506108d082610891565b602082019050919050565b5f6020820190508181035f8301526108f2816108b9565b9050919050565b7f5072696365206d75737420626520657175616c20746f207468652070726963655f8201527f20646566696e656420627920746865206f776e6572206f6620746865206c6f7460208201527f7465727900000000000000000000000000000000000000000000000000000000604082015250565b5f610979604483610602565b9150610984826108f9565b606082019050919050565b5f6020820190508181035f8301526109a68161096d565b9050919050565b7f41207061727469636970616e742063616e6e6f742070617274696369706174655f8201527f207365766572616c2074696d6573000000000000000000000000000000000000602082015250565b5f610a07602e83610602565b9150610a12826109ad565b604082019050919050565b5f6020820190508181035f830152610a34816109fb565b9050919050565b7f4e487b71000000000000000000000000000000000000000000000000000000005f52601160045260245ffd5b5f610a72826106e0565b91507fffffffffffffffffffffffffffffffffffffffffffffffffffffffffffffffff8203610aa457610aa3610a3b565b5b600182019050919050565b5f819050919050565b610ac9610ac4826106e0565b610aaf565b82525050565b5f8160601b9050919050565b5f610ae582610acf565b9050919050565b5f610af682610adb565b9050919050565b610b0e610b09826106a7565b610aec565b82525050565b5f610b1f8286610ab8565b602082019150610b2f8285610afd565b601482019150610b3f8284610ab8565b602082019150819050949350505050565b7f4e487b71000000000000000000000000000000000000000000000000000000005f52601260045260245ffd5b5f610b87826106e0565b9150610b92836106e0565b925082610ba257610ba1610b50565b5b82820690509291505056fea264697066735822122083b554fc568b26350c086c3d7afa1b3e1141573b77104da099014f7838a37e8d64736f6c634300081e0033a26469706673582212204359c149889f24664d44e458ba2ef93cbb99f435d27f49e9961ffda59288300764736f6c634300081e0033",
    "opcodes": "PUSH1 0x80 PUSH1 0x40 MSTORE PUSH1 0x4 CALLDATASIZE LT PUSH2 0x7A JUMPI PUSH0 CALLDATALOAD PUSH1 0xE0 SHR DUP1 PUSH4 0x5A8AD3DD GT PUSH2 0x4D JUMPI DUP1 PUSH4 0x5A8AD3DD EQ PUSH2 0x149 JUMPI DUP1 PUSH4 0x5FD4B08A EQ PUSH2 0x171 JUMPI DUP1 PUSH4 0x9C2F6944 EQ PUSH2 0x1AD JUMPI DUP1 PUSH4 0xB91038C7 EQ PUSH2 0x1E9 JUMPI PUSH2 0x7A JUMP JUMPDEST DUP1 PUSH4 0x9E786BE EQ PUSH2 0x7E JUMPI DUP1 PUSH4 0x2DC93DAA EQ PUSH2 0xA6 JUMPI DUP1 PUSH4 0x3BBFDDC7 EQ PUSH2 0xD1 JUMPI DUP1 PUSH4 0x41976E09 EQ PUSH2 0x10D JUMPI JUMPDEST PUSH0 PUSH0 REVERT JUMPDEST CALLVALUE DUP1 ISZERO PUSH2 0x89 JUMPI PUSH0 PUSH0 REVERT JUMPDEST POP PUSH2 0xA4 PUSH1 0x4 DUP1 CALLDATASIZE SUB DUP2 ADD SWAP1 PUSH2 0x9F SWAP2 SWAP1 PUSH2 0xE78 JUMP JUMPDEST PUSH2 0x205 JUMP JUMPDEST STOP JUMPDEST CALLVALUE DUP1 ISZERO PUSH2 0xB1 JUMPI PUSH0 PUSH0 REVERT JUMPDEST POP PUSH2 0xBA PUSH2 0x3A9 JUMP JUMPDEST PUSH1 0x40 MLOAD PUSH2 0xC8 SWAP3 SWAP2 SWAP1 PUSH2 0x10D4 JUMP JUMPDEST PUSH1 0x40 MLOAD DUP1 SWAP2 SUB SWAP1 RETURN JUMPDEST CALLVALUE DUP1 ISZERO PUSH2 0xDC JUMPI PUSH0 PUSH0 REVERT JUMPDEST POP PUSH2 0xF7 PUSH1 0x4 DUP1 CALLDATASIZE SUB DUP2 ADD SWAP1 PUSH2 0xF2 SWAP2 SWAP1 PUSH2 0x1133 JUMP JUMPDEST PUSH2 0x515 JUMP JUMPDEST PUSH1 0x40 MLOAD PUSH2 0x104 SWAP2 SWAP1 PUSH2 0x116D JUMP JUMPDEST PUSH1 0x40 MLOAD DUP1 SWAP2 SUB SWAP1 RETURN JUMPDEST CALLVALUE DUP1 ISZERO PUSH2 0x118 JUMPI PUSH0 PUSH0 REVERT JUMPDEST POP PUSH2 0x133 PUSH1 0x4 DUP1 CALLDATASIZE SUB DUP2 ADD SWAP1 PUSH2 0x12E SWAP2 SWAP1 PUSH2 0x1133 JUMP JUMPDEST PUSH2 0x62D JUMP JUMPDEST PUSH1 0x40 MLOAD PUSH2 0x140 SWAP2 SWAP1 PUSH2 0x116D JUMP JUMPDEST PUSH1 0x40 MLOAD DUP1 SWAP2 SUB SWAP1 RETURN JUMPDEST CALLVALUE DUP1 ISZERO PUSH2 0x154 JUMPI PUSH0 PUSH0 REVERT JUMPDEST POP PUSH2 0x16F PUSH1 0x4 DUP1 CALLDATASIZE SUB DUP2 ADD SWAP1 PUSH2 0x16A SWAP2 SWAP1 PUSH2 0x1133 JUMP JUMPDEST PUSH2 0x745 JUMP JUMPDEST STOP JUMPDEST CALLVALUE DUP1 ISZERO PUSH2 0x17C JUMPI PUSH0 PUSH0 REVERT JUMPDEST POP PUSH2 0x197 PUSH1 0x4 DUP1 CALLDATASIZE SUB DUP2 ADD SWAP1 PUSH2 0x192 SWAP2 SWAP1 PUSH2 0x1133 JUMP JUMPDEST PUSH2 0x954 JUMP JUMPDEST PUSH1 0x40 MLOAD PUSH2 0x1A4 SWAP2 SWAP1 PUSH2 0x11CE JUMP JUMPDEST PUSH1 0x40 MLOAD DUP1 SWAP2 SUB SWAP1 RETURN JUMPDEST CALLVALUE DUP1 ISZERO PUSH2 0x1B8 JUMPI PUSH0 PUSH0 REVERT JUMPDEST POP PUSH2 0x1D3 PUSH1 0x4 DUP1 CALLDATASIZE SUB DUP2 ADD SWAP1 PUSH2 0x1CE SWAP2 SWAP1 PUSH2 0x1133 JUMP JUMPDEST PUSH2 0xA70 JUMP JUMPDEST PUSH1 0x40 MLOAD PUSH2 0x1E0 SWAP2 SWAP1 PUSH2 0x11FD JUMP JUMPDEST PUSH1 0x40 MLOAD DUP1 SWAP2 SUB SWAP1 RETURN JUMPDEST PUSH2 0x203 PUSH1 0x4 DUP1 CALLDATASIZE SUB DUP2 ADD SWAP1 PUSH2 0x1FE SWAP2 SWAP1 PUSH2 0x1133 JUMP JUMPDEST PUSH2 0xB46 JUMP JUMPDEST STOP JUMPDEST PUSH1 0x2 PUSH0 SWAP1 SLOAD SWAP1 PUSH2 0x100 EXP SWAP1 DIV PUSH20 0xFFFFFFFFFFFFFFFFFFFFFFFFFFFFFFFFFFFFFFFF AND PUSH20 0xFFFFFFFFFFFFFFFFFFFFFFFFFFFFFFFFFFFFFFFF AND CALLER PUSH20 0xFFFFFFFFFFFFFFFFFFFFFFFFFFFFFFFFFFFFFFFF AND EQ PUSH2 0x294 JUMPI PUSH1 0x40 MLOAD PUSH32 0x8C379A000000000000000000000000000000000000000000000000000000000 DUP2 MSTORE PUSH1 0x4 ADD PUSH2 0x28B SWAP1 PUSH2 0x1260 JUMP JUMPDEST PUSH1 0x40 MLOAD DUP1 SWAP2 SUB SWAP1 REVERT JUMPDEST PUSH0 DUP3 DUP3 PUSH1 0x40 MLOAD PUSH2 0x2A3 SWAP1 PUSH2 0xCEB JUMP JUMPDEST PUSH2 0x2AE SWAP3 SWAP2 SWAP1 PUSH2 0x127E JUMP JUMPDEST PUSH1 0x40 MLOAD DUP1 SWAP2 SUB SWAP1 PUSH0 CREATE DUP1 ISZERO DUP1 ISZERO PUSH2 0x2C7 JUMPI RETURNDATASIZE PUSH0 PUSH0 RETURNDATACOPY RETURNDATASIZE PUSH0 REVERT JUMPDEST POP SWAP1 POP PUSH1 0x1 DUP2 SWAP1 DUP1 PUSH1 0x1 DUP2 SLOAD ADD DUP1 DUP3 SSTORE DUP1 SWAP2 POP POP PUSH1 0x1 SWAP1 SUB SWAP1 PUSH0 MSTORE PUSH1 0x20 PUSH0 KECCAK256 ADD PUSH0 SWAP1 SWAP2 SWAP1 SWAP2 SWAP1 SWAP2 PUSH2 0x100 EXP DUP2 SLOAD DUP2 PUSH20 0xFFFFFFFFFFFFFFFFFFFFFFFFFFFFFFFFFFFFFFFF MUL NOT AND SWAP1 DUP4 PUSH20 0xFFFFFFFFFFFFFFFFFFFFFFFFFFFFFFFFFFFFFFFF AND MUL OR SWAP1 SSTORE POP DUP1 PUSH0 PUSH0 DUP4 PUSH20 0xFFFFFFFFFFFFFFFFFFFFFFFFFFFFFFFFFFFFFFFF AND PUSH20 0xFFFFFFFFFFFFFFFFFFFFFFFFFFFFFFFFFFFFFFFF AND DUP2 MSTORE PUSH1 0x20 ADD SWAP1 DUP2 MSTORE PUSH1 0x20 ADD PUSH0 KECCAK256 PUSH0 PUSH2 0x100 EXP DUP2 SLOAD DUP2 PUSH20 0xFFFFFFFFFFFFFFFFFFFFFFFFFFFFFFFFFFFFFFFF MUL NOT AND SWAP1 DUP4 PUSH20 0xFFFFFFFFFFFFFFFFFFFFFFFFFFFFFFFFFFFFFFFF AND MUL OR SWAP1 SSTORE POP POP POP POP JUMP JUMPDEST PUSH1 0x60 DUP1 PUSH0 PUSH1 0x1 DUP1 SLOAD SWAP1 POP PUSH8 0xFFFFFFFFFFFFFFFF DUP2 GT ISZERO PUSH2 0x3CC JUMPI PUSH2 0x3CB PUSH2 0xD54 JUMP JUMPDEST JUMPDEST PUSH1 0x40 MLOAD SWAP1 DUP1 DUP3 MSTORE DUP1 PUSH1 0x20 MUL PUSH1 0x20 ADD DUP3 ADD PUSH1 0x40 MSTORE DUP1 ISZERO PUSH2 0x3FF JUMPI DUP2 PUSH1 0x20 ADD JUMPDEST PUSH1 0x60 DUP2 MSTORE PUSH1 0x20 ADD SWAP1 PUSH1 0x1 SWAP1 SUB SWAP1 DUP2 PUSH2 0x3EA JUMPI SWAP1 POP JUMPDEST POP SWAP1 POP PUSH0 PUSH0 SWAP1 POP JUMPDEST PUSH1 0x1 DUP1 SLOAD SWAP1 POP DUP2 LT ISZERO PUSH2 0x483 JUMPI PUSH2 0x458 PUSH1 0x1 DUP3 DUP2 SLOAD DUP2 LT PUSH2 0x42B JUMPI PUSH2 0x42A PUSH2 0x12AC JUMP JUMPDEST JUMPDEST SWAP1 PUSH0 MSTORE PUSH1 0x20 PUSH0 KECCAK256 ADD PUSH0 SWAP1 SLOAD SWAP1 PUSH2 0x100 EXP SWAP1 DIV PUSH20 0xFFFFFFFFFFFFFFFFFFFFFFFFFFFFFFFFFFFFFFFF AND PUSH2 0x954 JUMP JUMPDEST DUP3 DUP3 DUP2 MLOAD DUP2 LT PUSH2 0x46B JUMPI PUSH2 0x46A PUSH2 0x12AC JUMP JUMPDEST JUMPDEST PUSH1 0x20 MUL PUSH1 0x20 ADD ADD DUP2 SWAP1 MSTORE POP DUP1 DUP1 PUSH1 0x1 ADD SWAP2 POP POP PUSH2 0x407 JUMP JUMPDEST POP PUSH1 0x1 DUP2 DUP2 DUP1 SLOAD DUP1 PUSH1 0x20 MUL PUSH1 0x20 ADD PUSH1 0x40 MLOAD SWAP1 DUP2 ADD PUSH1 0x40 MSTORE DUP1 SWAP3 SWAP2 SWAP1 DUP2 DUP2 MSTORE PUSH1 0x20 ADD DUP3 DUP1 SLOAD DUP1 ISZERO PUSH2 0x505 JUMPI PUSH1 0x20 MUL DUP3 ADD SWAP2 SWAP1 PUSH0 MSTORE PUSH1 0x20 PUSH0 KECCAK256 SWAP1 JUMPDEST DUP2 PUSH0 SWAP1 SLOAD SWAP1 PUSH2 0x100 EXP SWAP1 DIV PUSH20 0xFFFFFFFFFFFFFFFFFFFFFFFFFFFFFFFFFFFFFFFF AND PUSH20 0xFFFFFFFFFFFFFFFFFFFFFFFFFFFFFFFFFFFFFFFF AND DUP2 MSTORE PUSH1 0x20 ADD SWAP1 PUSH1 0x1 ADD SWAP1 DUP1 DUP4 GT PUSH2 0x4BC JUMPI JUMPDEST POP POP POP POP POP SWAP2 POP SWAP3 POP SWAP3 POP POP SWAP1 SWAP2 JUMP JUMPDEST PUSH0 PUSH2 0x51F DUP3 PUSH2 0xC49 JUMP JUMPDEST PUSH2 0x55E JUMPI PUSH1 0x40 MLOAD PUSH32 0x8C379A000000000000000000000000000000000000000000000000000000000 DUP2 MSTORE PUSH1 0x4 ADD PUSH2 0x555 SWAP1 PUSH2 0x1323 JUMP JUMPDEST PUSH1 0x40 MLOAD DUP1 SWAP2 SUB SWAP1 REVERT JUMPDEST PUSH0 PUSH0 DUP4 PUSH20 0xFFFFFFFFFFFFFFFFFFFFFFFFFFFFFFFFFFFFFFFF AND PUSH20 0xFFFFFFFFFFFFFFFFFFFFFFFFFFFFFFFFFFFFFFFF AND DUP2 MSTORE PUSH1 0x20 ADD SWAP1 DUP2 MSTORE PUSH1 0x20 ADD PUSH0 KECCAK256 PUSH0 SWAP1 SLOAD SWAP1 PUSH2 0x100 EXP SWAP1 DIV PUSH20 0xFFFFFFFFFFFFFFFFFFFFFFFFFFFFFFFFFFFFFFFF AND PUSH20 0xFFFFFFFFFFFFFFFFFFFFFFFFFFFFFFFFFFFFFFFF AND PUSH4 0x55E5AE04 PUSH1 0x40 MLOAD DUP2 PUSH4 0xFFFFFFFF AND PUSH1 0xE0 SHL DUP2 MSTORE PUSH1 0x4 ADD PUSH1 0x20 PUSH1 0x40 MLOAD DUP1 DUP4 SUB DUP2 DUP7 GAS STATICCALL ISZERO DUP1 ISZERO PUSH2 0x602 JUMPI RETURNDATASIZE PUSH0 PUSH0 RETURNDATACOPY RETURNDATASIZE PUSH0 REVERT JUMPDEST POP POP POP POP PUSH1 0x40 MLOAD RETURNDATASIZE PUSH1 0x1F NOT PUSH1 0x1F DUP3 ADD AND DUP3 ADD DUP1 PUSH1 0x40 MSTORE POP DUP2 ADD SWAP1 PUSH2 0x626 SWAP2 SWAP1 PUSH2 0x1355 JUMP JUMPDEST SWAP1 POP SWAP2 SWAP1 POP JUMP JUMPDEST PUSH0 PUSH2 0x637 DUP3 PUSH2 0xC49 JUMP JUMPDEST PUSH2 0x676 JUMPI PUSH1 0x40 MLOAD PUSH32 0x8C379A000000000000000000000000000000000000000000000000000000000 DUP2 MSTORE PUSH1 0x4 ADD PUSH2 0x66D SWAP1 PUSH2 0x1323 JUMP JUMPDEST PUSH1 0x40 MLOAD DUP1 SWAP2 SUB SWAP1 REVERT JUMPDEST PUSH0 PUSH0 DUP4 PUSH20 0xFFFFFFFFFFFFFFFFFFFFFFFFFFFFFFFFFFFFFFFF AND PUSH20 0xFFFFFFFFFFFFFFFFFFFFFFFFFFFFFFFFFFFFFFFF AND DUP2 MSTORE PUSH1 0x20 ADD SWAP1 DUP2 MSTORE PUSH1 0x20 ADD PUSH0 KECCAK256 PUSH0 SWAP1 SLOAD SWAP1 PUSH2 0x100 EXP SWAP1 DIV PUSH20 0xFFFFFFFFFFFFFFFFFFFFFFFFFFFFFFFFFFFFFFFF AND PUSH20 0xFFFFFFFFFFFFFFFFFFFFFFFFFFFFFFFFFFFFFFFF AND PUSH4 0x98D5FDCA PUSH1 0x40 MLOAD DUP2 PUSH4 0xFFFFFFFF AND PUSH1 0xE0 SHL DUP2 MSTORE PUSH1 0x4 ADD PUSH1 0x20 PUSH1 0x40 MLOAD DUP1 DUP4 SUB DUP2 DUP7 GAS STATICCALL ISZERO DUP1 ISZERO PUSH2 0x71A JUMPI RETURNDATASIZE PUSH0 PUSH0 RETURNDATACOPY RETURNDATASIZE PUSH0 REVERT JUMPDEST POP POP POP POP PUSH1 0x40 MLOAD RETURNDATASIZE PUSH1 0x1F NOT PUSH1 0x1F DUP3 ADD AND DUP3 ADD DUP1 PUSH1 0x40 MSTORE POP DUP2 ADD SWAP1 PUSH2 0x73E SWAP2 SWAP1 PUSH2 0x1355 JUMP JUMPDEST SWAP1 POP SWAP2 SWAP1 POP JUMP JUMPDEST PUSH1 0x2 PUSH0 SWAP1 SLOAD SWAP1 PUSH2 0x100 EXP SWAP1 DIV PUSH20 0xFFFFFFFFFFFFFFFFFFFFFFFFFFFFFFFFFFFFFFFF AND PUSH20 0xFFFFFFFFFFFFFFFFFFFFFFFFFFFFFFFFFFFFFFFF AND CALLER PUSH20 0xFFFFFFFFFFFFFFFFFFFFFFFFFFFFFFFFFFFFFFFF AND EQ PUSH2 0x7D4 JUMPI PUSH1 0x40 MLOAD PUSH32 0x8C379A000000000000000000000000000000000000000000000000000000000 DUP2 MSTORE PUSH1 0x4 ADD PUSH2 0x7CB SWAP1 PUSH2 0x13F0 JUMP JUMPDEST PUSH1 0x40 MLOAD DUP1 SWAP2 SUB SWAP1 REVERT JUMPDEST PUSH0 PUSH0 SWAP1 POP JUMPDEST PUSH1 0x1 DUP1 SLOAD SWAP1 POP DUP2 LT ISZERO PUSH2 0x94F JUMPI DUP2 PUSH20 0xFFFFFFFFFFFFFFFFFFFFFFFFFFFFFFFFFFFFFFFF AND PUSH1 0x1 DUP3 DUP2 SLOAD DUP2 LT PUSH2 0x811 JUMPI PUSH2 0x810 PUSH2 0x12AC JUMP JUMPDEST JUMPDEST SWAP1 PUSH0 MSTORE PUSH1 0x20 PUSH0 KECCAK256 ADD PUSH0 SWAP1 SLOAD SWAP1 PUSH2 0x100 EXP SWAP1 DIV PUSH20 0xFFFFFFFFFFFFFFFFFFFFFFFFFFFFFFFFFFFFFFFF AND PUSH20 0xFFFFFFFFFFFFFFFFFFFFFFFFFFFFFFFFFFFFFFFF AND SUB PUSH2 0x942 JUMPI PUSH1 0x1 DUP1 DUP1 DUP1 SLOAD SWAP1 POP PUSH2 0x866 SWAP2 SWAP1 PUSH2 0x143B JUMP JUMPDEST DUP2 SLOAD DUP2 LT PUSH2 0x877 JUMPI PUSH2 0x876 PUSH2 0x12AC JUMP JUMPDEST JUMPDEST SWAP1 PUSH0 MSTORE PUSH1 0x20 PUSH0 KECCAK256 ADD PUSH0 SWAP1 SLOAD SWAP1 PUSH2 0x100 EXP SWAP1 DIV PUSH20 0xFFFFFFFFFFFFFFFFFFFFFFFFFFFFFFFFFFFFFFFF AND PUSH1 0x1 DUP3 DUP2 SLOAD DUP2 LT PUSH2 0x8B3 JUMPI PUSH2 0x8B2 PUSH2 0x12AC JUMP JUMPDEST JUMPDEST SWAP1 PUSH0 MSTORE PUSH1 0x20 PUSH0 KECCAK256 ADD PUSH0 PUSH2 0x100 EXP DUP2 SLOAD DUP2 PUSH20 0xFFFFFFFFFFFFFFFFFFFFFFFFFFFFFFFFFFFFFFFF MUL NOT AND SWAP1 DUP4 PUSH20 0xFFFFFFFFFFFFFFFFFFFFFFFFFFFFFFFFFFFFFFFF AND MUL OR SWAP1 SSTORE POP PUSH1 0x1 DUP1 SLOAD DUP1 PUSH2 0x90A JUMPI PUSH2 0x909 PUSH2 0x146E JUMP JUMPDEST JUMPDEST PUSH1 0x1 SWAP1 SUB DUP2 DUP2 SWAP1 PUSH0 MSTORE PUSH1 0x20 PUSH0 KECCAK256 ADD PUSH0 PUSH2 0x100 EXP DUP2 SLOAD SWAP1 PUSH20 0xFFFFFFFFFFFFFFFFFFFFFFFFFFFFFFFFFFFFFFFF MUL NOT AND SWAP1 SSTORE SWAP1 SSTORE POP PUSH2 0x951 JUMP JUMPDEST DUP1 DUP1 PUSH1 0x1 ADD SWAP2 POP POP PUSH2 0x7D9 JUMP JUMPDEST POP JUMPDEST POP JUMP JUMPDEST PUSH1 0x60 PUSH2 0x95F DUP3 PUSH2 0xC49 JUMP JUMPDEST PUSH2 0x99E JUMPI PUSH1 0x40 MLOAD PUSH32 0x8C379A000000000000000000000000000000000000000000000000000000000 DUP2 MSTORE PUSH1 0x4 ADD PUSH2 0x995 SWAP1 PUSH2 0x1323 JUMP JUMPDEST PUSH1 0x40 MLOAD DUP1 SWAP2 SUB SWAP1 REVERT JUMPDEST PUSH0 PUSH0 DUP4 PUSH20 0xFFFFFFFFFFFFFFFFFFFFFFFFFFFFFFFFFFFFFFFF AND PUSH20 0xFFFFFFFFFFFFFFFFFFFFFFFFFFFFFFFFFFFFFFFF AND DUP2 MSTORE PUSH1 0x20 ADD SWAP1 DUP2 MSTORE PUSH1 0x20 ADD PUSH0 KECCAK256 PUSH0 SWAP1 SLOAD SWAP1 PUSH2 0x100 EXP SWAP1 DIV PUSH20 0xFFFFFFFFFFFFFFFFFFFFFFFFFFFFFFFFFFFFFFFF AND PUSH20 0xFFFFFFFFFFFFFFFFFFFFFFFFFFFFFFFFFFFFFFFF AND PUSH4 0x17D7DE7C PUSH1 0x40 MLOAD DUP2 PUSH4 0xFFFFFFFF AND PUSH1 0xE0 SHL DUP2 MSTORE PUSH1 0x4 ADD PUSH0 PUSH1 0x40 MLOAD DUP1 DUP4 SUB DUP2 DUP7 GAS STATICCALL ISZERO DUP1 ISZERO PUSH2 0xA41 JUMPI RETURNDATASIZE PUSH0 PUSH0 RETURNDATACOPY RETURNDATASIZE PUSH0 REVERT JUMPDEST POP POP POP POP PUSH1 0x40 MLOAD RETURNDATASIZE PUSH0 DUP3 RETURNDATACOPY RETURNDATASIZE PUSH1 0x1F NOT PUSH1 0x1F DUP3 ADD AND DUP3 ADD DUP1 PUSH1 0x40 MSTORE POP DUP2 ADD SWAP1 PUSH2 0xA69 SWAP2 SWAP1 PUSH2 0x1509 JUMP JUMPDEST SWAP1 POP SWAP2 SWAP1 POP JUMP JUMPDEST PUSH0 PUSH0 PUSH0 PUSH0 DUP5 PUSH20 0xFFFFFFFFFFFFFFFFFFFFFFFFFFFFFFFFFFFFFFFF AND PUSH20 0xFFFFFFFFFFFFFFFFFFFFFFFFFFFFFFFFFFFFFFFF AND DUP2 MSTORE PUSH1 0x20 ADD SWAP1 DUP2 MSTORE PUSH1 0x20 ADD PUSH0 KECCAK256 PUSH0 SWAP1 SLOAD SWAP1 PUSH2 0x100 EXP SWAP1 DIV PUSH20 0xFFFFFFFFFFFFFFFFFFFFFFFFFFFFFFFFFFFFFFFF AND PUSH20 0xFFFFFFFFFFFFFFFFFFFFFFFFFFFFFFFFFFFFFFFF AND PUSH4 0x1E62E202 PUSH1 0x40 MLOAD DUP2 PUSH4 0xFFFFFFFF AND PUSH1 0xE0 SHL DUP2 MSTORE PUSH1 0x4 ADD PUSH1 0x20 PUSH1 0x40 MLOAD DUP1 DUP4 SUB DUP2 PUSH0 DUP8 GAS CALL ISZERO DUP1 ISZERO PUSH2 0xB17 JUMPI RETURNDATASIZE PUSH0 PUSH0 RETURNDATACOPY RETURNDATASIZE PUSH0 REVERT JUMPDEST POP POP POP POP PUSH1 0x40 MLOAD RETURNDATASIZE PUSH1 0x1F NOT PUSH1 0x1F DUP3 ADD AND DUP3 ADD DUP1 PUSH1 0x40 MSTORE POP DUP2 ADD SWAP1 PUSH2 0xB3B SWAP2 SWAP1 PUSH2 0x1564 JUMP JUMPDEST SWAP1 POP DUP1 SWAP2 POP POP SWAP2 SWAP1 POP JUMP JUMPDEST PUSH2 0xB4F DUP2 PUSH2 0xC49 JUMP JUMPDEST PUSH2 0xB8E JUMPI PUSH1 0x40 MLOAD PUSH32 0x8C379A000000000000000000000000000000000000000000000000000000000 DUP2 MSTORE PUSH1 0x4 ADD PUSH2 0xB85 SWAP1 PUSH2 0x1323 JUMP JUMPDEST PUSH1 0x40 MLOAD DUP1 SWAP2 SUB SWAP1 REVERT JUMPDEST PUSH0 PUSH0 DUP3 PUSH20 0xFFFFFFFFFFFFFFFFFFFFFFFFFFFFFFFFFFFFFFFF AND PUSH20 0xFFFFFFFFFFFFFFFFFFFFFFFFFFFFFFFFFFFFFFFF AND DUP2 MSTORE PUSH1 0x20 ADD SWAP1 DUP2 MSTORE PUSH1 0x20 ADD PUSH0 KECCAK256 PUSH0 SWAP1 SLOAD SWAP1 PUSH2 0x100 EXP SWAP1 DIV PUSH20 0xFFFFFFFFFFFFFFFFFFFFFFFFFFFFFFFFFFFFFFFF AND PUSH20 0xFFFFFFFFFFFFFFFFFFFFFFFFFFFFFFFFFFFFFFFF AND PUSH4 0xD11711A2 CALLVALUE PUSH1 0x40 MLOAD DUP3 PUSH4 0xFFFFFFFF AND PUSH1 0xE0 SHL DUP2 MSTORE PUSH1 0x4 ADD PUSH0 PUSH1 0x40 MLOAD DUP1 DUP4 SUB DUP2 DUP6 DUP9 DUP1 EXTCODESIZE ISZERO DUP1 ISZERO PUSH2 0xC2F JUMPI PUSH0 PUSH0 REVERT JUMPDEST POP GAS CALL ISZERO DUP1 ISZERO PUSH2 0xC41 JUMPI RETURNDATASIZE PUSH0 PUSH0 RETURNDATACOPY RETURNDATASIZE PUSH0 REVERT JUMPDEST POP POP POP POP POP POP JUMP JUMPDEST PUSH0 PUSH0 PUSH0 SWAP1 POP JUMPDEST PUSH1 0x1 DUP1 SLOAD SWAP1 POP DUP2 LT ISZERO PUSH2 0xCE1 JUMPI DUP3 PUSH20 0xFFFFFFFFFFFFFFFFFFFFFFFFFFFFFFFFFFFFFFFF AND PUSH1 0x1 DUP3 DUP2 SLOAD DUP2 LT PUSH2 0xC87 JUMPI PUSH2 0xC86 PUSH2 0x12AC JUMP JUMPDEST JUMPDEST SWAP1 PUSH0 MSTORE PUSH1 0x20 PUSH0 KECCAK256 ADD PUSH0 SWAP1 SLOAD SWAP1 PUSH2 0x100 EXP SWAP1 DIV PUSH20 0xFFFFFFFFFFFFFFFFFFFFFFFFFFFFFFFFFFFFFFFF AND PUSH20 0xFFFFFFFFFFFFFFFFFFFFFFFFFFFFFFFFFFFFFFFF AND SUB PUSH2 0xCD4 JUMPI PUSH1 0x1 SWAP2 POP POP PUSH2 0xCE6 JUMP JUMPDEST DUP1 DUP1 PUSH1 0x1 ADD SWAP2 POP POP PUSH2 0xC4F JUMP JUMPDEST POP PUSH0 SWAP1 POP JUMPDEST SWAP2 SWAP1 POP JUMP JUMPDEST PUSH2 0x11AF DUP1 PUSH2 0x1590 DUP4 CODECOPY ADD SWAP1 JUMP JUMPDEST PUSH0 PUSH1 0x40 MLOAD SWAP1 POP SWAP1 JUMP JUMPDEST PUSH0 PUSH0 REVERT JUMPDEST PUSH0 PUSH0 REVERT JUMPDEST PUSH0 DUP2 SWAP1 POP SWAP2 SWAP1 POP JUMP JUMPDEST PUSH2 0xD1B DUP2 PUSH2 0xD09 JUMP JUMPDEST DUP2 EQ PUSH2 0xD25 JUMPI PUSH0 PUSH0 REVERT JUMPDEST POP JUMP JUMPDEST PUSH0 DUP2 CALLDATALOAD SWAP1 POP PUSH2 0xD36 DUP2 PUSH2 0xD12 JUMP JUMPDEST SWAP3 SWAP2 POP POP JUMP JUMPDEST PUSH0 PUSH0 REVERT JUMPDEST PUSH0 PUSH0 REVERT JUMPDEST PUSH0 PUSH1 0x1F NOT PUSH1 0x1F DUP4 ADD AND SWAP1 POP SWAP2 SWAP1 POP JUMP JUMPDEST PUSH32 0x4E487B7100000000000000000000000000000000000000000000000000000000 PUSH0 MSTORE PUSH1 0x41 PUSH1 0x4 MSTORE PUSH1 0x24 PUSH0 REVERT JUMPDEST PUSH2 0xD8A DUP3 PUSH2 0xD44 JUMP JUMPDEST DUP2 ADD DUP2 DUP2 LT PUSH8 0xFFFFFFFFFFFFFFFF DUP3 GT OR ISZERO PUSH2 0xDA9 JUMPI PUSH2 0xDA8 PUSH2 0xD54 JUMP JUMPDEST JUMPDEST DUP1 PUSH1 0x40 MSTORE POP POP POP JUMP JUMPDEST PUSH0 PUSH2 0xDBB PUSH2 0xCF8 JUMP JUMPDEST SWAP1 POP PUSH2 0xDC7 DUP3 DUP3 PUSH2 0xD81 JUMP JUMPDEST SWAP2 SWAP1 POP JUMP JUMPDEST PUSH0 PUSH8 0xFFFFFFFFFFFFFFFF DUP3 GT ISZERO PUSH2 0xDE6 JUMPI PUSH2 0xDE5 PUSH2 0xD54 JUMP JUMPDEST JUMPDEST PUSH2 0xDEF DUP3 PUSH2 0xD44 JUMP JUMPDEST SWAP1 POP PUSH1 0x20 DUP2 ADD SWAP1 POP SWAP2 SWAP1 POP JUMP JUMPDEST DUP3 DUP2 DUP4 CALLDATACOPY PUSH0 DUP4 DUP4 ADD MSTORE POP POP POP JUMP JUMPDEST PUSH0 PUSH2 0xE1C PUSH2 0xE17 DUP5 PUSH2 0xDCC JUMP JUMPDEST PUSH2 0xDB2 JUMP JUMPDEST SWAP1 POP DUP3 DUP2 MSTORE PUSH1 0x20 DUP2 ADD DUP5 DUP5 DUP5 ADD GT ISZERO PUSH2 0xE38 JUMPI PUSH2 0xE37 PUSH2 0xD40 JUMP JUMPDEST JUMPDEST PUSH2 0xE43 DUP5 DUP3 DUP6 PUSH2 0xDFC JUMP JUMPDEST POP SWAP4 SWAP3 POP POP POP JUMP JUMPDEST PUSH0 DUP3 PUSH1 0x1F DUP4 ADD SLT PUSH2 0xE5F JUMPI PUSH2 0xE5E PUSH2 0xD3C JUMP JUMPDEST JUMPDEST DUP2 CALLDATALOAD PUSH2 0xE6F DUP5 DUP3 PUSH1 0x20 DUP7 ADD PUSH2 0xE0A JUMP JUMPDEST SWAP2 POP POP SWAP3 SWAP2 POP POP JUMP JUMPDEST PUSH0 PUSH0 PUSH1 0x40 DUP4 DUP6 SUB SLT ISZERO PUSH2 0xE8E JUMPI PUSH2 0xE8D PUSH2 0xD01 JUMP JUMPDEST JUMPDEST PUSH0 PUSH2 0xE9B DUP6 DUP3 DUP7 ADD PUSH2 0xD28 JUMP JUMPDEST SWAP3 POP POP PUSH1 0x20 DUP4 ADD CALLDATALOAD PUSH8 0xFFFFFFFFFFFFFFFF DUP2 GT ISZERO PUSH2 0xEBC JUMPI PUSH2 0xEBB PUSH2 0xD05 JUMP JUMPDEST JUMPDEST PUSH2 0xEC8 DUP6 DUP3 DUP7 ADD PUSH2 0xE4B JUMP JUMPDEST SWAP2 POP POP SWAP3 POP SWAP3 SWAP1 POP JUMP JUMPDEST PUSH0 DUP2 MLOAD SWAP1 POP SWAP2 SWAP1 POP JUMP JUMPDEST PUSH0 DUP3 DUP3 MSTORE PUSH1 0x20 DUP3 ADD SWAP1 POP SWAP3 SWAP2 POP POP JUMP JUMPDEST PUSH0 DUP2 SWAP1 POP PUSH1 0x20 DUP3 ADD SWAP1 POP SWAP2 SWAP1 POP JUMP JUMPDEST PUSH0 PUSH20 0xFFFFFFFFFFFFFFFFFFFFFFFFFFFFFFFFFFFFFFFF DUP3 AND SWAP1 POP SWAP2 SWAP1 POP JUMP JUMPDEST PUSH0 PUSH2 0xF24 DUP3 PUSH2 0xEFB JUMP JUMPDEST SWAP1 POP SWAP2 SWAP1 POP JUMP JUMPDEST PUSH2 0xF34 DUP2 PUSH2 0xF1A JUMP JUMPDEST DUP3 MSTORE POP POP JUMP JUMPDEST PUSH0 PUSH2 0xF45 DUP4 DUP4 PUSH2 0xF2B JUMP JUMPDEST PUSH1 0x20 DUP4 ADD SWAP1 POP SWAP3 SWAP2 POP POP JUMP JUMPDEST PUSH0 PUSH1 0x20 DUP3 ADD SWAP1 POP SWAP2 SWAP1 POP JUMP JUMPDEST PUSH0 PUSH2 0xF67 DUP3 PUSH2 0xED2 JUMP JUMPDEST PUSH2 0xF71 DUP2 DUP6 PUSH2 0xEDC JUMP JUMPDEST SWAP4 POP PUSH2 0xF7C DUP4 PUSH2 0xEEC JUMP JUMPDEST DUP1 PUSH0 JUMPDEST DUP4 DUP2 LT ISZERO PUSH2 0xFAC JUMPI DUP2 MLOAD PUSH2 0xF93 DUP9 DUP3 PUSH2 0xF3A JUMP JUMPDEST SWAP8 POP PUSH2 0xF9E DUP4 PUSH2 0xF51 JUMP JUMPDEST SWAP3 POP POP PUSH1 0x1 DUP2 ADD SWAP1 POP PUSH2 0xF7F JUMP JUMPDEST POP DUP6 SWAP4 POP POP POP POP SWAP3 SWAP2 POP POP JUMP JUMPDEST PUSH0 DUP2 MLOAD SWAP1 POP SWAP2 SWAP1 POP JUMP JUMPDEST PUSH0 DUP3 DUP3 MSTORE PUSH1 0x20 DUP3 ADD SWAP1 POP SWAP3 SWAP2 POP POP JUMP JUMPDEST PUSH0 DUP2 SWAP1 POP PUSH1 0x20 DUP3 ADD SWAP1 POP SWAP2 SWAP1 POP JUMP JUMPDEST PUSH0 DUP2 MLOAD SWAP1 POP SWAP2 SWAP1 POP JUMP JUMPDEST PUSH0 DUP3 DUP3 MSTORE PUSH1 0x20 DUP3 ADD SWAP1 POP SWAP3 SWAP2 POP POP JUMP JUMPDEST DUP3 DUP2 DUP4 MCOPY PUSH0 DUP4 DUP4 ADD MSTORE POP POP POP JUMP JUMPDEST PUSH0 PUSH2 0x1014 DUP3 PUSH2 0xFE2 JUMP JUMPDEST PUSH2 0x101E DUP2 DUP6 PUSH2 0xFEC JUMP JUMPDEST SWAP4 POP PUSH2 0x102E DUP2 DUP6 PUSH1 0x20 DUP7 ADD PUSH2 0xFFC JUMP JUMPDEST PUSH2 0x1037 DUP2 PUSH2 0xD44 JUMP JUMPDEST DUP5 ADD SWAP2 POP POP SWAP3 SWAP2 POP POP JUMP JUMPDEST PUSH0 PUSH2 0x104D DUP4 DUP4 PUSH2 0x100A JUMP JUMPDEST SWAP1 POP SWAP3 SWAP2 POP POP JUMP JUMPDEST PUSH0 PUSH1 0x20 DUP3 ADD SWAP1 POP SWAP2 SWAP1 POP JUMP JUMPDEST PUSH0 PUSH2 0x106B DUP3 PUSH2 0xFB9 JUMP JUMPDEST PUSH2 0x1075 DUP2 DUP6 PUSH2 0xFC3 JUMP JUMPDEST SWAP4 POP DUP4 PUSH1 0x20 DUP3 MUL DUP6 ADD PUSH2 0x1087 DUP6 PUSH2 0xFD3 JUMP JUMPDEST DUP1 PUSH0 JUMPDEST DUP6 DUP2 LT ISZERO PUSH2 0x10C2 JUMPI DUP5 DUP5 SUB DUP10 MSTORE DUP2 MLOAD PUSH2 0x10A3 DUP6 DUP3 PUSH2 0x1042 JUMP JUMPDEST SWAP5 POP PUSH2 0x10AE DUP4 PUSH2 0x1055 JUMP JUMPDEST SWAP3 POP PUSH1 0x20 DUP11 ADD SWAP10 POP POP PUSH1 0x1 DUP2 ADD SWAP1 POP PUSH2 0x108A JUMP JUMPDEST POP DUP3 SWAP8 POP DUP8 SWAP6 POP POP POP POP POP POP SWAP3 SWAP2 POP POP JUMP JUMPDEST PUSH0 PUSH1 0x40 DUP3 ADD SWAP1 POP DUP2 DUP2 SUB PUSH0 DUP4 ADD MSTORE PUSH2 0x10EC DUP2 DUP6 PUSH2 0xF5D JUMP JUMPDEST SWAP1 POP DUP2 DUP2 SUB PUSH1 0x20 DUP4 ADD MSTORE PUSH2 0x1100 DUP2 DUP5 PUSH2 0x1061 JUMP JUMPDEST SWAP1 POP SWAP4 SWAP3 POP POP POP JUMP JUMPDEST PUSH2 0x1112 DUP2 PUSH2 0xF1A JUMP JUMPDEST DUP2 EQ PUSH2 0x111C JUMPI PUSH0 PUSH0 REVERT JUMPDEST POP JUMP JUMPDEST PUSH0 DUP2 CALLDATALOAD SWAP1 POP PUSH2 0x112D DUP2 PUSH2 0x1109 JUMP JUMPDEST SWAP3 SWAP2 POP POP JUMP JUMPDEST PUSH0 PUSH1 0x20 DUP3 DUP5 SUB SLT ISZERO PUSH2 0x1148 JUMPI PUSH2 0x1147 PUSH2 0xD01 JUMP JUMPDEST JUMPDEST PUSH0 PUSH2 0x1155 DUP5 DUP3 DUP6 ADD PUSH2 0x111F JUMP JUMPDEST SWAP2 POP POP SWAP3 SWAP2 POP POP JUMP JUMPDEST PUSH2 0x1167 DUP2 PUSH2 0xD09 JUMP JUMPDEST DUP3 MSTORE POP POP JUMP JUMPDEST PUSH0 PUSH1 0x20 DUP3 ADD SWAP1 POP PUSH2 0x1180 PUSH0 DUP4 ADD DUP5 PUSH2 0x115E JUMP JUMPDEST SWAP3 SWAP2 POP POP JUMP JUMPDEST PUSH0 DUP3 DUP3 MSTORE PUSH1 0x20 DUP3 ADD SWAP1 POP SWAP3 SWAP2 POP POP JUMP JUMPDEST PUSH0 PUSH2 0x11A0 DUP3 PUSH2 0xFE2 JUMP JUMPDEST PUSH2 0x11AA DUP2 DUP6 PUSH2 0x1186 JUMP JUMPDEST SWAP4 POP PUSH2 0x11BA DUP2 DUP6 PUSH1 0x20 DUP7 ADD PUSH2 0xFFC JUMP JUMPDEST PUSH2 0x11C3 DUP2 PUSH2 0xD44 JUMP JUMPDEST DUP5 ADD SWAP2 POP POP SWAP3 SWAP2 POP POP JUMP JUMPDEST PUSH0 PUSH1 0x20 DUP3 ADD SWAP1 POP DUP2 DUP2 SUB PUSH0 DUP4 ADD MSTORE PUSH2 0x11E6 DUP2 DUP5 PUSH2 0x1196 JUMP JUMPDEST SWAP1 POP SWAP3 SWAP2 POP POP JUMP JUMPDEST PUSH2 0x11F7 DUP2 PUSH2 0xF1A JUMP JUMPDEST DUP3 MSTORE POP POP JUMP JUMPDEST PUSH0 PUSH1 0x20 DUP3 ADD SWAP1 POP PUSH2 0x1210 PUSH0 DUP4 ADD DUP5 PUSH2 0x11EE JUMP JUMPDEST SWAP3 SWAP2 POP POP JUMP JUMPDEST PUSH32 0x4F6E6C7920746865206F776E65722063616E206164642061206C6F7474657279 PUSH0 DUP3 ADD MSTORE POP JUMP JUMPDEST PUSH0 PUSH2 0x124A PUSH1 0x20 DUP4 PUSH2 0x1186 JUMP JUMPDEST SWAP2 POP PUSH2 0x1255 DUP3 PUSH2 0x1216 JUMP JUMPDEST PUSH1 0x20 DUP3 ADD SWAP1 POP SWAP2 SWAP1 POP JUMP JUMPDEST PUSH0 PUSH1 0x20 DUP3 ADD SWAP1 POP DUP2 DUP2 SUB PUSH0 DUP4 ADD MSTORE PUSH2 0x1277 DUP2 PUSH2 0x123E JUMP JUMPDEST SWAP1 POP SWAP2 SWAP1 POP JUMP JUMPDEST PUSH0 PUSH1 0x40 DUP3 ADD SWAP1 POP PUSH2 0x1291 PUSH0 DUP4 ADD DUP6 PUSH2 0x115E JUMP JUMPDEST DUP2 DUP2 SUB PUSH1 0x20 DUP4 ADD MSTORE PUSH2 0x12A3 DUP2 DUP5 PUSH2 0x1196 JUMP JUMPDEST SWAP1 POP SWAP4 SWAP3 POP POP POP JUMP JUMPDEST PUSH32 0x4E487B7100000000000000000000000000000000000000000000000000000000 PUSH0 MSTORE PUSH1 0x32 PUSH1 0x4 MSTORE PUSH1 0x24 PUSH0 REVERT JUMPDEST PUSH32 0x4C6F746572696520646F65736E27742065786973740000000000000000000000 PUSH0 DUP3 ADD MSTORE POP JUMP JUMPDEST PUSH0 PUSH2 0x130D PUSH1 0x15 DUP4 PUSH2 0x1186 JUMP JUMPDEST SWAP2 POP PUSH2 0x1318 DUP3 PUSH2 0x12D9 JUMP JUMPDEST PUSH1 0x20 DUP3 ADD SWAP1 POP SWAP2 SWAP1 POP JUMP JUMPDEST PUSH0 PUSH1 0x20 DUP3 ADD SWAP1 POP DUP2 DUP2 SUB PUSH0 DUP4 ADD MSTORE PUSH2 0x133A DUP2 PUSH2 0x1301 JUMP JUMPDEST SWAP1 POP SWAP2 SWAP1 POP JUMP JUMPDEST PUSH0 DUP2 MLOAD SWAP1 POP PUSH2 0x134F DUP2 PUSH2 0xD12 JUMP JUMPDEST SWAP3 SWAP2 POP POP JUMP JUMPDEST PUSH0 PUSH1 0x20 DUP3 DUP5 SUB SLT ISZERO PUSH2 0x136A JUMPI PUSH2 0x1369 PUSH2 0xD01 JUMP JUMPDEST JUMPDEST PUSH0 PUSH2 0x1377 DUP5 DUP3 DUP6 ADD PUSH2 0x1341 JUMP JUMPDEST SWAP2 POP POP SWAP3 SWAP2 POP POP JUMP JUMPDEST PUSH32 0x4F6E6C7920746865206F776E65722063616E2072656D6F76652061206C6F7474 PUSH0 DUP3 ADD MSTORE PUSH32 0x6572790000000000000000000000000000000000000000000000000000000000 PUSH1 0x20 DUP3 ADD MSTORE POP JUMP JUMPDEST PUSH0 PUSH2 0x13DA PUSH1 0x23 DUP4 PUSH2 0x1186 JUMP JUMPDEST SWAP2 POP PUSH2 0x13E5 DUP3 PUSH2 0x1380 JUMP JUMPDEST PUSH1 0x40 DUP3 ADD SWAP1 POP SWAP2 SWAP1 POP JUMP JUMPDEST PUSH0 PUSH1 0x20 DUP3 ADD SWAP1 POP DUP2 DUP2 SUB PUSH0 DUP4 ADD MSTORE PUSH2 0x1407 DUP2 PUSH2 0x13CE JUMP JUMPDEST SWAP1 POP SWAP2 SWAP1 POP JUMP JUMPDEST PUSH32 0x4E487B7100000000000000000000000000000000000000000000000000000000 PUSH0 MSTORE PUSH1 0x11 PUSH1 0x4 MSTORE PUSH1 0x24 PUSH0 REVERT JUMPDEST PUSH0 PUSH2 0x1445 DUP3 PUSH2 0xD09 JUMP JUMPDEST SWAP2 POP PUSH2 0x1450 DUP4 PUSH2 0xD09 JUMP JUMPDEST SWAP3 POP DUP3 DUP3 SUB SWAP1 POP DUP2 DUP2 GT ISZERO PUSH2 0x1468 JUMPI PUSH2 0x1467 PUSH2 0x140E JUMP JUMPDEST JUMPDEST SWAP3 SWAP2 POP POP JUMP JUMPDEST PUSH32 0x4E487B7100000000000000000000000000000000000000000000000000000000 PUSH0 MSTORE PUSH1 0x31 PUSH1 0x4 MSTORE PUSH1 0x24 PUSH0 REVERT JUMPDEST PUSH0 PUSH2 0x14AD PUSH2 0x14A8 DUP5 PUSH2 0xDCC JUMP JUMPDEST PUSH2 0xDB2 JUMP JUMPDEST SWAP1 POP DUP3 DUP2 MSTORE PUSH1 0x20 DUP2 ADD DUP5 DUP5 DUP5 ADD GT ISZERO PUSH2 0x14C9 JUMPI PUSH2 0x14C8 PUSH2 0xD40 JUMP JUMPDEST JUMPDEST PUSH2 0x14D4 DUP5 DUP3 DUP6 PUSH2 0xFFC JUMP JUMPDEST POP SWAP4 SWAP3 POP POP POP JUMP JUMPDEST PUSH0 DUP3 PUSH1 0x1F DUP4 ADD SLT PUSH2 0x14F0 JUMPI PUSH2 0x14EF PUSH2 0xD3C JUMP JUMPDEST JUMPDEST DUP2 MLOAD PUSH2 0x1500 DUP5 DUP3 PUSH1 0x20 DUP7 ADD PUSH2 0x149B JUMP JUMPDEST SWAP2 POP POP SWAP3 SWAP2 POP POP JUMP JUMPDEST PUSH0 PUSH1 0x20 DUP3 DUP5 SUB SLT ISZERO PUSH2 0x151E JUMPI PUSH2 0x151D PUSH2 0xD01 JUMP JUMPDEST JUMPDEST PUSH0 DUP3 ADD MLOAD PUSH8 0xFFFFFFFFFFFFFFFF DUP2 GT ISZERO PUSH2 0x153B JUMPI PUSH2 0x153A PUSH2 0xD05 JUMP JUMPDEST JUMPDEST PUSH2 0x1547 DUP5 DUP3 DUP6 ADD PUSH2 0x14DC JUMP JUMPDEST SWAP2 POP POP SWAP3 SWAP2 POP POP JUMP JUMPDEST PUSH0 DUP2 MLOAD SWAP1 POP PUSH2 0x155E DUP2 PUSH2 0x1109 JUMP JUMPDEST SWAP3 SWAP2 POP POP JUMP JUMPDEST PUSH0 PUSH1 0x20 DUP3 DUP5 SUB SLT ISZERO PUSH2 0x1579 JUMPI PUSH2 0x1578 PUSH2 0xD01 JUMP JUMPDEST JUMPDEST PUSH0 PUSH2 0x1586 DUP5 DUP3 DUP6 ADD PUSH2 0x1550 JUMP JUMPDEST SWAP2 POP POP SWAP3 SWAP2 POP POP JUMP INVALID PUSH1 0x80 PUSH1 0x40 MSTORE CALLVALUE DUP1 ISZERO PUSH2 0xF JUMPI PUSH0 PUSH0 REVERT JUMPDEST POP PUSH1 0x40 MLOAD PUSH2 0x11AF CODESIZE SUB DUP1 PUSH2 0x11AF DUP4 CODECOPY DUP2 DUP2 ADD PUSH1 0x40 MSTORE DUP2 ADD SWAP1 PUSH2 0x31 SWAP2 SWAP1 PUSH2 0x221 JUMP JUMPDEST ORIGIN PUSH1 0x4 PUSH0 PUSH2 0x100 EXP DUP2 SLOAD DUP2 PUSH20 0xFFFFFFFFFFFFFFFFFFFFFFFFFFFFFFFFFFFFFFFF MUL NOT AND SWAP1 DUP4 PUSH20 0xFFFFFFFFFFFFFFFFFFFFFFFFFFFFFFFFFFFFFFFF AND MUL OR SWAP1 SSTORE POP DUP1 PUSH1 0x2 SWAP1 DUP2 PUSH2 0x80 SWAP2 SWAP1 PUSH2 0x482 JUMP JUMPDEST POP PUSH7 0x2386F26FC10000 DUP3 PUSH2 0x94 SWAP2 SWAP1 PUSH2 0x57E JUMP JUMPDEST PUSH1 0x1 DUP2 SWAP1 SSTORE POP POP POP PUSH2 0x5BF JUMP JUMPDEST PUSH0 PUSH1 0x40 MLOAD SWAP1 POP SWAP1 JUMP JUMPDEST PUSH0 PUSH0 REVERT JUMPDEST PUSH0 PUSH0 REVERT JUMPDEST PUSH0 DUP2 SWAP1 POP SWAP2 SWAP1 POP JUMP JUMPDEST PUSH2 0xC4 DUP2 PUSH2 0xB2 JUMP JUMPDEST DUP2 EQ PUSH2 0xCE JUMPI PUSH0 PUSH0 REVERT JUMPDEST POP JUMP JUMPDEST PUSH0 DUP2 MLOAD SWAP1 POP PUSH2 0xDF DUP2 PUSH2 0xBB JUMP JUMPDEST SWAP3 SWAP2 POP POP JUMP JUMPDEST PUSH0 PUSH0 REVERT JUMPDEST PUSH0 PUSH0 REVERT JUMPDEST PUSH0 PUSH1 0x1F NOT PUSH1 0x1F DUP4 ADD AND SWAP1 POP SWAP2 SWAP1 POP JUMP JUMPDEST PUSH32 0x4E487B7100000000000000000000000000000000000000000000000000000000 PUSH0 MSTORE PUSH1 0x41 PUSH1 0x4 MSTORE PUSH1 0x24 PUSH0 REVERT JUMPDEST PUSH2 0x133 DUP3 PUSH2 0xED JUMP JUMPDEST DUP2 ADD DUP2 DUP2 LT PUSH8 0xFFFFFFFFFFFFFFFF DUP3 GT OR ISZERO PUSH2 0x152 JUMPI PUSH2 0x151 PUSH2 0xFD JUMP JUMPDEST JUMPDEST DUP1 PUSH1 0x40 MSTORE POP POP POP JUMP JUMPDEST PUSH0 PUSH2 0x164 PUSH2 0xA1 JUMP JUMPDEST SWAP1 POP PUSH2 0x170 DUP3 DUP3 PUSH2 0x12A JUMP JUMPDEST SWAP2 SWAP1 POP JUMP JUMPDEST PUSH0 PUSH8 0xFFFFFFFFFFFFFFFF DUP3 GT ISZERO PUSH2 0x18F JUMPI PUSH2 0x18E PUSH2 0xFD JUMP JUMPDEST JUMPDEST PUSH2 0x198 DUP3 PUSH2 0xED JUMP JUMPDEST SWAP1 POP PUSH1 0x20 DUP2 ADD SWAP1 POP SWAP2 SWAP1 POP JUMP JUMPDEST DUP3 DUP2 DUP4 MCOPY PUSH0 DUP4 DUP4 ADD MSTORE POP POP POP JUMP JUMPDEST PUSH0 PUSH2 0x1C5 PUSH2 0x1C0 DUP5 PUSH2 0x175 JUMP JUMPDEST PUSH2 0x15B JUMP JUMPDEST SWAP1 POP DUP3 DUP2 MSTORE PUSH1 0x20 DUP2 ADD DUP5 DUP5 DUP5 ADD GT ISZERO PUSH2 0x1E1 JUMPI PUSH2 0x1E0 PUSH2 0xE9 JUMP JUMPDEST JUMPDEST PUSH2 0x1EC DUP5 DUP3 DUP6 PUSH2 0x1A5 JUMP JUMPDEST POP SWAP4 SWAP3 POP POP POP JUMP JUMPDEST PUSH0 DUP3 PUSH1 0x1F DUP4 ADD SLT PUSH2 0x208 JUMPI PUSH2 0x207 PUSH2 0xE5 JUMP JUMPDEST JUMPDEST DUP2 MLOAD PUSH2 0x218 DUP5 DUP3 PUSH1 0x20 DUP7 ADD PUSH2 0x1B3 JUMP JUMPDEST SWAP2 POP POP SWAP3 SWAP2 POP POP JUMP JUMPDEST PUSH0 PUSH0 PUSH1 0x40 DUP4 DUP6 SUB SLT ISZERO PUSH2 0x237 JUMPI PUSH2 0x236 PUSH2 0xAA JUMP JUMPDEST JUMPDEST PUSH0 PUSH2 0x244 DUP6 DUP3 DUP7 ADD PUSH2 0xD1 JUMP JUMPDEST SWAP3 POP POP PUSH1 0x20 DUP4 ADD MLOAD PUSH8 0xFFFFFFFFFFFFFFFF DUP2 GT ISZERO PUSH2 0x265 JUMPI PUSH2 0x264 PUSH2 0xAE JUMP JUMPDEST JUMPDEST PUSH2 0x271 DUP6 DUP3 DUP7 ADD PUSH2 0x1F4 JUMP JUMPDEST SWAP2 POP POP SWAP3 POP SWAP3 SWAP1 POP JUMP JUMPDEST PUSH0 DUP2 MLOAD SWAP1 POP SWAP2 SWAP1 POP JUMP JUMPDEST PUSH32 0x4E487B7100000000000000000000000000000000000000000000000000000000 PUSH0 MSTORE PUSH1 0x22 PUSH1 0x4 MSTORE PUSH1 0x24 PUSH0 REVERT JUMPDEST PUSH0 PUSH1 0x2 DUP3 DIV SWAP1 POP PUSH1 0x1 DUP3 AND DUP1 PUSH2 0x2C9 JUMPI PUSH1 0x7F DUP3 AND SWAP2 POP JUMPDEST PUSH1 0x20 DUP3 LT DUP2 SUB PUSH2 0x2DC JUMPI PUSH2 0x2DB PUSH2 0x285 JUMP JUMPDEST JUMPDEST POP SWAP2 SWAP1 POP JUMP JUMPDEST PUSH0 DUP2 SWAP1 POP DUP2 PUSH0 MSTORE PUSH1 0x20 PUSH0 KECCAK256 SWAP1 POP SWAP2 SWAP1 POP JUMP JUMPDEST PUSH0 PUSH1 0x20 PUSH1 0x1F DUP4 ADD DIV SWAP1 POP SWAP2 SWAP1 POP JUMP JUMPDEST PUSH0 DUP3 DUP3 SHL SWAP1 POP SWAP3 SWAP2 POP POP JUMP JUMPDEST PUSH0 PUSH1 0x8 DUP4 MUL PUSH2 0x33E PUSH32 0xFFFFFFFFFFFFFFFFFFFFFFFFFFFFFFFFFFFFFFFFFFFFFFFFFFFFFFFFFFFFFFFF DUP3 PUSH2 0x303 JUMP JUMPDEST PUSH2 0x348 DUP7 DUP4 PUSH2 0x303 JUMP JUMPDEST SWAP6 POP DUP1 NOT DUP5 AND SWAP4 POP DUP1 DUP7 AND DUP5 OR SWAP3 POP POP POP SWAP4 SWAP3 POP POP POP JUMP JUMPDEST PUSH0 DUP2 SWAP1 POP SWAP2 SWAP1 POP JUMP JUMPDEST PUSH0 PUSH2 0x383 PUSH2 0x37E PUSH2 0x379 DUP5 PUSH2 0xB2 JUMP JUMPDEST PUSH2 0x360 JUMP JUMPDEST PUSH2 0xB2 JUMP JUMPDEST SWAP1 POP SWAP2 SWAP1 POP JUMP JUMPDEST PUSH0 DUP2 SWAP1 POP SWAP2 SWAP1 POP JUMP JUMPDEST PUSH2 0x39C DUP4 PUSH2 0x369 JUMP JUMPDEST PUSH2 0x3B0 PUSH2 0x3A8 DUP3 PUSH2 0x38A JUMP JUMPDEST DUP5 DUP5 SLOAD PUSH2 0x30F JUMP JUMPDEST DUP3 SSTORE POP POP POP POP JUMP JUMPDEST PUSH0 PUSH0 SWAP1 POP SWAP1 JUMP JUMPDEST PUSH2 0x3C7 PUSH2 0x3B8 JUMP JUMPDEST PUSH2 0x3D2 DUP2 DUP5 DUP5 PUSH2 0x393 JUMP JUMPDEST POP POP POP JUMP JUMPDEST JUMPDEST DUP2 DUP2 LT ISZERO PUSH2 0x3F5 JUMPI PUSH2 0x3EA PUSH0 DUP3 PUSH2 0x3BF JUMP JUMPDEST PUSH1 0x1 DUP2 ADD SWAP1 POP PUSH2 0x3D8 JUMP JUMPDEST POP POP JUMP JUMPDEST PUSH1 0x1F DUP3 GT ISZERO PUSH2 0x43A JUMPI PUSH2 0x40B DUP2 PUSH2 0x2E2 JUMP JUMPDEST PUSH2 0x414 DUP5 PUSH2 0x2F4 JUMP JUMPDEST DUP2 ADD PUSH1 0x20 DUP6 LT ISZERO PUSH2 0x423 JUMPI DUP2 SWAP1 POP JUMPDEST PUSH2 0x437 PUSH2 0x42F DUP6 PUSH2 0x2F4 JUMP JUMPDEST DUP4 ADD DUP3 PUSH2 0x3D7 JUMP JUMPDEST POP POP JUMPDEST POP POP POP JUMP JUMPDEST PUSH0 DUP3 DUP3 SHR SWAP1 POP SWAP3 SWAP2 POP POP JUMP JUMPDEST PUSH0 PUSH2 0x45A PUSH0 NOT DUP5 PUSH1 0x8 MUL PUSH2 0x43F JUMP JUMPDEST NOT DUP1 DUP4 AND SWAP2 POP POP SWAP3 SWAP2 POP POP JUMP JUMPDEST PUSH0 PUSH2 0x472 DUP4 DUP4 PUSH2 0x44B JUMP JUMPDEST SWAP2 POP DUP3 PUSH1 0x2 MUL DUP3 OR SWAP1 POP SWAP3 SWAP2 POP POP JUMP JUMPDEST PUSH2 0x48B DUP3 PUSH2 0x27B JUMP JUMPDEST PUSH8 0xFFFFFFFFFFFFFFFF DUP2 GT ISZERO PUSH2 0x4A4 JUMPI PUSH2 0x4A3 PUSH2 0xFD JUMP JUMPDEST JUMPDEST PUSH2 0x4AE DUP3 SLOAD PUSH2 0x2B2 JUMP JUMPDEST PUSH2 0x4B9 DUP3 DUP3 DUP6 PUSH2 0x3F9 JUMP JUMPDEST PUSH0 PUSH1 0x20 SWAP1 POP PUSH1 0x1F DUP4 GT PUSH1 0x1 DUP2 EQ PUSH2 0x4EA JUMPI PUSH0 DUP5 ISZERO PUSH2 0x4D8 JUMPI DUP3 DUP8 ADD MLOAD SWAP1 POP JUMPDEST PUSH2 0x4E2 DUP6 DUP3 PUSH2 0x467 JUMP JUMPDEST DUP7 SSTORE POP PUSH2 0x549 JUMP JUMPDEST PUSH1 0x1F NOT DUP5 AND PUSH2 0x4F8 DUP7 PUSH2 0x2E2 JUMP JUMPDEST PUSH0 JUMPDEST DUP3 DUP2 LT ISZERO PUSH2 0x51F JUMPI DUP5 DUP10 ADD MLOAD DUP3 SSTORE PUSH1 0x1 DUP3 ADD SWAP2 POP PUSH1 0x20 DUP6 ADD SWAP5 POP PUSH1 0x20 DUP2 ADD SWAP1 POP PUSH2 0x4FA JUMP JUMPDEST DUP7 DUP4 LT ISZERO PUSH2 0x53C JUMPI DUP5 DUP10 ADD MLOAD PUSH2 0x538 PUSH1 0x1F DUP10 AND DUP3 PUSH2 0x44B JUMP JUMPDEST DUP4 SSTORE POP JUMPDEST PUSH1 0x1 PUSH1 0x2 DUP9 MUL ADD DUP9 SSTORE POP POP POP JUMPDEST POP POP POP POP POP POP JUMP JUMPDEST PUSH32 0x4E487B7100000000000000000000000000000000000000000000000000000000 PUSH0 MSTORE PUSH1 0x11 PUSH1 0x4 MSTORE PUSH1 0x24 PUSH0 REVERT JUMPDEST PUSH0 PUSH2 0x588 DUP3 PUSH2 0xB2 JUMP JUMPDEST SWAP2 POP PUSH2 0x593 DUP4 PUSH2 0xB2 JUMP JUMPDEST SWAP3 POP DUP3 DUP3 MUL PUSH2 0x5A1 DUP2 PUSH2 0xB2 JUMP JUMPDEST SWAP2 POP DUP3 DUP3 DIV DUP5 EQ DUP4 ISZERO OR PUSH2 0x5B8 JUMPI PUSH2 0x5B7 PUSH2 0x551 JUMP JUMPDEST JUMPDEST POP SWAP3 SWAP2 POP POP JUMP JUMPDEST PUSH2 0xBE3 DUP1 PUSH2 0x5CC PUSH0 CODECOPY PUSH0 RETURN INVALID PUSH1 0x80 PUSH1 0x40 MSTORE PUSH1 0x4 CALLDATASIZE LT PUSH2 0x54 JUMPI PUSH0 CALLDATALOAD PUSH1 0xE0 SHR DUP1 PUSH4 0x17D7DE7C EQ PUSH2 0x58 JUMPI DUP1 PUSH4 0x1E62E202 EQ PUSH2 0x82 JUMPI DUP1 PUSH4 0x55E5AE04 EQ PUSH2 0xAC JUMPI DUP1 PUSH4 0x98D5FDCA EQ PUSH2 0xD6 JUMPI DUP1 PUSH4 0xA035B1FE EQ PUSH2 0x100 JUMPI DUP1 PUSH4 0xD11711A2 EQ PUSH2 0x12A JUMPI JUMPDEST PUSH0 PUSH0 REVERT JUMPDEST CALLVALUE DUP1 ISZERO PUSH2 0x63 JUMPI PUSH0 PUSH0 REVERT JUMPDEST POP PUSH2 0x6C PUSH2 0x134 JUMP JUMPDEST PUSH1 0x40 MLOAD PUSH2 0x79 SWAP2 SWAP1 PUSH2 0x668 JUMP JUMPDEST PUSH1 0x40 MLOAD DUP1 SWAP2 SUB SWAP1 RETURN JUMPDEST CALLVALUE DUP1 ISZERO PUSH2 0x8D JUMPI PUSH0 PUSH0 REVERT JUMPDEST POP PUSH2 0x96 PUSH2 0x1C4 JUMP JUMPDEST PUSH1 0x40 MLOAD PUSH2 0xA3 SWAP2 SWAP1 PUSH2 0x6C7 JUMP JUMPDEST PUSH1 0x40 MLOAD DUP1 SWAP2 SUB SWAP1 RETURN JUMPDEST CALLVALUE DUP1 ISZERO PUSH2 0xB7 JUMPI PUSH0 PUSH0 REVERT JUMPDEST POP PUSH2 0xC0 PUSH2 0x340 JUMP JUMPDEST PUSH1 0x40 MLOAD PUSH2 0xCD SWAP2 SWAP1 PUSH2 0x6F8 JUMP JUMPDEST PUSH1 0x40 MLOAD DUP1 SWAP2 SUB SWAP1 RETURN JUMPDEST CALLVALUE DUP1 ISZERO PUSH2 0xE1 JUMPI PUSH0 PUSH0 REVERT JUMPDEST POP PUSH2 0xEA PUSH2 0x347 JUMP JUMPDEST PUSH1 0x40 MLOAD PUSH2 0xF7 SWAP2 SWAP1 PUSH2 0x6F8 JUMP JUMPDEST PUSH1 0x40 MLOAD DUP1 SWAP2 SUB SWAP1 RETURN JUMPDEST CALLVALUE DUP1 ISZERO PUSH2 0x10B JUMPI PUSH0 PUSH0 REVERT JUMPDEST POP PUSH2 0x114 PUSH2 0x350 JUMP JUMPDEST PUSH1 0x40 MLOAD PUSH2 0x121 SWAP2 SWAP1 PUSH2 0x6F8 JUMP JUMPDEST PUSH1 0x40 MLOAD DUP1 SWAP2 SUB SWAP1 RETURN JUMPDEST PUSH2 0x132 PUSH2 0x356 JUMP JUMPDEST STOP JUMPDEST PUSH1 0x60 PUSH1 0x2 DUP1 SLOAD PUSH2 0x143 SWAP1 PUSH2 0x73E JUMP JUMPDEST DUP1 PUSH1 0x1F ADD PUSH1 0x20 DUP1 SWAP2 DIV MUL PUSH1 0x20 ADD PUSH1 0x40 MLOAD SWAP1 DUP2 ADD PUSH1 0x40 MSTORE DUP1 SWAP3 SWAP2 SWAP1 DUP2 DUP2 MSTORE PUSH1 0x20 ADD DUP3 DUP1 SLOAD PUSH2 0x16F SWAP1 PUSH2 0x73E JUMP JUMPDEST DUP1 ISZERO PUSH2 0x1BA JUMPI DUP1 PUSH1 0x1F LT PUSH2 0x191 JUMPI PUSH2 0x100 DUP1 DUP4 SLOAD DIV MUL DUP4 MSTORE SWAP2 PUSH1 0x20 ADD SWAP2 PUSH2 0x1BA JUMP JUMPDEST DUP3 ADD SWAP2 SWAP1 PUSH0 MSTORE PUSH1 0x20 PUSH0 KECCAK256 SWAP1 JUMPDEST DUP2 SLOAD DUP2 MSTORE SWAP1 PUSH1 0x1 ADD SWAP1 PUSH1 0x20 ADD DUP1 DUP4 GT PUSH2 0x19D JUMPI DUP3 SWAP1 SUB PUSH1 0x1F AND DUP3 ADD SWAP2 JUMPDEST POP POP POP POP POP SWAP1 POP SWAP1 JUMP JUMPDEST PUSH0 PUSH1 0x4 PUSH0 SWAP1 SLOAD SWAP1 PUSH2 0x100 EXP SWAP1 DIV PUSH20 0xFFFFFFFFFFFFFFFFFFFFFFFFFFFFFFFFFFFFFFFF AND PUSH20 0xFFFFFFFFFFFFFFFFFFFFFFFFFFFFFFFFFFFFFFFF AND ORIGIN PUSH20 0xFFFFFFFFFFFFFFFFFFFFFFFFFFFFFFFFFFFFFFFF AND EQ PUSH2 0x254 JUMPI PUSH1 0x40 MLOAD PUSH32 0x8C379A000000000000000000000000000000000000000000000000000000000 DUP2 MSTORE PUSH1 0x4 ADD PUSH2 0x24B SWAP1 PUSH2 0x7B8 JUMP JUMPDEST PUSH1 0x40 MLOAD DUP1 SWAP2 SUB SWAP1 REVERT JUMPDEST PUSH1 0x2 PUSH1 0x3 DUP1 SLOAD SWAP1 POP GT PUSH2 0x29C JUMPI PUSH1 0x40 MLOAD PUSH32 0x8C379A000000000000000000000000000000000000000000000000000000000 DUP2 MSTORE PUSH1 0x4 ADD PUSH2 0x293 SWAP1 PUSH2 0x846 JUMP JUMPDEST PUSH1 0x40 MLOAD DUP1 SWAP2 SUB SWAP1 REVERT JUMPDEST PUSH0 PUSH1 0x3 PUSH2 0x2AD PUSH1 0x3 DUP1 SLOAD SWAP1 POP PUSH2 0x568 JUMP JUMPDEST DUP2 SLOAD DUP2 LT PUSH2 0x2BE JUMPI PUSH2 0x2BD PUSH2 0x864 JUMP JUMPDEST JUMPDEST SWAP1 PUSH0 MSTORE PUSH1 0x20 PUSH0 KECCAK256 ADD PUSH0 SWAP1 SLOAD SWAP1 PUSH2 0x100 EXP SWAP1 DIV PUSH20 0xFFFFFFFFFFFFFFFFFFFFFFFFFFFFFFFFFFFFFFFF AND SWAP1 POP DUP1 PUSH20 0xFFFFFFFFFFFFFFFFFFFFFFFFFFFFFFFFFFFFFFFF AND PUSH2 0x8FC SELFBALANCE SWAP1 DUP2 ISZERO MUL SWAP1 PUSH1 0x40 MLOAD PUSH0 PUSH1 0x40 MLOAD DUP1 DUP4 SUB DUP2 DUP6 DUP9 DUP9 CALL SWAP4 POP POP POP POP ISZERO DUP1 ISZERO PUSH2 0x32B JUMPI RETURNDATASIZE PUSH0 PUSH0 RETURNDATACOPY RETURNDATASIZE PUSH0 REVERT JUMPDEST POP PUSH1 0x3 PUSH0 PUSH2 0x339 SWAP2 SWAP1 PUSH2 0x5BF JUMP JUMPDEST DUP1 SWAP2 POP POP SWAP1 JUMP JUMPDEST PUSH0 SELFBALANCE SWAP1 POP SWAP1 JUMP JUMPDEST PUSH0 PUSH1 0x1 SLOAD SWAP1 POP SWAP1 JUMP JUMPDEST PUSH1 0x1 SLOAD DUP2 JUMP JUMPDEST PUSH1 0x4 PUSH0 SWAP1 SLOAD SWAP1 PUSH2 0x100 EXP SWAP1 DIV PUSH20 0xFFFFFFFFFFFFFFFFFFFFFFFFFFFFFFFFFFFFFFFF AND PUSH20 0xFFFFFFFFFFFFFFFFFFFFFFFFFFFFFFFFFFFFFFFF AND ORIGIN PUSH20 0xFFFFFFFFFFFFFFFFFFFFFFFFFFFFFFFFFFFFFFFF AND SUB PUSH2 0x3E5 JUMPI PUSH1 0x40 MLOAD PUSH32 0x8C379A000000000000000000000000000000000000000000000000000000000 DUP2 MSTORE PUSH1 0x4 ADD PUSH2 0x3DC SWAP1 PUSH2 0x8DB JUMP JUMPDEST PUSH1 0x40 MLOAD DUP1 SWAP2 SUB SWAP1 REVERT JUMPDEST PUSH1 0x1 SLOAD CALLVALUE EQ PUSH2 0x429 JUMPI PUSH1 0x40 MLOAD PUSH32 0x8C379A000000000000000000000000000000000000000000000000000000000 DUP2 MSTORE PUSH1 0x4 ADD PUSH2 0x420 SWAP1 PUSH2 0x98F JUMP JUMPDEST PUSH1 0x40 MLOAD DUP1 SWAP2 SUB SWAP1 REVERT JUMPDEST PUSH0 PUSH0 SWAP1 POP PUSH0 PUSH0 SWAP1 POP JUMPDEST PUSH1 0x3 DUP1 SLOAD SWAP1 POP DUP2 LT ISZERO PUSH2 0x4C3 JUMPI ORIGIN PUSH20 0xFFFFFFFFFFFFFFFFFFFFFFFFFFFFFFFFFFFFFFFF AND PUSH1 0x3 DUP3 DUP2 SLOAD DUP2 LT PUSH2 0x46A JUMPI PUSH2 0x469 PUSH2 0x864 JUMP JUMPDEST JUMPDEST SWAP1 PUSH0 MSTORE PUSH1 0x20 PUSH0 KECCAK256 ADD PUSH0 SWAP1 SLOAD SWAP1 PUSH2 0x100 EXP SWAP1 DIV PUSH20 0xFFFFFFFFFFFFFFFFFFFFFFFFFFFFFFFFFFFFFFFF AND PUSH20 0xFFFFFFFFFFFFFFFFFFFFFFFFFFFFFFFFFFFFFFFF AND SUB PUSH2 0x4B6 JUMPI PUSH1 0x1 SWAP2 POP PUSH2 0x4C3 JUMP JUMPDEST DUP1 DUP1 PUSH1 0x1 ADD SWAP2 POP POP PUSH2 0x432 JUMP JUMPDEST POP DUP1 ISZERO PUSH2 0x505 JUMPI PUSH1 0x40 MLOAD PUSH32 0x8C379A000000000000000000000000000000000000000000000000000000000 DUP2 MSTORE PUSH1 0x4 ADD PUSH2 0x4FC SWAP1 PUSH2 0xA1D JUMP JUMPDEST PUSH1 0x40 MLOAD DUP1 SWAP2 SUB SWAP1 REVERT JUMPDEST PUSH1 0x3 ORIGIN SWAP1 DUP1 PUSH1 0x1 DUP2 SLOAD ADD DUP1 DUP3 SSTORE DUP1 SWAP2 POP POP PUSH1 0x1 SWAP1 SUB SWAP1 PUSH0 MSTORE PUSH1 0x20 PUSH0 KECCAK256 ADD PUSH0 SWAP1 SWAP2 SWAP1 SWAP2 SWAP1 SWAP2 PUSH2 0x100 EXP DUP2 SLOAD DUP2 PUSH20 0xFFFFFFFFFFFFFFFFFFFFFFFFFFFFFFFFFFFFFFFF MUL NOT AND SWAP1 DUP4 PUSH20 0xFFFFFFFFFFFFFFFFFFFFFFFFFFFFFFFFFFFFFFFF AND MUL OR SWAP1 SSTORE POP POP JUMP JUMPDEST PUSH0 PUSH0 PUSH0 DUP2 SLOAD DUP1 SWAP3 SWAP2 SWAP1 PUSH2 0x57A SWAP1 PUSH2 0xA68 JUMP JUMPDEST SWAP2 SWAP1 POP SSTORE POP DUP2 TIMESTAMP ORIGIN PUSH0 SLOAD PUSH1 0x40 MLOAD PUSH1 0x20 ADD PUSH2 0x596 SWAP4 SWAP3 SWAP2 SWAP1 PUSH2 0xB14 JUMP JUMPDEST PUSH1 0x40 MLOAD PUSH1 0x20 DUP2 DUP4 SUB SUB DUP2 MSTORE SWAP1 PUSH1 0x40 MSTORE DUP1 MLOAD SWAP1 PUSH1 0x20 ADD KECCAK256 PUSH0 SHR PUSH2 0x5B8 SWAP2 SWAP1 PUSH2 0xB7D JUMP JUMPDEST SWAP1 POP SWAP2 SWAP1 POP JUMP JUMPDEST POP DUP1 SLOAD PUSH0 DUP3 SSTORE SWAP1 PUSH0 MSTORE PUSH1 0x20 PUSH0 KECCAK256 SWAP1 DUP2 ADD SWAP1 PUSH2 0x5DA SWAP2 SWAP1 PUSH2 0x5DD JUMP JUMPDEST POP JUMP JUMPDEST JUMPDEST DUP1 DUP3 GT ISZERO PUSH2 0x5F4 JUMPI PUSH0 DUP2 PUSH0 SWAP1 SSTORE POP PUSH1 0x1 ADD PUSH2 0x5DE JUMP JUMPDEST POP SWAP1 JUMP JUMPDEST PUSH0 DUP2 MLOAD SWAP1 POP SWAP2 SWAP1 POP JUMP JUMPDEST PUSH0 DUP3 DUP3 MSTORE PUSH1 0x20 DUP3 ADD SWAP1 POP SWAP3 SWAP2 POP POP JUMP JUMPDEST DUP3 DUP2 DUP4 MCOPY PUSH0 DUP4 DUP4 ADD MSTORE POP POP POP JUMP JUMPDEST PUSH0 PUSH1 0x1F NOT PUSH1 0x1F DUP4 ADD AND SWAP1 POP SWAP2 SWAP1 POP JUMP JUMPDEST PUSH0 PUSH2 0x63A DUP3 PUSH2 0x5F8 JUMP JUMPDEST PUSH2 0x644 DUP2 DUP6 PUSH2 0x602 JUMP JUMPDEST SWAP4 POP PUSH2 0x654 DUP2 DUP6 PUSH1 0x20 DUP7 ADD PUSH2 0x612 JUMP JUMPDEST PUSH2 0x65D DUP2 PUSH2 0x620 JUMP JUMPDEST DUP5 ADD SWAP2 POP POP SWAP3 SWAP2 POP POP JUMP JUMPDEST PUSH0 PUSH1 0x20 DUP3 ADD SWAP1 POP DUP2 DUP2 SUB PUSH0 DUP4 ADD MSTORE PUSH2 0x680 DUP2 DUP5 PUSH2 0x630 JUMP JUMPDEST SWAP1 POP SWAP3 SWAP2 POP POP JUMP JUMPDEST PUSH0 PUSH20 0xFFFFFFFFFFFFFFFFFFFFFFFFFFFFFFFFFFFFFFFF DUP3 AND SWAP1 POP SWAP2 SWAP1 POP JUMP JUMPDEST PUSH0 PUSH2 0x6B1 DUP3 PUSH2 0x688 JUMP JUMPDEST SWAP1 POP SWAP2 SWAP1 POP JUMP JUMPDEST PUSH2 0x6C1 DUP2 PUSH2 0x6A7 JUMP JUMPDEST DUP3 MSTORE POP POP JUMP JUMPDEST PUSH0 PUSH1 0x20 DUP3 ADD SWAP1 POP PUSH2 0x6DA PUSH0 DUP4 ADD DUP5 PUSH2 0x6B8 JUMP JUMPDEST SWAP3 SWAP2 POP POP JUMP JUMPDEST PUSH0 DUP2 SWAP1 POP SWAP2 SWAP1 POP JUMP JUMPDEST PUSH2 0x6F2 DUP2 PUSH2 0x6E0 JUMP JUMPDEST DUP3 MSTORE POP POP JUMP JUMPDEST PUSH0 PUSH1 0x20 DUP3 ADD SWAP1 POP PUSH2 0x70B PUSH0 DUP4 ADD DUP5 PUSH2 0x6E9 JUMP JUMPDEST SWAP3 SWAP2 POP POP JUMP JUMPDEST PUSH32 0x4E487B7100000000000000000000000000000000000000000000000000000000 PUSH0 MSTORE PUSH1 0x22 PUSH1 0x4 MSTORE PUSH1 0x24 PUSH0 REVERT JUMPDEST PUSH0 PUSH1 0x2 DUP3 DIV SWAP1 POP PUSH1 0x1 DUP3 AND DUP1 PUSH2 0x755 JUMPI PUSH1 0x7F DUP3 AND SWAP2 POP JUMPDEST PUSH1 0x20 DUP3 LT DUP2 SUB PUSH2 0x768 JUMPI PUSH2 0x767 PUSH2 0x711 JUMP JUMPDEST JUMPDEST POP SWAP2 SWAP1 POP JUMP JUMPDEST PUSH32 0x4F6E6C79206F776E65722063616E20646F207468617421000000000000000000 PUSH0 DUP3 ADD MSTORE POP JUMP JUMPDEST PUSH0 PUSH2 0x7A2 PUSH1 0x17 DUP4 PUSH2 0x602 JUMP JUMPDEST SWAP2 POP PUSH2 0x7AD DUP3 PUSH2 0x76E JUMP JUMPDEST PUSH1 0x20 DUP3 ADD SWAP1 POP SWAP2 SWAP1 POP JUMP JUMPDEST PUSH0 PUSH1 0x20 DUP3 ADD SWAP1 POP DUP2 DUP2 SUB PUSH0 DUP4 ADD MSTORE PUSH2 0x7CF DUP2 PUSH2 0x796 JUMP JUMPDEST SWAP1 POP SWAP2 SWAP1 POP JUMP JUMPDEST PUSH32 0x546865206E756D62657273206F66207061727469636970616E7473206D757374 PUSH0 DUP3 ADD MSTORE PUSH32 0x206265206C6172676572207468616E2032000000000000000000000000000000 PUSH1 0x20 DUP3 ADD MSTORE POP JUMP JUMPDEST PUSH0 PUSH2 0x830 PUSH1 0x31 DUP4 PUSH2 0x602 JUMP JUMPDEST SWAP2 POP PUSH2 0x83B DUP3 PUSH2 0x7D6 JUMP JUMPDEST PUSH1 0x40 DUP3 ADD SWAP1 POP SWAP2 SWAP1 POP JUMP JUMPDEST PUSH0 PUSH1 0x20 DUP3 ADD SWAP1 POP DUP2 DUP2 SUB PUSH0 DUP4 ADD MSTORE PUSH2 0x85D DUP2 PUSH2 0x824 JUMP JUMPDEST SWAP1 POP SWAP2 SWAP1 POP JUMP JUMPDEST PUSH32 0x4E487B7100000000000000000000000000000000000000000000000000000000 PUSH0 MSTORE PUSH1 0x32 PUSH1 0x4 MSTORE PUSH1 0x24 PUSH0 REVERT JUMPDEST PUSH32 0x4F776E65722063616E2774207061727469636970617465000000000000000000 PUSH0 DUP3 ADD MSTORE POP JUMP JUMPDEST PUSH0 PUSH2 0x8C5 PUSH1 0x17 DUP4 PUSH2 0x602 JUMP JUMPDEST SWAP2 POP PUSH2 0x8D0 DUP3 PUSH2 0x891 JUMP JUMPDEST PUSH1 0x20 DUP3 ADD SWAP1 POP SWAP2 SWAP1 POP JUMP JUMPDEST PUSH0 PUSH1 0x20 DUP3 ADD SWAP1 POP DUP2 DUP2 SUB PUSH0 DUP4 ADD MSTORE PUSH2 0x8F2 DUP2 PUSH2 0x8B9 JUMP JUMPDEST SWAP1 POP SWAP2 SWAP1 POP JUMP JUMPDEST PUSH32 0x5072696365206D75737420626520657175616C20746F20746865207072696365 PUSH0 DUP3 ADD MSTORE PUSH32 0x20646566696E656420627920746865206F776E6572206F6620746865206C6F74 PUSH1 0x20 DUP3 ADD MSTORE PUSH32 0x7465727900000000000000000000000000000000000000000000000000000000 PUSH1 0x40 DUP3 ADD MSTORE POP JUMP JUMPDEST PUSH0 PUSH2 0x979 PUSH1 0x44 DUP4 PUSH2 0x602 JUMP JUMPDEST SWAP2 POP PUSH2 0x984 DUP3 PUSH2 0x8F9 JUMP JUMPDEST PUSH1 0x60 DUP3 ADD SWAP1 POP SWAP2 SWAP1 POP JUMP JUMPDEST PUSH0 PUSH1 0x20 DUP3 ADD SWAP1 POP DUP2 DUP2 SUB PUSH0 DUP4 ADD MSTORE PUSH2 0x9A6 DUP2 PUSH2 0x96D JUMP JUMPDEST SWAP1 POP SWAP2 SWAP1 POP JUMP JUMPDEST PUSH32 0x41207061727469636970616E742063616E6E6F74207061727469636970617465 PUSH0 DUP3 ADD MSTORE PUSH32 0x207365766572616C2074696D6573000000000000000000000000000000000000 PUSH1 0x20 DUP3 ADD MSTORE POP JUMP JUMPDEST PUSH0 PUSH2 0xA07 PUSH1 0x2E DUP4 PUSH2 0x602 JUMP JUMPDEST SWAP2 POP PUSH2 0xA12 DUP3 PUSH2 0x9AD JUMP JUMPDEST PUSH1 0x40 DUP3 ADD SWAP1 POP SWAP2 SWAP1 POP JUMP JUMPDEST PUSH0 PUSH1 0x20 DUP3 ADD SWAP1 POP DUP2 DUP2 SUB PUSH0 DUP4 ADD MSTORE PUSH2 0xA34 DUP2 PUSH2 0x9FB JUMP JUMPDEST SWAP1 POP SWAP2 SWAP1 POP JUMP JUMPDEST PUSH32 0x4E487B7100000000000000000000000000000000000000000000000000000000 PUSH0 MSTORE PUSH1 0x11 PUSH1 0x4 MSTORE PUSH1 0x24 PUSH0 REVERT JUMPDEST PUSH0 PUSH2 0xA72 DUP3 PUSH2 0x6E0 JUMP JUMPDEST SWAP2 POP PUSH32 0xFFFFFFFFFFFFFFFFFFFFFFFFFFFFFFFFFFFFFFFFFFFFFFFFFFFFFFFFFFFFFFFF DUP3 SUB PUSH2 0xAA4 JUMPI PUSH2 0xAA3 PUSH2 0xA3B JUMP JUMPDEST JUMPDEST PUSH1 0x1 DUP3 ADD SWAP1 POP SWAP2 SWAP1 POP JUMP JUMPDEST PUSH0 DUP2 SWAP1 POP SWAP2 SWAP1 POP JUMP JUMPDEST PUSH2 0xAC9 PUSH2 0xAC4 DUP3 PUSH2 0x6E0 JUMP JUMPDEST PUSH2 0xAAF JUMP JUMPDEST DUP3 MSTORE POP POP JUMP JUMPDEST PUSH0 DUP2 PUSH1 0x60 SHL SWAP1 POP SWAP2 SWAP1 POP JUMP JUMPDEST PUSH0 PUSH2 0xAE5 DUP3 PUSH2 0xACF JUMP JUMPDEST SWAP1 POP SWAP2 SWAP1 POP JUMP JUMPDEST PUSH0 PUSH2 0xAF6 DUP3 PUSH2 0xADB JUMP JUMPDEST SWAP1 POP SWAP2 SWAP1 POP JUMP JUMPDEST PUSH2 0xB0E PUSH2 0xB09 DUP3 PUSH2 0x6A7 JUMP JUMPDEST PUSH2 0xAEC JUMP JUMPDEST DUP3 MSTORE POP POP JUMP JUMPDEST PUSH0 PUSH2 0xB1F DUP3 DUP7 PUSH2 0xAB8 JUMP JUMPDEST PUSH1 0x20 DUP3 ADD SWAP2 POP PUSH2 0xB2F DUP3 DUP6 PUSH2 0xAFD JUMP JUMPDEST PUSH1 0x14 DUP3 ADD SWAP2 POP PUSH2 0xB3F DUP3 DUP5 PUSH2 0xAB8 JUMP JUMPDEST PUSH1 0x20 DUP3 ADD SWAP2 POP DUP2 SWAP1 POP SWAP5 SWAP4 POP POP POP POP JUMP JUMPDEST PUSH32 0x4E487B7100000000000000000000000000000000000000000000000000000000 PUSH0 MSTORE PUSH1 0x12 PUSH1 0x4 MSTORE PUSH1 0x24 PUSH0 REVERT JUMPDEST PUSH0 PUSH2 0xB87 DUP3 PUSH2 0x6E0 JUMP JUMPDEST SWAP2 POP PUSH2 0xB92 DUP4 PUSH2 0x6E0 JUMP JUMPDEST SWAP3 POP DUP3 PUSH2 0xBA2 JUMPI PUSH2 0xBA1 PUSH2 0xB50 JUMP JUMPDEST JUMPDEST DUP3 DUP3 MOD SWAP1 POP SWAP3 SWAP2 POP POP JUMP INVALID LOG2 PUSH5 0x6970667358 0x22 SLT KECCAK256 DUP4 0xB5 SLOAD 0xFC JUMP DUP12 0x26 CALLDATALOAD 0xC ADDMOD PUSH13 0x3D7AFA1B3E1141573B77104DA0 SWAP10 ADD 0x4F PUSH25 0x38A37E8D64736F6C634300081E0033A2646970667358221220 NUMBER MSIZE 0xC1 BLOBHASH DUP9 SWAP16 0x24 PUSH7 0x4D44E458BA2EF9 EXTCODECOPY 0xBB SWAP10 DELEGATECALL CALLDATALOAD 0xD2 PUSH32 0x49E9961FFDA59288300764736F6C634300081E00330000000000000000000000 "
  },
  "Assembly": ".code\n  PUSH 80\t\t\tcontract LotteryFactory {\\n\\n\\...\n  PUSH 40\t\t\tcontract LotteryFactory {\\n\\n\\...\n  MSTORE \t\t\tcontract LotteryFactory {\\n\\n\\...\n  CALLVALUE \t\t\tconstructor () {\\n        owne...\n  DUP1 \t\t\tconstructor () {\\n        owne...\n  ISZERO \t\t\tconstructor () {\\n        owne...\n  PUSH [tag] 1\t\t\tconstructor () {\\n        owne...\n  JUMPI \t\t\tconstructor () {\\n        owne...\n  PUSH 0\t\t\tconstructor () {\\n        owne...\n  PUSH 0\t\t\tconstructor () {\\n        owne...\n  REVERT \t\t\tconstructor () {\\n        owne...\ntag 1\t\t\tconstructor () {\\n        owne...\n  JUMPDEST \t\t\tconstructor () {\\n        owne...\n  POP \t\t\tconstructor () {\\n        owne...\n  CALLER \t\t\tmsg.sender\n  PUSH 2\t\t\towner\n  PUSH 0\t\t\towner\n  PUSH 100\t\t\towner = msg.sender\n  EXP \t\t\towner = msg.sender\n  DUP2 \t\t\towner = msg.sender\n  SLOAD \t\t\towner = msg.sender\n  DUP2 \t\t\towner = msg.sender\n  PUSH FFFFFFFFFFFFFFFFFFFFFFFFFFFFFFFFFFFFFFFF\t\t\towner = msg.sender\n  MUL \t\t\towner = msg.sender\n  NOT \t\t\towner = msg.sender\n  AND \t\t\towner = msg.sender\n  SWAP1 \t\t\towner = msg.sender\n  DUP4 \t\t\towner = msg.sender\n  PUSH FFFFFFFFFFFFFFFFFFFFFFFFFFFFFFFFFFFFFFFF\t\t\towner = msg.sender\n  AND \t\t\towner = msg.sender\n  MUL \t\t\towner = msg.sender\n  OR \t\t\towner = msg.sender\n  SWAP1 \t\t\towner = msg.sender\n  SSTORE \t\t\towner = msg.sender\n  POP \t\t\towner = msg.sender\n  PUSH #[$] 0000000000000000000000000000000000000000000000000000000000000000\t\t\tcontract LotteryFactory {\\n\\n\\...\n  DUP1 \t\t\tcontract LotteryFactory {\\n\\n\\...\n  PUSH [$] 0000000000000000000000000000000000000000000000000000000000000000\t\t\tcontract LotteryFactory {\\n\\n\\...\n  PUSH 0\t\t\tcontract LotteryFactory {\\n\\n\\...\n  CODECOPY \t\t\tcontract LotteryFactory {\\n\\n\\...\n  PUSH 0\t\t\tcontract LotteryFactory {\\n\\n\\...\n  RETURN \t\t\tcontract LotteryFactory {\\n\\n\\...\n.data\n  0:\n    .code\n      PUSH 80\t\t\tcontract LotteryFactory {\\n\\n\\...\n      PUSH 40\t\t\tcontract LotteryFactory {\\n\\n\\...\n      MSTORE \t\t\tcontract LotteryFactory {\\n\\n\\...\n      PUSH 4\t\t\tcontract LotteryFactory {\\n\\n\\...\n      CALLDATASIZE \t\t\tcontract LotteryFactory {\\n\\n\\...\n      LT \t\t\tcontract LotteryFactory {\\n\\n\\...\n      PUSH [tag] 1\t\t\tcontract LotteryFactory {\\n\\n\\...\n      JUMPI \t\t\tcontract LotteryFactory {\\n\\n\\...\n      PUSH 0\t\t\tcontract LotteryFactory {\\n\\n\\...\n      CALLDATALOAD \t\t\tcontract LotteryFactory {\\n\\n\\...\n      PUSH E0\t\t\tcontract LotteryFactory {\\n\\n\\...\n      SHR \t\t\tcontract LotteryFactory {\\n\\n\\...\n      DUP1 \t\t\tcontract LotteryFactory {\\n\\n\\...\n      PUSH 5A8AD3DD\t\t\tcontract LotteryFactory {\\n\\n\\...\n      GT \t\t\tcontract LotteryFactory {\\n\\n\\...\n      PUSH [tag] 10\t\t\tcontract LotteryFactory {\\n\\n\\...\n      JUMPI \t\t\tcontract LotteryFactory {\\n\\n\\...\n      DUP1 \t\t\tcontract LotteryFactory {\\n\\n\\...\n      PUSH 5A8AD3DD\t\t\tcontract LotteryFactory {\\n\\n\\...\n      EQ \t\t\tcontract LotteryFactory {\\n\\n\\...\n      PUSH [tag] 6\t\t\tcontract LotteryFactory {\\n\\n\\...\n      JUMPI \t\t\tcontract LotteryFactory {\\n\\n\\...\n      DUP1 \t\t\tcontract LotteryFactory {\\n\\n\\...\n      PUSH 5FD4B08A\t\t\tcontract LotteryFactory {\\n\\n\\...\n      EQ \t\t\tcontract LotteryFactory {\\n\\n\\...\n      PUSH [tag] 7\t\t\tcontract LotteryFactory {\\n\\n\\...\n      JUMPI \t\t\tcontract LotteryFactory {\\n\\n\\...\n      DUP1 \t\t\tcontract LotteryFactory {\\n\\n\\...\n      PUSH 9C2F6944\t\t\tcontract LotteryFactory {\\n\\n\\...\n      EQ \t\t\tcontract LotteryFactory {\\n\\n\\...\n      PUSH [tag] 8\t\t\tcontract LotteryFactory {\\n\\n\\...\n      JUMPI \t\t\tcontract LotteryFactory {\\n\\n\\...\n      DUP1 \t\t\tcontract LotteryFactory {\\n\\n\\...\n      PUSH B91038C7\t\t\tcontract LotteryFactory {\\n\\n\\...\n      EQ \t\t\tcontract LotteryFactory {\\n\\n\\...\n      PUSH [tag] 9\t\t\tcontract LotteryFactory {\\n\\n\\...\n      JUMPI \t\t\tcontract LotteryFactory {\\n\\n\\...\n      PUSH [tag] 1\t\t\tcontract LotteryFactory {\\n\\n\\...\n      JUMP \t\t\tcontract LotteryFactory {\\n\\n\\...\n    tag 10\t\t\tcontract LotteryFactory {\\n\\n\\...\n      JUMPDEST \t\t\tcontract LotteryFactory {\\n\\n\\...\n      DUP1 \t\t\tcontract LotteryFactory {\\n\\n\\...\n      PUSH 9E786BE\t\t\tcontract LotteryFactory {\\n\\n\\...\n      EQ \t\t\tcontract LotteryFactory {\\n\\n\\...\n      PUSH [tag] 2\t\t\tcontract LotteryFactory {\\n\\n\\...\n      JUMPI \t\t\tcontract LotteryFactory {\\n\\n\\...\n      DUP1 \t\t\tcontract LotteryFactory {\\n\\n\\...\n      PUSH 2DC93DAA\t\t\tcontract LotteryFactory {\\n\\n\\...\n      EQ \t\t\tcontract LotteryFactory {\\n\\n\\...\n      PUSH [tag] 3\t\t\tcontract LotteryFactory {\\n\\n\\...\n      JUMPI \t\t\tcontract LotteryFactory {\\n\\n\\...\n      DUP1 \t\t\tcontract LotteryFactory {\\n\\n\\...\n      PUSH 3BBFDDC7\t\t\tcontract LotteryFactory {\\n\\n\\...\n      EQ \t\t\tcontract LotteryFactory {\\n\\n\\...\n      PUSH [tag] 4\t\t\tcontract LotteryFactory {\\n\\n\\...\n      JUMPI \t\t\tcontract LotteryFactory {\\n\\n\\...\n      DUP1 \t\t\tcontract LotteryFactory {\\n\\n\\...\n      PUSH 41976E09\t\t\tcontract LotteryFactory {\\n\\n\\...\n      EQ \t\t\tcontract LotteryFactory {\\n\\n\\...\n      PUSH [tag] 5\t\t\tcontract LotteryFactory {\\n\\n\\...\n      JUMPI \t\t\tcontract LotteryFactory {\\n\\n\\...\n    tag 1\t\t\tcontract LotteryFactory {\\n\\n\\...\n      JUMPDEST \t\t\tcontract LotteryFactory {\\n\\n\\...\n      PUSH 0\t\t\tcontract LotteryFactory {\\n\\n\\...\n      PUSH 0\t\t\tcontract LotteryFactory {\\n\\n\\...\n      REVERT \t\t\tcontract LotteryFactory {\\n\\n\\...\n    tag 2\t\t\tfunction addLoterie(uint fee, ...\n      JUMPDEST \t\t\tfunction addLoterie(uint fee, ...\n      CALLVALUE \t\t\tfunction addLoterie(uint fee, ...\n      DUP1 \t\t\tfunction addLoterie(uint fee, ...\n      ISZERO \t\t\tfunction addLoterie(uint fee, ...\n      PUSH [tag] 11\t\t\tfunction addLoterie(uint fee, ...\n      JUMPI \t\t\tfunction addLoterie(uint fee, ...\n      PUSH 0\t\t\tfunction addLoterie(uint fee, ...\n      PUSH 0\t\t\tfunction addLoterie(uint fee, ...\n      REVERT \t\t\tfunction addLoterie(uint fee, ...\n    tag 11\t\t\tfunction addLoterie(uint fee, ...\n      JUMPDEST \t\t\tfunction addLoterie(uint fee, ...\n      POP \t\t\tfunction addLoterie(uint fee, ...\n      PUSH [tag] 12\t\t\tfunction addLoterie(uint fee, ...\n      PUSH 4\t\t\tfunction addLoterie(uint fee, ...\n      DUP1 \t\t\tfunction addLoterie(uint fee, ...\n      CALLDATASIZE \t\t\tfunction addLoterie(uint fee, ...\n      SUB \t\t\tfunction addLoterie(uint fee, ...\n      DUP2 \t\t\tfunction addLoterie(uint fee, ...\n      ADD \t\t\tfunction addLoterie(uint fee, ...\n      SWAP1 \t\t\tfunction addLoterie(uint fee, ...\n      PUSH [tag] 13\t\t\tfunction addLoterie(uint fee, ...\n      SWAP2 \t\t\tfunction addLoterie(uint fee, ...\n      SWAP1 \t\t\tfunction addLoterie(uint fee, ...\n      PUSH [tag] 14\t\t\tfunction addLoterie(uint fee, ...\n      JUMP \t\t\tfunction addLoterie(uint fee, ...\n    tag 13\t\t\tfunction addLoterie(uint fee, ...\n      JUMPDEST \t\t\tfunction addLoterie(uint fee, ...\n      PUSH [tag] 15\t\t\tfunction addLoterie(uint fee, ...\n      JUMP \t\t\tfunction addLoterie(uint fee, ...\n    tag 12\t\t\tfunction addLoterie(uint fee, ...\n      JUMPDEST \t\t\tfunction addLoterie(uint fee, ...\n      STOP \t\t\tfunction addLoterie(uint fee, ...\n    tag 3\t\t\tfunction getLoteries() public ...\n      JUMPDEST \t\t\tfunction getLoteries() public ...\n      CALLVALUE \t\t\tfunction getLoteries() public ...\n      DUP1 \t\t\tfunction getLoteries() public ...\n      ISZERO \t\t\tfunction getLoteries() public ...\n      PUSH [tag] 16\t\t\tfunction getLoteries() public ...\n      JUMPI \t\t\tfunction getLoteries() public ...\n      PUSH 0\t\t\tfunction getLoteries() public ...\n      PUSH 0\t\t\tfunction getLoteries() public ...\n      REVERT \t\t\tfunction getLoteries() public ...\n    tag 16\t\t\tfunction getLoteries() public ...\n      JUMPDEST \t\t\tfunction getLoteries() public ...\n      POP \t\t\tfunction getLoteries() public ...\n      PUSH [tag] 17\t\t\tfunction getLoteries() public ...\n      PUSH [tag] 18\t\t\tfunction getLoteries() public ...\n      JUMP \t\t\tfunction getLoteries() public ...\n    tag 17\t\t\tfunction getLoteries() public ...\n      JUMPDEST \t\t\tfunction getLoteries() public ...\n      PUSH 40\t\t\tfunction getLoteries() public ...\n      MLOAD \t\t\tfunction getLoteries() public ...\n      PUSH [tag] 19\t\t\tfunction getLoteries() public ...\n      SWAP3 \t\t\tfunction getLoteries() public ...\n      SWAP2 \t\t\tfunction getLoteries() public ...\n      SWAP1 \t\t\tfunction getLoteries() public ...\n      PUSH [tag] 20\t\t\tfunction getLoteries() public ...\n      JUMP \t\t\tfunction getLoteries() public ...\n    tag 19\t\t\tfunction getLoteries() public ...\n      JUMPDEST \t\t\tfunction getLoteries() public ...\n      PUSH 40\t\t\tfunction getLoteries() public ...\n      MLOAD \t\t\tfunction getLoteries() public ...\n      DUP1 \t\t\tfunction getLoteries() public ...\n      SWAP2 \t\t\tfunction getLoteries() public ...\n      SUB \t\t\tfunction getLoteries() public ...\n      SWAP1 \t\t\tfunction getLoteries() public ...\n      RETURN \t\t\tfunction getLoteries() public ...\n    tag 4\t\t\tfunction getSolde(address lote...\n      JUMPDEST \t\t\tfunction getSolde(address lote...\n      CALLVALUE \t\t\tfunction getSolde(address lote...\n      DUP1 \t\t\tfunction getSolde(address lote...\n      ISZERO \t\t\tfunction getSolde(address lote...\n      PUSH [tag] 21\t\t\tfunction getSolde(address lote...\n      JUMPI \t\t\tfunction getSolde(address lote...\n      PUSH 0\t\t\tfunction getSolde(address lote...\n      PUSH 0\t\t\tfunction getSolde(address lote...\n      REVERT \t\t\tfunction getSolde(address lote...\n    tag 21\t\t\tfunction getSolde(address lote...\n      JUMPDEST \t\t\tfunction getSolde(address lote...\n      POP \t\t\tfunction getSolde(address lote...\n      PUSH [tag] 22\t\t\tfunction getSolde(address lote...\n      PUSH 4\t\t\tfunction getSolde(address lote...\n      DUP1 \t\t\tfunction getSolde(address lote...\n      CALLDATASIZE \t\t\tfunction getSolde(address lote...\n      SUB \t\t\tfunction getSolde(address lote...\n      DUP2 \t\t\tfunction getSolde(address lote...\n      ADD \t\t\tfunction getSolde(address lote...\n      SWAP1 \t\t\tfunction getSolde(address lote...\n      PUSH [tag] 23\t\t\tfunction getSolde(address lote...\n      SWAP2 \t\t\tfunction getSolde(address lote...\n      SWAP1 \t\t\tfunction getSolde(address lote...\n      PUSH [tag] 24\t\t\tfunction getSolde(address lote...\n      JUMP \t\t\tfunction getSolde(address lote...\n    tag 23\t\t\tfunction getSolde(address lote...\n      JUMPDEST \t\t\tfunction getSolde(address lote...\n      PUSH [tag] 25\t\t\tfunction getSolde(address lote...\n      JUMP \t\t\tfunction getSolde(address lote...\n    tag 22\t\t\tfunction getSolde(address lote...\n      JUMPDEST \t\t\tfunction getSolde(address lote...\n      PUSH 40\t\t\tfunction getSolde(address lote...\n      MLOAD \t\t\tfunction getSolde(address lote...\n      PUSH [tag] 26\t\t\tfunction getSolde(address lote...\n      SWAP2 \t\t\tfunction getSolde(address lote...\n      SWAP1 \t\t\tfunction getSolde(address lote...\n      PUSH [tag] 27\t\t\tfunction getSolde(address lote...\n      JUMP \t\t\tfunction getSolde(address lote...\n    tag 26\t\t\tfunction getSolde(address lote...\n      JUMPDEST \t\t\tfunction getSolde(address lote...\n      PUSH 40\t\t\tfunction getSolde(address lote...\n      MLOAD \t\t\tfunction getSolde(address lote...\n      DUP1 \t\t\tfunction getSolde(address lote...\n      SWAP2 \t\t\tfunction getSolde(address lote...\n      SUB \t\t\tfunction getSolde(address lote...\n      SWAP1 \t\t\tfunction getSolde(address lote...\n      RETURN \t\t\tfunction getSolde(address lote...\n    tag 5\t\t\tfunction getPrice(address lote...\n      JUMPDEST \t\t\tfunction getPrice(address lote...\n      CALLVALUE \t\t\tfunction getPrice(address lote...\n      DUP1 \t\t\tfunction getPrice(address lote...\n      ISZERO \t\t\tfunction getPrice(address lote...\n      PUSH [tag] 28\t\t\tfunction getPrice(address lote...\n      JUMPI \t\t\tfunction getPrice(address lote...\n      PUSH 0\t\t\tfunction getPrice(address lote...\n      PUSH 0\t\t\tfunction getPrice(address lote...\n      REVERT \t\t\tfunction getPrice(address lote...\n    tag 28\t\t\tfunction getPrice(address lote...\n      JUMPDEST \t\t\tfunction getPrice(address lote...\n      POP \t\t\tfunction getPrice(address lote...\n      PUSH [tag] 29\t\t\tfunction getPrice(address lote...\n      PUSH 4\t\t\tfunction getPrice(address lote...\n      DUP1 \t\t\tfunction getPrice(address lote...\n      CALLDATASIZE \t\t\tfunction getPrice(address lote...\n      SUB \t\t\tfunction getPrice(address lote...\n      DUP2 \t\t\tfunction getPrice(address lote...\n      ADD \t\t\tfunction getPrice(address lote...\n      SWAP1 \t\t\tfunction getPrice(address lote...\n      PUSH [tag] 30\t\t\tfunction getPrice(address lote...\n      SWAP2 \t\t\tfunction getPrice(address lote...\n      SWAP1 \t\t\tfunction getPrice(address lote...\n      PUSH [tag] 24\t\t\tfunction getPrice(address lote...\n      JUMP \t\t\tfunction getPrice(address lote...\n    tag 30\t\t\tfunction getPrice(address lote...\n      JUMPDEST \t\t\tfunction getPrice(address lote...\n      PUSH [tag] 31\t\t\tfunction getPrice(address lote...\n      JUMP \t\t\tfunction getPrice(address lote...\n    tag 29\t\t\tfunction getPrice(address lote...\n      JUMPDEST \t\t\tfunction getPrice(address lote...\n      PUSH 40\t\t\tfunction getPrice(address lote...\n      MLOAD \t\t\tfunction getPrice(address lote...\n      PUSH [tag] 32\t\t\tfunction getPrice(address lote...\n      SWAP2 \t\t\tfunction getPrice(address lote...\n      SWAP1 \t\t\tfunction getPrice(address lote...\n      PUSH [tag] 27\t\t\tfunction getPrice(address lote...\n      JUMP \t\t\tfunction getPrice(address lote...\n    tag 32\t\t\tfunction getPrice(address lote...\n      JUMPDEST \t\t\tfunction getPrice(address lote...\n      PUSH 40\t\t\tfunction getPrice(address lote...\n      MLOAD \t\t\tfunction getPrice(address lote...\n      DUP1 \t\t\tfunction getPrice(address lote...\n      SWAP2 \t\t\tfunction getPrice(address lote...\n      SUB \t\t\tfunction getPrice(address lote...\n      SWAP1 \t\t\tfunction getPrice(address lote...\n      RETURN \t\t\tfunction getPrice(address lote...\n    tag 6\t\t\tfunction removeLoterie(address...\n      JUMPDEST \t\t\tfunction removeLoterie(address...\n      CALLVALUE \t\t\tfunction removeLoterie(address...\n      DUP1 \t\t\tfunction removeLoterie(address...\n      ISZERO \t\t\tfunction removeLoterie(address...\n      PUSH [tag] 33\t\t\tfunction removeLoterie(address...\n      JUMPI \t\t\tfunction removeLoterie(address...\n      PUSH 0\t\t\tfunction removeLoterie(address...\n      PUSH 0\t\t\tfunction removeLoterie(address...\n      REVERT \t\t\tfunction removeLoterie(address...\n    tag 33\t\t\tfunction removeLoterie(address...\n      JUMPDEST \t\t\tfunction removeLoterie(address...\n      POP \t\t\tfunction removeLoterie(address...\n      PUSH [tag] 34\t\t\tfunction removeLoterie(address...\n      PUSH 4\t\t\tfunction removeLoterie(address...\n      DUP1 \t\t\tfunction removeLoterie(address...\n      CALLDATASIZE \t\t\tfunction removeLoterie(address...\n      SUB \t\t\tfunction removeLoterie(address...\n      DUP2 \t\t\tfunction removeLoterie(address...\n      ADD \t\t\tfunction removeLoterie(address...\n      SWAP1 \t\t\tfunction removeLoterie(address...\n      PUSH [tag] 35\t\t\tfunction removeLoterie(address...\n      SWAP2 \t\t\tfunction removeLoterie(address...\n      SWAP1 \t\t\tfunction removeLoterie(address...\n      PUSH [tag] 24\t\t\tfunction removeLoterie(address...\n      JUMP \t\t\tfunction removeLoterie(address...\n    tag 35\t\t\tfunction removeLoterie(address...\n      JUMPDEST \t\t\tfunction removeLoterie(address...\n      PUSH [tag] 36\t\t\tfunction removeLoterie(address...\n      JUMP \t\t\tfunction removeLoterie(address...\n    tag 34\t\t\tfunction removeLoterie(address...\n      JUMPDEST \t\t\tfunction removeLoterie(address...\n      STOP \t\t\tfunction removeLoterie(address...\n    tag 7\t\t\tfunction getName(address loter...\n      JUMPDEST \t\t\tfunction getName(address loter...\n      CALLVALUE \t\t\tfunction getName(address loter...\n      DUP1 \t\t\tfunction getName(address loter...\n      ISZERO \t\t\tfunction getName(address loter...\n      PUSH [tag] 37\t\t\tfunction getName(address loter...\n      JUMPI \t\t\tfunction getName(address loter...\n      PUSH 0\t\t\tfunction getName(address loter...\n      PUSH 0\t\t\tfunction getName(address loter...\n      REVERT \t\t\tfunction getName(address loter...\n    tag 37\t\t\tfunction getName(address loter...\n      JUMPDEST \t\t\tfunction getName(address loter...\n      POP \t\t\tfunction getName(address loter...\n      PUSH [tag] 38\t\t\tfunction getName(address loter...\n      PUSH 4\t\t\tfunction getName(address loter...\n      DUP1 \t\t\tfunction getName(address loter...\n      CALLDATASIZE \t\t\tfunction getName(address loter...\n      SUB \t\t\tfunction getName(address loter...\n      DUP2 \t\t\tfunction getName(address loter...\n      ADD \t\t\tfunction getName(address loter...\n      SWAP1 \t\t\tfunction getName(address loter...\n      PUSH [tag] 39\t\t\tfunction getName(address loter...\n      SWAP2 \t\t\tfunction getName(address loter...\n      SWAP1 \t\t\tfunction getName(address loter...\n      PUSH [tag] 24\t\t\tfunction getName(address loter...\n      JUMP \t\t\tfunction getName(address loter...\n    tag 39\t\t\tfunction getName(address loter...\n      JUMPDEST \t\t\tfunction getName(address loter...\n      PUSH [tag] 40\t\t\tfunction getName(address loter...\n      JUMP \t\t\tfunction getName(address loter...\n    tag 38\t\t\tfunction getName(address loter...\n      JUMPDEST \t\t\tfunction getName(address loter...\n      PUSH 40\t\t\tfunction getName(address loter...\n      MLOAD \t\t\tfunction getName(address loter...\n      PUSH [tag] 41\t\t\tfunction getName(address loter...\n      SWAP2 \t\t\tfunction getName(address loter...\n      SWAP1 \t\t\tfunction getName(address loter...\n      PUSH [tag] 42\t\t\tfunction getName(address loter...\n      JUMP \t\t\tfunction getName(address loter...\n    tag 41\t\t\tfunction getName(address loter...\n      JUMPDEST \t\t\tfunction getName(address loter...\n      PUSH 40\t\t\tfunction getName(address loter...\n      MLOAD \t\t\tfunction getName(address loter...\n      DUP1 \t\t\tfunction getName(address loter...\n      SWAP2 \t\t\tfunction getName(address loter...\n      SUB \t\t\tfunction getName(address loter...\n      SWAP1 \t\t\tfunction getName(address loter...\n      RETURN \t\t\tfunction getName(address loter...\n    tag 8\t\t\tfunction randomDraw(address lo...\n      JUMPDEST \t\t\tfunction randomDraw(address lo...\n      CALLVALUE \t\t\tfunction randomDraw(address lo...\n      DUP1 \t\t\tfunction randomDraw(address lo...\n      ISZERO \t\t\tfunction randomDraw(address lo...\n      PUSH [tag] 43\t\t\tfunction randomDraw(address lo...\n      JUMPI \t\t\tfunction randomDraw(address lo...\n      PUSH 0\t\t\tfunction randomDraw(address lo...\n      PUSH 0\t\t\tfunction randomDraw(address lo...\n      REVERT \t\t\tfunction randomDraw(address lo...\n    tag 43\t\t\tfunction randomDraw(address lo...\n      JUMPDEST \t\t\tfunction randomDraw(address lo...\n      POP \t\t\tfunction randomDraw(address lo...\n      PUSH [tag] 44\t\t\tfunction randomDraw(address lo...\n      PUSH 4\t\t\tfunction randomDraw(address lo...\n      DUP1 \t\t\tfunction randomDraw(address lo...\n      CALLDATASIZE \t\t\tfunction randomDraw(address lo...\n      SUB \t\t\tfunction randomDraw(address lo...\n      DUP2 \t\t\tfunction randomDraw(address lo...\n      ADD \t\t\tfunction randomDraw(address lo...\n      SWAP1 \t\t\tfunction randomDraw(address lo...\n      PUSH [tag] 45\t\t\tfunction randomDraw(address lo...\n      SWAP2 \t\t\tfunction randomDraw(address lo...\n      SWAP1 \t\t\tfunction randomDraw(address lo...\n      PUSH [tag] 24\t\t\tfunction randomDraw(address lo...\n      JUMP \t\t\tfunction randomDraw(address lo...\n    tag 45\t\t\tfunction randomDraw(address lo...\n      JUMPDEST \t\t\tfunction randomDraw(address lo...\n      PUSH [tag] 46\t\t\tfunction randomDraw(address lo...\n      JUMP \t\t\tfunction randomDraw(address lo...\n    tag 44\t\t\tfunction randomDraw(address lo...\n      JUMPDEST \t\t\tfunction randomDraw(address lo...\n      PUSH 40\t\t\tfunction randomDraw(address lo...\n      MLOAD \t\t\tfunction randomDraw(address lo...\n      PUSH [tag] 47\t\t\tfunction randomDraw(address lo...\n      SWAP2 \t\t\tfunction randomDraw(address lo...\n      SWAP1 \t\t\tfunction randomDraw(address lo...\n      PUSH [tag] 48\t\t\tfunction randomDraw(address lo...\n      JUMP \t\t\tfunction randomDraw(address lo...\n    tag 47\t\t\tfunction randomDraw(address lo...\n      JUMPDEST \t\t\tfunction randomDraw(address lo...\n      PUSH 40\t\t\tfunction randomDraw(address lo...\n      MLOAD \t\t\tfunction randomDraw(address lo...\n      DUP1 \t\t\tfunction randomDraw(address lo...\n      SWAP2 \t\t\tfunction randomDraw(address lo...\n      SUB \t\t\tfunction randomDraw(address lo...\n      SWAP1 \t\t\tfunction randomDraw(address lo...\n      RETURN \t\t\tfunction randomDraw(address lo...\n    tag 9\t\t\tfunction participate(address l...\n      JUMPDEST \t\t\tfunction participate(address l...\n      PUSH [tag] 49\t\t\tfunction participate(address l...\n      PUSH 4\t\t\tfunction participate(address l...\n      DUP1 \t\t\tfunction participate(address l...\n      CALLDATASIZE \t\t\tfunction participate(address l...\n      SUB \t\t\tfunction participate(address l...\n      DUP2 \t\t\tfunction participate(address l...\n      ADD \t\t\tfunction participate(address l...\n      SWAP1 \t\t\tfunction participate(address l...\n      PUSH [tag] 50\t\t\tfunction participate(address l...\n      SWAP2 \t\t\tfunction participate(address l...\n      SWAP1 \t\t\tfunction participate(address l...\n      PUSH [tag] 24\t\t\tfunction participate(address l...\n      JUMP \t\t\tfunction participate(address l...\n    tag 50\t\t\tfunction participate(address l...\n      JUMPDEST \t\t\tfunction participate(address l...\n      PUSH [tag] 51\t\t\tfunction participate(address l...\n      JUMP \t\t\tfunction participate(address l...\n    tag 49\t\t\tfunction participate(address l...\n      JUMPDEST \t\t\tfunction participate(address l...\n      STOP \t\t\tfunction participate(address l...\n    tag 15\t\t\tfunction addLoterie(uint fee, ...\n      JUMPDEST \t\t\tfunction addLoterie(uint fee, ...\n      PUSH 2\t\t\towner\n      PUSH 0\t\t\towner\n      SWAP1 \t\t\towner\n      SLOAD \t\t\towner\n      SWAP1 \t\t\towner\n      PUSH 100\t\t\towner\n      EXP \t\t\towner\n      SWAP1 \t\t\towner\n      DIV \t\t\towner\n      PUSH FFFFFFFFFFFFFFFFFFFFFFFFFFFFFFFFFFFFFFFF\t\t\towner\n      AND \t\t\towner\n      PUSH FFFFFFFFFFFFFFFFFFFFFFFFFFFFFFFFFFFFFFFF\t\t\tmsg.sender == owner\n      AND \t\t\tmsg.sender == owner\n      CALLER \t\t\tmsg.sender\n      PUSH FFFFFFFFFFFFFFFFFFFFFFFFFFFFFFFFFFFFFFFF\t\t\tmsg.sender == owner\n      AND \t\t\tmsg.sender == owner\n      EQ \t\t\tmsg.sender == owner\n      PUSH [tag] 53\t\t\trequire(msg.sender == owner, \"...\n      JUMPI \t\t\trequire(msg.sender == owner, \"...\n      PUSH 40\t\t\trequire(msg.sender == owner, \"...\n      MLOAD \t\t\trequire(msg.sender == owner, \"...\n      PUSH 8C379A000000000000000000000000000000000000000000000000000000000\t\t\trequire(msg.sender == owner, \"...\n      DUP2 \t\t\trequire(msg.sender == owner, \"...\n      MSTORE \t\t\trequire(msg.sender == owner, \"...\n      PUSH 4\t\t\trequire(msg.sender == owner, \"...\n      ADD \t\t\trequire(msg.sender == owner, \"...\n      PUSH [tag] 54\t\t\trequire(msg.sender == owner, \"...\n      SWAP1 \t\t\trequire(msg.sender == owner, \"...\n      PUSH [tag] 55\t\t\trequire(msg.sender == owner, \"...\n      JUMP \t\t\trequire(msg.sender == owner, \"...\n    tag 54\t\t\trequire(msg.sender == owner, \"...\n      JUMPDEST \t\t\trequire(msg.sender == owner, \"...\n      PUSH 40\t\t\trequire(msg.sender == owner, \"...\n      MLOAD \t\t\trequire(msg.sender == owner, \"...\n      DUP1 \t\t\trequire(msg.sender == owner, \"...\n      SWAP2 \t\t\trequire(msg.sender == owner, \"...\n      SUB \t\t\trequire(msg.sender == owner, \"...\n      SWAP1 \t\t\trequire(msg.sender == owner, \"...\n      REVERT \t\t\trequire(msg.sender == owner, \"...\n    tag 53\t\t\trequire(msg.sender == owner, \"...\n      JUMPDEST \t\t\trequire(msg.sender == owner, \"...\n      PUSH 0\t\t\tLoterie loterie\n      DUP3 \t\t\tfee\n      DUP3 \t\t\t_name\n      PUSH 40\t\t\tnew Loterie(fee, _name)\n      MLOAD \t\t\tnew Loterie(fee, _name)\n      PUSH [tag] 56\t\t\tnew Loterie(fee, _name)\n      SWAP1 \t\t\tnew Loterie(fee, _name)\n      PUSH [tag] 57\t\t\tnew Loterie(fee, _name)\n      JUMP \t\t\tnew Loterie(fee, _name)\n    tag 56\t\t\tnew Loterie(fee, _name)\n      JUMPDEST \t\t\tnew Loterie(fee, _name)\n      PUSH [tag] 58\t\t\tnew Loterie(fee, _name)\n      SWAP3 \t\t\tnew Loterie(fee, _name)\n      SWAP2 \t\t\tnew Loterie(fee, _name)\n      SWAP1 \t\t\tnew Loterie(fee, _name)\n      PUSH [tag] 59\t\t\tnew Loterie(fee, _name)\n      JUMP \t\t\tnew Loterie(fee, _name)\n    tag 58\t\t\tnew Loterie(fee, _name)\n      JUMPDEST \t\t\tnew Loterie(fee, _name)\n      PUSH 40\t\t\tnew Loterie(fee, _name)\n      MLOAD \t\t\tnew Loterie(fee, _name)\n      DUP1 \t\t\tnew Loterie(fee, _name)\n      SWAP2 \t\t\tnew Loterie(fee, _name)\n      SUB \t\t\tnew Loterie(fee, _name)\n      SWAP1 \t\t\tnew Loterie(fee, _name)\n      PUSH 0\t\t\tnew Loterie(fee, _name)\n      CREATE \t\t\tnew Loterie(fee, _name)\n      DUP1 \t\t\tnew Loterie(fee, _name)\n      ISZERO \t\t\tnew Loterie(fee, _name)\n      DUP1 \t\t\tnew Loterie(fee, _name)\n      ISZERO \t\t\tnew Loterie(fee, _name)\n      PUSH [tag] 60\t\t\tnew Loterie(fee, _name)\n      JUMPI \t\t\tnew Loterie(fee, _name)\n      RETURNDATASIZE \t\t\tnew Loterie(fee, _name)\n      PUSH 0\t\t\tnew Loterie(fee, _name)\n      PUSH 0\t\t\tnew Loterie(fee, _name)\n      RETURNDATACOPY \t\t\tnew Loterie(fee, _name)\n      RETURNDATASIZE \t\t\tnew Loterie(fee, _name)\n      PUSH 0\t\t\tnew Loterie(fee, _name)\n      REVERT \t\t\tnew Loterie(fee, _name)\n    tag 60\t\t\tnew Loterie(fee, _name)\n      JUMPDEST \t\t\tnew Loterie(fee, _name)\n      POP \t\t\tnew Loterie(fee, _name)\n      SWAP1 \t\t\tLoterie loterie = new Loterie(...\n      POP \t\t\tLoterie loterie = new Loterie(...\n      PUSH 1\t\t\taddresses\n      DUP2 \t\t\tloterie\n      SWAP1 \t\t\taddresses.push(address(loterie...\n      DUP1 \t\t\taddresses.push(address(loterie...\n      PUSH 1\t\t\taddresses.push(address(loterie...\n      DUP2 \t\t\taddresses.push(address(loterie...\n      SLOAD \t\t\taddresses.push(address(loterie...\n      ADD \t\t\taddresses.push(address(loterie...\n      DUP1 \t\t\taddresses.push(address(loterie...\n      DUP3 \t\t\taddresses.push(address(loterie...\n      SSTORE \t\t\taddresses.push(address(loterie...\n      DUP1 \t\t\taddresses.push(address(loterie...\n      SWAP2 \t\t\taddresses.push(address(loterie...\n      POP \t\t\taddresses.push(address(loterie...\n      POP \t\t\taddresses.push(address(loterie...\n      PUSH 1\t\t\taddresses.push(address(loterie...\n      SWAP1 \t\t\taddresses.push(address(loterie...\n      SUB \t\t\taddresses.push(address(loterie...\n      SWAP1 \t\t\taddresses.push(address(loterie...\n      PUSH 0\t\t\taddresses.push(address(loterie...\n      MSTORE \t\t\taddresses.push(address(loterie...\n      PUSH 20\t\t\taddresses.push(address(loterie...\n      PUSH 0\t\t\taddresses.push(address(loterie...\n      KECCAK256 \t\t\taddresses.push(address(loterie...\n      ADD \t\t\taddresses.push(address(loterie...\n      PUSH 0\t\t\taddresses.push(address(loterie...\n      SWAP1 \t\t\taddresses.push(address(loterie...\n      SWAP2 \t\t\taddresses.push(address(loterie...\n      SWAP1 \t\t\taddresses.push(address(loterie...\n      SWAP2 \t\t\taddresses.push(address(loterie...\n      SWAP1 \t\t\taddresses.push(address(loterie...\n      SWAP2 \t\t\taddresses.push(address(loterie...\n      PUSH 100\t\t\taddresses.push(address(loterie...\n      EXP \t\t\taddresses.push(address(loterie...\n      DUP2 \t\t\taddresses.push(address(loterie...\n      SLOAD \t\t\taddresses.push(address(loterie...\n      DUP2 \t\t\taddresses.push(address(loterie...\n      PUSH FFFFFFFFFFFFFFFFFFFFFFFFFFFFFFFFFFFFFFFF\t\t\taddresses.push(address(loterie...\n      MUL \t\t\taddresses.push(address(loterie...\n      NOT \t\t\taddresses.push(address(loterie...\n      AND \t\t\taddresses.push(address(loterie...\n      SWAP1 \t\t\taddresses.push(address(loterie...\n      DUP4 \t\t\taddresses.push(address(loterie...\n      PUSH FFFFFFFFFFFFFFFFFFFFFFFFFFFFFFFFFFFFFFFF\t\t\taddresses.push(address(loterie...\n      AND \t\t\taddresses.push(address(loterie...\n      MUL \t\t\taddresses.push(address(loterie...\n      OR \t\t\taddresses.push(address(loterie...\n      SWAP1 \t\t\taddresses.push(address(loterie...\n      SSTORE \t\t\taddresses.push(address(loterie...\n      POP \t\t\taddresses.push(address(loterie...\n      DUP1 \t\t\tloterie\n      PUSH 0\t\t\tloteries\n      PUSH 0\t\t\tloteries[address(loterie)]\n      DUP4 \t\t\tloterie\n      PUSH FFFFFFFFFFFFFFFFFFFFFFFFFFFFFFFFFFFFFFFF\t\t\tloteries[address(loterie)]\n      AND \t\t\tloteries[address(loterie)]\n      PUSH FFFFFFFFFFFFFFFFFFFFFFFFFFFFFFFFFFFFFFFF\t\t\tloteries[address(loterie)]\n      AND \t\t\tloteries[address(loterie)]\n      DUP2 \t\t\tloteries[address(loterie)]\n      MSTORE \t\t\tloteries[address(loterie)]\n      PUSH 20\t\t\tloteries[address(loterie)]\n      ADD \t\t\tloteries[address(loterie)]\n      SWAP1 \t\t\tloteries[address(loterie)]\n      DUP2 \t\t\tloteries[address(loterie)]\n      MSTORE \t\t\tloteries[address(loterie)]\n      PUSH 20\t\t\tloteries[address(loterie)]\n      ADD \t\t\tloteries[address(loterie)]\n      PUSH 0\t\t\tloteries[address(loterie)]\n      KECCAK256 \t\t\tloteries[address(loterie)]\n      PUSH 0\t\t\tloteries[address(loterie)]\n      PUSH 100\t\t\tloteries[address(loterie)] = l...\n      EXP \t\t\tloteries[address(loterie)] = l...\n      DUP2 \t\t\tloteries[address(loterie)] = l...\n      SLOAD \t\t\tloteries[address(loterie)] = l...\n      DUP2 \t\t\tloteries[address(loterie)] = l...\n      PUSH FFFFFFFFFFFFFFFFFFFFFFFFFFFFFFFFFFFFFFFF\t\t\tloteries[address(loterie)] = l...\n      MUL \t\t\tloteries[address(loterie)] = l...\n      NOT \t\t\tloteries[address(loterie)] = l...\n      AND \t\t\tloteries[address(loterie)] = l...\n      SWAP1 \t\t\tloteries[address(loterie)] = l...\n      DUP4 \t\t\tloteries[address(loterie)] = l...\n      PUSH FFFFFFFFFFFFFFFFFFFFFFFFFFFFFFFFFFFFFFFF\t\t\tloteries[address(loterie)] = l...\n      AND \t\t\tloteries[address(loterie)] = l...\n      MUL \t\t\tloteries[address(loterie)] = l...\n      OR \t\t\tloteries[address(loterie)] = l...\n      SWAP1 \t\t\tloteries[address(loterie)] = l...\n      SSTORE \t\t\tloteries[address(loterie)] = l...\n      POP \t\t\tloteries[address(loterie)] = l...\n      POP \t\t\t{\\n        require(msg.sender ...\n      POP \t\t\tfunction addLoterie(uint fee, ...\n      POP \t\t\tfunction addLoterie(uint fee, ...\n      JUMP \t\t\tfunction addLoterie(uint fee, ...\n    tag 18\t\t\tfunction getLoteries() public ...\n      JUMPDEST \t\t\tfunction getLoteries() public ...\n      PUSH 60\t\t\taddress[] memory\n      DUP1 \t\t\tstring[] memory\n      PUSH 0\t\t\tstring[] memory names\n      PUSH 1\t\t\taddresses\n      DUP1 \t\t\taddresses.length\n      SLOAD \t\t\taddresses.length\n      SWAP1 \t\t\taddresses.length\n      POP \t\t\taddresses.length\n      PUSH FFFFFFFFFFFFFFFF\t\t\tnew string[](addresses.length)\n      DUP2 \t\t\tnew string[](addresses.length)\n      GT \t\t\tnew string[](addresses.length)\n      ISZERO \t\t\tnew string[](addresses.length)\n      PUSH [tag] 63\t\t\tnew string[](addresses.length)\n      JUMPI \t\t\tnew string[](addresses.length)\n      PUSH [tag] 64\t\t\tnew string[](addresses.length)\n      PUSH [tag] 65\t\t\tnew string[](addresses.length)\n      JUMP \t\t\tnew string[](addresses.length)\n    tag 64\t\t\tnew string[](addresses.length)\n      JUMPDEST \t\t\tnew string[](addresses.length)\n    tag 63\t\t\tnew string[](addresses.length)\n      JUMPDEST \t\t\tnew string[](addresses.length)\n      PUSH 40\t\t\tnew string[](addresses.length)\n      MLOAD \t\t\tnew string[](addresses.length)\n      SWAP1 \t\t\tnew string[](addresses.length)\n      DUP1 \t\t\tnew string[](addresses.length)\n      DUP3 \t\t\tnew string[](addresses.length)\n      MSTORE \t\t\tnew string[](addresses.length)\n      DUP1 \t\t\tnew string[](addresses.length)\n      PUSH 20\t\t\tnew string[](addresses.length)\n      MUL \t\t\tnew string[](addresses.length)\n      PUSH 20\t\t\tnew string[](addresses.length)\n      ADD \t\t\tnew string[](addresses.length)\n      DUP3 \t\t\tnew string[](addresses.length)\n      ADD \t\t\tnew string[](addresses.length)\n      PUSH 40\t\t\tnew string[](addresses.length)\n      MSTORE \t\t\tnew string[](addresses.length)\n      DUP1 \t\t\tnew string[](addresses.length)\n      ISZERO \t\t\tnew string[](addresses.length)\n      PUSH [tag] 66\t\t\tnew string[](addresses.length)\n      JUMPI \t\t\tnew string[](addresses.length)\n      DUP2 \t\t\tnew string[](addresses.length)\n      PUSH 20\t\t\tnew string[](addresses.length)\n      ADD \t\t\tnew string[](addresses.length)\n    tag 67\t\t\tnew string[](addresses.length)\n      JUMPDEST \t\t\tnew string[](addresses.length)\n      PUSH 60\t\t\tnew string[](addresses.length)\n      DUP2 \t\t\tnew string[](addresses.length)\n      MSTORE \t\t\tnew string[](addresses.length)\n      PUSH 20\t\t\tnew string[](addresses.length)\n      ADD \t\t\tnew string[](addresses.length)\n      SWAP1 \t\t\tnew string[](addresses.length)\n      PUSH 1\t\t\tnew string[](addresses.length)\n      SWAP1 \t\t\tnew string[](addresses.length)\n      SUB \t\t\tnew string[](addresses.length)\n      SWAP1 \t\t\tnew string[](addresses.length)\n      DUP2 \t\t\tnew string[](addresses.length)\n      PUSH [tag] 67\t\t\tnew string[](addresses.length)\n      JUMPI \t\t\tnew string[](addresses.length)\n      SWAP1 \t\t\tnew string[](addresses.length)\n      POP \t\t\tnew string[](addresses.length)\n    tag 66\t\t\tnew string[](addresses.length)\n      JUMPDEST \t\t\tnew string[](addresses.length)\n      POP \t\t\tnew string[](addresses.length)\n      SWAP1 \t\t\tstring[] memory names = new st...\n      POP \t\t\tstring[] memory names = new st...\n      PUSH 0\t\t\tuint256 i\n      PUSH 0\t\t\t0\n      SWAP1 \t\t\tuint256 i = 0\n      POP \t\t\tuint256 i = 0\n    tag 68\t\t\tfor (uint256 i = 0; i < addres...\n      JUMPDEST \t\t\tfor (uint256 i = 0; i < addres...\n      PUSH 1\t\t\taddresses\n      DUP1 \t\t\taddresses.length\n      SLOAD \t\t\taddresses.length\n      SWAP1 \t\t\taddresses.length\n      POP \t\t\taddresses.length\n      DUP2 \t\t\ti\n      LT \t\t\ti < addresses.length\n      ISZERO \t\t\tfor (uint256 i = 0; i < addres...\n      PUSH [tag] 69\t\t\tfor (uint256 i = 0; i < addres...\n      JUMPI \t\t\tfor (uint256 i = 0; i < addres...\n      PUSH [tag] 71\t\t\tgetName(addresses[i])\n      PUSH 1\t\t\taddresses\n      DUP3 \t\t\ti\n      DUP2 \t\t\taddresses[i]\n      SLOAD \t\t\taddresses[i]\n      DUP2 \t\t\taddresses[i]\n      LT \t\t\taddresses[i]\n      PUSH [tag] 72\t\t\taddresses[i]\n      JUMPI \t\t\taddresses[i]\n      PUSH [tag] 73\t\t\taddresses[i]\n      PUSH [tag] 74\t\t\taddresses[i]\n      JUMP \t\t\taddresses[i]\n    tag 73\t\t\taddresses[i]\n      JUMPDEST \t\t\taddresses[i]\n    tag 72\t\t\taddresses[i]\n      JUMPDEST \t\t\taddresses[i]\n      SWAP1 \t\t\taddresses[i]\n      PUSH 0\t\t\taddresses[i]\n      MSTORE \t\t\taddresses[i]\n      PUSH 20\t\t\taddresses[i]\n      PUSH 0\t\t\taddresses[i]\n      KECCAK256 \t\t\taddresses[i]\n      ADD \t\t\taddresses[i]\n      PUSH 0\t\t\taddresses[i]\n      SWAP1 \t\t\taddresses[i]\n      SLOAD \t\t\taddresses[i]\n      SWAP1 \t\t\taddresses[i]\n      PUSH 100\t\t\taddresses[i]\n      EXP \t\t\taddresses[i]\n      SWAP1 \t\t\taddresses[i]\n      DIV \t\t\taddresses[i]\n      PUSH FFFFFFFFFFFFFFFFFFFFFFFFFFFFFFFFFFFFFFFF\t\t\taddresses[i]\n      AND \t\t\taddresses[i]\n      PUSH [tag] 40\t\t\tgetName\n      JUMP \t\t\tgetName(addresses[i])\n    tag 71\t\t\tgetName(addresses[i])\n      JUMPDEST \t\t\tgetName(addresses[i])\n      DUP3 \t\t\tnames\n      DUP3 \t\t\ti\n      DUP2 \t\t\tnames[i]\n      MLOAD \t\t\tnames[i]\n      DUP2 \t\t\tnames[i]\n      LT \t\t\tnames[i]\n      PUSH [tag] 76\t\t\tnames[i]\n      JUMPI \t\t\tnames[i]\n      PUSH [tag] 77\t\t\tnames[i]\n      PUSH [tag] 74\t\t\tnames[i]\n      JUMP \t\t\tnames[i]\n    tag 77\t\t\tnames[i]\n      JUMPDEST \t\t\tnames[i]\n    tag 76\t\t\tnames[i]\n      JUMPDEST \t\t\tnames[i]\n      PUSH 20\t\t\tnames[i]\n      MUL \t\t\tnames[i]\n      PUSH 20\t\t\tnames[i]\n      ADD \t\t\tnames[i]\n      ADD \t\t\tnames[i]\n      DUP2 \t\t\tnames[i] = getName(addresses[i...\n      SWAP1 \t\t\tnames[i] = getName(addresses[i...\n      MSTORE \t\t\tnames[i] = getName(addresses[i...\n      POP \t\t\tnames[i] = getName(addresses[i...\n      DUP1 \t\t\ti++\n      DUP1 \t\t\ti++\n      PUSH 1\t\t\ti++\n      ADD \t\t\ti++\n      SWAP2 \t\t\ti++\n      POP \t\t\ti++\n      POP \t\t\ti++\n      PUSH [tag] 68\t\t\tfor (uint256 i = 0; i < addres...\n      JUMP \t\t\tfor (uint256 i = 0; i < addres...\n    tag 69\t\t\tfor (uint256 i = 0; i < addres...\n      JUMPDEST \t\t\tfor (uint256 i = 0; i < addres...\n      POP \t\t\tfor (uint256 i = 0; i < addres...\n      PUSH 1\t\t\taddresses\n      DUP2 \t\t\tnames\n      DUP2 \t\t\treturn (addresses,names)\n      DUP1 \t\t\treturn (addresses,names)\n      SLOAD \t\t\treturn (addresses,names)\n      DUP1 \t\t\treturn (addresses,names)\n      PUSH 20\t\t\treturn (addresses,names)\n      MUL \t\t\treturn (addresses,names)\n      PUSH 20\t\t\treturn (addresses,names)\n      ADD \t\t\treturn (addresses,names)\n      PUSH 40\t\t\treturn (addresses,names)\n      MLOAD \t\t\treturn (addresses,names)\n      SWAP1 \t\t\treturn (addresses,names)\n      DUP2 \t\t\treturn (addresses,names)\n      ADD \t\t\treturn (addresses,names)\n      PUSH 40\t\t\treturn (addresses,names)\n      MSTORE \t\t\treturn (addresses,names)\n      DUP1 \t\t\treturn (addresses,names)\n      SWAP3 \t\t\treturn (addresses,names)\n      SWAP2 \t\t\treturn (addresses,names)\n      SWAP1 \t\t\treturn (addresses,names)\n      DUP2 \t\t\treturn (addresses,names)\n      DUP2 \t\t\treturn (addresses,names)\n      MSTORE \t\t\treturn (addresses,names)\n      PUSH 20\t\t\treturn (addresses,names)\n      ADD \t\t\treturn (addresses,names)\n      DUP3 \t\t\treturn (addresses,names)\n      DUP1 \t\t\treturn (addresses,names)\n      SLOAD \t\t\treturn (addresses,names)\n      DUP1 \t\t\treturn (addresses,names)\n      ISZERO \t\t\treturn (addresses,names)\n      PUSH [tag] 78\t\t\treturn (addresses,names)\n      JUMPI \t\t\treturn (addresses,names)\n      PUSH 20\t\t\treturn (addresses,names)\n      MUL \t\t\treturn (addresses,names)\n      DUP3 \t\t\treturn (addresses,names)\n      ADD \t\t\treturn (addresses,names)\n      SWAP2 \t\t\treturn (addresses,names)\n      SWAP1 \t\t\treturn (addresses,names)\n      PUSH 0\t\t\treturn (addresses,names)\n      MSTORE \t\t\treturn (addresses,names)\n      PUSH 20\t\t\treturn (addresses,names)\n      PUSH 0\t\t\treturn (addresses,names)\n      KECCAK256 \t\t\treturn (addresses,names)\n      SWAP1 \t\t\treturn (addresses,names)\n    tag 79\t\t\treturn (addresses,names)\n      JUMPDEST \t\t\treturn (addresses,names)\n      DUP2 \t\t\treturn (addresses,names)\n      PUSH 0\t\t\treturn (addresses,names)\n      SWAP1 \t\t\treturn (addresses,names)\n      SLOAD \t\t\treturn (addresses,names)\n      SWAP1 \t\t\treturn (addresses,names)\n      PUSH 100\t\t\treturn (addresses,names)\n      EXP \t\t\treturn (addresses,names)\n      SWAP1 \t\t\treturn (addresses,names)\n      DIV \t\t\treturn (addresses,names)\n      PUSH FFFFFFFFFFFFFFFFFFFFFFFFFFFFFFFFFFFFFFFF\t\t\treturn (addresses,names)\n      AND \t\t\treturn (addresses,names)\n      PUSH FFFFFFFFFFFFFFFFFFFFFFFFFFFFFFFFFFFFFFFF\t\t\treturn (addresses,names)\n      AND \t\t\treturn (addresses,names)\n      DUP2 \t\t\treturn (addresses,names)\n      MSTORE \t\t\treturn (addresses,names)\n      PUSH 20\t\t\treturn (addresses,names)\n      ADD \t\t\treturn (addresses,names)\n      SWAP1 \t\t\treturn (addresses,names)\n      PUSH 1\t\t\treturn (addresses,names)\n      ADD \t\t\treturn (addresses,names)\n      SWAP1 \t\t\treturn (addresses,names)\n      DUP1 \t\t\treturn (addresses,names)\n      DUP4 \t\t\treturn (addresses,names)\n      GT \t\t\treturn (addresses,names)\n      PUSH [tag] 79\t\t\treturn (addresses,names)\n      JUMPI \t\t\treturn (addresses,names)\n    tag 78\t\t\treturn (addresses,names)\n      JUMPDEST \t\t\treturn (addresses,names)\n      POP \t\t\treturn (addresses,names)\n      POP \t\t\treturn (addresses,names)\n      POP \t\t\treturn (addresses,names)\n      POP \t\t\treturn (addresses,names)\n      POP \t\t\treturn (addresses,names)\n      SWAP2 \t\t\treturn (addresses,names)\n      POP \t\t\treturn (addresses,names)\n      SWAP3 \t\t\treturn (addresses,names)\n      POP \t\t\treturn (addresses,names)\n      SWAP3 \t\t\treturn (addresses,names)\n      POP \t\t\treturn (addresses,names)\n      POP \t\t\treturn (addresses,names)\n      SWAP1 \t\t\tfunction getLoteries() public ...\n      SWAP2 \t\t\tfunction getLoteries() public ...\n      JUMP \t\t\tfunction getLoteries() public ...\n    tag 25\t\t\tfunction getSolde(address lote...\n      JUMPDEST \t\t\tfunction getSolde(address lote...\n      PUSH 0\t\t\tuint\n      PUSH [tag] 81\t\t\tcontainsAddress(loterie)\n      DUP3 \t\t\tloterie\n      PUSH [tag] 82\t\t\tcontainsAddress\n      JUMP \t\t\tcontainsAddress(loterie)\n    tag 81\t\t\tcontainsAddress(loterie)\n      JUMPDEST \t\t\tcontainsAddress(loterie)\n      PUSH [tag] 83\t\t\trequire(containsAddress(loteri...\n      JUMPI \t\t\trequire(containsAddress(loteri...\n      PUSH 40\t\t\trequire(containsAddress(loteri...\n      MLOAD \t\t\trequire(containsAddress(loteri...\n      PUSH 8C379A000000000000000000000000000000000000000000000000000000000\t\t\trequire(containsAddress(loteri...\n      DUP2 \t\t\trequire(containsAddress(loteri...\n      MSTORE \t\t\trequire(containsAddress(loteri...\n      PUSH 4\t\t\trequire(containsAddress(loteri...\n      ADD \t\t\trequire(containsAddress(loteri...\n      PUSH [tag] 84\t\t\trequire(containsAddress(loteri...\n      SWAP1 \t\t\trequire(containsAddress(loteri...\n      PUSH [tag] 85\t\t\trequire(containsAddress(loteri...\n      JUMP \t\t\trequire(containsAddress(loteri...\n    tag 84\t\t\trequire(containsAddress(loteri...\n      JUMPDEST \t\t\trequire(containsAddress(loteri...\n      PUSH 40\t\t\trequire(containsAddress(loteri...\n      MLOAD \t\t\trequire(containsAddress(loteri...\n      DUP1 \t\t\trequire(containsAddress(loteri...\n      SWAP2 \t\t\trequire(containsAddress(loteri...\n      SUB \t\t\trequire(containsAddress(loteri...\n      SWAP1 \t\t\trequire(containsAddress(loteri...\n      REVERT \t\t\trequire(containsAddress(loteri...\n    tag 83\t\t\trequire(containsAddress(loteri...\n      JUMPDEST \t\t\trequire(containsAddress(loteri...\n      PUSH 0\t\t\tloteries\n      PUSH 0\t\t\tloteries[loterie]\n      DUP4 \t\t\tloterie\n      PUSH FFFFFFFFFFFFFFFFFFFFFFFFFFFFFFFFFFFFFFFF\t\t\tloteries[loterie]\n      AND \t\t\tloteries[loterie]\n      PUSH FFFFFFFFFFFFFFFFFFFFFFFFFFFFFFFFFFFFFFFF\t\t\tloteries[loterie]\n      AND \t\t\tloteries[loterie]\n      DUP2 \t\t\tloteries[loterie]\n      MSTORE \t\t\tloteries[loterie]\n      PUSH 20\t\t\tloteries[loterie]\n      ADD \t\t\tloteries[loterie]\n      SWAP1 \t\t\tloteries[loterie]\n      DUP2 \t\t\tloteries[loterie]\n      MSTORE \t\t\tloteries[loterie]\n      PUSH 20\t\t\tloteries[loterie]\n      ADD \t\t\tloteries[loterie]\n      PUSH 0\t\t\tloteries[loterie]\n      KECCAK256 \t\t\tloteries[loterie]\n      PUSH 0\t\t\tloteries[loterie]\n      SWAP1 \t\t\tloteries[loterie]\n      SLOAD \t\t\tloteries[loterie]\n      SWAP1 \t\t\tloteries[loterie]\n      PUSH 100\t\t\tloteries[loterie]\n      EXP \t\t\tloteries[loterie]\n      SWAP1 \t\t\tloteries[loterie]\n      DIV \t\t\tloteries[loterie]\n      PUSH FFFFFFFFFFFFFFFFFFFFFFFFFFFFFFFFFFFFFFFF\t\t\tloteries[loterie]\n      AND \t\t\tloteries[loterie]\n      PUSH FFFFFFFFFFFFFFFFFFFFFFFFFFFFFFFFFFFFFFFF\t\t\tloteries[loterie].getSolde\n      AND \t\t\tloteries[loterie].getSolde\n      PUSH 55E5AE04\t\t\tloteries[loterie].getSolde\n      PUSH 40\t\t\tloteries[loterie].getSolde()\n      MLOAD \t\t\tloteries[loterie].getSolde()\n      DUP2 \t\t\tloteries[loterie].getSolde()\n      PUSH FFFFFFFF\t\t\tloteries[loterie].getSolde()\n      AND \t\t\tloteries[loterie].getSolde()\n      PUSH E0\t\t\tloteries[loterie].getSolde()\n      SHL \t\t\tloteries[loterie].getSolde()\n      DUP2 \t\t\tloteries[loterie].getSolde()\n      MSTORE \t\t\tloteries[loterie].getSolde()\n      PUSH 4\t\t\tloteries[loterie].getSolde()\n      ADD \t\t\tloteries[loterie].getSolde()\n      PUSH 20\t\t\tloteries[loterie].getSolde()\n      PUSH 40\t\t\tloteries[loterie].getSolde()\n      MLOAD \t\t\tloteries[loterie].getSolde()\n      DUP1 \t\t\tloteries[loterie].getSolde()\n      DUP4 \t\t\tloteries[loterie].getSolde()\n      SUB \t\t\tloteries[loterie].getSolde()\n      DUP2 \t\t\tloteries[loterie].getSolde()\n      DUP7 \t\t\tloteries[loterie].getSolde()\n      GAS \t\t\tloteries[loterie].getSolde()\n      STATICCALL \t\t\tloteries[loterie].getSolde()\n      ISZERO \t\t\tloteries[loterie].getSolde()\n      DUP1 \t\t\tloteries[loterie].getSolde()\n      ISZERO \t\t\tloteries[loterie].getSolde()\n      PUSH [tag] 87\t\t\tloteries[loterie].getSolde()\n      JUMPI \t\t\tloteries[loterie].getSolde()\n      RETURNDATASIZE \t\t\tloteries[loterie].getSolde()\n      PUSH 0\t\t\tloteries[loterie].getSolde()\n      PUSH 0\t\t\tloteries[loterie].getSolde()\n      RETURNDATACOPY \t\t\tloteries[loterie].getSolde()\n      RETURNDATASIZE \t\t\tloteries[loterie].getSolde()\n      PUSH 0\t\t\tloteries[loterie].getSolde()\n      REVERT \t\t\tloteries[loterie].getSolde()\n    tag 87\t\t\tloteries[loterie].getSolde()\n      JUMPDEST \t\t\tloteries[loterie].getSolde()\n      POP \t\t\tloteries[loterie].getSolde()\n      POP \t\t\tloteries[loterie].getSolde()\n      POP \t\t\tloteries[loterie].getSolde()\n      POP \t\t\tloteries[loterie].getSolde()\n      PUSH 40\t\t\tloteries[loterie].getSolde()\n      MLOAD \t\t\tloteries[loterie].getSolde()\n      RETURNDATASIZE \t\t\tloteries[loterie].getSolde()\n      PUSH 1F\t\t\tloteries[loterie].getSolde()\n      NOT \t\t\tloteries[loterie].getSolde()\n      PUSH 1F\t\t\tloteries[loterie].getSolde()\n      DUP3 \t\t\tloteries[loterie].getSolde()\n      ADD \t\t\tloteries[loterie].getSolde()\n      AND \t\t\tloteries[loterie].getSolde()\n      DUP3 \t\t\tloteries[loterie].getSolde()\n      ADD \t\t\tloteries[loterie].getSolde()\n      DUP1 \t\t\tloteries[loterie].getSolde()\n      PUSH 40\t\t\tloteries[loterie].getSolde()\n      MSTORE \t\t\tloteries[loterie].getSolde()\n      POP \t\t\tloteries[loterie].getSolde()\n      DUP2 \t\t\tloteries[loterie].getSolde()\n      ADD \t\t\tloteries[loterie].getSolde()\n      SWAP1 \t\t\tloteries[loterie].getSolde()\n      PUSH [tag] 88\t\t\tloteries[loterie].getSolde()\n      SWAP2 \t\t\tloteries[loterie].getSolde()\n      SWAP1 \t\t\tloteries[loterie].getSolde()\n      PUSH [tag] 89\t\t\tloteries[loterie].getSolde()\n      JUMP \t\t\tloteries[loterie].getSolde()\n    tag 88\t\t\tloteries[loterie].getSolde()\n      JUMPDEST \t\t\tloteries[loterie].getSolde()\n      SWAP1 \t\t\treturn loteries[loterie].getSo...\n      POP \t\t\treturn loteries[loterie].getSo...\n      SWAP2 \t\t\tfunction getSolde(address lote...\n      SWAP1 \t\t\tfunction getSolde(address lote...\n      POP \t\t\tfunction getSolde(address lote...\n      JUMP \t\t\tfunction getSolde(address lote...\n    tag 31\t\t\tfunction getPrice(address lote...\n      JUMPDEST \t\t\tfunction getPrice(address lote...\n      PUSH 0\t\t\tuint256\n      PUSH [tag] 91\t\t\tcontainsAddress(loterie)\n      DUP3 \t\t\tloterie\n      PUSH [tag] 82\t\t\tcontainsAddress\n      JUMP \t\t\tcontainsAddress(loterie)\n    tag 91\t\t\tcontainsAddress(loterie)\n      JUMPDEST \t\t\tcontainsAddress(loterie)\n      PUSH [tag] 92\t\t\trequire(containsAddress(loteri...\n      JUMPI \t\t\trequire(containsAddress(loteri...\n      PUSH 40\t\t\trequire(containsAddress(loteri...\n      MLOAD \t\t\trequire(containsAddress(loteri...\n      PUSH 8C379A000000000000000000000000000000000000000000000000000000000\t\t\trequire(containsAddress(loteri...\n      DUP2 \t\t\trequire(containsAddress(loteri...\n      MSTORE \t\t\trequire(containsAddress(loteri...\n      PUSH 4\t\t\trequire(containsAddress(loteri...\n      ADD \t\t\trequire(containsAddress(loteri...\n      PUSH [tag] 93\t\t\trequire(containsAddress(loteri...\n      SWAP1 \t\t\trequire(containsAddress(loteri...\n      PUSH [tag] 85\t\t\trequire(containsAddress(loteri...\n      JUMP \t\t\trequire(containsAddress(loteri...\n    tag 93\t\t\trequire(containsAddress(loteri...\n      JUMPDEST \t\t\trequire(containsAddress(loteri...\n      PUSH 40\t\t\trequire(containsAddress(loteri...\n      MLOAD \t\t\trequire(containsAddress(loteri...\n      DUP1 \t\t\trequire(containsAddress(loteri...\n      SWAP2 \t\t\trequire(containsAddress(loteri...\n      SUB \t\t\trequire(containsAddress(loteri...\n      SWAP1 \t\t\trequire(containsAddress(loteri...\n      REVERT \t\t\trequire(containsAddress(loteri...\n    tag 92\t\t\trequire(containsAddress(loteri...\n      JUMPDEST \t\t\trequire(containsAddress(loteri...\n      PUSH 0\t\t\tloteries\n      PUSH 0\t\t\tloteries[loterie]\n      DUP4 \t\t\tloterie\n      PUSH FFFFFFFFFFFFFFFFFFFFFFFFFFFFFFFFFFFFFFFF\t\t\tloteries[loterie]\n      AND \t\t\tloteries[loterie]\n      PUSH FFFFFFFFFFFFFFFFFFFFFFFFFFFFFFFFFFFFFFFF\t\t\tloteries[loterie]\n      AND \t\t\tloteries[loterie]\n      DUP2 \t\t\tloteries[loterie]\n      MSTORE \t\t\tloteries[loterie]\n      PUSH 20\t\t\tloteries[loterie]\n      ADD \t\t\tloteries[loterie]\n      SWAP1 \t\t\tloteries[loterie]\n      DUP2 \t\t\tloteries[loterie]\n      MSTORE \t\t\tloteries[loterie]\n      PUSH 20\t\t\tloteries[loterie]\n      ADD \t\t\tloteries[loterie]\n      PUSH 0\t\t\tloteries[loterie]\n      KECCAK256 \t\t\tloteries[loterie]\n      PUSH 0\t\t\tloteries[loterie]\n      SWAP1 \t\t\tloteries[loterie]\n      SLOAD \t\t\tloteries[loterie]\n      SWAP1 \t\t\tloteries[loterie]\n      PUSH 100\t\t\tloteries[loterie]\n      EXP \t\t\tloteries[loterie]\n      SWAP1 \t\t\tloteries[loterie]\n      DIV \t\t\tloteries[loterie]\n      PUSH FFFFFFFFFFFFFFFFFFFFFFFFFFFFFFFFFFFFFFFF\t\t\tloteries[loterie]\n      AND \t\t\tloteries[loterie]\n      PUSH FFFFFFFFFFFFFFFFFFFFFFFFFFFFFFFFFFFFFFFF\t\t\tloteries[loterie].getPrice\n      AND \t\t\tloteries[loterie].getPrice\n      PUSH 98D5FDCA\t\t\tloteries[loterie].getPrice\n      PUSH 40\t\t\tloteries[loterie].getPrice()\n      MLOAD \t\t\tloteries[loterie].getPrice()\n      DUP2 \t\t\tloteries[loterie].getPrice()\n      PUSH FFFFFFFF\t\t\tloteries[loterie].getPrice()\n      AND \t\t\tloteries[loterie].getPrice()\n      PUSH E0\t\t\tloteries[loterie].getPrice()\n      SHL \t\t\tloteries[loterie].getPrice()\n      DUP2 \t\t\tloteries[loterie].getPrice()\n      MSTORE \t\t\tloteries[loterie].getPrice()\n      PUSH 4\t\t\tloteries[loterie].getPrice()\n      ADD \t\t\tloteries[loterie].getPrice()\n      PUSH 20\t\t\tloteries[loterie].getPrice()\n      PUSH 40\t\t\tloteries[loterie].getPrice()\n      MLOAD \t\t\tloteries[loterie].getPrice()\n      DUP1 \t\t\tloteries[loterie].getPrice()\n      DUP4 \t\t\tloteries[loterie].getPrice()\n      SUB \t\t\tloteries[loterie].getPrice()\n      DUP2 \t\t\tloteries[loterie].getPrice()\n      DUP7 \t\t\tloteries[loterie].getPrice()\n      GAS \t\t\tloteries[loterie].getPrice()\n      STATICCALL \t\t\tloteries[loterie].getPrice()\n      ISZERO \t\t\tloteries[loterie].getPrice()\n      DUP1 \t\t\tloteries[loterie].getPrice()\n      ISZERO \t\t\tloteries[loterie].getPrice()\n      PUSH [tag] 95\t\t\tloteries[loterie].getPrice()\n      JUMPI \t\t\tloteries[loterie].getPrice()\n      RETURNDATASIZE \t\t\tloteries[loterie].getPrice()\n      PUSH 0\t\t\tloteries[loterie].getPrice()\n      PUSH 0\t\t\tloteries[loterie].getPrice()\n      RETURNDATACOPY \t\t\tloteries[loterie].getPrice()\n      RETURNDATASIZE \t\t\tloteries[loterie].getPrice()\n      PUSH 0\t\t\tloteries[loterie].getPrice()\n      REVERT \t\t\tloteries[loterie].getPrice()\n    tag 95\t\t\tloteries[loterie].getPrice()\n      JUMPDEST \t\t\tloteries[loterie].getPrice()\n      POP \t\t\tloteries[loterie].getPrice()\n      POP \t\t\tloteries[loterie].getPrice()\n      POP \t\t\tloteries[loterie].getPrice()\n      POP \t\t\tloteries[loterie].getPrice()\n      PUSH 40\t\t\tloteries[loterie].getPrice()\n      MLOAD \t\t\tloteries[loterie].getPrice()\n      RETURNDATASIZE \t\t\tloteries[loterie].getPrice()\n      PUSH 1F\t\t\tloteries[loterie].getPrice()\n      NOT \t\t\tloteries[loterie].getPrice()\n      PUSH 1F\t\t\tloteries[loterie].getPrice()\n      DUP3 \t\t\tloteries[loterie].getPrice()\n      ADD \t\t\tloteries[loterie].getPrice()\n      AND \t\t\tloteries[loterie].getPrice()\n      DUP3 \t\t\tloteries[loterie].getPrice()\n      ADD \t\t\tloteries[loterie].getPrice()\n      DUP1 \t\t\tloteries[loterie].getPrice()\n      PUSH 40\t\t\tloteries[loterie].getPrice()\n      MSTORE \t\t\tloteries[loterie].getPrice()\n      POP \t\t\tloteries[loterie].getPrice()\n      DUP2 \t\t\tloteries[loterie].getPrice()\n      ADD \t\t\tloteries[loterie].getPrice()\n      SWAP1 \t\t\tloteries[loterie].getPrice()\n      PUSH [tag] 96\t\t\tloteries[loterie].getPrice()\n      SWAP2 \t\t\tloteries[loterie].getPrice()\n      SWAP1 \t\t\tloteries[loterie].getPrice()\n      PUSH [tag] 89\t\t\tloteries[loterie].getPrice()\n      JUMP \t\t\tloteries[loterie].getPrice()\n    tag 96\t\t\tloteries[loterie].getPrice()\n      JUMPDEST \t\t\tloteries[loterie].getPrice()\n      SWAP1 \t\t\treturn loteries[loterie].getPr...\n      POP \t\t\treturn loteries[loterie].getPr...\n      SWAP2 \t\t\tfunction getPrice(address lote...\n      SWAP1 \t\t\tfunction getPrice(address lote...\n      POP \t\t\tfunction getPrice(address lote...\n      JUMP \t\t\tfunction getPrice(address lote...\n    tag 36\t\t\tfunction removeLoterie(address...\n      JUMPDEST \t\t\tfunction removeLoterie(address...\n      PUSH 2\t\t\towner\n      PUSH 0\t\t\towner\n      SWAP1 \t\t\towner\n      SLOAD \t\t\towner\n      SWAP1 \t\t\towner\n      PUSH 100\t\t\towner\n      EXP \t\t\towner\n      SWAP1 \t\t\towner\n      DIV \t\t\towner\n      PUSH FFFFFFFFFFFFFFFFFFFFFFFFFFFFFFFFFFFFFFFF\t\t\towner\n      AND \t\t\towner\n      PUSH FFFFFFFFFFFFFFFFFFFFFFFFFFFFFFFFFFFFFFFF\t\t\tmsg.sender == owner\n      AND \t\t\tmsg.sender == owner\n      CALLER \t\t\tmsg.sender\n      PUSH FFFFFFFFFFFFFFFFFFFFFFFFFFFFFFFFFFFFFFFF\t\t\tmsg.sender == owner\n      AND \t\t\tmsg.sender == owner\n      EQ \t\t\tmsg.sender == owner\n      PUSH [tag] 98\t\t\trequire(msg.sender == owner, \"...\n      JUMPI \t\t\trequire(msg.sender == owner, \"...\n      PUSH 40\t\t\trequire(msg.sender == owner, \"...\n      MLOAD \t\t\trequire(msg.sender == owner, \"...\n      PUSH 8C379A000000000000000000000000000000000000000000000000000000000\t\t\trequire(msg.sender == owner, \"...\n      DUP2 \t\t\trequire(msg.sender == owner, \"...\n      MSTORE \t\t\trequire(msg.sender == owner, \"...\n      PUSH 4\t\t\trequire(msg.sender == owner, \"...\n      ADD \t\t\trequire(msg.sender == owner, \"...\n      PUSH [tag] 99\t\t\trequire(msg.sender == owner, \"...\n      SWAP1 \t\t\trequire(msg.sender == owner, \"...\n      PUSH [tag] 100\t\t\trequire(msg.sender == owner, \"...\n      JUMP \t\t\trequire(msg.sender == owner, \"...\n    tag 99\t\t\trequire(msg.sender == owner, \"...\n      JUMPDEST \t\t\trequire(msg.sender == owner, \"...\n      PUSH 40\t\t\trequire(msg.sender == owner, \"...\n      MLOAD \t\t\trequire(msg.sender == owner, \"...\n      DUP1 \t\t\trequire(msg.sender == owner, \"...\n      SWAP2 \t\t\trequire(msg.sender == owner, \"...\n      SUB \t\t\trequire(msg.sender == owner, \"...\n      SWAP1 \t\t\trequire(msg.sender == owner, \"...\n      REVERT \t\t\trequire(msg.sender == owner, \"...\n    tag 98\t\t\trequire(msg.sender == owner, \"...\n      JUMPDEST \t\t\trequire(msg.sender == owner, \"...\n      PUSH 0\t\t\tuint256 i\n      PUSH 0\t\t\t0\n      SWAP1 \t\t\tuint256 i = 0\n      POP \t\t\tuint256 i = 0\n    tag 101\t\t\tfor(uint256 i = 0; i < address...\n      JUMPDEST \t\t\tfor(uint256 i = 0; i < address...\n      PUSH 1\t\t\taddresses\n      DUP1 \t\t\taddresses.length\n      SLOAD \t\t\taddresses.length\n      SWAP1 \t\t\taddresses.length\n      POP \t\t\taddresses.length\n      DUP2 \t\t\ti\n      LT \t\t\ti < addresses.length\n      ISZERO \t\t\tfor(uint256 i = 0; i < address...\n      PUSH [tag] 102\t\t\tfor(uint256 i = 0; i < address...\n      JUMPI \t\t\tfor(uint256 i = 0; i < address...\n      DUP2 \t\t\tloterie\n      PUSH FFFFFFFFFFFFFFFFFFFFFFFFFFFFFFFFFFFFFFFF\t\t\taddresses[i] == loterie\n      AND \t\t\taddresses[i] == loterie\n      PUSH 1\t\t\taddresses\n      DUP3 \t\t\ti\n      DUP2 \t\t\taddresses[i]\n      SLOAD \t\t\taddresses[i]\n      DUP2 \t\t\taddresses[i]\n      LT \t\t\taddresses[i]\n      PUSH [tag] 104\t\t\taddresses[i]\n      JUMPI \t\t\taddresses[i]\n      PUSH [tag] 105\t\t\taddresses[i]\n      PUSH [tag] 74\t\t\taddresses[i]\n      JUMP \t\t\taddresses[i]\n    tag 105\t\t\taddresses[i]\n      JUMPDEST \t\t\taddresses[i]\n    tag 104\t\t\taddresses[i]\n      JUMPDEST \t\t\taddresses[i]\n      SWAP1 \t\t\taddresses[i]\n      PUSH 0\t\t\taddresses[i]\n      MSTORE \t\t\taddresses[i]\n      PUSH 20\t\t\taddresses[i]\n      PUSH 0\t\t\taddresses[i]\n      KECCAK256 \t\t\taddresses[i]\n      ADD \t\t\taddresses[i]\n      PUSH 0\t\t\taddresses[i]\n      SWAP1 \t\t\taddresses[i]\n      SLOAD \t\t\taddresses[i]\n      SWAP1 \t\t\taddresses[i]\n      PUSH 100\t\t\taddresses[i]\n      EXP \t\t\taddresses[i]\n      SWAP1 \t\t\taddresses[i]\n      DIV \t\t\taddresses[i]\n      PUSH FFFFFFFFFFFFFFFFFFFFFFFFFFFFFFFFFFFFFFFF\t\t\taddresses[i]\n      AND \t\t\taddresses[i]\n      PUSH FFFFFFFFFFFFFFFFFFFFFFFFFFFFFFFFFFFFFFFF\t\t\taddresses[i] == loterie\n      AND \t\t\taddresses[i] == loterie\n      SUB \t\t\taddresses[i] == loterie\n      PUSH [tag] 107\t\t\tif (addresses[i] == loterie) {...\n      JUMPI \t\t\tif (addresses[i] == loterie) {...\n      PUSH 1\t\t\taddresses\n      DUP1 \t\t\t1\n      DUP1 \t\t\taddresses\n      DUP1 \t\t\taddresses.length\n      SLOAD \t\t\taddresses.length\n      SWAP1 \t\t\taddresses.length\n      POP \t\t\taddresses.length\n      PUSH [tag] 108\t\t\taddresses.length - 1\n      SWAP2 \t\t\taddresses.length - 1\n      SWAP1 \t\t\taddresses.length - 1\n      PUSH [tag] 109\t\t\taddresses.length - 1\n      JUMP \t\t\taddresses.length - 1\n    tag 108\t\t\taddresses.length - 1\n      JUMPDEST \t\t\taddresses.length - 1\n      DUP2 \t\t\taddresses[addresses.length - 1...\n      SLOAD \t\t\taddresses[addresses.length - 1...\n      DUP2 \t\t\taddresses[addresses.length - 1...\n      LT \t\t\taddresses[addresses.length - 1...\n      PUSH [tag] 110\t\t\taddresses[addresses.length - 1...\n      JUMPI \t\t\taddresses[addresses.length - 1...\n      PUSH [tag] 111\t\t\taddresses[addresses.length - 1...\n      PUSH [tag] 74\t\t\taddresses[addresses.length - 1...\n      JUMP \t\t\taddresses[addresses.length - 1...\n    tag 111\t\t\taddresses[addresses.length - 1...\n      JUMPDEST \t\t\taddresses[addresses.length - 1...\n    tag 110\t\t\taddresses[addresses.length - 1...\n      JUMPDEST \t\t\taddresses[addresses.length - 1...\n      SWAP1 \t\t\taddresses[addresses.length - 1...\n      PUSH 0\t\t\taddresses[addresses.length - 1...\n      MSTORE \t\t\taddresses[addresses.length - 1...\n      PUSH 20\t\t\taddresses[addresses.length - 1...\n      PUSH 0\t\t\taddresses[addresses.length - 1...\n      KECCAK256 \t\t\taddresses[addresses.length - 1...\n      ADD \t\t\taddresses[addresses.length - 1...\n      PUSH 0\t\t\taddresses[addresses.length - 1...\n      SWAP1 \t\t\taddresses[addresses.length - 1...\n      SLOAD \t\t\taddresses[addresses.length - 1...\n      SWAP1 \t\t\taddresses[addresses.length - 1...\n      PUSH 100\t\t\taddresses[addresses.length - 1...\n      EXP \t\t\taddresses[addresses.length - 1...\n      SWAP1 \t\t\taddresses[addresses.length - 1...\n      DIV \t\t\taddresses[addresses.length - 1...\n      PUSH FFFFFFFFFFFFFFFFFFFFFFFFFFFFFFFFFFFFFFFF\t\t\taddresses[addresses.length - 1...\n      AND \t\t\taddresses[addresses.length - 1...\n      PUSH 1\t\t\taddresses\n      DUP3 \t\t\ti\n      DUP2 \t\t\taddresses[i]\n      SLOAD \t\t\taddresses[i]\n      DUP2 \t\t\taddresses[i]\n      LT \t\t\taddresses[i]\n      PUSH [tag] 113\t\t\taddresses[i]\n      JUMPI \t\t\taddresses[i]\n      PUSH [tag] 114\t\t\taddresses[i]\n      PUSH [tag] 74\t\t\taddresses[i]\n      JUMP \t\t\taddresses[i]\n    tag 114\t\t\taddresses[i]\n      JUMPDEST \t\t\taddresses[i]\n    tag 113\t\t\taddresses[i]\n      JUMPDEST \t\t\taddresses[i]\n      SWAP1 \t\t\taddresses[i]\n      PUSH 0\t\t\taddresses[i]\n      MSTORE \t\t\taddresses[i]\n      PUSH 20\t\t\taddresses[i]\n      PUSH 0\t\t\taddresses[i]\n      KECCAK256 \t\t\taddresses[i]\n      ADD \t\t\taddresses[i]\n      PUSH 0\t\t\taddresses[i]\n      PUSH 100\t\t\taddresses[i] = addresses[addre...\n      EXP \t\t\taddresses[i] = addresses[addre...\n      DUP2 \t\t\taddresses[i] = addresses[addre...\n      SLOAD \t\t\taddresses[i] = addresses[addre...\n      DUP2 \t\t\taddresses[i] = addresses[addre...\n      PUSH FFFFFFFFFFFFFFFFFFFFFFFFFFFFFFFFFFFFFFFF\t\t\taddresses[i] = addresses[addre...\n      MUL \t\t\taddresses[i] = addresses[addre...\n      NOT \t\t\taddresses[i] = addresses[addre...\n      AND \t\t\taddresses[i] = addresses[addre...\n      SWAP1 \t\t\taddresses[i] = addresses[addre...\n      DUP4 \t\t\taddresses[i] = addresses[addre...\n      PUSH FFFFFFFFFFFFFFFFFFFFFFFFFFFFFFFFFFFFFFFF\t\t\taddresses[i] = addresses[addre...\n      AND \t\t\taddresses[i] = addresses[addre...\n      MUL \t\t\taddresses[i] = addresses[addre...\n      OR \t\t\taddresses[i] = addresses[addre...\n      SWAP1 \t\t\taddresses[i] = addresses[addre...\n      SSTORE \t\t\taddresses[i] = addresses[addre...\n      POP \t\t\taddresses[i] = addresses[addre...\n      PUSH 1\t\t\taddresses\n      DUP1 \t\t\taddresses.pop()\n      SLOAD \t\t\taddresses.pop()\n      DUP1 \t\t\taddresses.pop()\n      PUSH [tag] 116\t\t\taddresses.pop()\n      JUMPI \t\t\taddresses.pop()\n      PUSH [tag] 117\t\t\taddresses.pop()\n      PUSH [tag] 118\t\t\taddresses.pop()\n      JUMP \t\t\taddresses.pop()\n    tag 117\t\t\taddresses.pop()\n      JUMPDEST \t\t\taddresses.pop()\n    tag 116\t\t\taddresses.pop()\n      JUMPDEST \t\t\taddresses.pop()\n      PUSH 1\t\t\taddresses.pop()\n      SWAP1 \t\t\taddresses.pop()\n      SUB \t\t\taddresses.pop()\n      DUP2 \t\t\taddresses.pop()\n      DUP2 \t\t\taddresses.pop()\n      SWAP1 \t\t\taddresses.pop()\n      PUSH 0\t\t\taddresses.pop()\n      MSTORE \t\t\taddresses.pop()\n      PUSH 20\t\t\taddresses.pop()\n      PUSH 0\t\t\taddresses.pop()\n      KECCAK256 \t\t\taddresses.pop()\n      ADD \t\t\taddresses.pop()\n      PUSH 0\t\t\taddresses.pop()\n      PUSH 100\t\t\taddresses.pop()\n      EXP \t\t\taddresses.pop()\n      DUP2 \t\t\taddresses.pop()\n      SLOAD \t\t\taddresses.pop()\n      SWAP1 \t\t\taddresses.pop()\n      PUSH FFFFFFFFFFFFFFFFFFFFFFFFFFFFFFFFFFFFFFFF\t\t\taddresses.pop()\n      MUL \t\t\taddresses.pop()\n      NOT \t\t\taddresses.pop()\n      AND \t\t\taddresses.pop()\n      SWAP1 \t\t\taddresses.pop()\n      SSTORE \t\t\taddresses.pop()\n      SWAP1 \t\t\taddresses.pop()\n      SSTORE \t\t\taddresses.pop()\n      POP \t\t\treturn;\n      PUSH [tag] 97\t\t\treturn;\n      JUMP \t\t\treturn;\n    tag 107\t\t\tif (addresses[i] == loterie) {...\n      JUMPDEST \t\t\tif (addresses[i] == loterie) {...\n      DUP1 \t\t\ti++\n      DUP1 \t\t\ti++\n      PUSH 1\t\t\ti++\n      ADD \t\t\ti++\n      SWAP2 \t\t\ti++\n      POP \t\t\ti++\n      POP \t\t\ti++\n      PUSH [tag] 101\t\t\tfor(uint256 i = 0; i < address...\n      JUMP \t\t\tfor(uint256 i = 0; i < address...\n    tag 102\t\t\tfor(uint256 i = 0; i < address...\n      JUMPDEST \t\t\tfor(uint256 i = 0; i < address...\n      POP \t\t\tfor(uint256 i = 0; i < address...\n    tag 97\t\t\tfunction removeLoterie(address...\n      JUMPDEST \t\t\tfunction removeLoterie(address...\n      POP \t\t\tfunction removeLoterie(address...\n      JUMP \t\t\tfunction removeLoterie(address...\n    tag 40\t\t\tfunction getName(address loter...\n      JUMPDEST \t\t\tfunction getName(address loter...\n      PUSH 60\t\t\tstring memory\n      PUSH [tag] 121\t\t\tcontainsAddress(loterie)\n      DUP3 \t\t\tloterie\n      PUSH [tag] 82\t\t\tcontainsAddress\n      JUMP \t\t\tcontainsAddress(loterie)\n    tag 121\t\t\tcontainsAddress(loterie)\n      JUMPDEST \t\t\tcontainsAddress(loterie)\n      PUSH [tag] 122\t\t\trequire(containsAddress(loteri...\n      JUMPI \t\t\trequire(containsAddress(loteri...\n      PUSH 40\t\t\trequire(containsAddress(loteri...\n      MLOAD \t\t\trequire(containsAddress(loteri...\n      PUSH 8C379A000000000000000000000000000000000000000000000000000000000\t\t\trequire(containsAddress(loteri...\n      DUP2 \t\t\trequire(containsAddress(loteri...\n      MSTORE \t\t\trequire(containsAddress(loteri...\n      PUSH 4\t\t\trequire(containsAddress(loteri...\n      ADD \t\t\trequire(containsAddress(loteri...\n      PUSH [tag] 123\t\t\trequire(containsAddress(loteri...\n      SWAP1 \t\t\trequire(containsAddress(loteri...\n      PUSH [tag] 85\t\t\trequire(containsAddress(loteri...\n      JUMP \t\t\trequire(containsAddress(loteri...\n    tag 123\t\t\trequire(containsAddress(loteri...\n      JUMPDEST \t\t\trequire(containsAddress(loteri...\n      PUSH 40\t\t\trequire(containsAddress(loteri...\n      MLOAD \t\t\trequire(containsAddress(loteri...\n      DUP1 \t\t\trequire(containsAddress(loteri...\n      SWAP2 \t\t\trequire(containsAddress(loteri...\n      SUB \t\t\trequire(containsAddress(loteri...\n      SWAP1 \t\t\trequire(containsAddress(loteri...\n      REVERT \t\t\trequire(containsAddress(loteri...\n    tag 122\t\t\trequire(containsAddress(loteri...\n      JUMPDEST \t\t\trequire(containsAddress(loteri...\n      PUSH 0\t\t\tloteries\n      PUSH 0\t\t\tloteries[loterie]\n      DUP4 \t\t\tloterie\n      PUSH FFFFFFFFFFFFFFFFFFFFFFFFFFFFFFFFFFFFFFFF\t\t\tloteries[loterie]\n      AND \t\t\tloteries[loterie]\n      PUSH FFFFFFFFFFFFFFFFFFFFFFFFFFFFFFFFFFFFFFFF\t\t\tloteries[loterie]\n      AND \t\t\tloteries[loterie]\n      DUP2 \t\t\tloteries[loterie]\n      MSTORE \t\t\tloteries[loterie]\n      PUSH 20\t\t\tloteries[loterie]\n      ADD \t\t\tloteries[loterie]\n      SWAP1 \t\t\tloteries[loterie]\n      DUP2 \t\t\tloteries[loterie]\n      MSTORE \t\t\tloteries[loterie]\n      PUSH 20\t\t\tloteries[loterie]\n      ADD \t\t\tloteries[loterie]\n      PUSH 0\t\t\tloteries[loterie]\n      KECCAK256 \t\t\tloteries[loterie]\n      PUSH 0\t\t\tloteries[loterie]\n      SWAP1 \t\t\tloteries[loterie]\n      SLOAD \t\t\tloteries[loterie]\n      SWAP1 \t\t\tloteries[loterie]\n      PUSH 100\t\t\tloteries[loterie]\n      EXP \t\t\tloteries[loterie]\n      SWAP1 \t\t\tloteries[loterie]\n      DIV \t\t\tloteries[loterie]\n      PUSH FFFFFFFFFFFFFFFFFFFFFFFFFFFFFFFFFFFFFFFF\t\t\tloteries[loterie]\n      AND \t\t\tloteries[loterie]\n      PUSH FFFFFFFFFFFFFFFFFFFFFFFFFFFFFFFFFFFFFFFF\t\t\tloteries[loterie].getName\n      AND \t\t\tloteries[loterie].getName\n      PUSH 17D7DE7C\t\t\tloteries[loterie].getName\n      PUSH 40\t\t\tloteries[loterie].getName()\n      MLOAD \t\t\tloteries[loterie].getName()\n      DUP2 \t\t\tloteries[loterie].getName()\n      PUSH FFFFFFFF\t\t\tloteries[loterie].getName()\n      AND \t\t\tloteries[loterie].getName()\n      PUSH E0\t\t\tloteries[loterie].getName()\n      SHL \t\t\tloteries[loterie].getName()\n      DUP2 \t\t\tloteries[loterie].getName()\n      MSTORE \t\t\tloteries[loterie].getName()\n      PUSH 4\t\t\tloteries[loterie].getName()\n      ADD \t\t\tloteries[loterie].getName()\n      PUSH 0\t\t\tloteries[loterie].getName()\n      PUSH 40\t\t\tloteries[loterie].getName()\n      MLOAD \t\t\tloteries[loterie].getName()\n      DUP1 \t\t\tloteries[loterie].getName()\n      DUP4 \t\t\tloteries[loterie].getName()\n      SUB \t\t\tloteries[loterie].getName()\n      DUP2 \t\t\tloteries[loterie].getName()\n      DUP7 \t\t\tloteries[loterie].getName()\n      GAS \t\t\tloteries[loterie].getName()\n      STATICCALL \t\t\tloteries[loterie].getName()\n      ISZERO \t\t\tloteries[loterie].getName()\n      DUP1 \t\t\tloteries[loterie].getName()\n      ISZERO \t\t\tloteries[loterie].getName()\n      PUSH [tag] 125\t\t\tloteries[loterie].getName()\n      JUMPI \t\t\tloteries[loterie].getName()\n      RETURNDATASIZE \t\t\tloteries[loterie].getName()\n      PUSH 0\t\t\tloteries[loterie].getName()\n      PUSH 0\t\t\tloteries[loterie].getName()\n      RETURNDATACOPY \t\t\tloteries[loterie].getName()\n      RETURNDATASIZE \t\t\tloteries[loterie].getName()\n      PUSH 0\t\t\tloteries[loterie].getName()\n      REVERT \t\t\tloteries[loterie].getName()\n    tag 125\t\t\tloteries[loterie].getName()\n      JUMPDEST \t\t\tloteries[loterie].getName()\n      POP \t\t\tloteries[loterie].getName()\n      POP \t\t\tloteries[loterie].getName()\n      POP \t\t\tloteries[loterie].getName()\n      POP \t\t\tloteries[loterie].getName()\n      PUSH 40\t\t\tloteries[loterie].getName()\n      MLOAD \t\t\tloteries[loterie].getName()\n      RETURNDATASIZE \t\t\tloteries[loterie].getName()\n      PUSH 0\t\t\tloteries[loterie].getName()\n      DUP3 \t\t\tloteries[loterie].getName()\n      RETURNDATACOPY \t\t\tloteries[loterie].getName()\n      RETURNDATASIZE \t\t\tloteries[loterie].getName()\n      PUSH 1F\t\t\tloteries[loterie].getName()\n      NOT \t\t\tloteries[loterie].getName()\n      PUSH 1F\t\t\tloteries[loterie].getName()\n      DUP3 \t\t\tloteries[loterie].getName()\n      ADD \t\t\tloteries[loterie].getName()\n      AND \t\t\tloteries[loterie].getName()\n      DUP3 \t\t\tloteries[loterie].getName()\n      ADD \t\t\tloteries[loterie].getName()\n      DUP1 \t\t\tloteries[loterie].getName()\n      PUSH 40\t\t\tloteries[loterie].getName()\n      MSTORE \t\t\tloteries[loterie].getName()\n      POP \t\t\tloteries[loterie].getName()\n      DUP2 \t\t\tloteries[loterie].getName()\n      ADD \t\t\tloteries[loterie].getName()\n      SWAP1 \t\t\tloteries[loterie].getName()\n      PUSH [tag] 126\t\t\tloteries[loterie].getName()\n      SWAP2 \t\t\tloteries[loterie].getName()\n      SWAP1 \t\t\tloteries[loterie].getName()\n      PUSH [tag] 127\t\t\tloteries[loterie].getName()\n      JUMP \t\t\tloteries[loterie].getName()\n    tag 126\t\t\tloteries[loterie].getName()\n      JUMPDEST \t\t\tloteries[loterie].getName()\n      SWAP1 \t\t\treturn loteries[loterie].getNa...\n      POP \t\t\treturn loteries[loterie].getNa...\n      SWAP2 \t\t\tfunction getName(address loter...\n      SWAP1 \t\t\tfunction getName(address loter...\n      POP \t\t\tfunction getName(address loter...\n      JUMP \t\t\tfunction getName(address loter...\n    tag 46\t\t\tfunction randomDraw(address lo...\n      JUMPDEST \t\t\tfunction randomDraw(address lo...\n      PUSH 0\t\t\taddress\n      PUSH 0\t\t\taddress winner\n      PUSH 0\t\t\tloteries\n      PUSH 0\t\t\tloteries[loterie]\n      DUP5 \t\t\tloterie\n      PUSH FFFFFFFFFFFFFFFFFFFFFFFFFFFFFFFFFFFFFFFF\t\t\tloteries[loterie]\n      AND \t\t\tloteries[loterie]\n      PUSH FFFFFFFFFFFFFFFFFFFFFFFFFFFFFFFFFFFFFFFF\t\t\tloteries[loterie]\n      AND \t\t\tloteries[loterie]\n      DUP2 \t\t\tloteries[loterie]\n      MSTORE \t\t\tloteries[loterie]\n      PUSH 20\t\t\tloteries[loterie]\n      ADD \t\t\tloteries[loterie]\n      SWAP1 \t\t\tloteries[loterie]\n      DUP2 \t\t\tloteries[loterie]\n      MSTORE \t\t\tloteries[loterie]\n      PUSH 20\t\t\tloteries[loterie]\n      ADD \t\t\tloteries[loterie]\n      PUSH 0\t\t\tloteries[loterie]\n      KECCAK256 \t\t\tloteries[loterie]\n      PUSH 0\t\t\tloteries[loterie]\n      SWAP1 \t\t\tloteries[loterie]\n      SLOAD \t\t\tloteries[loterie]\n      SWAP1 \t\t\tloteries[loterie]\n      PUSH 100\t\t\tloteries[loterie]\n      EXP \t\t\tloteries[loterie]\n      SWAP1 \t\t\tloteries[loterie]\n      DIV \t\t\tloteries[loterie]\n      PUSH FFFFFFFFFFFFFFFFFFFFFFFFFFFFFFFFFFFFFFFF\t\t\tloteries[loterie]\n      AND \t\t\tloteries[loterie]\n      PUSH FFFFFFFFFFFFFFFFFFFFFFFFFFFFFFFFFFFFFFFF\t\t\tloteries[loterie].randomDraw\n      AND \t\t\tloteries[loterie].randomDraw\n      PUSH 1E62E202\t\t\tloteries[loterie].randomDraw\n      PUSH 40\t\t\tloteries[loterie].randomDraw()\n      MLOAD \t\t\tloteries[loterie].randomDraw()\n      DUP2 \t\t\tloteries[loterie].randomDraw()\n      PUSH FFFFFFFF\t\t\tloteries[loterie].randomDraw()\n      AND \t\t\tloteries[loterie].randomDraw()\n      PUSH E0\t\t\tloteries[loterie].randomDraw()\n      SHL \t\t\tloteries[loterie].randomDraw()\n      DUP2 \t\t\tloteries[loterie].randomDraw()\n      MSTORE \t\t\tloteries[loterie].randomDraw()\n      PUSH 4\t\t\tloteries[loterie].randomDraw()\n      ADD \t\t\tloteries[loterie].randomDraw()\n      PUSH 20\t\t\tloteries[loterie].randomDraw()\n      PUSH 40\t\t\tloteries[loterie].randomDraw()\n      MLOAD \t\t\tloteries[loterie].randomDraw()\n      DUP1 \t\t\tloteries[loterie].randomDraw()\n      DUP4 \t\t\tloteries[loterie].randomDraw()\n      SUB \t\t\tloteries[loterie].randomDraw()\n      DUP2 \t\t\tloteries[loterie].randomDraw()\n      PUSH 0\t\t\tloteries[loterie].randomDraw()\n      DUP8 \t\t\tloteries[loterie].randomDraw()\n      GAS \t\t\tloteries[loterie].randomDraw()\n      CALL \t\t\tloteries[loterie].randomDraw()\n      ISZERO \t\t\tloteries[loterie].randomDraw()\n      DUP1 \t\t\tloteries[loterie].randomDraw()\n      ISZERO \t\t\tloteries[loterie].randomDraw()\n      PUSH [tag] 130\t\t\tloteries[loterie].randomDraw()\n      JUMPI \t\t\tloteries[loterie].randomDraw()\n      RETURNDATASIZE \t\t\tloteries[loterie].randomDraw()\n      PUSH 0\t\t\tloteries[loterie].randomDraw()\n      PUSH 0\t\t\tloteries[loterie].randomDraw()\n      RETURNDATACOPY \t\t\tloteries[loterie].randomDraw()\n      RETURNDATASIZE \t\t\tloteries[loterie].randomDraw()\n      PUSH 0\t\t\tloteries[loterie].randomDraw()\n      REVERT \t\t\tloteries[loterie].randomDraw()\n    tag 130\t\t\tloteries[loterie].randomDraw()\n      JUMPDEST \t\t\tloteries[loterie].randomDraw()\n      POP \t\t\tloteries[loterie].randomDraw()\n      POP \t\t\tloteries[loterie].randomDraw()\n      POP \t\t\tloteries[loterie].randomDraw()\n      POP \t\t\tloteries[loterie].randomDraw()\n      PUSH 40\t\t\tloteries[loterie].randomDraw()\n      MLOAD \t\t\tloteries[loterie].randomDraw()\n      RETURNDATASIZE \t\t\tloteries[loterie].randomDraw()\n      PUSH 1F\t\t\tloteries[loterie].randomDraw()\n      NOT \t\t\tloteries[loterie].randomDraw()\n      PUSH 1F\t\t\tloteries[loterie].randomDraw()\n      DUP3 \t\t\tloteries[loterie].randomDraw()\n      ADD \t\t\tloteries[loterie].randomDraw()\n      AND \t\t\tloteries[loterie].randomDraw()\n      DUP3 \t\t\tloteries[loterie].randomDraw()\n      ADD \t\t\tloteries[loterie].randomDraw()\n      DUP1 \t\t\tloteries[loterie].randomDraw()\n      PUSH 40\t\t\tloteries[loterie].randomDraw()\n      MSTORE \t\t\tloteries[loterie].randomDraw()\n      POP \t\t\tloteries[loterie].randomDraw()\n      DUP2 \t\t\tloteries[loterie].randomDraw()\n      ADD \t\t\tloteries[loterie].randomDraw()\n      SWAP1 \t\t\tloteries[loterie].randomDraw()\n      PUSH [tag] 131\t\t\tloteries[loterie].randomDraw()\n      SWAP2 \t\t\tloteries[loterie].randomDraw()\n      SWAP1 \t\t\tloteries[loterie].randomDraw()\n      PUSH [tag] 132\t\t\tloteries[loterie].randomDraw()\n      JUMP \t\t\tloteries[loterie].randomDraw()\n    tag 131\t\t\tloteries[loterie].randomDraw()\n      JUMPDEST \t\t\tloteries[loterie].randomDraw()\n      SWAP1 \t\t\taddress winner = loteries[lote...\n      POP \t\t\taddress winner = loteries[lote...\n      DUP1 \t\t\twinner\n      SWAP2 \t\t\treturn winner\n      POP \t\t\treturn winner\n      POP \t\t\treturn winner\n      SWAP2 \t\t\tfunction randomDraw(address lo...\n      SWAP1 \t\t\tfunction randomDraw(address lo...\n      POP \t\t\tfunction randomDraw(address lo...\n      JUMP \t\t\tfunction randomDraw(address lo...\n    tag 51\t\t\tfunction participate(address l...\n      JUMPDEST \t\t\tfunction participate(address l...\n      PUSH [tag] 134\t\t\tcontainsAddress(loterie)\n      DUP2 \t\t\tloterie\n      PUSH [tag] 82\t\t\tcontainsAddress\n      JUMP \t\t\tcontainsAddress(loterie)\n    tag 134\t\t\tcontainsAddress(loterie)\n      JUMPDEST \t\t\tcontainsAddress(loterie)\n      PUSH [tag] 135\t\t\trequire(containsAddress(loteri...\n      JUMPI \t\t\trequire(containsAddress(loteri...\n      PUSH 40\t\t\trequire(containsAddress(loteri...\n      MLOAD \t\t\trequire(containsAddress(loteri...\n      PUSH 8C379A000000000000000000000000000000000000000000000000000000000\t\t\trequire(containsAddress(loteri...\n      DUP2 \t\t\trequire(containsAddress(loteri...\n      MSTORE \t\t\trequire(containsAddress(loteri...\n      PUSH 4\t\t\trequire(containsAddress(loteri...\n      ADD \t\t\trequire(containsAddress(loteri...\n      PUSH [tag] 136\t\t\trequire(containsAddress(loteri...\n      SWAP1 \t\t\trequire(containsAddress(loteri...\n      PUSH [tag] 85\t\t\trequire(containsAddress(loteri...\n      JUMP \t\t\trequire(containsAddress(loteri...\n    tag 136\t\t\trequire(containsAddress(loteri...\n      JUMPDEST \t\t\trequire(containsAddress(loteri...\n      PUSH 40\t\t\trequire(containsAddress(loteri...\n      MLOAD \t\t\trequire(containsAddress(loteri...\n      DUP1 \t\t\trequire(containsAddress(loteri...\n      SWAP2 \t\t\trequire(containsAddress(loteri...\n      SUB \t\t\trequire(containsAddress(loteri...\n      SWAP1 \t\t\trequire(containsAddress(loteri...\n      REVERT \t\t\trequire(containsAddress(loteri...\n    tag 135\t\t\trequire(containsAddress(loteri...\n      JUMPDEST \t\t\trequire(containsAddress(loteri...\n      PUSH 0\t\t\tloteries\n      PUSH 0\t\t\tloteries[loterie]\n      DUP3 \t\t\tloterie\n      PUSH FFFFFFFFFFFFFFFFFFFFFFFFFFFFFFFFFFFFFFFF\t\t\tloteries[loterie]\n      AND \t\t\tloteries[loterie]\n      PUSH FFFFFFFFFFFFFFFFFFFFFFFFFFFFFFFFFFFFFFFF\t\t\tloteries[loterie]\n      AND \t\t\tloteries[loterie]\n      DUP2 \t\t\tloteries[loterie]\n      MSTORE \t\t\tloteries[loterie]\n      PUSH 20\t\t\tloteries[loterie]\n      ADD \t\t\tloteries[loterie]\n      SWAP1 \t\t\tloteries[loterie]\n      DUP2 \t\t\tloteries[loterie]\n      MSTORE \t\t\tloteries[loterie]\n      PUSH 20\t\t\tloteries[loterie]\n      ADD \t\t\tloteries[loterie]\n      PUSH 0\t\t\tloteries[loterie]\n      KECCAK256 \t\t\tloteries[loterie]\n      PUSH 0\t\t\tloteries[loterie]\n      SWAP1 \t\t\tloteries[loterie]\n      SLOAD \t\t\tloteries[loterie]\n      SWAP1 \t\t\tloteries[loterie]\n      PUSH 100\t\t\tloteries[loterie]\n      EXP \t\t\tloteries[loterie]\n      SWAP1 \t\t\tloteries[loterie]\n      DIV \t\t\tloteries[loterie]\n      PUSH FFFFFFFFFFFFFFFFFFFFFFFFFFFFFFFFFFFFFFFF\t\t\tloteries[loterie]\n      AND \t\t\tloteries[loterie]\n      PUSH FFFFFFFFFFFFFFFFFFFFFFFFFFFFFFFFFFFFFFFF\t\t\tloteries[loterie].participate\n      AND \t\t\tloteries[loterie].participate\n      PUSH D11711A2\t\t\tloteries[loterie].participate\n      CALLVALUE \t\t\tmsg.value\n      PUSH 40\t\t\tloteries[loterie].participate{...\n      MLOAD \t\t\tloteries[loterie].participate{...\n      DUP3 \t\t\tloteries[loterie].participate{...\n      PUSH FFFFFFFF\t\t\tloteries[loterie].participate{...\n      AND \t\t\tloteries[loterie].participate{...\n      PUSH E0\t\t\tloteries[loterie].participate{...\n      SHL \t\t\tloteries[loterie].participate{...\n      DUP2 \t\t\tloteries[loterie].participate{...\n      MSTORE \t\t\tloteries[loterie].participate{...\n      PUSH 4\t\t\tloteries[loterie].participate{...\n      ADD \t\t\tloteries[loterie].participate{...\n      PUSH 0\t\t\tloteries[loterie].participate{...\n      PUSH 40\t\t\tloteries[loterie].participate{...\n      MLOAD \t\t\tloteries[loterie].participate{...\n      DUP1 \t\t\tloteries[loterie].participate{...\n      DUP4 \t\t\tloteries[loterie].participate{...\n      SUB \t\t\tloteries[loterie].participate{...\n      DUP2 \t\t\tloteries[loterie].participate{...\n      DUP6 \t\t\tloteries[loterie].participate{...\n      DUP9 \t\t\tloteries[loterie].participate{...\n      DUP1 \t\t\tloteries[loterie].participate{...\n      EXTCODESIZE \t\t\tloteries[loterie].participate{...\n      ISZERO \t\t\tloteries[loterie].participate{...\n      DUP1 \t\t\tloteries[loterie].participate{...\n      ISZERO \t\t\tloteries[loterie].participate{...\n      PUSH [tag] 137\t\t\tloteries[loterie].participate{...\n      JUMPI \t\t\tloteries[loterie].participate{...\n      PUSH 0\t\t\tloteries[loterie].participate{...\n      PUSH 0\t\t\tloteries[loterie].participate{...\n      REVERT \t\t\tloteries[loterie].participate{...\n    tag 137\t\t\tloteries[loterie].participate{...\n      JUMPDEST \t\t\tloteries[loterie].participate{...\n      POP \t\t\tloteries[loterie].participate{...\n      GAS \t\t\tloteries[loterie].participate{...\n      CALL \t\t\tloteries[loterie].participate{...\n      ISZERO \t\t\tloteries[loterie].participate{...\n      DUP1 \t\t\tloteries[loterie].participate{...\n      ISZERO \t\t\tloteries[loterie].participate{...\n      PUSH [tag] 139\t\t\tloteries[loterie].participate{...\n      JUMPI \t\t\tloteries[loterie].participate{...\n      RETURNDATASIZE \t\t\tloteries[loterie].participate{...\n      PUSH 0\t\t\tloteries[loterie].participate{...\n      PUSH 0\t\t\tloteries[loterie].participate{...\n      RETURNDATACOPY \t\t\tloteries[loterie].participate{...\n      RETURNDATASIZE \t\t\tloteries[loterie].participate{...\n      PUSH 0\t\t\tloteries[loterie].participate{...\n      REVERT \t\t\tloteries[loterie].participate{...\n    tag 139\t\t\tloteries[loterie].participate{...\n      JUMPDEST \t\t\tloteries[loterie].participate{...\n      POP \t\t\tloteries[loterie].participate{...\n      POP \t\t\tloteries[loterie].participate{...\n      POP \t\t\tloteries[loterie].participate{...\n      POP \t\t\tloteries[loterie].participate{...\n      POP \t\t\tloteries[loterie].participate{...\n      POP \t\t\tfunction participate(address l...\n      JUMP \t\t\tfunction participate(address l...\n    tag 82\t\t\tfunction containsAddress(addre...\n      JUMPDEST \t\t\tfunction containsAddress(addre...\n      PUSH 0\t\t\tbool\n      PUSH 0\t\t\tuint256 i\n      PUSH 0\t\t\t0\n      SWAP1 \t\t\tuint256 i = 0\n      POP \t\t\tuint256 i = 0\n    tag 141\t\t\tfor (uint256 i = 0; i < addres...\n      JUMPDEST \t\t\tfor (uint256 i = 0; i < addres...\n      PUSH 1\t\t\taddresses\n      DUP1 \t\t\taddresses.length\n      SLOAD \t\t\taddresses.length\n      SWAP1 \t\t\taddresses.length\n      POP \t\t\taddresses.length\n      DUP2 \t\t\ti\n      LT \t\t\ti < addresses.length\n      ISZERO \t\t\tfor (uint256 i = 0; i < addres...\n      PUSH [tag] 142\t\t\tfor (uint256 i = 0; i < addres...\n      JUMPI \t\t\tfor (uint256 i = 0; i < addres...\n      DUP3 \t\t\tloterie\n      PUSH FFFFFFFFFFFFFFFFFFFFFFFFFFFFFFFFFFFFFFFF\t\t\taddresses[i] == loterie\n      AND \t\t\taddresses[i] == loterie\n      PUSH 1\t\t\taddresses\n      DUP3 \t\t\ti\n      DUP2 \t\t\taddresses[i]\n      SLOAD \t\t\taddresses[i]\n      DUP2 \t\t\taddresses[i]\n      LT \t\t\taddresses[i]\n      PUSH [tag] 144\t\t\taddresses[i]\n      JUMPI \t\t\taddresses[i]\n      PUSH [tag] 145\t\t\taddresses[i]\n      PUSH [tag] 74\t\t\taddresses[i]\n      JUMP \t\t\taddresses[i]\n    tag 145\t\t\taddresses[i]\n      JUMPDEST \t\t\taddresses[i]\n    tag 144\t\t\taddresses[i]\n      JUMPDEST \t\t\taddresses[i]\n      SWAP1 \t\t\taddresses[i]\n      PUSH 0\t\t\taddresses[i]\n      MSTORE \t\t\taddresses[i]\n      PUSH 20\t\t\taddresses[i]\n      PUSH 0\t\t\taddresses[i]\n      KECCAK256 \t\t\taddresses[i]\n      ADD \t\t\taddresses[i]\n      PUSH 0\t\t\taddresses[i]\n      SWAP1 \t\t\taddresses[i]\n      SLOAD \t\t\taddresses[i]\n      SWAP1 \t\t\taddresses[i]\n      PUSH 100\t\t\taddresses[i]\n      EXP \t\t\taddresses[i]\n      SWAP1 \t\t\taddresses[i]\n      DIV \t\t\taddresses[i]\n      PUSH FFFFFFFFFFFFFFFFFFFFFFFFFFFFFFFFFFFFFFFF\t\t\taddresses[i]\n      AND \t\t\taddresses[i]\n      PUSH FFFFFFFFFFFFFFFFFFFFFFFFFFFFFFFFFFFFFFFF\t\t\taddresses[i] == loterie\n      AND \t\t\taddresses[i] == loterie\n      SUB \t\t\taddresses[i] == loterie\n      PUSH [tag] 147\t\t\tif (addresses[i] == loterie) {...\n      JUMPI \t\t\tif (addresses[i] == loterie) {...\n      PUSH 1\t\t\ttrue\n      SWAP2 \t\t\treturn true\n      POP \t\t\treturn true\n      POP \t\t\treturn true\n      PUSH [tag] 140\t\t\treturn true\n      JUMP \t\t\treturn true\n    tag 147\t\t\tif (addresses[i] == loterie) {...\n      JUMPDEST \t\t\tif (addresses[i] == loterie) {...\n      DUP1 \t\t\ti++\n      DUP1 \t\t\ti++\n      PUSH 1\t\t\ti++\n      ADD \t\t\ti++\n      SWAP2 \t\t\ti++\n      POP \t\t\ti++\n      POP \t\t\ti++\n      PUSH [tag] 141\t\t\tfor (uint256 i = 0; i < addres...\n      JUMP \t\t\tfor (uint256 i = 0; i < addres...\n    tag 142\t\t\tfor (uint256 i = 0; i < addres...\n      JUMPDEST \t\t\tfor (uint256 i = 0; i < addres...\n      POP \t\t\tfor (uint256 i = 0; i < addres...\n      PUSH 0\t\t\tfalse\n      SWAP1 \t\t\treturn false\n      POP \t\t\treturn false\n    tag 140\t\t\tfunction containsAddress(addre...\n      JUMPDEST \t\t\tfunction containsAddress(addre...\n      SWAP2 \t\t\tfunction containsAddress(addre...\n      SWAP1 \t\t\tfunction containsAddress(addre...\n      POP \t\t\tfunction containsAddress(addre...\n      JUMP \t\t\tfunction containsAddress(addre...\n    tag 57\t\t\t\n      JUMPDEST \t\t\t\n      PUSH #[$] 0000000000000000000000000000000000000000000000000000000000000000\t\t\t\n      DUP1 \t\t\t\n      PUSH [$] 0000000000000000000000000000000000000000000000000000000000000000\t\t\t\n      DUP4 \t\t\t\n      CODECOPY \t\t\t\n      ADD \t\t\t\n      SWAP1 \t\t\t\n      JUMP \t\t\t\n    tag 148\t\t\t-License-Identifier: GPL-3.0\\n...\n      JUMPDEST \t\t\t-License-Identifier: GPL-3.0\\n...\n      PUSH 0\t\t\tgma so\n      PUSH 40\t\t\tor\n      MLOAD \t\t\t;\\n\\nimport\n      SWAP1 \t\t\t7.0 <0.9.0;\\n\\nimport\n      POP \t\t\t7.0 <0.9.0;\\n\\nimport\n      SWAP1 \t\t\t-License-Identifier: GPL-3.0\\n...\n      JUMP \t\t\t-License-Identifier: GPL-3.0\\n...\n    tag 149\t\t\trom \"./Loterie.sol\";\\n\\n/**\\n ...\n      JUMPDEST \t\t\trom \"./Loterie.sol\";\\n\\n/**\\n ...\n      PUSH 0\t\t\tF\n      PUSH 0\t\t\te\n      REVERT \t\t\tct LotteryFa\n    tag 150\t\t\t  mapping (address => Loterie)...\n      JUMPDEST \t\t\t  mapping (address => Loterie)...\n      PUSH 0\t\t\t \n      PUSH 0\t\t\t\\n\n      REVERT \t\t\tor () {\\n    \n    tag 151\t\t\tmsg.sender;\\n    }\\n\\n    func...\n      JUMPDEST \t\t\tmsg.sender;\\n    }\\n\\n    func...\n      PUSH 0\t\t\tmDraw(a\n      DUP2 \t\t\t retu\n      SWAP1 \t\t\trie) public retu\n      POP \t\t\trie) public retu\n      SWAP2 \t\t\tmsg.sender;\\n    }\\n\\n    func...\n      SWAP1 \t\t\tmsg.sender;\\n    }\\n\\n    func...\n      POP \t\t\tmsg.sender;\\n    }\\n\\n    func...\n      JUMP \t\t\tmsg.sender;\\n    }\\n\\n    func...\n    tag 152\t\t\t) {\\n        address winner = ...\n      JUMPDEST \t\t\t) {\\n        address winner = ...\n      PUSH [tag] 205\t\t\turn winner;\\n    }\\n\\n    f\n      DUP2 \t\t\t\\n    \n      PUSH [tag] 151\t\t\turn winner;\\n    }\\n\\n    f\n      JUMP \t\t\turn winner;\\n    }\\n\\n    f\n    tag 205\t\t\turn winner;\\n    }\\n\\n    f\n      JUMPDEST \t\t\turn winner;\\n    }\\n\\n    f\n      DUP2 \t\t\t    r\n      EQ \t\t\t       return winner;\\n    }\\n...\n      PUSH [tag] 206\t\t\tDraw();\\n\\n        return winn...\n      JUMPI \t\t\tDraw();\\n\\n        return winn...\n      PUSH 0\t\t\t(\n      PUSH 0\t\t\ta\n      REVERT \t\t\ton getName(a\n    tag 206\t\t\tDraw();\\n\\n        return winn...\n      JUMPDEST \t\t\tDraw();\\n\\n        return winn...\n      POP \t\t\t) {\\n        address winner = ...\n      JUMP \t\t\t) {\\n        address winner = ...\n    tag 153\t\t\t) public view returns (string ...\n      JUMPDEST \t\t\t) public view returns (string ...\n      PUSH 0\t\t\t  req\n      DUP2 \t\t\tterie \n      CALLDATALOAD \t\t\t(loterie),\"Loterie d\n      SWAP1 \t\t\tnsAddress(loterie),\"Loterie d\n      POP \t\t\tnsAddress(loterie),\"Loterie d\n      PUSH [tag] 208\t\t\tist\");\\n        return loterie...\n      DUP2 \t\t\ties[l\n      PUSH [tag] 152\t\t\tist\");\\n        return loterie...\n      JUMP \t\t\tist\");\\n        return loterie...\n    tag 208\t\t\tist\");\\n        return loterie...\n      JUMPDEST \t\t\tist\");\\n        return loterie...\n      SWAP3 \t\t\t) public view returns (string ...\n      SWAP2 \t\t\t) public view returns (string ...\n      POP \t\t\t) public view returns (string ...\n      POP \t\t\t) public view returns (string ...\n      JUMP \t\t\t) public view returns (string ...\n    tag 154\t\t\tme();\\n    }\\n    \\n    functi...\n      JUMPDEST \t\t\tme();\\n    }\\n    \\n    functi...\n      PUSH 0\t\t\tA\n      PUSH 0\t\t\ti\n      REVERT \t\t\te(containsAd\n    tag 155\t\t\te),\"Loterie doesn't exist\");\\n...\n      JUMPDEST \t\t\te),\"Loterie doesn't exist\");\\n...\n      PUSH 0\t\t\tr\n      PUSH 0\t\t\ta\n      REVERT \t\t\tcipate(addre\n    tag 156\t\t\tpublic payable {\\n        requ...\n      JUMPDEST \t\t\tpublic payable {\\n        requ...\n      PUSH 0\t\t\tAddres\n      PUSH 1F\t\t\tlo\n      NOT \t\t\t    lot\n      PUSH 1F\t\t\t\\n \n      DUP4 \t\t\txist\"\n      ADD \t\t\t't exist\");\\n  \n      AND \t\t\toesn't exist\");\\n        lote\n      SWAP1 \t\t\t\"Loterie doesn't exist\");\\n   ...\n      POP \t\t\t\"Loterie doesn't exist\");\\n   ...\n      SWAP2 \t\t\tpublic payable {\\n        requ...\n      SWAP1 \t\t\tpublic payable {\\n        requ...\n      POP \t\t\tpublic payable {\\n        requ...\n      JUMP \t\t\tpublic payable {\\n        requ...\n    tag 65\t\t\t].participate{value:msg.value}...\n      JUMPDEST \t\t\t].participate{value:msg.value}...\n      PUSH 4E487B7100000000000000000000000000000000000000000000000000000000\t\t\tction getPrice(address loterie...\n      PUSH 0\t\t\tf\n      MSTORE \t\t\t}\\n\\n    function getPrice(add...\n      PUSH 41\t\t\toter\n      PUSH 4\t\t\ts\n      MSTORE \t\t\tsAddress(loteri\n      PUSH 24\t\t\t exi\n      PUSH 0\t\t\tn\n      REVERT \t\t\tie doesn't exis\n    tag 157\t\t\t return loteries[loterie].getP...\n      JUMPDEST \t\t\t return loteries[loterie].getP...\n      PUSH [tag] 214\t\t\tng memory _name) public {\\n \n      DUP3 \t\t\tc {\\n\n      PUSH [tag] 156\t\t\tng memory _name) public {\\n \n      JUMP \t\t\tng memory _name) public {\\n \n    tag 214\t\t\tng memory _name) public {\\n \n      JUMPDEST \t\t\tng memory _name) public {\\n \n      DUP2 \t\t\tee, st\n      ADD \t\t\tnt fee, string memory _name) p...\n      DUP2 \t\t\tLoteri\n      DUP2 \t\t\tterie = ne\n      LT \t\t\t loterie = new Loterie\n      PUSH FFFFFFFFFFFFFFFF\t\t\try\");\\n        Lote\n      DUP3 \t\t\t add a lot\n      GT \t\t\tcan add a lottery\");\\n        ...\n      OR \t\t\ter can add a lottery\");\\n     ...\n      ISZERO \t\t\towner can add a lottery\");\\n  ...\n      PUSH [tag] 215\t\t\towner can add a lottery\");\\n  ...\n      JUMPI \t\t\towner can add a lottery\");\\n  ...\n      PUSH [tag] 216\t\t\t, _name);\\n        \n      PUSH [tag] 65\t\t\t, _name);\\n        \n      JUMP \t\t\t, _name);\\n        \n    tag 216\t\t\t, _name);\\n        \n      JUMPDEST \t\t\t, _name);\\n        \n    tag 215\t\t\towner can add a lottery\");\\n  ...\n      JUMPDEST \t\t\towner can add a lottery\");\\n  ...\n      DUP1 \t\t\t(loterie))\n      PUSH 40\t\t\tre\n      MSTORE \t\t\tush(address(loterie));\n      POP \t\t\t\\n\\n    function addLoterie(ui...\n      POP \t\t\t return loteries[loterie].getP...\n      POP \t\t\t return loteries[loterie].getP...\n      JUMP \t\t\t return loteries[loterie].getP...\n    tag 158\t\t\teries[address(loterie)] = lote...\n      JUMPDEST \t\t\teries[address(loterie)] = lote...\n      PUSH 0\t\t\t\\n    }\n      PUSH [tag] 218\t\t\tnsAddress(address lo\n      PUSH [tag] 148\t\t\tnsAddress(address lo\n      JUMP \t\t\tnsAddress(address lo\n    tag 218\t\t\tnsAddress(address lo\n      JUMPDEST \t\t\tnsAddress(address lo\n      SWAP1 \t\t\tion containsAddress(address lo\n      POP \t\t\tion containsAddress(address lo\n      PUSH [tag] 219\t\t\tivate view returns (bool) {\\n ...\n      DUP3 \t\t\t    \n      DUP3 \t\t\tbool) \n      PUSH [tag] 157\t\t\tivate view returns (bool) {\\n ...\n      JUMP \t\t\tivate view returns (bool) {\\n ...\n    tag 219\t\t\tivate view returns (bool) {\\n ...\n      JUMPDEST \t\t\tivate view returns (bool) {\\n ...\n      SWAP2 \t\t\teries[address(loterie)] = lote...\n      SWAP1 \t\t\teries[address(loterie)] = lote...\n      POP \t\t\teries[address(loterie)] = lote...\n      JUMP \t\t\teries[address(loterie)] = lote...\n    tag 159\t\t\t256 i = 0; i < addresses.lengt...\n      JUMPDEST \t\t\t256 i = 0; i < addresses.lengt...\n      PUSH 0\t\t\tses[\n      PUSH FFFFFFFFFFFFFFFF\t\t\talse;\\n    }\\n\\n    f\n      DUP3 \t\t\treturn\n      GT \t\t\t   return false;\\n    }\\n\\n   ...\n      ISZERO \t\t\t      return false;\\n    }\\n\\n...\n      PUSH [tag] 221\t\t\t      return false;\\n    }\\n\\n...\n      JUMPI \t\t\t      return false;\\n    }\\n\\n...\n      PUSH [tag] 222\t\t\tion getLoteries() \n      PUSH [tag] 65\t\t\tion getLoteries() \n      JUMP \t\t\tion getLoteries() \n    tag 222\t\t\tion getLoteries() \n      JUMPDEST \t\t\tion getLoteries() \n    tag 221\t\t\t      return false;\\n    }\\n\\n...\n      JUMPDEST \t\t\t      return false;\\n    }\\n\\n...\n      PUSH [tag] 223\t\t\t(address[] memory, string[] m\n      DUP3 \t\t\ting[] \n      PUSH [tag] 156\t\t\t(address[] memory, string[] m\n      JUMP \t\t\t(address[] memory, string[] m\n    tag 223\t\t\t(address[] memory, string[] m\n      JUMPDEST \t\t\t(address[] memory, string[] m\n      SWAP1 \t\t\treturns (address[] memory, str...\n      POP \t\t\treturns (address[] memory, str...\n      PUSH 20\t\t\tddre\n      DUP2 \t\t\tng[]\n      ADD \t\t\tstring[](addres\n      SWAP1 \t\t\ts = new string[](addres\n      POP \t\t\ts = new string[](addres\n      SWAP2 \t\t\t256 i = 0; i < addresses.lengt...\n      SWAP1 \t\t\t256 i = 0; i < addresses.lengt...\n      POP \t\t\t256 i = 0; i < addresses.lengt...\n      JUMP \t\t\t256 i = 0; i < addresses.lengt...\n    tag 160\t\t\t\\n        for (uint256 i = 0; ...\n      JUMPDEST \t\t\t\\n        for (uint256 i = 0; ...\n      DUP3 \t\t\t[i]);\\n\n      DUP2 \t\t\tess\n      DUP4 \t\t\t(ad\n      CALLDATACOPY \t\t\t[i] = getName(addresses[i]);\\n...\n      PUSH 0\t\t\ts\n      DUP4 \t\t\t(addre\n      DUP4 \t\t\ttur\n      ADD \t\t\t  return (addres\n      MSTORE \t\t\t\\n        return (addresses,\n      POP \t\t\t\\n        for (uint256 i = 0; ...\n      POP \t\t\t\\n        for (uint256 i = 0; ...\n      POP \t\t\t\\n        for (uint256 i = 0; ...\n      JUMP \t\t\t\\n        for (uint256 i = 0; ...\n    tag 161\t\t\t\\n\\n    function removeLoterie...\n      JUMPDEST \t\t\t\\n\\n    function removeLoterie...\n      PUSH 0\t\t\tder =\n      PUSH [tag] 226\t\t\twner can remove a lottery\");\\n...\n      PUSH [tag] 227\t\t\ta lottery\");\\n        for(uint...\n      DUP5 \t\t\t< addr\n      PUSH [tag] 159\t\t\ta lottery\");\\n        for(uint...\n      JUMP \t\t\ta lottery\");\\n        for(uint...\n    tag 227\t\t\ta lottery\");\\n        for(uint...\n      JUMPDEST \t\t\ta lottery\");\\n        for(uint...\n      PUSH [tag] 158\t\t\twner can remove a lottery\");\\n...\n      JUMP \t\t\twner can remove a lottery\");\\n...\n    tag 226\t\t\twner can remove a lottery\");\\n...\n      JUMPDEST \t\t\twner can remove a lottery\");\\n...\n      SWAP1 \t\t\tnly the owner can remove a lot...\n      POP \t\t\tnly the owner can remove a lot...\n      DUP3 \t\t\t      \n      DUP2 \t\t\t{\\n   \n      MSTORE \t\t\th; i++){\\n            \n      PUSH 20\t\t\t    \n      DUP2 \t\t\trie) \n      ADD \t\t\tloterie) {\\n     \n      DUP5 \t\t\tes[\n      DUP5 \t\t\t= addr\n      DUP5 \t\t\ts[i\n      ADD \t\t\tesses[i] = addre\n      GT \t\t\tddresses[i] = addresses[a\n      ISZERO \t\t\t  addresses[i] = addresses[add...\n      PUSH [tag] 228\t\t\t  addresses[i] = addresses[add...\n      JUMPI \t\t\t  addresses[i] = addresses[add...\n      PUSH [tag] 229\t\t\tesses.length - 1];\\n          ...\n      PUSH [tag] 155\t\t\tesses.length - 1];\\n          ...\n      JUMP \t\t\tesses.length - 1];\\n          ...\n    tag 229\t\t\tesses.length - 1];\\n          ...\n      JUMPDEST \t\t\tesses.length - 1];\\n          ...\n    tag 228\t\t\t  addresses[i] = addresses[add...\n      JUMPDEST \t\t\t  addresses[i] = addresses[add...\n      PUSH [tag] 230\t\t\t        }\\n    }\\n\\n\\n\\n}\n      DUP5 \t\t\t\n      DUP3 \t\t\t\n      DUP6 \t\t\t\n      PUSH [tag] 160\t\t\t        }\\n    }\\n\\n\\n\\n}\n      JUMP \t\t\t        }\\n    }\\n\\n\\n\\n}\n    tag 230\t\t\t        }\\n    }\\n\\n\\n\\n}\n      JUMPDEST \t\t\t        }\\n    }\\n\\n\\n\\n}\n      POP \t\t\t owner, \"Only the owner can re...\n      SWAP4 \t\t\t\\n\\n    function removeLoterie...\n      SWAP3 \t\t\t\\n\\n    function removeLoterie...\n      POP \t\t\t\\n\\n    function removeLoterie...\n      POP \t\t\t\\n\\n    function removeLoterie...\n      POP \t\t\t\\n\\n    function removeLoterie...\n      JUMP \t\t\t\\n\\n    function removeLoterie...\n    tag 162\t\t\t\n      JUMPDEST \t\t\t\n      PUSH 0\t\t\t\n      DUP3 \t\t\t\n      PUSH 1F\t\t\t\n      DUP4 \t\t\t\n      ADD \t\t\t\n      SLT \t\t\t\n      PUSH [tag] 232\t\t\t\n      JUMPI \t\t\t\n      PUSH [tag] 233\t\t\t\n      PUSH [tag] 154\t\t\t\n      JUMP \t\t\t\n    tag 233\t\t\t\n      JUMPDEST \t\t\t\n    tag 232\t\t\t\n      JUMPDEST \t\t\t\n      DUP2 \t\t\t\n      CALLDATALOAD \t\t\t\n      PUSH [tag] 234\t\t\t\n      DUP5 \t\t\t\n      DUP3 \t\t\t\n      PUSH 20\t\t\t\n      DUP7 \t\t\t\n      ADD \t\t\t\n      PUSH [tag] 161\t\t\t\n      JUMP \t\t\t\n    tag 234\t\t\t\n      JUMPDEST \t\t\t\n      SWAP2 \t\t\t\n      POP \t\t\t\n      POP \t\t\t\n      SWAP3 \t\t\t\n      SWAP2 \t\t\t\n      POP \t\t\t\n      POP \t\t\t\n      JUMP \t\t\t\n    tag 14\t\t\t\n      JUMPDEST \t\t\t\n      PUSH 0\t\t\t\n      PUSH 0\t\t\t\n      PUSH 40\t\t\t\n      DUP4 \t\t\t\n      DUP6 \t\t\t\n      SUB \t\t\t\n      SLT \t\t\t\n      ISZERO \t\t\t\n      PUSH [tag] 236\t\t\t\n      JUMPI \t\t\t\n      PUSH [tag] 237\t\t\t\n      PUSH [tag] 149\t\t\t\n      JUMP \t\t\t\n    tag 237\t\t\t\n      JUMPDEST \t\t\t\n    tag 236\t\t\t\n      JUMPDEST \t\t\t\n      PUSH 0\t\t\t\n      PUSH [tag] 238\t\t\t\n      DUP6 \t\t\t\n      DUP3 \t\t\t\n      DUP7 \t\t\t\n      ADD \t\t\t\n      PUSH [tag] 153\t\t\t\n      JUMP \t\t\t\n    tag 238\t\t\t\n      JUMPDEST \t\t\t\n      SWAP3 \t\t\t\n      POP \t\t\t\n      POP \t\t\t\n      PUSH 20\t\t\t\n      DUP4 \t\t\t\n      ADD \t\t\t\n      CALLDATALOAD \t\t\t\n      PUSH FFFFFFFFFFFFFFFF\t\t\t\n      DUP2 \t\t\t\n      GT \t\t\t\n      ISZERO \t\t\t\n      PUSH [tag] 239\t\t\t\n      JUMPI \t\t\t\n      PUSH [tag] 240\t\t\t\n      PUSH [tag] 150\t\t\t\n      JUMP \t\t\t\n    tag 240\t\t\t\n      JUMPDEST \t\t\t\n    tag 239\t\t\t\n      JUMPDEST \t\t\t\n      PUSH [tag] 241\t\t\t\n      DUP6 \t\t\t\n      DUP3 \t\t\t\n      DUP7 \t\t\t\n      ADD \t\t\t\n      PUSH [tag] 162\t\t\t\n      JUMP \t\t\t\n    tag 241\t\t\t\n      JUMPDEST \t\t\t\n      SWAP2 \t\t\t\n      POP \t\t\t\n      POP \t\t\t\n      SWAP3 \t\t\t\n      POP \t\t\t\n      SWAP3 \t\t\t\n      SWAP1 \t\t\t\n      POP \t\t\t\n      JUMP \t\t\t\n    tag 163\t\t\t\n      JUMPDEST \t\t\t\n      PUSH 0\t\t\t\n      DUP2 \t\t\t\n      MLOAD \t\t\t\n      SWAP1 \t\t\t\n      POP \t\t\t\n      SWAP2 \t\t\t\n      SWAP1 \t\t\t\n      POP \t\t\t\n      JUMP \t\t\t\n    tag 164\t\t\t\n      JUMPDEST \t\t\t\n      PUSH 0\t\t\t\n      DUP3 \t\t\t\n      DUP3 \t\t\t\n      MSTORE \t\t\t\n      PUSH 20\t\t\t\n      DUP3 \t\t\t\n      ADD \t\t\t\n      SWAP1 \t\t\t\n      POP \t\t\t\n      SWAP3 \t\t\t\n      SWAP2 \t\t\t\n      POP \t\t\t\n      POP \t\t\t\n      JUMP \t\t\t\n    tag 165\t\t\t\n      JUMPDEST \t\t\t\n      PUSH 0\t\t\t\n      DUP2 \t\t\t\n      SWAP1 \t\t\t\n      POP \t\t\t\n      PUSH 20\t\t\t\n      DUP3 \t\t\t\n      ADD \t\t\t\n      SWAP1 \t\t\t\n      POP \t\t\t\n      SWAP2 \t\t\t\n      SWAP1 \t\t\t\n      POP \t\t\t\n      JUMP \t\t\t\n    tag 166\t\t\t\n      JUMPDEST \t\t\t\n      PUSH 0\t\t\t\n      PUSH FFFFFFFFFFFFFFFFFFFFFFFFFFFFFFFFFFFFFFFF\t\t\t\n      DUP3 \t\t\t\n      AND \t\t\t\n      SWAP1 \t\t\t\n      POP \t\t\t\n      SWAP2 \t\t\t\n      SWAP1 \t\t\t\n      POP \t\t\t\n      JUMP \t\t\t\n    tag 167\t\t\t\n      JUMPDEST \t\t\t\n      PUSH 0\t\t\t\n      PUSH [tag] 247\t\t\t\n      DUP3 \t\t\t\n      PUSH [tag] 166\t\t\t\n      JUMP \t\t\t\n    tag 247\t\t\t\n      JUMPDEST \t\t\t\n      SWAP1 \t\t\t\n      POP \t\t\t\n      SWAP2 \t\t\t\n      SWAP1 \t\t\t\n      POP \t\t\t\n      JUMP \t\t\t\n    tag 168\t\t\t\n      JUMPDEST \t\t\t\n      PUSH [tag] 249\t\t\t\n      DUP2 \t\t\t\n      PUSH [tag] 167\t\t\t\n      JUMP \t\t\t\n    tag 249\t\t\t\n      JUMPDEST \t\t\t\n      DUP3 \t\t\t\n      MSTORE \t\t\t\n      POP \t\t\t\n      POP \t\t\t\n      JUMP \t\t\t\n    tag 169\t\t\t\n      JUMPDEST \t\t\t\n      PUSH 0\t\t\t\n      PUSH [tag] 251\t\t\t\n      DUP4 \t\t\t\n      DUP4 \t\t\t\n      PUSH [tag] 168\t\t\t\n      JUMP \t\t\t\n    tag 251\t\t\t\n      JUMPDEST \t\t\t\n      PUSH 20\t\t\t\n      DUP4 \t\t\t\n      ADD \t\t\t\n      SWAP1 \t\t\t\n      POP \t\t\t\n      SWAP3 \t\t\t\n      SWAP2 \t\t\t\n      POP \t\t\t\n      POP \t\t\t\n      JUMP \t\t\t\n    tag 170\t\t\t\n      JUMPDEST \t\t\t\n      PUSH 0\t\t\t\n      PUSH 20\t\t\t\n      DUP3 \t\t\t\n      ADD \t\t\t\n      SWAP1 \t\t\t\n      POP \t\t\t\n      SWAP2 \t\t\t\n      SWAP1 \t\t\t\n      POP \t\t\t\n      JUMP \t\t\t\n    tag 171\t\t\t\n      JUMPDEST \t\t\t\n      PUSH 0\t\t\t\n      PUSH [tag] 254\t\t\t\n      DUP3 \t\t\t\n      PUSH [tag] 163\t\t\t\n      JUMP \t\t\t\n    tag 254\t\t\t\n      JUMPDEST \t\t\t\n      PUSH [tag] 255\t\t\t\n      DUP2 \t\t\t\n      DUP6 \t\t\t\n      PUSH [tag] 164\t\t\t\n      JUMP \t\t\t\n    tag 255\t\t\t\n      JUMPDEST \t\t\t\n      SWAP4 \t\t\t\n      POP \t\t\t\n      PUSH [tag] 256\t\t\t\n      DUP4 \t\t\t\n      PUSH [tag] 165\t\t\t\n      JUMP \t\t\t\n    tag 256\t\t\t\n      JUMPDEST \t\t\t\n      DUP1 \t\t\t\n      PUSH 0\t\t\t\n    tag 257\t\t\t\n      JUMPDEST \t\t\t\n      DUP4 \t\t\t\n      DUP2 \t\t\t\n      LT \t\t\t\n      ISZERO \t\t\t\n      PUSH [tag] 259\t\t\t\n      JUMPI \t\t\t\n      DUP2 \t\t\t\n      MLOAD \t\t\t\n      PUSH [tag] 260\t\t\t\n      DUP9 \t\t\t\n      DUP3 \t\t\t\n      PUSH [tag] 169\t\t\t\n      JUMP \t\t\t\n    tag 260\t\t\t\n      JUMPDEST \t\t\t\n      SWAP8 \t\t\t\n      POP \t\t\t\n      PUSH [tag] 261\t\t\t\n      DUP4 \t\t\t\n      PUSH [tag] 170\t\t\t\n      JUMP \t\t\t\n    tag 261\t\t\t\n      JUMPDEST \t\t\t\n      SWAP3 \t\t\t\n      POP \t\t\t\n      POP \t\t\t\n      PUSH 1\t\t\t\n      DUP2 \t\t\t\n      ADD \t\t\t\n      SWAP1 \t\t\t\n      POP \t\t\t\n      PUSH [tag] 257\t\t\t\n      JUMP \t\t\t\n    tag 259\t\t\t\n      JUMPDEST \t\t\t\n      POP \t\t\t\n      DUP6 \t\t\t\n      SWAP4 \t\t\t\n      POP \t\t\t\n      POP \t\t\t\n      POP \t\t\t\n      POP \t\t\t\n      SWAP3 \t\t\t\n      SWAP2 \t\t\t\n      POP \t\t\t\n      POP \t\t\t\n      JUMP \t\t\t\n    tag 172\t\t\t\n      JUMPDEST \t\t\t\n      PUSH 0\t\t\t\n      DUP2 \t\t\t\n      MLOAD \t\t\t\n      SWAP1 \t\t\t\n      POP \t\t\t\n      SWAP2 \t\t\t\n      SWAP1 \t\t\t\n      POP \t\t\t\n      JUMP \t\t\t\n    tag 173\t\t\t\n      JUMPDEST \t\t\t\n      PUSH 0\t\t\t\n      DUP3 \t\t\t\n      DUP3 \t\t\t\n      MSTORE \t\t\t\n      PUSH 20\t\t\t\n      DUP3 \t\t\t\n      ADD \t\t\t\n      SWAP1 \t\t\t\n      POP \t\t\t\n      SWAP3 \t\t\t\n      SWAP2 \t\t\t\n      POP \t\t\t\n      POP \t\t\t\n      JUMP \t\t\t\n    tag 174\t\t\t\n      JUMPDEST \t\t\t\n      PUSH 0\t\t\t\n      DUP2 \t\t\t\n      SWAP1 \t\t\t\n      POP \t\t\t\n      PUSH 20\t\t\t\n      DUP3 \t\t\t\n      ADD \t\t\t\n      SWAP1 \t\t\t\n      POP \t\t\t\n      SWAP2 \t\t\t\n      SWAP1 \t\t\t\n      POP \t\t\t\n      JUMP \t\t\t\n    tag 175\t\t\t\n      JUMPDEST \t\t\t\n      PUSH 0\t\t\t\n      DUP2 \t\t\t\n      MLOAD \t\t\t\n      SWAP1 \t\t\t\n      POP \t\t\t\n      SWAP2 \t\t\t\n      SWAP1 \t\t\t\n      POP \t\t\t\n      JUMP \t\t\t\n    tag 176\t\t\t\n      JUMPDEST \t\t\t\n      PUSH 0\t\t\t\n      DUP3 \t\t\t\n      DUP3 \t\t\t\n      MSTORE \t\t\t\n      PUSH 20\t\t\t\n      DUP3 \t\t\t\n      ADD \t\t\t\n      SWAP1 \t\t\t\n      POP \t\t\t\n      SWAP3 \t\t\t\n      SWAP2 \t\t\t\n      POP \t\t\t\n      POP \t\t\t\n      JUMP \t\t\t\n    tag 177\t\t\t\n      JUMPDEST \t\t\t\n      DUP3 \t\t\t\n      DUP2 \t\t\t\n      DUP4 \t\t\t\n      MCOPY \t\t\t\n      PUSH 0\t\t\t\n      DUP4 \t\t\t\n      DUP4 \t\t\t\n      ADD \t\t\t\n      MSTORE \t\t\t\n      POP \t\t\t\n      POP \t\t\t\n      POP \t\t\t\n      JUMP \t\t\t\n    tag 178\t\t\t\n      JUMPDEST \t\t\t\n      PUSH 0\t\t\t\n      PUSH [tag] 269\t\t\t\n      DUP3 \t\t\t\n      PUSH [tag] 175\t\t\t\n      JUMP \t\t\t\n    tag 269\t\t\t\n      JUMPDEST \t\t\t\n      PUSH [tag] 270\t\t\t\n      DUP2 \t\t\t\n      DUP6 \t\t\t\n      PUSH [tag] 176\t\t\t\n      JUMP \t\t\t\n    tag 270\t\t\t\n      JUMPDEST \t\t\t\n      SWAP4 \t\t\t\n      POP \t\t\t\n      PUSH [tag] 271\t\t\t\n      DUP2 \t\t\t\n      DUP6 \t\t\t\n      PUSH 20\t\t\t\n      DUP7 \t\t\t\n      ADD \t\t\t\n      PUSH [tag] 177\t\t\t\n      JUMP \t\t\t\n    tag 271\t\t\t\n      JUMPDEST \t\t\t\n      PUSH [tag] 272\t\t\t\n      DUP2 \t\t\t\n      PUSH [tag] 156\t\t\t\n      JUMP \t\t\t\n    tag 272\t\t\t\n      JUMPDEST \t\t\t\n      DUP5 \t\t\t\n      ADD \t\t\t\n      SWAP2 \t\t\t\n      POP \t\t\t\n      POP \t\t\t\n      SWAP3 \t\t\t\n      SWAP2 \t\t\t\n      POP \t\t\t\n      POP \t\t\t\n      JUMP \t\t\t\n    tag 179\t\t\t\n      JUMPDEST \t\t\t\n      PUSH 0\t\t\t\n      PUSH [tag] 274\t\t\t\n      DUP4 \t\t\t\n      DUP4 \t\t\t\n      PUSH [tag] 178\t\t\t\n      JUMP \t\t\t\n    tag 274\t\t\t\n      JUMPDEST \t\t\t\n      SWAP1 \t\t\t\n      POP \t\t\t\n      SWAP3 \t\t\t\n      SWAP2 \t\t\t\n      POP \t\t\t\n      POP \t\t\t\n      JUMP \t\t\t\n    tag 180\t\t\t\n      JUMPDEST \t\t\t\n      PUSH 0\t\t\t\n      PUSH 20\t\t\t\n      DUP3 \t\t\t\n      ADD \t\t\t\n      SWAP1 \t\t\t\n      POP \t\t\t\n      SWAP2 \t\t\t\n      SWAP1 \t\t\t\n      POP \t\t\t\n      JUMP \t\t\t\n    tag 181\t\t\t\n      JUMPDEST \t\t\t\n      PUSH 0\t\t\t\n      PUSH [tag] 277\t\t\t\n      DUP3 \t\t\t\n      PUSH [tag] 172\t\t\t\n      JUMP \t\t\t\n    tag 277\t\t\t\n      JUMPDEST \t\t\t\n      PUSH [tag] 278\t\t\t\n      DUP2 \t\t\t\n      DUP6 \t\t\t\n      PUSH [tag] 173\t\t\t\n      JUMP \t\t\t\n    tag 278\t\t\t\n      JUMPDEST \t\t\t\n      SWAP4 \t\t\t\n      POP \t\t\t\n      DUP4 \t\t\t\n      PUSH 20\t\t\t\n      DUP3 \t\t\t\n      MUL \t\t\t\n      DUP6 \t\t\t\n      ADD \t\t\t\n      PUSH [tag] 279\t\t\t\n      DUP6 \t\t\t\n      PUSH [tag] 174\t\t\t\n      JUMP \t\t\t\n    tag 279\t\t\t\n      JUMPDEST \t\t\t\n      DUP1 \t\t\t\n      PUSH 0\t\t\t\n    tag 280\t\t\t\n      JUMPDEST \t\t\t\n      DUP6 \t\t\t\n      DUP2 \t\t\t\n      LT \t\t\t\n      ISZERO \t\t\t\n      PUSH [tag] 282\t\t\t\n      JUMPI \t\t\t\n      DUP5 \t\t\t\n      DUP5 \t\t\t\n      SUB \t\t\t\n      DUP10 \t\t\t\n      MSTORE \t\t\t\n      DUP2 \t\t\t\n      MLOAD \t\t\t\n      PUSH [tag] 283\t\t\t\n      DUP6 \t\t\t\n      DUP3 \t\t\t\n      PUSH [tag] 179\t\t\t\n      JUMP \t\t\t\n    tag 283\t\t\t\n      JUMPDEST \t\t\t\n      SWAP5 \t\t\t\n      POP \t\t\t\n      PUSH [tag] 284\t\t\t\n      DUP4 \t\t\t\n      PUSH [tag] 180\t\t\t\n      JUMP \t\t\t\n    tag 284\t\t\t\n      JUMPDEST \t\t\t\n      SWAP3 \t\t\t\n      POP \t\t\t\n      PUSH 20\t\t\t\n      DUP11 \t\t\t\n      ADD \t\t\t\n      SWAP10 \t\t\t\n      POP \t\t\t\n      POP \t\t\t\n      PUSH 1\t\t\t\n      DUP2 \t\t\t\n      ADD \t\t\t\n      SWAP1 \t\t\t\n      POP \t\t\t\n      PUSH [tag] 280\t\t\t\n      JUMP \t\t\t\n    tag 282\t\t\t\n      JUMPDEST \t\t\t\n      POP \t\t\t\n      DUP3 \t\t\t\n      SWAP8 \t\t\t\n      POP \t\t\t\n      DUP8 \t\t\t\n      SWAP6 \t\t\t\n      POP \t\t\t\n      POP \t\t\t\n      POP \t\t\t\n      POP \t\t\t\n      POP \t\t\t\n      POP \t\t\t\n      SWAP3 \t\t\t\n      SWAP2 \t\t\t\n      POP \t\t\t\n      POP \t\t\t\n      JUMP \t\t\t\n    tag 20\t\t\t\n      JUMPDEST \t\t\t\n      PUSH 0\t\t\t\n      PUSH 40\t\t\t\n      DUP3 \t\t\t\n      ADD \t\t\t\n      SWAP1 \t\t\t\n      POP \t\t\t\n      DUP2 \t\t\t\n      DUP2 \t\t\t\n      SUB \t\t\t\n      PUSH 0\t\t\t\n      DUP4 \t\t\t\n      ADD \t\t\t\n      MSTORE \t\t\t\n      PUSH [tag] 286\t\t\t\n      DUP2 \t\t\t\n      DUP6 \t\t\t\n      PUSH [tag] 171\t\t\t\n      JUMP \t\t\t\n    tag 286\t\t\t\n      JUMPDEST \t\t\t\n      SWAP1 \t\t\t\n      POP \t\t\t\n      DUP2 \t\t\t\n      DUP2 \t\t\t\n      SUB \t\t\t\n      PUSH 20\t\t\t\n      DUP4 \t\t\t\n      ADD \t\t\t\n      MSTORE \t\t\t\n      PUSH [tag] 287\t\t\t\n      DUP2 \t\t\t\n      DUP5 \t\t\t\n      PUSH [tag] 181\t\t\t\n      JUMP \t\t\t\n    tag 287\t\t\t\n      JUMPDEST \t\t\t\n      SWAP1 \t\t\t\n      POP \t\t\t\n      SWAP4 \t\t\t\n      SWAP3 \t\t\t\n      POP \t\t\t\n      POP \t\t\t\n      POP \t\t\t\n      JUMP \t\t\t\n    tag 182\t\t\t\n      JUMPDEST \t\t\t\n      PUSH [tag] 289\t\t\t\n      DUP2 \t\t\t\n      PUSH [tag] 167\t\t\t\n      JUMP \t\t\t\n    tag 289\t\t\t\n      JUMPDEST \t\t\t\n      DUP2 \t\t\t\n      EQ \t\t\t\n      PUSH [tag] 290\t\t\t\n      JUMPI \t\t\t\n      PUSH 0\t\t\t\n      PUSH 0\t\t\t\n      REVERT \t\t\t\n    tag 290\t\t\t\n      JUMPDEST \t\t\t\n      POP \t\t\t\n      JUMP \t\t\t\n    tag 183\t\t\t\n      JUMPDEST \t\t\t\n      PUSH 0\t\t\t\n      DUP2 \t\t\t\n      CALLDATALOAD \t\t\t\n      SWAP1 \t\t\t\n      POP \t\t\t\n      PUSH [tag] 292\t\t\t\n      DUP2 \t\t\t\n      PUSH [tag] 182\t\t\t\n      JUMP \t\t\t\n    tag 292\t\t\t\n      JUMPDEST \t\t\t\n      SWAP3 \t\t\t\n      SWAP2 \t\t\t\n      POP \t\t\t\n      POP \t\t\t\n      JUMP \t\t\t\n    tag 24\t\t\t\n      JUMPDEST \t\t\t\n      PUSH 0\t\t\t\n      PUSH 20\t\t\t\n      DUP3 \t\t\t\n      DUP5 \t\t\t\n      SUB \t\t\t\n      SLT \t\t\t\n      ISZERO \t\t\t\n      PUSH [tag] 294\t\t\t\n      JUMPI \t\t\t\n      PUSH [tag] 295\t\t\t\n      PUSH [tag] 149\t\t\t\n      JUMP \t\t\t\n    tag 295\t\t\t\n      JUMPDEST \t\t\t\n    tag 294\t\t\t\n      JUMPDEST \t\t\t\n      PUSH 0\t\t\t\n      PUSH [tag] 296\t\t\t\n      DUP5 \t\t\t\n      DUP3 \t\t\t\n      DUP6 \t\t\t\n      ADD \t\t\t\n      PUSH [tag] 183\t\t\t\n      JUMP \t\t\t\n    tag 296\t\t\t\n      JUMPDEST \t\t\t\n      SWAP2 \t\t\t\n      POP \t\t\t\n      POP \t\t\t\n      SWAP3 \t\t\t\n      SWAP2 \t\t\t\n      POP \t\t\t\n      POP \t\t\t\n      JUMP \t\t\t\n    tag 184\t\t\t\n      JUMPDEST \t\t\t\n      PUSH [tag] 298\t\t\t\n      DUP2 \t\t\t\n      PUSH [tag] 151\t\t\t\n      JUMP \t\t\t\n    tag 298\t\t\t\n      JUMPDEST \t\t\t\n      DUP3 \t\t\t\n      MSTORE \t\t\t\n      POP \t\t\t\n      POP \t\t\t\n      JUMP \t\t\t\n    tag 27\t\t\t\n      JUMPDEST \t\t\t\n      PUSH 0\t\t\t\n      PUSH 20\t\t\t\n      DUP3 \t\t\t\n      ADD \t\t\t\n      SWAP1 \t\t\t\n      POP \t\t\t\n      PUSH [tag] 300\t\t\t\n      PUSH 0\t\t\t\n      DUP4 \t\t\t\n      ADD \t\t\t\n      DUP5 \t\t\t\n      PUSH [tag] 184\t\t\t\n      JUMP \t\t\t\n    tag 300\t\t\t\n      JUMPDEST \t\t\t\n      SWAP3 \t\t\t\n      SWAP2 \t\t\t\n      POP \t\t\t\n      POP \t\t\t\n      JUMP \t\t\t\n    tag 185\t\t\t\n      JUMPDEST \t\t\t\n      PUSH 0\t\t\t\n      DUP3 \t\t\t\n      DUP3 \t\t\t\n      MSTORE \t\t\t\n      PUSH 20\t\t\t\n      DUP3 \t\t\t\n      ADD \t\t\t\n      SWAP1 \t\t\t\n      POP \t\t\t\n      SWAP3 \t\t\t\n      SWAP2 \t\t\t\n      POP \t\t\t\n      POP \t\t\t\n      JUMP \t\t\t\n    tag 186\t\t\t\n      JUMPDEST \t\t\t\n      PUSH 0\t\t\t\n      PUSH [tag] 303\t\t\t\n      DUP3 \t\t\t\n      PUSH [tag] 175\t\t\t\n      JUMP \t\t\t\n    tag 303\t\t\t\n      JUMPDEST \t\t\t\n      PUSH [tag] 304\t\t\t\n      DUP2 \t\t\t\n      DUP6 \t\t\t\n      PUSH [tag] 185\t\t\t\n      JUMP \t\t\t\n    tag 304\t\t\t\n      JUMPDEST \t\t\t\n      SWAP4 \t\t\t\n      POP \t\t\t\n      PUSH [tag] 305\t\t\t\n      DUP2 \t\t\t\n      DUP6 \t\t\t\n      PUSH 20\t\t\t\n      DUP7 \t\t\t\n      ADD \t\t\t\n      PUSH [tag] 177\t\t\t\n      JUMP \t\t\t\n    tag 305\t\t\t\n      JUMPDEST \t\t\t\n      PUSH [tag] 306\t\t\t\n      DUP2 \t\t\t\n      PUSH [tag] 156\t\t\t\n      JUMP \t\t\t\n    tag 306\t\t\t\n      JUMPDEST \t\t\t\n      DUP5 \t\t\t\n      ADD \t\t\t\n      SWAP2 \t\t\t\n      POP \t\t\t\n      POP \t\t\t\n      SWAP3 \t\t\t\n      SWAP2 \t\t\t\n      POP \t\t\t\n      POP \t\t\t\n      JUMP \t\t\t\n    tag 42\t\t\t\n      JUMPDEST \t\t\t\n      PUSH 0\t\t\t\n      PUSH 20\t\t\t\n      DUP3 \t\t\t\n      ADD \t\t\t\n      SWAP1 \t\t\t\n      POP \t\t\t\n      DUP2 \t\t\t\n      DUP2 \t\t\t\n      SUB \t\t\t\n      PUSH 0\t\t\t\n      DUP4 \t\t\t\n      ADD \t\t\t\n      MSTORE \t\t\t\n      PUSH [tag] 308\t\t\t\n      DUP2 \t\t\t\n      DUP5 \t\t\t\n      PUSH [tag] 186\t\t\t\n      JUMP \t\t\t\n    tag 308\t\t\t\n      JUMPDEST \t\t\t\n      SWAP1 \t\t\t\n      POP \t\t\t\n      SWAP3 \t\t\t\n      SWAP2 \t\t\t\n      POP \t\t\t\n      POP \t\t\t\n      JUMP \t\t\t\n    tag 187\t\t\t\n      JUMPDEST \t\t\t\n      PUSH [tag] 310\t\t\t\n      DUP2 \t\t\t\n      PUSH [tag] 167\t\t\t\n      JUMP \t\t\t\n    tag 310\t\t\t\n      JUMPDEST \t\t\t\n      DUP3 \t\t\t\n      MSTORE \t\t\t\n      POP \t\t\t\n      POP \t\t\t\n      JUMP \t\t\t\n    tag 48\t\t\t\n      JUMPDEST \t\t\t\n      PUSH 0\t\t\t\n      PUSH 20\t\t\t\n      DUP3 \t\t\t\n      ADD \t\t\t\n      SWAP1 \t\t\t\n      POP \t\t\t\n      PUSH [tag] 312\t\t\t\n      PUSH 0\t\t\t\n      DUP4 \t\t\t\n      ADD \t\t\t\n      DUP5 \t\t\t\n      PUSH [tag] 187\t\t\t\n      JUMP \t\t\t\n    tag 312\t\t\t\n      JUMPDEST \t\t\t\n      SWAP3 \t\t\t\n      SWAP2 \t\t\t\n      POP \t\t\t\n      POP \t\t\t\n      JUMP \t\t\t\n    tag 188\t\t\t\n      JUMPDEST \t\t\t\n      PUSH 4F6E6C7920746865206F776E65722063616E206164642061206C6F7474657279\t\t\t\n      PUSH 0\t\t\t\n      DUP3 \t\t\t\n      ADD \t\t\t\n      MSTORE \t\t\t\n      POP \t\t\t\n      JUMP \t\t\t\n    tag 189\t\t\t\n      JUMPDEST \t\t\t\n      PUSH 0\t\t\t\n      PUSH [tag] 315\t\t\t\n      PUSH 20\t\t\t\n      DUP4 \t\t\t\n      PUSH [tag] 185\t\t\t\n      JUMP \t\t\t\n    tag 315\t\t\t\n      JUMPDEST \t\t\t\n      SWAP2 \t\t\t\n      POP \t\t\t\n      PUSH [tag] 316\t\t\t\n      DUP3 \t\t\t\n      PUSH [tag] 188\t\t\t\n      JUMP \t\t\t\n    tag 316\t\t\t\n      JUMPDEST \t\t\t\n      PUSH 20\t\t\t\n      DUP3 \t\t\t\n      ADD \t\t\t\n      SWAP1 \t\t\t\n      POP \t\t\t\n      SWAP2 \t\t\t\n      SWAP1 \t\t\t\n      POP \t\t\t\n      JUMP \t\t\t\n    tag 55\t\t\t\n      JUMPDEST \t\t\t\n      PUSH 0\t\t\t\n      PUSH 20\t\t\t\n      DUP3 \t\t\t\n      ADD \t\t\t\n      SWAP1 \t\t\t\n      POP \t\t\t\n      DUP2 \t\t\t\n      DUP2 \t\t\t\n      SUB \t\t\t\n      PUSH 0\t\t\t\n      DUP4 \t\t\t\n      ADD \t\t\t\n      MSTORE \t\t\t\n      PUSH [tag] 318\t\t\t\n      DUP2 \t\t\t\n      PUSH [tag] 189\t\t\t\n      JUMP \t\t\t\n    tag 318\t\t\t\n      JUMPDEST \t\t\t\n      SWAP1 \t\t\t\n      POP \t\t\t\n      SWAP2 \t\t\t\n      SWAP1 \t\t\t\n      POP \t\t\t\n      JUMP \t\t\t\n    tag 59\t\t\t\n      JUMPDEST \t\t\t\n      PUSH 0\t\t\t\n      PUSH 40\t\t\t\n      DUP3 \t\t\t\n      ADD \t\t\t\n      SWAP1 \t\t\t\n      POP \t\t\t\n      PUSH [tag] 320\t\t\t\n      PUSH 0\t\t\t\n      DUP4 \t\t\t\n      ADD \t\t\t\n      DUP6 \t\t\t\n      PUSH [tag] 184\t\t\t\n      JUMP \t\t\t\n    tag 320\t\t\t\n      JUMPDEST \t\t\t\n      DUP2 \t\t\t\n      DUP2 \t\t\t\n      SUB \t\t\t\n      PUSH 20\t\t\t\n      DUP4 \t\t\t\n      ADD \t\t\t\n      MSTORE \t\t\t\n      PUSH [tag] 321\t\t\t\n      DUP2 \t\t\t\n      DUP5 \t\t\t\n      PUSH [tag] 186\t\t\t\n      JUMP \t\t\t\n    tag 321\t\t\t\n      JUMPDEST \t\t\t\n      SWAP1 \t\t\t\n      POP \t\t\t\n      SWAP4 \t\t\t\n      SWAP3 \t\t\t\n      POP \t\t\t\n      POP \t\t\t\n      POP \t\t\t\n      JUMP \t\t\t\n    tag 74\t\t\t\n      JUMPDEST \t\t\t\n      PUSH 4E487B7100000000000000000000000000000000000000000000000000000000\t\t\t\n      PUSH 0\t\t\t\n      MSTORE \t\t\t\n      PUSH 32\t\t\t\n      PUSH 4\t\t\t\n      MSTORE \t\t\t\n      PUSH 24\t\t\t\n      PUSH 0\t\t\t\n      REVERT \t\t\t\n    tag 190\t\t\t\n      JUMPDEST \t\t\t\n      PUSH 4C6F746572696520646F65736E27742065786973740000000000000000000000\t\t\t\n      PUSH 0\t\t\t\n      DUP3 \t\t\t\n      ADD \t\t\t\n      MSTORE \t\t\t\n      POP \t\t\t\n      JUMP \t\t\t\n    tag 191\t\t\t\n      JUMPDEST \t\t\t\n      PUSH 0\t\t\t\n      PUSH [tag] 325\t\t\t\n      PUSH 15\t\t\t\n      DUP4 \t\t\t\n      PUSH [tag] 185\t\t\t\n      JUMP \t\t\t\n    tag 325\t\t\t\n      JUMPDEST \t\t\t\n      SWAP2 \t\t\t\n      POP \t\t\t\n      PUSH [tag] 326\t\t\t\n      DUP3 \t\t\t\n      PUSH [tag] 190\t\t\t\n      JUMP \t\t\t\n    tag 326\t\t\t\n      JUMPDEST \t\t\t\n      PUSH 20\t\t\t\n      DUP3 \t\t\t\n      ADD \t\t\t\n      SWAP1 \t\t\t\n      POP \t\t\t\n      SWAP2 \t\t\t\n      SWAP1 \t\t\t\n      POP \t\t\t\n      JUMP \t\t\t\n    tag 85\t\t\t\n      JUMPDEST \t\t\t\n      PUSH 0\t\t\t\n      PUSH 20\t\t\t\n      DUP3 \t\t\t\n      ADD \t\t\t\n      SWAP1 \t\t\t\n      POP \t\t\t\n      DUP2 \t\t\t\n      DUP2 \t\t\t\n      SUB \t\t\t\n      PUSH 0\t\t\t\n      DUP4 \t\t\t\n      ADD \t\t\t\n      MSTORE \t\t\t\n      PUSH [tag] 328\t\t\t\n      DUP2 \t\t\t\n      PUSH [tag] 191\t\t\t\n      JUMP \t\t\t\n    tag 328\t\t\t\n      JUMPDEST \t\t\t\n      SWAP1 \t\t\t\n      POP \t\t\t\n      SWAP2 \t\t\t\n      SWAP1 \t\t\t\n      POP \t\t\t\n      JUMP \t\t\t\n    tag 192\t\t\t\n      JUMPDEST \t\t\t\n      PUSH 0\t\t\t\n      DUP2 \t\t\t\n      MLOAD \t\t\t\n      SWAP1 \t\t\t\n      POP \t\t\t\n      PUSH [tag] 330\t\t\t\n      DUP2 \t\t\t\n      PUSH [tag] 152\t\t\t\n      JUMP \t\t\t\n    tag 330\t\t\t\n      JUMPDEST \t\t\t\n      SWAP3 \t\t\t\n      SWAP2 \t\t\t\n      POP \t\t\t\n      POP \t\t\t\n      JUMP \t\t\t\n    tag 89\t\t\t\n      JUMPDEST \t\t\t\n      PUSH 0\t\t\t\n      PUSH 20\t\t\t\n      DUP3 \t\t\t\n      DUP5 \t\t\t\n      SUB \t\t\t\n      SLT \t\t\t\n      ISZERO \t\t\t\n      PUSH [tag] 332\t\t\t\n      JUMPI \t\t\t\n      PUSH [tag] 333\t\t\t\n      PUSH [tag] 149\t\t\t\n      JUMP \t\t\t\n    tag 333\t\t\t\n      JUMPDEST \t\t\t\n    tag 332\t\t\t\n      JUMPDEST \t\t\t\n      PUSH 0\t\t\t\n      PUSH [tag] 334\t\t\t\n      DUP5 \t\t\t\n      DUP3 \t\t\t\n      DUP6 \t\t\t\n      ADD \t\t\t\n      PUSH [tag] 192\t\t\t\n      JUMP \t\t\t\n    tag 334\t\t\t\n      JUMPDEST \t\t\t\n      SWAP2 \t\t\t\n      POP \t\t\t\n      POP \t\t\t\n      SWAP3 \t\t\t\n      SWAP2 \t\t\t\n      POP \t\t\t\n      POP \t\t\t\n      JUMP \t\t\t\n    tag 193\t\t\t\n      JUMPDEST \t\t\t\n      PUSH 4F6E6C7920746865206F776E65722063616E2072656D6F76652061206C6F7474\t\t\t\n      PUSH 0\t\t\t\n      DUP3 \t\t\t\n      ADD \t\t\t\n      MSTORE \t\t\t\n      PUSH 6572790000000000000000000000000000000000000000000000000000000000\t\t\t\n      PUSH 20\t\t\t\n      DUP3 \t\t\t\n      ADD \t\t\t\n      MSTORE \t\t\t\n      POP \t\t\t\n      JUMP \t\t\t\n    tag 194\t\t\t\n      JUMPDEST \t\t\t\n      PUSH 0\t\t\t\n      PUSH [tag] 337\t\t\t\n      PUSH 23\t\t\t\n      DUP4 \t\t\t\n      PUSH [tag] 185\t\t\t\n      JUMP \t\t\t\n    tag 337\t\t\t\n      JUMPDEST \t\t\t\n      SWAP2 \t\t\t\n      POP \t\t\t\n      PUSH [tag] 338\t\t\t\n      DUP3 \t\t\t\n      PUSH [tag] 193\t\t\t\n      JUMP \t\t\t\n    tag 338\t\t\t\n      JUMPDEST \t\t\t\n      PUSH 40\t\t\t\n      DUP3 \t\t\t\n      ADD \t\t\t\n      SWAP1 \t\t\t\n      POP \t\t\t\n      SWAP2 \t\t\t\n      SWAP1 \t\t\t\n      POP \t\t\t\n      JUMP \t\t\t\n    tag 100\t\t\t\n      JUMPDEST \t\t\t\n      PUSH 0\t\t\t\n      PUSH 20\t\t\t\n      DUP3 \t\t\t\n      ADD \t\t\t\n      SWAP1 \t\t\t\n      POP \t\t\t\n      DUP2 \t\t\t\n      DUP2 \t\t\t\n      SUB \t\t\t\n      PUSH 0\t\t\t\n      DUP4 \t\t\t\n      ADD \t\t\t\n      MSTORE \t\t\t\n      PUSH [tag] 340\t\t\t\n      DUP2 \t\t\t\n      PUSH [tag] 194\t\t\t\n      JUMP \t\t\t\n    tag 340\t\t\t\n      JUMPDEST \t\t\t\n      SWAP1 \t\t\t\n      POP \t\t\t\n      SWAP2 \t\t\t\n      SWAP1 \t\t\t\n      POP \t\t\t\n      JUMP \t\t\t\n    tag 195\t\t\t\n      JUMPDEST \t\t\t\n      PUSH 4E487B7100000000000000000000000000000000000000000000000000000000\t\t\t\n      PUSH 0\t\t\t\n      MSTORE \t\t\t\n      PUSH 11\t\t\t\n      PUSH 4\t\t\t\n      MSTORE \t\t\t\n      PUSH 24\t\t\t\n      PUSH 0\t\t\t\n      REVERT \t\t\t\n    tag 109\t\t\t\n      JUMPDEST \t\t\t\n      PUSH 0\t\t\t\n      PUSH [tag] 343\t\t\t\n      DUP3 \t\t\t\n      PUSH [tag] 151\t\t\t\n      JUMP \t\t\t\n    tag 343\t\t\t\n      JUMPDEST \t\t\t\n      SWAP2 \t\t\t\n      POP \t\t\t\n      PUSH [tag] 344\t\t\t\n      DUP4 \t\t\t\n      PUSH [tag] 151\t\t\t\n      JUMP \t\t\t\n    tag 344\t\t\t\n      JUMPDEST \t\t\t\n      SWAP3 \t\t\t\n      POP \t\t\t\n      DUP3 \t\t\t\n      DUP3 \t\t\t\n      SUB \t\t\t\n      SWAP1 \t\t\t\n      POP \t\t\t\n      DUP2 \t\t\t\n      DUP2 \t\t\t\n      GT \t\t\t\n      ISZERO \t\t\t\n      PUSH [tag] 345\t\t\t\n      JUMPI \t\t\t\n      PUSH [tag] 346\t\t\t\n      PUSH [tag] 195\t\t\t\n      JUMP \t\t\t\n    tag 346\t\t\t\n      JUMPDEST \t\t\t\n    tag 345\t\t\t\n      JUMPDEST \t\t\t\n      SWAP3 \t\t\t\n      SWAP2 \t\t\t\n      POP \t\t\t\n      POP \t\t\t\n      JUMP \t\t\t\n    tag 118\t\t\t\n      JUMPDEST \t\t\t\n      PUSH 4E487B7100000000000000000000000000000000000000000000000000000000\t\t\t\n      PUSH 0\t\t\t\n      MSTORE \t\t\t\n      PUSH 31\t\t\t\n      PUSH 4\t\t\t\n      MSTORE \t\t\t\n      PUSH 24\t\t\t\n      PUSH 0\t\t\t\n      REVERT \t\t\t\n    tag 196\t\t\t\n      JUMPDEST \t\t\t\n      PUSH 0\t\t\t\n      PUSH [tag] 349\t\t\t\n      PUSH [tag] 350\t\t\t\n      DUP5 \t\t\t\n      PUSH [tag] 159\t\t\t\n      JUMP \t\t\t\n    tag 350\t\t\t\n      JUMPDEST \t\t\t\n      PUSH [tag] 158\t\t\t\n      JUMP \t\t\t\n    tag 349\t\t\t\n      JUMPDEST \t\t\t\n      SWAP1 \t\t\t\n      POP \t\t\t\n      DUP3 \t\t\t\n      DUP2 \t\t\t\n      MSTORE \t\t\t\n      PUSH 20\t\t\t\n      DUP2 \t\t\t\n      ADD \t\t\t\n      DUP5 \t\t\t\n      DUP5 \t\t\t\n      DUP5 \t\t\t\n      ADD \t\t\t\n      GT \t\t\t\n      ISZERO \t\t\t\n      PUSH [tag] 351\t\t\t\n      JUMPI \t\t\t\n      PUSH [tag] 352\t\t\t\n      PUSH [tag] 155\t\t\t\n      JUMP \t\t\t\n    tag 352\t\t\t\n      JUMPDEST \t\t\t\n    tag 351\t\t\t\n      JUMPDEST \t\t\t\n      PUSH [tag] 353\t\t\t\n      DUP5 \t\t\t\n      DUP3 \t\t\t\n      DUP6 \t\t\t\n      PUSH [tag] 177\t\t\t\n      JUMP \t\t\t\n    tag 353\t\t\t\n      JUMPDEST \t\t\t\n      POP \t\t\t\n      SWAP4 \t\t\t\n      SWAP3 \t\t\t\n      POP \t\t\t\n      POP \t\t\t\n      POP \t\t\t\n      JUMP \t\t\t\n    tag 197\t\t\t\n      JUMPDEST \t\t\t\n      PUSH 0\t\t\t\n      DUP3 \t\t\t\n      PUSH 1F\t\t\t\n      DUP4 \t\t\t\n      ADD \t\t\t\n      SLT \t\t\t\n      PUSH [tag] 355\t\t\t\n      JUMPI \t\t\t\n      PUSH [tag] 356\t\t\t\n      PUSH [tag] 154\t\t\t\n      JUMP \t\t\t\n    tag 356\t\t\t\n      JUMPDEST \t\t\t\n    tag 355\t\t\t\n      JUMPDEST \t\t\t\n      DUP2 \t\t\t\n      MLOAD \t\t\t\n      PUSH [tag] 357\t\t\t\n      DUP5 \t\t\t\n      DUP3 \t\t\t\n      PUSH 20\t\t\t\n      DUP7 \t\t\t\n      ADD \t\t\t\n      PUSH [tag] 196\t\t\t\n      JUMP \t\t\t\n    tag 357\t\t\t\n      JUMPDEST \t\t\t\n      SWAP2 \t\t\t\n      POP \t\t\t\n      POP \t\t\t\n      SWAP3 \t\t\t\n      SWAP2 \t\t\t\n      POP \t\t\t\n      POP \t\t\t\n      JUMP \t\t\t\n    tag 127\t\t\t\n      JUMPDEST \t\t\t\n      PUSH 0\t\t\t\n      PUSH 20\t\t\t\n      DUP3 \t\t\t\n      DUP5 \t\t\t\n      SUB \t\t\t\n      SLT \t\t\t\n      ISZERO \t\t\t\n      PUSH [tag] 359\t\t\t\n      JUMPI \t\t\t\n      PUSH [tag] 360\t\t\t\n      PUSH [tag] 149\t\t\t\n      JUMP \t\t\t\n    tag 360\t\t\t\n      JUMPDEST \t\t\t\n    tag 359\t\t\t\n      JUMPDEST \t\t\t\n      PUSH 0\t\t\t\n      DUP3 \t\t\t\n      ADD \t\t\t\n      MLOAD \t\t\t\n      PUSH FFFFFFFFFFFFFFFF\t\t\t\n      DUP2 \t\t\t\n      GT \t\t\t\n      ISZERO \t\t\t\n      PUSH [tag] 361\t\t\t\n      JUMPI \t\t\t\n      PUSH [tag] 362\t\t\t\n      PUSH [tag] 150\t\t\t\n      JUMP \t\t\t\n    tag 362\t\t\t\n      JUMPDEST \t\t\t\n    tag 361\t\t\t\n      JUMPDEST \t\t\t\n      PUSH [tag] 363\t\t\t\n      DUP5 \t\t\t\n      DUP3 \t\t\t\n      DUP6 \t\t\t\n      ADD \t\t\t\n      PUSH [tag] 197\t\t\t\n      JUMP \t\t\t\n    tag 363\t\t\t\n      JUMPDEST \t\t\t\n      SWAP2 \t\t\t\n      POP \t\t\t\n      POP \t\t\t\n      SWAP3 \t\t\t\n      SWAP2 \t\t\t\n      POP \t\t\t\n      POP \t\t\t\n      JUMP \t\t\t\n    tag 198\t\t\t\n      JUMPDEST \t\t\t\n      PUSH 0\t\t\t\n      DUP2 \t\t\t\n      MLOAD \t\t\t\n      SWAP1 \t\t\t\n      POP \t\t\t\n      PUSH [tag] 365\t\t\t\n      DUP2 \t\t\t\n      PUSH [tag] 182\t\t\t\n      JUMP \t\t\t\n    tag 365\t\t\t\n      JUMPDEST \t\t\t\n      SWAP3 \t\t\t\n      SWAP2 \t\t\t\n      POP \t\t\t\n      POP \t\t\t\n      JUMP \t\t\t\n    tag 132\t\t\t\n      JUMPDEST \t\t\t\n      PUSH 0\t\t\t\n      PUSH 20\t\t\t\n      DUP3 \t\t\t\n      DUP5 \t\t\t\n      SUB \t\t\t\n      SLT \t\t\t\n      ISZERO \t\t\t\n      PUSH [tag] 367\t\t\t\n      JUMPI \t\t\t\n      PUSH [tag] 368\t\t\t\n      PUSH [tag] 149\t\t\t\n      JUMP \t\t\t\n    tag 368\t\t\t\n      JUMPDEST \t\t\t\n    tag 367\t\t\t\n      JUMPDEST \t\t\t\n      PUSH 0\t\t\t\n      PUSH [tag] 369\t\t\t\n      DUP5 \t\t\t\n      DUP3 \t\t\t\n      DUP6 \t\t\t\n      ADD \t\t\t\n      PUSH [tag] 198\t\t\t\n      JUMP \t\t\t\n    tag 369\t\t\t\n      JUMPDEST \t\t\t\n      SWAP2 \t\t\t\n      POP \t\t\t\n      POP \t\t\t\n      SWAP3 \t\t\t\n      SWAP2 \t\t\t\n      POP \t\t\t\n      POP \t\t\t\n      JUMP \t\t\t\n    .data\n      0:\n        .code\n          PUSH 80\t\t\ttore & retrieve value in a var...\n          PUSH 40\t\t\ttore & retrieve value in a var...\n          MSTORE \t\t\ttore & retrieve value in a var...\n          CALLVALUE \t\t\towner;\\n\\n    constructor () {...\n          DUP1 \t\t\towner;\\n\\n    constructor () {...\n          ISZERO \t\t\towner;\\n\\n    constructor () {...\n          PUSH [tag] 1\t\t\towner;\\n\\n    constructor () {...\n          JUMPI \t\t\towner;\\n\\n    constructor () {...\n          PUSH 0\t\t\towner;\\n\\n    constructor () {...\n          PUSH 0\t\t\towner;\\n\\n    constructor () {...\n          REVERT \t\t\towner;\\n\\n    constructor () {...\n        tag 1\t\t\towner;\\n\\n    constructor () {...\n          JUMPDEST \t\t\towner;\\n\\n    constructor () {...\n          POP \t\t\towner;\\n\\n    constructor () {...\n          PUSH 40\t\t\towner;\\n\\n    constructor () {...\n          MLOAD \t\t\towner;\\n\\n    constructor () {...\n          PUSHSIZE \t\t\towner;\\n\\n    constructor () {...\n          CODESIZE \t\t\towner;\\n\\n    constructor () {...\n          SUB \t\t\towner;\\n\\n    constructor () {...\n          DUP1 \t\t\towner;\\n\\n    constructor () {...\n          PUSHSIZE \t\t\towner;\\n\\n    constructor () {...\n          DUP4 \t\t\towner;\\n\\n    constructor () {...\n          CODECOPY \t\t\towner;\\n\\n    constructor () {...\n          DUP2 \t\t\towner;\\n\\n    constructor () {...\n          DUP2 \t\t\towner;\\n\\n    constructor () {...\n          ADD \t\t\towner;\\n\\n    constructor () {...\n          PUSH 40\t\t\towner;\\n\\n    constructor () {...\n          MSTORE \t\t\towner;\\n\\n    constructor () {...\n          DUP2 \t\t\towner;\\n\\n    constructor () {...\n          ADD \t\t\towner;\\n\\n    constructor () {...\n          SWAP1 \t\t\towner;\\n\\n    constructor () {...\n          PUSH [tag] 2\t\t\towner;\\n\\n    constructor () {...\n          SWAP2 \t\t\towner;\\n\\n    constructor () {...\n          SWAP1 \t\t\towner;\\n\\n    constructor () {...\n          PUSH [tag] 3\t\t\towner;\\n\\n    constructor () {...\n          JUMP \t\t\towner;\\n\\n    constructor () {...\n        tag 2\t\t\towner;\\n\\n    constructor () {...\n          JUMPDEST \t\t\towner;\\n\\n    constructor () {...\n          ORIGIN \t\t\t}\\n\\n    fu\n          PUSH 4\t\t\ter;\\n \n          PUSH 0\t\t\ter;\\n \n          PUSH 100\t\t\ter;\\n    }\\n\\n    fu\n          EXP \t\t\ter;\\n    }\\n\\n    fu\n          DUP2 \t\t\ter;\\n    }\\n\\n    fu\n          SLOAD \t\t\ter;\\n    }\\n\\n    fu\n          DUP2 \t\t\ter;\\n    }\\n\\n    fu\n          PUSH FFFFFFFFFFFFFFFFFFFFFFFFFFFFFFFFFFFFFFFF\t\t\ter;\\n    }\\n\\n    fu\n          MUL \t\t\ter;\\n    }\\n\\n    fu\n          NOT \t\t\ter;\\n    }\\n\\n    fu\n          AND \t\t\ter;\\n    }\\n\\n    fu\n          SWAP1 \t\t\ter;\\n    }\\n\\n    fu\n          DUP4 \t\t\ter;\\n    }\\n\\n    fu\n          PUSH FFFFFFFFFFFFFFFFFFFFFFFFFFFFFFFFFFFFFFFF\t\t\ter;\\n    }\\n\\n    fu\n          AND \t\t\ter;\\n    }\\n\\n    fu\n          MUL \t\t\ter;\\n    }\\n\\n    fu\n          OR \t\t\ter;\\n    }\\n\\n    fu\n          SWAP1 \t\t\ter;\\n    }\\n\\n    fu\n          SSTORE \t\t\ter;\\n    }\\n\\n    fu\n          POP \t\t\ter;\\n    }\\n\\n    fu\n          DUP1 \t\t\t(addr\n          PUSH 2\t\t\tdomD\n          SWAP1 \t\t\tdomDraw(addr\n          DUP2 \t\t\tdomDraw(addr\n          PUSH [tag] 6\t\t\tdomDraw(addr\n          SWAP2 \t\t\tdomDraw(addr\n          SWAP1 \t\t\tdomDraw(addr\n          PUSH [tag] 7\t\t\tdomDraw(addr\n          JUMP \t\t\tdomDraw(addr\n        tag 6\t\t\tdomDraw(addr\n          JUMPDEST \t\t\tdomDraw(addr\n          POP \t\t\tdomDraw(addr\n          PUSH 2386F26FC10000\t\t\tturns \n          DUP3 \t\t\tc\n          PUSH [tag] 8\t\t\tc returns \n          SWAP2 \t\t\tc returns \n          SWAP1 \t\t\tc returns \n          PUSH [tag] 9\t\t\tc returns \n          JUMP \t\t\tc returns \n        tag 8\t\t\tc returns \n          JUMPDEST \t\t\tc returns \n          PUSH 1\t\t\te) pu\n          DUP2 \t\t\te) public returns \n          SWAP1 \t\t\te) public returns \n          SSTORE \t\t\te) public returns \n          POP \t\t\te) public returns \n          POP \t\t\towner;\\n\\n    constructor () {...\n          POP \t\t\towner;\\n\\n    constructor () {...\n          PUSH [tag] 10\t\t\ttore & retrieve value in a var...\n          JUMP \t\t\ttore & retrieve value in a var...\n        tag 11\t\t\t-License-Identifier: GPL-3.0\\n...\n          JUMPDEST \t\t\t-License-Identifier: GPL-3.0\\n...\n          PUSH 0\t\t\tgma so\n          PUSH 40\t\t\tor\n          MLOAD \t\t\t;\\n\\nimport\n          SWAP1 \t\t\t7.0 <0.9.0;\\n\\nimport\n          POP \t\t\t7.0 <0.9.0;\\n\\nimport\n          SWAP1 \t\t\t-License-Identifier: GPL-3.0\\n...\n          JUMP \t\t\t-License-Identifier: GPL-3.0\\n...\n        tag 12\t\t\trom \"./Loterie.sol\";\\n\\n/**\\n ...\n          JUMPDEST \t\t\trom \"./Loterie.sol\";\\n\\n/**\\n ...\n          PUSH 0\t\t\tF\n          PUSH 0\t\t\te\n          REVERT \t\t\tct LotteryFa\n        tag 13\t\t\t  mapping (address => Loterie)...\n          JUMPDEST \t\t\t  mapping (address => Loterie)...\n          PUSH 0\t\t\t \n          PUSH 0\t\t\t\\n\n          REVERT \t\t\tor () {\\n    \n        tag 14\t\t\tmsg.sender;\\n    }\\n\\n    func...\n          JUMPDEST \t\t\tmsg.sender;\\n    }\\n\\n    func...\n          PUSH 0\t\t\tmDraw(a\n          DUP2 \t\t\t retu\n          SWAP1 \t\t\trie) public retu\n          POP \t\t\trie) public retu\n          SWAP2 \t\t\tmsg.sender;\\n    }\\n\\n    func...\n          SWAP1 \t\t\tmsg.sender;\\n    }\\n\\n    func...\n          POP \t\t\tmsg.sender;\\n    }\\n\\n    func...\n          JUMP \t\t\tmsg.sender;\\n    }\\n\\n    func...\n        tag 15\t\t\t) {\\n        address winner = ...\n          JUMPDEST \t\t\t) {\\n        address winner = ...\n          PUSH [tag] 52\t\t\turn winner;\\n    }\\n\\n    f\n          DUP2 \t\t\t\\n    \n          PUSH [tag] 14\t\t\turn winner;\\n    }\\n\\n    f\n          JUMP \t\t\turn winner;\\n    }\\n\\n    f\n        tag 52\t\t\turn winner;\\n    }\\n\\n    f\n          JUMPDEST \t\t\turn winner;\\n    }\\n\\n    f\n          DUP2 \t\t\t    r\n          EQ \t\t\t       return winner;\\n    }\\n...\n          PUSH [tag] 53\t\t\tDraw();\\n\\n        return winn...\n          JUMPI \t\t\tDraw();\\n\\n        return winn...\n          PUSH 0\t\t\t(\n          PUSH 0\t\t\ta\n          REVERT \t\t\ton getName(a\n        tag 53\t\t\tDraw();\\n\\n        return winn...\n          JUMPDEST \t\t\tDraw();\\n\\n        return winn...\n          POP \t\t\t) {\\n        address winner = ...\n          JUMP \t\t\t) {\\n        address winner = ...\n        tag 16\t\t\t) public view returns (string ...\n          JUMPDEST \t\t\t) public view returns (string ...\n          PUSH 0\t\t\tontai\n          DUP2 \t\t\te does\n          MLOAD \t\t\tLoterie doesn\n          SWAP1 \t\t\toterie),\"Loterie doesn\n          POP \t\t\toterie),\"Loterie doesn\n          PUSH [tag] 55\t\t\t);\\n        return loteries[lo...\n          DUP2 \t\t\tloter\n          PUSH [tag] 15\t\t\t);\\n        return loteries[lo...\n          JUMP \t\t\t);\\n        return loteries[lo...\n        tag 55\t\t\t);\\n        return loteries[lo...\n          JUMPDEST \t\t\t);\\n        return loteries[lo...\n          SWAP3 \t\t\t) public view returns (string ...\n          SWAP2 \t\t\t) public view returns (string ...\n          POP \t\t\t) public view returns (string ...\n          POP \t\t\t) public view returns (string ...\n          JUMP \t\t\t) public view returns (string ...\n        tag 17\t\t\t;\\n    }\\n    \\n    function g...\n          JUMPDEST \t\t\t;\\n    }\\n    \\n    function g...\n          PUSH 0\t\t\te\n          PUSH 0\t\t\td\n          REVERT \t\t\tntainsAddres\n        tag 18\t\t\tLoterie doesn't exist\");\\n    ...\n          JUMPDEST \t\t\tLoterie doesn't exist\");\\n    ...\n          PUSH 0\t\t\t \n          PUSH 0\t\t\te\n          REVERT \t\t\tte(address l\n        tag 19\t\t\tic payable {\\n        require(...\n          JUMPDEST \t\t\tic payable {\\n        require(...\n          PUSH 0\t\t\tess(lo\n          PUSH 1F\t\t\tri\n          NOT \t\t\tloterie\n          PUSH 1F\t\t\t  \n          DUP4 \t\t\t\");\\n \n          ADD \t\t\txist\");\\n      \n          AND \t\t\t't exist\");\\n        loteries\n          SWAP1 \t\t\terie doesn't exist\");\\n       ...\n          POP \t\t\terie doesn't exist\");\\n       ...\n          SWAP2 \t\t\tic payable {\\n        require(...\n          SWAP1 \t\t\tic payable {\\n        require(...\n          POP \t\t\tic payable {\\n        require(...\n          JUMP \t\t\tic payable {\\n        require(...\n        tag 20\t\t\trticipate{value:msg.value}();\\...\n          JUMPDEST \t\t\trticipate{value:msg.value}();\\...\n          PUSH 4E487B7100000000000000000000000000000000000000000000000000000000\t\t\tn getPrice(address loterie) pu...\n          PUSH 0\t\t\tt\n          MSTORE \t\t\t   function getPrice(address l...\n          PUSH 41\t\t\tie),\n          PUSH 4\t\t\tt\n          MSTORE \t\t\tress(loterie),\"\n          PUSH 24\t\t\tst\")\n          PUSH 0\t\t\te\n          REVERT \t\t\toesn't exist\");\n        tag 21\t\t\turn loteries[loterie].getPrice...\n          JUMPDEST \t\t\turn loteries[loterie].getPrice...\n          PUSH [tag] 61\t\t\temory _name) public {\\n     \n          DUP3 \t\t\t    \n          PUSH [tag] 19\t\t\temory _name) public {\\n     \n          JUMP \t\t\temory _name) public {\\n     \n        tag 61\t\t\temory _name) public {\\n     \n          JUMPDEST \t\t\temory _name) public {\\n     \n          DUP2 \t\t\tstring\n          ADD \t\t\tee, string memory _name) publi...\n          DUP2 \t\t\trie(fe\n          DUP2 \t\t\te = new Lo\n          LT \t\t\terie = new Loterie(fee\n          PUSH FFFFFFFFFFFFFFFF\t\t\t;\\n        Loterie \n          DUP3 \t\t\t a lottery\n          GT \t\t\tadd a lottery\");\\n        Lote...\n          OR \t\t\tan add a lottery\");\\n        L...\n          ISZERO \t\t\tr can add a lottery\");\\n      ...\n          PUSH [tag] 62\t\t\tr can add a lottery\");\\n      ...\n          JUMPI \t\t\tr can add a lottery\");\\n      ...\n          PUSH [tag] 63\t\t\tame);\\n        addr\n          PUSH [tag] 20\t\t\tame);\\n        addr\n          JUMP \t\t\tame);\\n        addr\n        tag 63\t\t\tame);\\n        addr\n          JUMPDEST \t\t\tame);\\n        addr\n        tag 62\t\t\tr can add a lottery\");\\n      ...\n          JUMPDEST \t\t\tr can add a lottery\");\\n      ...\n          DUP1 \t\t\terie));\\n  \n          PUSH 40\t\t\t(l\n          MSTORE \t\t\taddress(loterie));\\n   \n          POP \t\t\t  function addLoterie(uint fee...\n          POP \t\t\turn loteries[loterie].getPrice...\n          POP \t\t\turn loteries[loterie].getPrice...\n          JUMP \t\t\turn loteries[loterie].getPrice...\n        tag 22\t\t\ts[address(loterie)] = loterie;...\n          JUMPDEST \t\t\ts[address(loterie)] = loterie;...\n          PUSH 0\t\t\t }\\n\\n  \n          PUSH [tag] 65\t\t\tdress(address loteri\n          PUSH [tag] 11\t\t\tdress(address loteri\n          JUMP \t\t\tdress(address loteri\n        tag 65\t\t\tdress(address loteri\n          JUMPDEST \t\t\tdress(address loteri\n          SWAP1 \t\t\tcontainsAddress(address loteri\n          POP \t\t\tcontainsAddress(address loteri\n          PUSH [tag] 66\t\t\te view returns (bool) {\\n     ...\n          DUP3 \t\t\t    \n          DUP3 \t\t\t) {\\n  \n          PUSH [tag] 21\t\t\te view returns (bool) {\\n     ...\n          JUMP \t\t\te view returns (bool) {\\n     ...\n        tag 66\t\t\te view returns (bool) {\\n     ...\n          JUMPDEST \t\t\te view returns (bool) {\\n     ...\n          SWAP2 \t\t\ts[address(loterie)] = loterie;...\n          SWAP1 \t\t\ts[address(loterie)] = loterie;...\n          POP \t\t\ts[address(loterie)] = loterie;...\n          JUMP \t\t\ts[address(loterie)] = loterie;...\n        tag 23\t\t\ti = 0; i < addresses.length; i...\n          JUMPDEST \t\t\ti = 0; i < addresses.length; i...\n          PUSH 0\t\t\ti] =\n          PUSH FFFFFFFFFFFFFFFF\t\t\t;\\n    }\\n\\n    funct\n          DUP3 \t\t\trn fal\n          GT \t\t\teturn false;\\n    }\\n\\n    fun...\n          ISZERO \t\t\t  return false;\\n    }\\n\\n    ...\n          PUSH [tag] 68\t\t\t  return false;\\n    }\\n\\n    ...\n          JUMPI \t\t\t  return false;\\n    }\\n\\n    ...\n          PUSH [tag] 69\t\t\tgetLoteries() publ\n          PUSH [tag] 20\t\t\tgetLoteries() publ\n          JUMP \t\t\tgetLoteries() publ\n        tag 69\t\t\tgetLoteries() publ\n          JUMPDEST \t\t\tgetLoteries() publ\n        tag 68\t\t\t  return false;\\n    }\\n\\n    ...\n          JUMPDEST \t\t\t  return false;\\n    }\\n\\n    ...\n          PUSH [tag] 70\t\t\tress[] memory, string[] memor\n          DUP3 \t\t\t] memo\n          PUSH [tag] 19\t\t\tress[] memory, string[] memor\n          JUMP \t\t\tress[] memory, string[] memor\n        tag 70\t\t\tress[] memory, string[] memor\n          JUMPDEST \t\t\tress[] memory, string[] memor\n          SWAP1 \t\t\trns (address[] memory, string[...\n          POP \t\t\trns (address[] memory, string[...\n          PUSH 20\t\t\tsses\n          DUP2 \t\t\t(add\n          ADD \t\t\tng[](addresses.\n          SWAP1 \t\t\tnew string[](addresses.\n          POP \t\t\tnew string[](addresses.\n          SWAP2 \t\t\ti = 0; i < addresses.length; i...\n          SWAP1 \t\t\ti = 0; i < addresses.length; i...\n          POP \t\t\ti = 0; i < addresses.length; i...\n          JUMP \t\t\ti = 0; i < addresses.length; i...\n        tag 24\t\t\t     for (uint256 i = 0; i < a...\n          JUMPDEST \t\t\t     for (uint256 i = 0; i < a...\n          DUP3 \t\t\tesses[\n          DUP2 \t\t\t(ad\n          DUP4 \t\t\ttNa\n          MCOPY \t\t\t] = getName(addresses[i\n          PUSH 0\t\t\tr\n          DUP4 \t\t\tturn (\n          DUP4 \t\t\t   \n          ADD \t\t\t       return (a\n          MSTORE \t\t\t   }\\n\\n        return (addre\n          POP \t\t\t     for (uint256 i = 0; i < a...\n          POP \t\t\t     for (uint256 i = 0; i < a...\n          POP \t\t\t     for (uint256 i = 0; i < a...\n          JUMP \t\t\t     for (uint256 i = 0; i < a...\n        tag 25\t\t\t    }\\n\\n    function removeLo...\n          JUMPDEST \t\t\t    }\\n\\n    function removeLo...\n          PUSH 0\t\t\t owne\n          PUSH [tag] 73\t\t\tan remove a lottery\");\\n      ...\n          PUSH [tag] 74\t\t\tery\");\\n        for(uint256 i ...\n          DUP5 \t\t\tesses.\n          PUSH [tag] 23\t\t\tery\");\\n        for(uint256 i ...\n          JUMP \t\t\tery\");\\n        for(uint256 i ...\n        tag 74\t\t\tery\");\\n        for(uint256 i ...\n          JUMPDEST \t\t\tery\");\\n        for(uint256 i ...\n          PUSH [tag] 22\t\t\tan remove a lottery\");\\n      ...\n          JUMP \t\t\tan remove a lottery\");\\n      ...\n        tag 73\t\t\tan remove a lottery\");\\n      ...\n          JUMPDEST \t\t\tan remove a lottery\");\\n      ...\n          SWAP1 \t\t\te owner can remove a lottery\")...\n          POP \t\t\te owner can remove a lottery\")...\n          DUP3 \t\t\t if (a\n          DUP2 \t\t\t     \n          MSTORE \t\t\t){\\n            if (ad\n          PUSH 20\t\t\t    \n          DUP2 \t\t\t\\n    \n          ADD \t\t\te) {\\n           \n          DUP5 \t\t\tres\n          DUP5 \t\t\tesses[\n          DUP5 \t\t\t ad\n          ADD \t\t\ti] = addresses[a\n          GT \t\t\tes[i] = addresses[address\n          ISZERO \t\t\tesses[i] = addresses[addresses...\n          PUSH [tag] 75\t\t\tesses[i] = addresses[addresses...\n          JUMPI \t\t\tesses[i] = addresses[addresses...\n          PUSH [tag] 76\t\t\tlength - 1];\\n                ...\n          PUSH [tag] 18\t\t\tlength - 1];\\n                ...\n          JUMP \t\t\tlength - 1];\\n                ...\n        tag 76\t\t\tlength - 1];\\n                ...\n          JUMPDEST \t\t\tlength - 1];\\n                ...\n        tag 75\t\t\tesses[i] = addresses[addresses...\n          JUMPDEST \t\t\tesses[i] = addresses[addresses...\n          PUSH [tag] 77\t\t\t  }\\n    }\\n\\n\\n\\n}\n          DUP5 \t\t\t\n          DUP3 \t\t\t\n          DUP6 \t\t\t\n          PUSH [tag] 24\t\t\t  }\\n    }\\n\\n\\n\\n}\n          JUMP \t\t\t  }\\n    }\\n\\n\\n\\n}\n        tag 77\t\t\t  }\\n    }\\n\\n\\n\\n}\n          JUMPDEST \t\t\t  }\\n    }\\n\\n\\n\\n}\n          POP \t\t\t, \"Only the owner can remove a...\n          SWAP4 \t\t\t    }\\n\\n    function removeLo...\n          SWAP3 \t\t\t    }\\n\\n    function removeLo...\n          POP \t\t\t    }\\n\\n    function removeLo...\n          POP \t\t\t    }\\n\\n    function removeLo...\n          POP \t\t\t    }\\n\\n    function removeLo...\n          JUMP \t\t\t    }\\n\\n    function removeLo...\n        tag 26\t\t\t\n          JUMPDEST \t\t\t\n          PUSH 0\t\t\t\n          DUP3 \t\t\t\n          PUSH 1F\t\t\t\n          DUP4 \t\t\t\n          ADD \t\t\t\n          SLT \t\t\t\n          PUSH [tag] 79\t\t\t\n          JUMPI \t\t\t\n          PUSH [tag] 80\t\t\t\n          PUSH [tag] 17\t\t\t\n          JUMP \t\t\t\n        tag 80\t\t\t\n          JUMPDEST \t\t\t\n        tag 79\t\t\t\n          JUMPDEST \t\t\t\n          DUP2 \t\t\t\n          MLOAD \t\t\t\n          PUSH [tag] 81\t\t\t\n          DUP5 \t\t\t\n          DUP3 \t\t\t\n          PUSH 20\t\t\t\n          DUP7 \t\t\t\n          ADD \t\t\t\n          PUSH [tag] 25\t\t\t\n          JUMP \t\t\t\n        tag 81\t\t\t\n          JUMPDEST \t\t\t\n          SWAP2 \t\t\t\n          POP \t\t\t\n          POP \t\t\t\n          SWAP3 \t\t\t\n          SWAP2 \t\t\t\n          POP \t\t\t\n          POP \t\t\t\n          JUMP \t\t\t\n        tag 3\t\t\t\n          JUMPDEST \t\t\t\n          PUSH 0\t\t\t\n          PUSH 0\t\t\t\n          PUSH 40\t\t\t\n          DUP4 \t\t\t\n          DUP6 \t\t\t\n          SUB \t\t\t\n          SLT \t\t\t\n          ISZERO \t\t\t\n          PUSH [tag] 83\t\t\t\n          JUMPI \t\t\t\n          PUSH [tag] 84\t\t\t\n          PUSH [tag] 12\t\t\t\n          JUMP \t\t\t\n        tag 84\t\t\t\n          JUMPDEST \t\t\t\n        tag 83\t\t\t\n          JUMPDEST \t\t\t\n          PUSH 0\t\t\t\n          PUSH [tag] 85\t\t\t\n          DUP6 \t\t\t\n          DUP3 \t\t\t\n          DUP7 \t\t\t\n          ADD \t\t\t\n          PUSH [tag] 16\t\t\t\n          JUMP \t\t\t\n        tag 85\t\t\t\n          JUMPDEST \t\t\t\n          SWAP3 \t\t\t\n          POP \t\t\t\n          POP \t\t\t\n          PUSH 20\t\t\t\n          DUP4 \t\t\t\n          ADD \t\t\t\n          MLOAD \t\t\t\n          PUSH FFFFFFFFFFFFFFFF\t\t\t\n          DUP2 \t\t\t\n          GT \t\t\t\n          ISZERO \t\t\t\n          PUSH [tag] 86\t\t\t\n          JUMPI \t\t\t\n          PUSH [tag] 87\t\t\t\n          PUSH [tag] 13\t\t\t\n          JUMP \t\t\t\n        tag 87\t\t\t\n          JUMPDEST \t\t\t\n        tag 86\t\t\t\n          JUMPDEST \t\t\t\n          PUSH [tag] 88\t\t\t\n          DUP6 \t\t\t\n          DUP3 \t\t\t\n          DUP7 \t\t\t\n          ADD \t\t\t\n          PUSH [tag] 26\t\t\t\n          JUMP \t\t\t\n        tag 88\t\t\t\n          JUMPDEST \t\t\t\n          SWAP2 \t\t\t\n          POP \t\t\t\n          POP \t\t\t\n          SWAP3 \t\t\t\n          POP \t\t\t\n          SWAP3 \t\t\t\n          SWAP1 \t\t\t\n          POP \t\t\t\n          JUMP \t\t\t\n        tag 27\t\t\t\n          JUMPDEST \t\t\t\n          PUSH 0\t\t\t\n          DUP2 \t\t\t\n          MLOAD \t\t\t\n          SWAP1 \t\t\t\n          POP \t\t\t\n          SWAP2 \t\t\t\n          SWAP1 \t\t\t\n          POP \t\t\t\n          JUMP \t\t\t\n        tag 28\t\t\t\n          JUMPDEST \t\t\t\n          PUSH 4E487B7100000000000000000000000000000000000000000000000000000000\t\t\t\n          PUSH 0\t\t\t\n          MSTORE \t\t\t\n          PUSH 22\t\t\t\n          PUSH 4\t\t\t\n          MSTORE \t\t\t\n          PUSH 24\t\t\t\n          PUSH 0\t\t\t\n          REVERT \t\t\t\n        tag 29\t\t\t\n          JUMPDEST \t\t\t\n          PUSH 0\t\t\t\n          PUSH 2\t\t\t\n          DUP3 \t\t\t\n          DIV \t\t\t\n          SWAP1 \t\t\t\n          POP \t\t\t\n          PUSH 1\t\t\t\n          DUP3 \t\t\t\n          AND \t\t\t\n          DUP1 \t\t\t\n          PUSH [tag] 92\t\t\t\n          JUMPI \t\t\t\n          PUSH 7F\t\t\t\n          DUP3 \t\t\t\n          AND \t\t\t\n          SWAP2 \t\t\t\n          POP \t\t\t\n        tag 92\t\t\t\n          JUMPDEST \t\t\t\n          PUSH 20\t\t\t\n          DUP3 \t\t\t\n          LT \t\t\t\n          DUP2 \t\t\t\n          SUB \t\t\t\n          PUSH [tag] 93\t\t\t\n          JUMPI \t\t\t\n          PUSH [tag] 94\t\t\t\n          PUSH [tag] 28\t\t\t\n          JUMP \t\t\t\n        tag 94\t\t\t\n          JUMPDEST \t\t\t\n        tag 93\t\t\t\n          JUMPDEST \t\t\t\n          POP \t\t\t\n          SWAP2 \t\t\t\n          SWAP1 \t\t\t\n          POP \t\t\t\n          JUMP \t\t\t\n        tag 30\t\t\t\n          JUMPDEST \t\t\t\n          PUSH 0\t\t\t\n          DUP2 \t\t\t\n          SWAP1 \t\t\t\n          POP \t\t\t\n          DUP2 \t\t\t\n          PUSH 0\t\t\t\n          MSTORE \t\t\t\n          PUSH 20\t\t\t\n          PUSH 0\t\t\t\n          KECCAK256 \t\t\t\n          SWAP1 \t\t\t\n          POP \t\t\t\n          SWAP2 \t\t\t\n          SWAP1 \t\t\t\n          POP \t\t\t\n          JUMP \t\t\t\n        tag 31\t\t\t\n          JUMPDEST \t\t\t\n          PUSH 0\t\t\t\n          PUSH 20\t\t\t\n          PUSH 1F\t\t\t\n          DUP4 \t\t\t\n          ADD \t\t\t\n          DIV \t\t\t\n          SWAP1 \t\t\t\n          POP \t\t\t\n          SWAP2 \t\t\t\n          SWAP1 \t\t\t\n          POP \t\t\t\n          JUMP \t\t\t\n        tag 32\t\t\t\n          JUMPDEST \t\t\t\n          PUSH 0\t\t\t\n          DUP3 \t\t\t\n          DUP3 \t\t\t\n          SHL \t\t\t\n          SWAP1 \t\t\t\n          POP \t\t\t\n          SWAP3 \t\t\t\n          SWAP2 \t\t\t\n          POP \t\t\t\n          POP \t\t\t\n          JUMP \t\t\t\n        tag 33\t\t\t\n          JUMPDEST \t\t\t\n          PUSH 0\t\t\t\n          PUSH 8\t\t\t\n          DUP4 \t\t\t\n          MUL \t\t\t\n          PUSH [tag] 99\t\t\t\n          PUSH FFFFFFFFFFFFFFFFFFFFFFFFFFFFFFFFFFFFFFFFFFFFFFFFFFFFFFFFFFFFFFFF\t\t\t\n          DUP3 \t\t\t\n          PUSH [tag] 32\t\t\t\n          JUMP \t\t\t\n        tag 99\t\t\t\n          JUMPDEST \t\t\t\n          PUSH [tag] 100\t\t\t\n          DUP7 \t\t\t\n          DUP4 \t\t\t\n          PUSH [tag] 32\t\t\t\n          JUMP \t\t\t\n        tag 100\t\t\t\n          JUMPDEST \t\t\t\n          SWAP6 \t\t\t\n          POP \t\t\t\n          DUP1 \t\t\t\n          NOT \t\t\t\n          DUP5 \t\t\t\n          AND \t\t\t\n          SWAP4 \t\t\t\n          POP \t\t\t\n          DUP1 \t\t\t\n          DUP7 \t\t\t\n          AND \t\t\t\n          DUP5 \t\t\t\n          OR \t\t\t\n          SWAP3 \t\t\t\n          POP \t\t\t\n          POP \t\t\t\n          POP \t\t\t\n          SWAP4 \t\t\t\n          SWAP3 \t\t\t\n          POP \t\t\t\n          POP \t\t\t\n          POP \t\t\t\n          JUMP \t\t\t\n        tag 34\t\t\t\n          JUMPDEST \t\t\t\n          PUSH 0\t\t\t\n          DUP2 \t\t\t\n          SWAP1 \t\t\t\n          POP \t\t\t\n          SWAP2 \t\t\t\n          SWAP1 \t\t\t\n          POP \t\t\t\n          JUMP \t\t\t\n        tag 35\t\t\t\n          JUMPDEST \t\t\t\n          PUSH 0\t\t\t\n          PUSH [tag] 103\t\t\t\n          PUSH [tag] 104\t\t\t\n          PUSH [tag] 105\t\t\t\n          DUP5 \t\t\t\n          PUSH [tag] 14\t\t\t\n          JUMP \t\t\t\n        tag 105\t\t\t\n          JUMPDEST \t\t\t\n          PUSH [tag] 34\t\t\t\n          JUMP \t\t\t\n        tag 104\t\t\t\n          JUMPDEST \t\t\t\n          PUSH [tag] 14\t\t\t\n          JUMP \t\t\t\n        tag 103\t\t\t\n          JUMPDEST \t\t\t\n          SWAP1 \t\t\t\n          POP \t\t\t\n          SWAP2 \t\t\t\n          SWAP1 \t\t\t\n          POP \t\t\t\n          JUMP \t\t\t\n        tag 36\t\t\t\n          JUMPDEST \t\t\t\n          PUSH 0\t\t\t\n          DUP2 \t\t\t\n          SWAP1 \t\t\t\n          POP \t\t\t\n          SWAP2 \t\t\t\n          SWAP1 \t\t\t\n          POP \t\t\t\n          JUMP \t\t\t\n        tag 37\t\t\t\n          JUMPDEST \t\t\t\n          PUSH [tag] 108\t\t\t\n          DUP4 \t\t\t\n          PUSH [tag] 35\t\t\t\n          JUMP \t\t\t\n        tag 108\t\t\t\n          JUMPDEST \t\t\t\n          PUSH [tag] 109\t\t\t\n          PUSH [tag] 110\t\t\t\n          DUP3 \t\t\t\n          PUSH [tag] 36\t\t\t\n          JUMP \t\t\t\n        tag 110\t\t\t\n          JUMPDEST \t\t\t\n          DUP5 \t\t\t\n          DUP5 \t\t\t\n          SLOAD \t\t\t\n          PUSH [tag] 33\t\t\t\n          JUMP \t\t\t\n        tag 109\t\t\t\n          JUMPDEST \t\t\t\n          DUP3 \t\t\t\n          SSTORE \t\t\t\n          POP \t\t\t\n          POP \t\t\t\n          POP \t\t\t\n          POP \t\t\t\n          JUMP \t\t\t\n        tag 38\t\t\t\n          JUMPDEST \t\t\t\n          PUSH 0\t\t\t\n          PUSH 0\t\t\t\n          SWAP1 \t\t\t\n          POP \t\t\t\n          SWAP1 \t\t\t\n          JUMP \t\t\t\n        tag 39\t\t\t\n          JUMPDEST \t\t\t\n          PUSH [tag] 113\t\t\t\n          PUSH [tag] 38\t\t\t\n          JUMP \t\t\t\n        tag 113\t\t\t\n          JUMPDEST \t\t\t\n          PUSH [tag] 114\t\t\t\n          DUP2 \t\t\t\n          DUP5 \t\t\t\n          DUP5 \t\t\t\n          PUSH [tag] 37\t\t\t\n          JUMP \t\t\t\n        tag 114\t\t\t\n          JUMPDEST \t\t\t\n          POP \t\t\t\n          POP \t\t\t\n          POP \t\t\t\n          JUMP \t\t\t\n        tag 40\t\t\t\n          JUMPDEST \t\t\t\n        tag 116\t\t\t\n          JUMPDEST \t\t\t\n          DUP2 \t\t\t\n          DUP2 \t\t\t\n          LT \t\t\t\n          ISZERO \t\t\t\n          PUSH [tag] 118\t\t\t\n          JUMPI \t\t\t\n          PUSH [tag] 119\t\t\t\n          PUSH 0\t\t\t\n          DUP3 \t\t\t\n          PUSH [tag] 39\t\t\t\n          JUMP \t\t\t\n        tag 119\t\t\t\n          JUMPDEST \t\t\t\n          PUSH 1\t\t\t\n          DUP2 \t\t\t\n          ADD \t\t\t\n          SWAP1 \t\t\t\n          POP \t\t\t\n          PUSH [tag] 116\t\t\t\n          JUMP \t\t\t\n        tag 118\t\t\t\n          JUMPDEST \t\t\t\n          POP \t\t\t\n          POP \t\t\t\n          JUMP \t\t\t\n        tag 41\t\t\t\n          JUMPDEST \t\t\t\n          PUSH 1F\t\t\t\n          DUP3 \t\t\t\n          GT \t\t\t\n          ISZERO \t\t\t\n          PUSH [tag] 121\t\t\t\n          JUMPI \t\t\t\n          PUSH [tag] 122\t\t\t\n          DUP2 \t\t\t\n          PUSH [tag] 30\t\t\t\n          JUMP \t\t\t\n        tag 122\t\t\t\n          JUMPDEST \t\t\t\n          PUSH [tag] 123\t\t\t\n          DUP5 \t\t\t\n          PUSH [tag] 31\t\t\t\n          JUMP \t\t\t\n        tag 123\t\t\t\n          JUMPDEST \t\t\t\n          DUP2 \t\t\t\n          ADD \t\t\t\n          PUSH 20\t\t\t\n          DUP6 \t\t\t\n          LT \t\t\t\n          ISZERO \t\t\t\n          PUSH [tag] 124\t\t\t\n          JUMPI \t\t\t\n          DUP2 \t\t\t\n          SWAP1 \t\t\t\n          POP \t\t\t\n        tag 124\t\t\t\n          JUMPDEST \t\t\t\n          PUSH [tag] 125\t\t\t\n          PUSH [tag] 126\t\t\t\n          DUP6 \t\t\t\n          PUSH [tag] 31\t\t\t\n          JUMP \t\t\t\n        tag 126\t\t\t\n          JUMPDEST \t\t\t\n          DUP4 \t\t\t\n          ADD \t\t\t\n          DUP3 \t\t\t\n          PUSH [tag] 40\t\t\t\n          JUMP \t\t\t\n        tag 125\t\t\t\n          JUMPDEST \t\t\t\n          POP \t\t\t\n          POP \t\t\t\n        tag 121\t\t\t\n          JUMPDEST \t\t\t\n          POP \t\t\t\n          POP \t\t\t\n          POP \t\t\t\n          JUMP \t\t\t\n        tag 42\t\t\t\n          JUMPDEST \t\t\t\n          PUSH 0\t\t\t\n          DUP3 \t\t\t\n          DUP3 \t\t\t\n          SHR \t\t\t\n          SWAP1 \t\t\t\n          POP \t\t\t\n          SWAP3 \t\t\t\n          SWAP2 \t\t\t\n          POP \t\t\t\n          POP \t\t\t\n          JUMP \t\t\t\n        tag 43\t\t\t\n          JUMPDEST \t\t\t\n          PUSH 0\t\t\t\n          PUSH [tag] 129\t\t\t\n          PUSH 0\t\t\t\n          NOT \t\t\t\n          DUP5 \t\t\t\n          PUSH 8\t\t\t\n          MUL \t\t\t\n          PUSH [tag] 42\t\t\t\n          JUMP \t\t\t\n        tag 129\t\t\t\n          JUMPDEST \t\t\t\n          NOT \t\t\t\n          DUP1 \t\t\t\n          DUP4 \t\t\t\n          AND \t\t\t\n          SWAP2 \t\t\t\n          POP \t\t\t\n          POP \t\t\t\n          SWAP3 \t\t\t\n          SWAP2 \t\t\t\n          POP \t\t\t\n          POP \t\t\t\n          JUMP \t\t\t\n        tag 44\t\t\t\n          JUMPDEST \t\t\t\n          PUSH 0\t\t\t\n          PUSH [tag] 131\t\t\t\n          DUP4 \t\t\t\n          DUP4 \t\t\t\n          PUSH [tag] 43\t\t\t\n          JUMP \t\t\t\n        tag 131\t\t\t\n          JUMPDEST \t\t\t\n          SWAP2 \t\t\t\n          POP \t\t\t\n          DUP3 \t\t\t\n          PUSH 2\t\t\t\n          MUL \t\t\t\n          DUP3 \t\t\t\n          OR \t\t\t\n          SWAP1 \t\t\t\n          POP \t\t\t\n          SWAP3 \t\t\t\n          SWAP2 \t\t\t\n          POP \t\t\t\n          POP \t\t\t\n          JUMP \t\t\t\n        tag 7\t\t\t\n          JUMPDEST \t\t\t\n          PUSH [tag] 133\t\t\t\n          DUP3 \t\t\t\n          PUSH [tag] 27\t\t\t\n          JUMP \t\t\t\n        tag 133\t\t\t\n          JUMPDEST \t\t\t\n          PUSH FFFFFFFFFFFFFFFF\t\t\t\n          DUP2 \t\t\t\n          GT \t\t\t\n          ISZERO \t\t\t\n          PUSH [tag] 134\t\t\t\n          JUMPI \t\t\t\n          PUSH [tag] 135\t\t\t\n          PUSH [tag] 20\t\t\t\n          JUMP \t\t\t\n        tag 135\t\t\t\n          JUMPDEST \t\t\t\n        tag 134\t\t\t\n          JUMPDEST \t\t\t\n          PUSH [tag] 136\t\t\t\n          DUP3 \t\t\t\n          SLOAD \t\t\t\n          PUSH [tag] 29\t\t\t\n          JUMP \t\t\t\n        tag 136\t\t\t\n          JUMPDEST \t\t\t\n          PUSH [tag] 137\t\t\t\n          DUP3 \t\t\t\n          DUP3 \t\t\t\n          DUP6 \t\t\t\n          PUSH [tag] 41\t\t\t\n          JUMP \t\t\t\n        tag 137\t\t\t\n          JUMPDEST \t\t\t\n          PUSH 0\t\t\t\n          PUSH 20\t\t\t\n          SWAP1 \t\t\t\n          POP \t\t\t\n          PUSH 1F\t\t\t\n          DUP4 \t\t\t\n          GT \t\t\t\n          PUSH 1\t\t\t\n          DUP2 \t\t\t\n          EQ \t\t\t\n          PUSH [tag] 139\t\t\t\n          JUMPI \t\t\t\n          PUSH 0\t\t\t\n          DUP5 \t\t\t\n          ISZERO \t\t\t\n          PUSH [tag] 140\t\t\t\n          JUMPI \t\t\t\n          DUP3 \t\t\t\n          DUP8 \t\t\t\n          ADD \t\t\t\n          MLOAD \t\t\t\n          SWAP1 \t\t\t\n          POP \t\t\t\n        tag 140\t\t\t\n          JUMPDEST \t\t\t\n          PUSH [tag] 141\t\t\t\n          DUP6 \t\t\t\n          DUP3 \t\t\t\n          PUSH [tag] 44\t\t\t\n          JUMP \t\t\t\n        tag 141\t\t\t\n          JUMPDEST \t\t\t\n          DUP7 \t\t\t\n          SSTORE \t\t\t\n          POP \t\t\t\n          PUSH [tag] 138\t\t\t\n          JUMP \t\t\t\n        tag 139\t\t\t\n          JUMPDEST \t\t\t\n          PUSH 1F\t\t\t\n          NOT \t\t\t\n          DUP5 \t\t\t\n          AND \t\t\t\n          PUSH [tag] 142\t\t\t\n          DUP7 \t\t\t\n          PUSH [tag] 30\t\t\t\n          JUMP \t\t\t\n        tag 142\t\t\t\n          JUMPDEST \t\t\t\n          PUSH 0\t\t\t\n        tag 143\t\t\t\n          JUMPDEST \t\t\t\n          DUP3 \t\t\t\n          DUP2 \t\t\t\n          LT \t\t\t\n          ISZERO \t\t\t\n          PUSH [tag] 145\t\t\t\n          JUMPI \t\t\t\n          DUP5 \t\t\t\n          DUP10 \t\t\t\n          ADD \t\t\t\n          MLOAD \t\t\t\n          DUP3 \t\t\t\n          SSTORE \t\t\t\n          PUSH 1\t\t\t\n          DUP3 \t\t\t\n          ADD \t\t\t\n          SWAP2 \t\t\t\n          POP \t\t\t\n          PUSH 20\t\t\t\n          DUP6 \t\t\t\n          ADD \t\t\t\n          SWAP5 \t\t\t\n          POP \t\t\t\n          PUSH 20\t\t\t\n          DUP2 \t\t\t\n          ADD \t\t\t\n          SWAP1 \t\t\t\n          POP \t\t\t\n          PUSH [tag] 143\t\t\t\n          JUMP \t\t\t\n        tag 145\t\t\t\n          JUMPDEST \t\t\t\n          DUP7 \t\t\t\n          DUP4 \t\t\t\n          LT \t\t\t\n          ISZERO \t\t\t\n          PUSH [tag] 146\t\t\t\n          JUMPI \t\t\t\n          DUP5 \t\t\t\n          DUP10 \t\t\t\n          ADD \t\t\t\n          MLOAD \t\t\t\n          PUSH [tag] 147\t\t\t\n          PUSH 1F\t\t\t\n          DUP10 \t\t\t\n          AND \t\t\t\n          DUP3 \t\t\t\n          PUSH [tag] 43\t\t\t\n          JUMP \t\t\t\n        tag 147\t\t\t\n          JUMPDEST \t\t\t\n          DUP4 \t\t\t\n          SSTORE \t\t\t\n          POP \t\t\t\n        tag 146\t\t\t\n          JUMPDEST \t\t\t\n          PUSH 1\t\t\t\n          PUSH 2\t\t\t\n          DUP9 \t\t\t\n          MUL \t\t\t\n          ADD \t\t\t\n          DUP9 \t\t\t\n          SSTORE \t\t\t\n          POP \t\t\t\n          POP \t\t\t\n          POP \t\t\t\n        tag 138\t\t\t\n          JUMPDEST \t\t\t\n          POP \t\t\t\n          POP \t\t\t\n          POP \t\t\t\n          POP \t\t\t\n          POP \t\t\t\n          POP \t\t\t\n          JUMP \t\t\t\n        tag 45\t\t\t\n          JUMPDEST \t\t\t\n          PUSH 4E487B7100000000000000000000000000000000000000000000000000000000\t\t\t\n          PUSH 0\t\t\t\n          MSTORE \t\t\t\n          PUSH 11\t\t\t\n          PUSH 4\t\t\t\n          MSTORE \t\t\t\n          PUSH 24\t\t\t\n          PUSH 0\t\t\t\n          REVERT \t\t\t\n        tag 9\t\t\t\n          JUMPDEST \t\t\t\n          PUSH 0\t\t\t\n          PUSH [tag] 150\t\t\t\n          DUP3 \t\t\t\n          PUSH [tag] 14\t\t\t\n          JUMP \t\t\t\n        tag 150\t\t\t\n          JUMPDEST \t\t\t\n          SWAP2 \t\t\t\n          POP \t\t\t\n          PUSH [tag] 151\t\t\t\n          DUP4 \t\t\t\n          PUSH [tag] 14\t\t\t\n          JUMP \t\t\t\n        tag 151\t\t\t\n          JUMPDEST \t\t\t\n          SWAP3 \t\t\t\n          POP \t\t\t\n          DUP3 \t\t\t\n          DUP3 \t\t\t\n          MUL \t\t\t\n          PUSH [tag] 152\t\t\t\n          DUP2 \t\t\t\n          PUSH [tag] 14\t\t\t\n          JUMP \t\t\t\n        tag 152\t\t\t\n          JUMPDEST \t\t\t\n          SWAP2 \t\t\t\n          POP \t\t\t\n          DUP3 \t\t\t\n          DUP3 \t\t\t\n          DIV \t\t\t\n          DUP5 \t\t\t\n          EQ \t\t\t\n          DUP4 \t\t\t\n          ISZERO \t\t\t\n          OR \t\t\t\n          PUSH [tag] 153\t\t\t\n          JUMPI \t\t\t\n          PUSH [tag] 154\t\t\t\n          PUSH [tag] 45\t\t\t\n          JUMP \t\t\t\n        tag 154\t\t\t\n          JUMPDEST \t\t\t\n        tag 153\t\t\t\n          JUMPDEST \t\t\t\n          POP \t\t\t\n          SWAP3 \t\t\t\n          SWAP2 \t\t\t\n          POP \t\t\t\n          POP \t\t\t\n          JUMP \t\t\t\n        tag 10\t\t\ttore & retrieve value in a var...\n          JUMPDEST \t\t\ttore & retrieve value in a var...\n          PUSH #[$] 0000000000000000000000000000000000000000000000000000000000000000\t\t\ttore & retrieve value in a var...\n          DUP1 \t\t\ttore & retrieve value in a var...\n          PUSH [$] 0000000000000000000000000000000000000000000000000000000000000000\t\t\ttore & retrieve value in a var...\n          PUSH 0\t\t\ttore & retrieve value in a var...\n          CODECOPY \t\t\ttore & retrieve value in a var...\n          PUSH 0\t\t\ttore & retrieve value in a var...\n          RETURN \t\t\ttore & retrieve value in a var...\n        .data\n          0:\n            .code\n              PUSH 80\t\t\ttore & retrieve value in a var...\n              PUSH 40\t\t\ttore & retrieve value in a var...\n              MSTORE \t\t\ttore & retrieve value in a var...\n              PUSH 4\t\t\ttore & retrieve value in a var...\n              CALLDATASIZE \t\t\ttore & retrieve value in a var...\n              LT \t\t\ttore & retrieve value in a var...\n              PUSH [tag] 1\t\t\ttore & retrieve value in a var...\n              JUMPI \t\t\ttore & retrieve value in a var...\n              PUSH 0\t\t\ttore & retrieve value in a var...\n              CALLDATALOAD \t\t\ttore & retrieve value in a var...\n              PUSH E0\t\t\ttore & retrieve value in a var...\n              SHR \t\t\ttore & retrieve value in a var...\n              DUP1 \t\t\ttore & retrieve value in a var...\n              PUSH 17D7DE7C\t\t\ttore & retrieve value in a var...\n              EQ \t\t\ttore & retrieve value in a var...\n              PUSH [tag] 2\t\t\ttore & retrieve value in a var...\n              JUMPI \t\t\ttore & retrieve value in a var...\n              DUP1 \t\t\ttore & retrieve value in a var...\n              PUSH 1E62E202\t\t\ttore & retrieve value in a var...\n              EQ \t\t\ttore & retrieve value in a var...\n              PUSH [tag] 3\t\t\ttore & retrieve value in a var...\n              JUMPI \t\t\ttore & retrieve value in a var...\n              DUP1 \t\t\ttore & retrieve value in a var...\n              PUSH 55E5AE04\t\t\ttore & retrieve value in a var...\n              EQ \t\t\ttore & retrieve value in a var...\n              PUSH [tag] 4\t\t\ttore & retrieve value in a var...\n              JUMPI \t\t\ttore & retrieve value in a var...\n              DUP1 \t\t\ttore & retrieve value in a var...\n              PUSH 98D5FDCA\t\t\ttore & retrieve value in a var...\n              EQ \t\t\ttore & retrieve value in a var...\n              PUSH [tag] 5\t\t\ttore & retrieve value in a var...\n              JUMPI \t\t\ttore & retrieve value in a var...\n              DUP1 \t\t\ttore & retrieve value in a var...\n              PUSH A035B1FE\t\t\ttore & retrieve value in a var...\n              EQ \t\t\ttore & retrieve value in a var...\n              PUSH [tag] 6\t\t\ttore & retrieve value in a var...\n              JUMPI \t\t\ttore & retrieve value in a var...\n              DUP1 \t\t\ttore & retrieve value in a var...\n              PUSH D11711A2\t\t\ttore & retrieve value in a var...\n              EQ \t\t\ttore & retrieve value in a var...\n              PUSH [tag] 7\t\t\ttore & retrieve value in a var...\n              JUMPI \t\t\ttore & retrieve value in a var...\n            tag 1\t\t\ttore & retrieve value in a var...\n              JUMPDEST \t\t\ttore & retrieve value in a var...\n              PUSH 0\t\t\ttore & retrieve value in a var...\n              PUSH 0\t\t\ttore & retrieve value in a var...\n              REVERT \t\t\ttore & retrieve value in a var...\n            tag 2\t\t\tire(msg.sender == owner, \"Only...\n              JUMPDEST \t\t\tire(msg.sender == owner, \"Only...\n              CALLVALUE \t\t\tire(msg.sender == owner, \"Only...\n              DUP1 \t\t\tire(msg.sender == owner, \"Only...\n              ISZERO \t\t\tire(msg.sender == owner, \"Only...\n              PUSH [tag] 8\t\t\tire(msg.sender == owner, \"Only...\n              JUMPI \t\t\tire(msg.sender == owner, \"Only...\n              PUSH 0\t\t\tire(msg.sender == owner, \"Only...\n              PUSH 0\t\t\tire(msg.sender == owner, \"Only...\n              REVERT \t\t\tire(msg.sender == owner, \"Only...\n            tag 8\t\t\tire(msg.sender == owner, \"Only...\n              JUMPDEST \t\t\tire(msg.sender == owner, \"Only...\n              POP \t\t\tire(msg.sender == owner, \"Only...\n              PUSH [tag] 9\t\t\tire(msg.sender == owner, \"Only...\n              PUSH [tag] 10\t\t\tire(msg.sender == owner, \"Only...\n              JUMP \t\t\tire(msg.sender == owner, \"Only...\n            tag 9\t\t\tire(msg.sender == owner, \"Only...\n              JUMPDEST \t\t\tire(msg.sender == owner, \"Only...\n              PUSH 40\t\t\tire(msg.sender == owner, \"Only...\n              MLOAD \t\t\tire(msg.sender == owner, \"Only...\n              PUSH [tag] 11\t\t\tire(msg.sender == owner, \"Only...\n              SWAP2 \t\t\tire(msg.sender == owner, \"Only...\n              SWAP1 \t\t\tire(msg.sender == owner, \"Only...\n              PUSH [tag] 12\t\t\tire(msg.sender == owner, \"Only...\n              JUMP \t\t\tire(msg.sender == owner, \"Only...\n            tag 11\t\t\tire(msg.sender == owner, \"Only...\n              JUMPDEST \t\t\tire(msg.sender == owner, \"Only...\n              PUSH 40\t\t\tire(msg.sender == owner, \"Only...\n              MLOAD \t\t\tire(msg.sender == owner, \"Only...\n              DUP1 \t\t\tire(msg.sender == owner, \"Only...\n              SWAP2 \t\t\tire(msg.sender == owner, \"Only...\n              SUB \t\t\tire(msg.sender == owner, \"Only...\n              SWAP1 \t\t\tire(msg.sender == owner, \"Only...\n              RETURN \t\t\tire(msg.sender == owner, \"Only...\n            tag 3\t\t\t       address winner = loteri...\n              JUMPDEST \t\t\t       address winner = loteri...\n              CALLVALUE \t\t\t       address winner = loteri...\n              DUP1 \t\t\t       address winner = loteri...\n              ISZERO \t\t\t       address winner = loteri...\n              PUSH [tag] 13\t\t\t       address winner = loteri...\n              JUMPI \t\t\t       address winner = loteri...\n              PUSH 0\t\t\t       address winner = loteri...\n              PUSH 0\t\t\t       address winner = loteri...\n              REVERT \t\t\t       address winner = loteri...\n            tag 13\t\t\t       address winner = loteri...\n              JUMPDEST \t\t\t       address winner = loteri...\n              POP \t\t\t       address winner = loteri...\n              PUSH [tag] 14\t\t\t       address winner = loteri...\n              PUSH [tag] 15\t\t\t       address winner = loteri...\n              JUMP \t\t\t       address winner = loteri...\n            tag 14\t\t\t       address winner = loteri...\n              JUMPDEST \t\t\t       address winner = loteri...\n              PUSH 40\t\t\t       address winner = loteri...\n              MLOAD \t\t\t       address winner = loteri...\n              PUSH [tag] 16\t\t\t       address winner = loteri...\n              SWAP2 \t\t\t       address winner = loteri...\n              SWAP1 \t\t\t       address winner = loteri...\n              PUSH [tag] 17\t\t\t       address winner = loteri...\n              JUMP \t\t\t       address winner = loteri...\n            tag 16\t\t\t       address winner = loteri...\n              JUMPDEST \t\t\t       address winner = loteri...\n              PUSH 40\t\t\t       address winner = loteri...\n              MLOAD \t\t\t       address winner = loteri...\n              DUP1 \t\t\t       address winner = loteri...\n              SWAP2 \t\t\t       address winner = loteri...\n              SUB \t\t\t       address winner = loteri...\n              SWAP1 \t\t\t       address winner = loteri...\n              RETURN \t\t\t       address winner = loteri...\n            tag 4\t\t\te].getPrice();\\n    }\\n\\n    f...\n              JUMPDEST \t\t\te].getPrice();\\n    }\\n\\n    f...\n              CALLVALUE \t\t\te].getPrice();\\n    }\\n\\n    f...\n              DUP1 \t\t\te].getPrice();\\n    }\\n\\n    f...\n              ISZERO \t\t\te].getPrice();\\n    }\\n\\n    f...\n              PUSH [tag] 18\t\t\te].getPrice();\\n    }\\n\\n    f...\n              JUMPI \t\t\te].getPrice();\\n    }\\n\\n    f...\n              PUSH 0\t\t\te].getPrice();\\n    }\\n\\n    f...\n              PUSH 0\t\t\te].getPrice();\\n    }\\n\\n    f...\n              REVERT \t\t\te].getPrice();\\n    }\\n\\n    f...\n            tag 18\t\t\te].getPrice();\\n    }\\n\\n    f...\n              JUMPDEST \t\t\te].getPrice();\\n    }\\n\\n    f...\n              POP \t\t\te].getPrice();\\n    }\\n\\n    f...\n              PUSH [tag] 19\t\t\te].getPrice();\\n    }\\n\\n    f...\n              PUSH [tag] 20\t\t\te].getPrice();\\n    }\\n\\n    f...\n              JUMP \t\t\te].getPrice();\\n    }\\n\\n    f...\n            tag 19\t\t\te].getPrice();\\n    }\\n\\n    f...\n              JUMPDEST \t\t\te].getPrice();\\n    }\\n\\n    f...\n              PUSH 40\t\t\te].getPrice();\\n    }\\n\\n    f...\n              MLOAD \t\t\te].getPrice();\\n    }\\n\\n    f...\n              PUSH [tag] 21\t\t\te].getPrice();\\n    }\\n\\n    f...\n              SWAP2 \t\t\te].getPrice();\\n    }\\n\\n    f...\n              SWAP1 \t\t\te].getPrice();\\n    }\\n\\n    f...\n              PUSH [tag] 22\t\t\te].getPrice();\\n    }\\n\\n    f...\n              JUMP \t\t\te].getPrice();\\n    }\\n\\n    f...\n            tag 21\t\t\te].getPrice();\\n    }\\n\\n    f...\n              JUMPDEST \t\t\te].getPrice();\\n    }\\n\\n    f...\n              PUSH 40\t\t\te].getPrice();\\n    }\\n\\n    f...\n              MLOAD \t\t\te].getPrice();\\n    }\\n\\n    f...\n              DUP1 \t\t\te].getPrice();\\n    }\\n\\n    f...\n              SWAP2 \t\t\te].getPrice();\\n    }\\n\\n    f...\n              SUB \t\t\te].getPrice();\\n    }\\n\\n    f...\n              SWAP1 \t\t\te].getPrice();\\n    }\\n\\n    f...\n              RETURN \t\t\te].getPrice();\\n    }\\n\\n    f...\n            tag 5\t\t\trie doesn't exist\");\\n        ...\n              JUMPDEST \t\t\trie doesn't exist\");\\n        ...\n              CALLVALUE \t\t\trie doesn't exist\");\\n        ...\n              DUP1 \t\t\trie doesn't exist\");\\n        ...\n              ISZERO \t\t\trie doesn't exist\");\\n        ...\n              PUSH [tag] 23\t\t\trie doesn't exist\");\\n        ...\n              JUMPI \t\t\trie doesn't exist\");\\n        ...\n              PUSH 0\t\t\trie doesn't exist\");\\n        ...\n              PUSH 0\t\t\trie doesn't exist\");\\n        ...\n              REVERT \t\t\trie doesn't exist\");\\n        ...\n            tag 23\t\t\trie doesn't exist\");\\n        ...\n              JUMPDEST \t\t\trie doesn't exist\");\\n        ...\n              POP \t\t\trie doesn't exist\");\\n        ...\n              PUSH [tag] 24\t\t\trie doesn't exist\");\\n        ...\n              PUSH [tag] 25\t\t\trie doesn't exist\");\\n        ...\n              JUMP \t\t\trie doesn't exist\");\\n        ...\n            tag 24\t\t\trie doesn't exist\");\\n        ...\n              JUMPDEST \t\t\trie doesn't exist\");\\n        ...\n              PUSH 40\t\t\trie doesn't exist\");\\n        ...\n              MLOAD \t\t\trie doesn't exist\");\\n        ...\n              PUSH [tag] 26\t\t\trie doesn't exist\");\\n        ...\n              SWAP2 \t\t\trie doesn't exist\");\\n        ...\n              SWAP1 \t\t\trie doesn't exist\");\\n        ...\n              PUSH [tag] 22\t\t\trie doesn't exist\");\\n        ...\n              JUMP \t\t\trie doesn't exist\");\\n        ...\n            tag 26\t\t\trie doesn't exist\");\\n        ...\n              JUMPDEST \t\t\trie doesn't exist\");\\n        ...\n              PUSH 40\t\t\trie doesn't exist\");\\n        ...\n              MLOAD \t\t\trie doesn't exist\");\\n        ...\n              DUP1 \t\t\trie doesn't exist\");\\n        ...\n              SWAP2 \t\t\trie doesn't exist\");\\n        ...\n              SUB \t\t\trie doesn't exist\");\\n        ...\n              SWAP1 \t\t\trie doesn't exist\");\\n        ...\n              RETURN \t\t\trie doesn't exist\");\\n        ...\n            tag 6\t\t\tyFactory {\\n\\n\\n    map\n              JUMPDEST \t\t\tyFactory {\\n\\n\\n    map\n              CALLVALUE \t\t\tyFactory {\\n\\n\\n    map\n              DUP1 \t\t\tyFactory {\\n\\n\\n    map\n              ISZERO \t\t\tyFactory {\\n\\n\\n    map\n              PUSH [tag] 27\t\t\tyFactory {\\n\\n\\n    map\n              JUMPI \t\t\tyFactory {\\n\\n\\n    map\n              PUSH 0\t\t\tyFactory {\\n\\n\\n    map\n              PUSH 0\t\t\tyFactory {\\n\\n\\n    map\n              REVERT \t\t\tyFactory {\\n\\n\\n    map\n            tag 27\t\t\tyFactory {\\n\\n\\n    map\n              JUMPDEST \t\t\tyFactory {\\n\\n\\n    map\n              POP \t\t\tyFactory {\\n\\n\\n    map\n              PUSH [tag] 28\t\t\tyFactory {\\n\\n\\n    map\n              PUSH [tag] 29\t\t\tyFactory {\\n\\n\\n    map\n              JUMP \t\t\tyFactory {\\n\\n\\n    map\n            tag 28\t\t\tyFactory {\\n\\n\\n    map\n              JUMPDEST \t\t\tyFactory {\\n\\n\\n    map\n              PUSH 40\t\t\tyFactory {\\n\\n\\n    map\n              MLOAD \t\t\tyFactory {\\n\\n\\n    map\n              PUSH [tag] 30\t\t\tyFactory {\\n\\n\\n    map\n              SWAP2 \t\t\tyFactory {\\n\\n\\n    map\n              SWAP1 \t\t\tyFactory {\\n\\n\\n    map\n              PUSH [tag] 22\t\t\tyFactory {\\n\\n\\n    map\n              JUMP \t\t\tyFactory {\\n\\n\\n    map\n            tag 30\t\t\tyFactory {\\n\\n\\n    map\n              JUMPDEST \t\t\tyFactory {\\n\\n\\n    map\n              PUSH 40\t\t\tyFactory {\\n\\n\\n    map\n              MLOAD \t\t\tyFactory {\\n\\n\\n    map\n              DUP1 \t\t\tyFactory {\\n\\n\\n    map\n              SWAP2 \t\t\tyFactory {\\n\\n\\n    map\n              SUB \t\t\tyFactory {\\n\\n\\n    map\n              SWAP1 \t\t\tyFactory {\\n\\n\\n    map\n              RETURN \t\t\tyFactory {\\n\\n\\n    map\n            tag 7\t\t\tew Loterie(fee, _name);\\n     ...\n              JUMPDEST \t\t\tew Loterie(fee, _name);\\n     ...\n              PUSH [tag] 31\t\t\tew Loterie(fee, _name);\\n     ...\n              PUSH [tag] 32\t\t\tew Loterie(fee, _name);\\n     ...\n              JUMP \t\t\tew Loterie(fee, _name);\\n     ...\n            tag 31\t\t\tew Loterie(fee, _name);\\n     ...\n              JUMPDEST \t\t\tew Loterie(fee, _name);\\n     ...\n              STOP \t\t\tew Loterie(fee, _name);\\n     ...\n            tag 10\t\t\tire(msg.sender == owner, \"Only...\n              JUMPDEST \t\t\tire(msg.sender == owner, \"Only...\n              PUSH 60\t\t\t can add a lo\n              PUSH 2\t\t\tteri\n              DUP1 \t\t\t     Loteri\n              SLOAD \t\t\t     Loteri\n              PUSH [tag] 34\t\t\t     Loteri\n              SWAP1 \t\t\t     Loteri\n              PUSH [tag] 35\t\t\t     Loteri\n              JUMP \t\t\t     Loteri\n            tag 34\t\t\t     Loteri\n              JUMPDEST \t\t\t     Loteri\n              DUP1 \t\t\t     Loteri\n              PUSH 1F\t\t\t     Loteri\n              ADD \t\t\t     Loteri\n              PUSH 20\t\t\t     Loteri\n              DUP1 \t\t\t     Loteri\n              SWAP2 \t\t\t     Loteri\n              DIV \t\t\t     Loteri\n              MUL \t\t\t     Loteri\n              PUSH 20\t\t\t     Loteri\n              ADD \t\t\t     Loteri\n              PUSH 40\t\t\t     Loteri\n              MLOAD \t\t\t     Loteri\n              SWAP1 \t\t\t     Loteri\n              DUP2 \t\t\t     Loteri\n              ADD \t\t\t     Loteri\n              PUSH 40\t\t\t     Loteri\n              MSTORE \t\t\t     Loteri\n              DUP1 \t\t\t     Loteri\n              SWAP3 \t\t\t     Loteri\n              SWAP2 \t\t\t     Loteri\n              SWAP1 \t\t\t     Loteri\n              DUP2 \t\t\t     Loteri\n              DUP2 \t\t\t     Loteri\n              MSTORE \t\t\t     Loteri\n              PUSH 20\t\t\t     Loteri\n              ADD \t\t\t     Loteri\n              DUP3 \t\t\t     Loteri\n              DUP1 \t\t\t     Loteri\n              SLOAD \t\t\t     Loteri\n              PUSH [tag] 36\t\t\t     Loteri\n              SWAP1 \t\t\t     Loteri\n              PUSH [tag] 35\t\t\t     Loteri\n              JUMP \t\t\t     Loteri\n            tag 36\t\t\t     Loteri\n              JUMPDEST \t\t\t     Loteri\n              DUP1 \t\t\t     Loteri\n              ISZERO \t\t\t     Loteri\n              PUSH [tag] 37\t\t\t     Loteri\n              JUMPI \t\t\t     Loteri\n              DUP1 \t\t\t     Loteri\n              PUSH 1F\t\t\t     Loteri\n              LT \t\t\t     Loteri\n              PUSH [tag] 38\t\t\t     Loteri\n              JUMPI \t\t\t     Loteri\n              PUSH 100\t\t\t     Loteri\n              DUP1 \t\t\t     Loteri\n              DUP4 \t\t\t     Loteri\n              SLOAD \t\t\t     Loteri\n              DIV \t\t\t     Loteri\n              MUL \t\t\t     Loteri\n              DUP4 \t\t\t     Loteri\n              MSTORE \t\t\t     Loteri\n              SWAP2 \t\t\t     Loteri\n              PUSH 20\t\t\t     Loteri\n              ADD \t\t\t     Loteri\n              SWAP2 \t\t\t     Loteri\n              PUSH [tag] 37\t\t\t     Loteri\n              JUMP \t\t\t     Loteri\n            tag 38\t\t\t     Loteri\n              JUMPDEST \t\t\t     Loteri\n              DUP3 \t\t\t     Loteri\n              ADD \t\t\t     Loteri\n              SWAP2 \t\t\t     Loteri\n              SWAP1 \t\t\t     Loteri\n              PUSH 0\t\t\t     Loteri\n              MSTORE \t\t\t     Loteri\n              PUSH 20\t\t\t     Loteri\n              PUSH 0\t\t\t     Loteri\n              KECCAK256 \t\t\t     Loteri\n              SWAP1 \t\t\t     Loteri\n            tag 39\t\t\t     Loteri\n              JUMPDEST \t\t\t     Loteri\n              DUP2 \t\t\t     Loteri\n              SLOAD \t\t\t     Loteri\n              DUP2 \t\t\t     Loteri\n              MSTORE \t\t\t     Loteri\n              SWAP1 \t\t\t     Loteri\n              PUSH 1\t\t\t     Loteri\n              ADD \t\t\t     Loteri\n              SWAP1 \t\t\t     Loteri\n              PUSH 20\t\t\t     Loteri\n              ADD \t\t\t     Loteri\n              DUP1 \t\t\t     Loteri\n              DUP4 \t\t\t     Loteri\n              GT \t\t\t     Loteri\n              PUSH [tag] 39\t\t\t     Loteri\n              JUMPI \t\t\t     Loteri\n              DUP3 \t\t\t     Loteri\n              SWAP1 \t\t\t     Loteri\n              SUB \t\t\t     Loteri\n              PUSH 1F\t\t\t     Loteri\n              AND \t\t\t     Loteri\n              DUP3 \t\t\t     Loteri\n              ADD \t\t\t     Loteri\n              SWAP2 \t\t\t     Loteri\n            tag 37\t\t\t     Loteri\n              JUMPDEST \t\t\t     Loteri\n              POP \t\t\t     Loteri\n              POP \t\t\t     Loteri\n              POP \t\t\t     Loteri\n              POP \t\t\t     Loteri\n              POP \t\t\t     Loteri\n              SWAP1 \t\t\t     Loteri\n              POP \t\t\t     Loteri\n              SWAP1 \t\t\tire(msg.sender == owner, \"Only...\n              JUMP \t\t\tire(msg.sender == owner, \"Only...\n            tag 15\t\t\t       address winner = loteri...\n              JUMPDEST \t\t\t       address winner = loteri...\n              PUSH 0\t\t\tie].ran\n              PUSH 4\t\t\t;\\n   \n              PUSH 0\t\t\t;\\n   \n              SWAP1 \t\t\t;\\n   \n              SLOAD \t\t\t;\\n   \n              SWAP1 \t\t\t;\\n   \n              PUSH 100\t\t\t;\\n   \n              EXP \t\t\t;\\n   \n              SWAP1 \t\t\t;\\n   \n              DIV \t\t\t;\\n   \n              PUSH FFFFFFFFFFFFFFFFFFFFFFFFFFFFFFFFFFFFFFFF\t\t\t;\\n   \n              AND \t\t\t;\\n   \n              PUSH FFFFFFFFFFFFFFFFFFFFFFFFFFFFFFFFFFFFFFFF\t\t\treturn winner;\\n   \n              AND \t\t\treturn winner;\\n   \n              ORIGIN \t\t\treturn wi\n              PUSH FFFFFFFFFFFFFFFFFFFFFFFFFFFFFFFFFFFFFFFF\t\t\treturn winner;\\n   \n              AND \t\t\treturn winner;\\n   \n              EQ \t\t\treturn winner;\\n   \n              PUSH [tag] 41\t\t\t        return winner;\\n    }\\...\n              JUMPI \t\t\t        return winner;\\n    }\\...\n              PUSH 40\t\t\t        return winner;\\n    }\\...\n              MLOAD \t\t\t        return winner;\\n    }\\...\n              PUSH 8C379A000000000000000000000000000000000000000000000000000000000\t\t\t        return winner;\\n    }\\...\n              DUP2 \t\t\t        return winner;\\n    }\\...\n              MSTORE \t\t\t        return winner;\\n    }\\...\n              PUSH 4\t\t\t        return winner;\\n    }\\...\n              ADD \t\t\t        return winner;\\n    }\\...\n              PUSH [tag] 42\t\t\t        return winner;\\n    }\\...\n              SWAP1 \t\t\t        return winner;\\n    }\\...\n              PUSH [tag] 43\t\t\t        return winner;\\n    }\\...\n              JUMP \t\t\t        return winner;\\n    }\\...\n            tag 42\t\t\t        return winner;\\n    }\\...\n              JUMPDEST \t\t\t        return winner;\\n    }\\...\n              PUSH 40\t\t\t        return winner;\\n    }\\...\n              MLOAD \t\t\t        return winner;\\n    }\\...\n              DUP1 \t\t\t        return winner;\\n    }\\...\n              SWAP2 \t\t\t        return winner;\\n    }\\...\n              SUB \t\t\t        return winner;\\n    }\\...\n              SWAP1 \t\t\t        return winner;\\n    }\\...\n              REVERT \t\t\t        return winner;\\n    }\\...\n            tag 41\t\t\t        return winner;\\n    }\\...\n              JUMPDEST \t\t\t        return winner;\\n    }\\...\n              PUSH 2\t\t\tg\n              PUSH 3\t\t\tic view retu\n              DUP1 \t\t\tic view returns (st\n              SLOAD \t\t\tic view returns (st\n              SWAP1 \t\t\tic view returns (st\n              POP \t\t\tic view returns (st\n              GT \t\t\tic view returns (string\n              PUSH [tag] 44\t\t\tie) public view returns (strin...\n              JUMPI \t\t\tie) public view returns (strin...\n              PUSH 40\t\t\tie) public view returns (strin...\n              MLOAD \t\t\tie) public view returns (strin...\n              PUSH 8C379A000000000000000000000000000000000000000000000000000000000\t\t\tie) public view returns (strin...\n              DUP2 \t\t\tie) public view returns (strin...\n              MSTORE \t\t\tie) public view returns (strin...\n              PUSH 4\t\t\tie) public view returns (strin...\n              ADD \t\t\tie) public view returns (strin...\n              PUSH [tag] 45\t\t\tie) public view returns (strin...\n              SWAP1 \t\t\tie) public view returns (strin...\n              PUSH [tag] 46\t\t\tie) public view returns (strin...\n              JUMP \t\t\tie) public view returns (strin...\n            tag 45\t\t\tie) public view returns (strin...\n              JUMPDEST \t\t\tie) public view returns (strin...\n              PUSH 40\t\t\tie) public view returns (strin...\n              MLOAD \t\t\tie) public view returns (strin...\n              DUP1 \t\t\tie) public view returns (strin...\n              SWAP2 \t\t\tie) public view returns (strin...\n              SUB \t\t\tie) public view returns (strin...\n              SWAP1 \t\t\tie) public view returns (strin...\n              REVERT \t\t\tie) public view returns (strin...\n            tag 44\t\t\tie) public view returns (strin...\n              JUMPDEST \t\t\tie) public view returns (strin...\n              PUSH 0\t\t\tn't exist\");\\n \n              PUSH 3\t\t\t    return l\n              PUSH [tag] 47\t\t\tteries[loterie].getName();\\n\n              PUSH 3\t\t\tloterie].get\n              DUP1 \t\t\tloterie].getName();\n              SLOAD \t\t\tloterie].getName();\n              SWAP1 \t\t\tloterie].getName();\n              POP \t\t\tloterie].getName();\n              PUSH [tag] 48\t\t\tteries\n              JUMP \t\t\tteries[loterie].getName();\\n\n            tag 47\t\t\tteries[loterie].getName();\\n\n              JUMPDEST \t\t\tteries[loterie].getName();\\n\n              DUP2 \t\t\t    return loteries[loterie].g...\n              SLOAD \t\t\t    return loteries[loterie].g...\n              DUP2 \t\t\t    return loteries[loterie].g...\n              LT \t\t\t    return loteries[loterie].g...\n              PUSH [tag] 49\t\t\t    return loteries[loterie].g...\n              JUMPI \t\t\t    return loteries[loterie].g...\n              PUSH [tag] 50\t\t\t    return loteries[loterie].g...\n              PUSH [tag] 51\t\t\t    return loteries[loterie].g...\n              JUMP \t\t\t    return loteries[loterie].g...\n            tag 50\t\t\t    return loteries[loterie].g...\n              JUMPDEST \t\t\t    return loteries[loterie].g...\n            tag 49\t\t\t    return loteries[loterie].g...\n              JUMPDEST \t\t\t    return loteries[loterie].g...\n              SWAP1 \t\t\t    return loteries[loterie].g...\n              PUSH 0\t\t\t    return loteries[loterie].g...\n              MSTORE \t\t\t    return loteries[loterie].g...\n              PUSH 20\t\t\t    return loteries[loterie].g...\n              PUSH 0\t\t\t    return loteries[loterie].g...\n              KECCAK256 \t\t\t    return loteries[loterie].g...\n              ADD \t\t\t    return loteries[loterie].g...\n              PUSH 0\t\t\t    return loteries[loterie].g...\n              SWAP1 \t\t\t    return loteries[loterie].g...\n              SLOAD \t\t\t    return loteries[loterie].g...\n              SWAP1 \t\t\t    return loteries[loterie].g...\n              PUSH 100\t\t\t    return loteries[loterie].g...\n              EXP \t\t\t    return loteries[loterie].g...\n              SWAP1 \t\t\t    return loteries[loterie].g...\n              DIV \t\t\t    return loteries[loterie].g...\n              PUSH FFFFFFFFFFFFFFFFFFFFFFFFFFFFFFFFFFFFFFFF\t\t\t    return loteries[loterie].g...\n              AND \t\t\t    return loteries[loterie].g...\n              SWAP1 \t\t\tn't exist\");\\n        return l...\n              POP \t\t\tn't exist\");\\n        return l...\n              DUP1 \t\t\ttion g\n              PUSH FFFFFFFFFFFFFFFFFFFFFFFFFFFFFFFFFFFFFFFF\t\t\t    function getSolde(ad\n              AND \t\t\t    function getSolde(ad\n              PUSH 8FC\t\t\t    function getSolde(address ...\n              SELFBALANCE \t\t\tress loterie) public \n              SWAP1 \t\t\t    function getSolde(address ...\n              DUP2 \t\t\t    function getSolde(address ...\n              ISZERO \t\t\t    function getSolde(address ...\n              MUL \t\t\t    function getSolde(address ...\n              SWAP1 \t\t\t    function getSolde(address ...\n              PUSH 40\t\t\t    function getSolde(address ...\n              MLOAD \t\t\t    function getSolde(address ...\n              PUSH 0\t\t\t    function getSolde(address ...\n              PUSH 40\t\t\t    function getSolde(address ...\n              MLOAD \t\t\t    function getSolde(address ...\n              DUP1 \t\t\t    function getSolde(address ...\n              DUP4 \t\t\t    function getSolde(address ...\n              SUB \t\t\t    function getSolde(address ...\n              DUP2 \t\t\t    function getSolde(address ...\n              DUP6 \t\t\t    function getSolde(address ...\n              DUP9 \t\t\t    function getSolde(address ...\n              DUP9 \t\t\t    function getSolde(address ...\n              CALL \t\t\t    function getSolde(address ...\n              SWAP4 \t\t\t    function getSolde(address ...\n              POP \t\t\t    function getSolde(address ...\n              POP \t\t\t    function getSolde(address ...\n              POP \t\t\t    function getSolde(address ...\n              POP \t\t\t    function getSolde(address ...\n              ISZERO \t\t\t    function getSolde(address ...\n              DUP1 \t\t\t    function getSolde(address ...\n              ISZERO \t\t\t    function getSolde(address ...\n              PUSH [tag] 54\t\t\t    function getSolde(address ...\n              JUMPI \t\t\t    function getSolde(address ...\n              RETURNDATASIZE \t\t\t    function getSolde(address ...\n              PUSH 0\t\t\t    function getSolde(address ...\n              PUSH 0\t\t\t    function getSolde(address ...\n              RETURNDATACOPY \t\t\t    function getSolde(address ...\n              RETURNDATASIZE \t\t\t    function getSolde(address ...\n              PUSH 0\t\t\t    function getSolde(address ...\n              REVERT \t\t\t    function getSolde(address ...\n            tag 54\t\t\t    function getSolde(address ...\n              JUMPDEST \t\t\t    function getSolde(address ...\n              POP \t\t\t    function getSolde(address ...\n              PUSH 3\t\t\t {\\n        r\n              PUSH 0\t\t\t {\\n        r\n              PUSH [tag] 55\t\t\t (uint) {\\n        r\n              SWAP2 \t\t\t (uint) {\\n        r\n              SWAP1 \t\t\t (uint) {\\n        r\n              PUSH [tag] 56\t\t\t (uint) {\\n        r\n              JUMP \t\t\t (uint) {\\n        r\n            tag 55\t\t\t (uint) {\\n        r\n              JUMPDEST \t\t\t (uint) {\\n        r\n              DUP1 \t\t\tress(l\n              SWAP2 \t\t\tainsAddress(l\n              POP \t\t\tainsAddress(l\n              POP \t\t\tainsAddress(l\n              SWAP1 \t\t\t       address winner = loteri...\n              JUMP \t\t\t       address winner = loteri...\n            tag 20\t\t\te].getPrice();\\n    }\\n\\n    f...\n              JUMPDEST \t\t\te].getPrice();\\n    }\\n\\n    f...\n              PUSH 0\t\t\terie\n              SELFBALANCE \t\t\temory _name) public {\n              SWAP1 \t\t\ttring memory _name) public {\n              POP \t\t\ttring memory _name) public {\n              SWAP1 \t\t\te].getPrice();\\n    }\\n\\n    f...\n              JUMP \t\t\te].getPrice();\\n    }\\n\\n    f...\n            tag 25\t\t\trie doesn't exist\");\\n        ...\n              JUMPDEST \t\t\trie doesn't exist\");\\n        ...\n              PUSH 0\t\t\ties[lot\n              PUSH 1\t\t\t   }\\n\n              SLOAD \t\t\t   }\\n\n              SWAP1 \t\t\tde();\\n    }\\n\n              POP \t\t\tde();\\n    }\\n\n              SWAP1 \t\t\trie doesn't exist\");\\n        ...\n              JUMP \t\t\trie doesn't exist\");\\n        ...\n            tag 29\t\t\tyFactory {\\n\\n\\n    map\n              JUMPDEST \t\t\tyFactory {\\n\\n\\n    map\n              PUSH 1\t\t\tyFactory {\\n\\n\\n    map\n              SLOAD \t\t\tyFactory {\\n\\n\\n    map\n              DUP2 \t\t\tyFactory {\\n\\n\\n    map\n              JUMP \t\t\tyFactory {\\n\\n\\n    map\n            tag 32\t\t\tew Loterie(fee, _name);\\n     ...\n              JUMPDEST \t\t\tew Loterie(fee, _name);\\n     ...\n              PUSH 4\t\t\t     \n              PUSH 0\t\t\t     \n              SWAP1 \t\t\t     \n              SLOAD \t\t\t     \n              SWAP1 \t\t\t     \n              PUSH 100\t\t\t     \n              EXP \t\t\t     \n              SWAP1 \t\t\t     \n              DIV \t\t\t     \n              PUSH FFFFFFFFFFFFFFFFFFFFFFFFFFFFFFFFFFFFFFFF\t\t\t     \n              AND \t\t\t     \n              PUSH FFFFFFFFFFFFFFFFFFFFFFFFFFFFFFFFFFFFFFFF\t\t\toterie));\\n        \n              AND \t\t\toterie));\\n        \n              ORIGIN \t\t\toterie));\n              PUSH FFFFFFFFFFFFFFFFFFFFFFFFFFFFFFFFFFFFFFFF\t\t\toterie));\\n        \n              AND \t\t\toterie));\\n        \n              SUB \t\t\toterie));\\n        \n              PUSH [tag] 60\t\t\tddress(loterie));\\n        lot...\n              JUMPI \t\t\tddress(loterie));\\n        lot...\n              PUSH 40\t\t\tddress(loterie));\\n        lot...\n              MLOAD \t\t\tddress(loterie));\\n        lot...\n              PUSH 8C379A000000000000000000000000000000000000000000000000000000000\t\t\tddress(loterie));\\n        lot...\n              DUP2 \t\t\tddress(loterie));\\n        lot...\n              MSTORE \t\t\tddress(loterie));\\n        lot...\n              PUSH 4\t\t\tddress(loterie));\\n        lot...\n              ADD \t\t\tddress(loterie));\\n        lot...\n              PUSH [tag] 61\t\t\tddress(loterie));\\n        lot...\n              SWAP1 \t\t\tddress(loterie));\\n        lot...\n              PUSH [tag] 62\t\t\tddress(loterie));\\n        lot...\n              JUMP \t\t\tddress(loterie));\\n        lot...\n            tag 61\t\t\tddress(loterie));\\n        lot...\n              JUMPDEST \t\t\tddress(loterie));\\n        lot...\n              PUSH 40\t\t\tddress(loterie));\\n        lot...\n              MLOAD \t\t\tddress(loterie));\\n        lot...\n              DUP1 \t\t\tddress(loterie));\\n        lot...\n              SWAP2 \t\t\tddress(loterie));\\n        lot...\n              SUB \t\t\tddress(loterie));\\n        lot...\n              SWAP1 \t\t\tddress(loterie));\\n        lot...\n              REVERT \t\t\tddress(loterie));\\n        lot...\n            tag 60\t\t\tddress(loterie));\\n        lot...\n              JUMPDEST \t\t\tddress(loterie));\\n        lot...\n              PUSH 1\t\t\tconta\n              SLOAD \t\t\tconta\n              CALLVALUE \t\t\t    funct\n              EQ \t\t\t    function conta\n              PUSH [tag] 63\t\t\t\\n    }\\n\\n    function contai...\n              JUMPI \t\t\t\\n    }\\n\\n    function contai...\n              PUSH 40\t\t\t\\n    }\\n\\n    function contai...\n              MLOAD \t\t\t\\n    }\\n\\n    function contai...\n              PUSH 8C379A000000000000000000000000000000000000000000000000000000000\t\t\t\\n    }\\n\\n    function contai...\n              DUP2 \t\t\t\\n    }\\n\\n    function contai...\n              MSTORE \t\t\t\\n    }\\n\\n    function contai...\n              PUSH 4\t\t\t\\n    }\\n\\n    function contai...\n              ADD \t\t\t\\n    }\\n\\n    function contai...\n              PUSH [tag] 64\t\t\t\\n    }\\n\\n    function contai...\n              SWAP1 \t\t\t\\n    }\\n\\n    function contai...\n              PUSH [tag] 65\t\t\t\\n    }\\n\\n    function contai...\n              JUMP \t\t\t\\n    }\\n\\n    function contai...\n            tag 64\t\t\t\\n    }\\n\\n    function contai...\n              JUMPDEST \t\t\t\\n    }\\n\\n    function contai...\n              PUSH 40\t\t\t\\n    }\\n\\n    function contai...\n              MLOAD \t\t\t\\n    }\\n\\n    function contai...\n              DUP1 \t\t\t\\n    }\\n\\n    function contai...\n              SWAP2 \t\t\t\\n    }\\n\\n    function contai...\n              SUB \t\t\t\\n    }\\n\\n    function contai...\n              SWAP1 \t\t\t\\n    }\\n\\n    function contai...\n              REVERT \t\t\t\\n    }\\n\\n    function contai...\n            tag 63\t\t\t\\n    }\\n\\n    function contai...\n              JUMPDEST \t\t\t\\n    }\\n\\n    function contai...\n              PUSH 0\t\t\t; i < addresses.length; i\n              PUSH 0\t\t\t {\\n  \n              SWAP1 \t\t\t; i < addresses.length; i++) {...\n              POP \t\t\t; i < addresses.length; i++) {...\n              PUSH 0\t\t\tdresses[i\n              PUSH 0\t\t\t=\n              SWAP1 \t\t\tdresses[i] ==\n              POP \t\t\tdresses[i] ==\n            tag 66\t\t\tf (addresses[i] == loterie) {\\...\n              JUMPDEST \t\t\tf (addresses[i] == loterie) {\\...\n              PUSH 3\t\t\tie) {\\n      \n              DUP1 \t\t\tie) {\\n             \n              SLOAD \t\t\tie) {\\n             \n              SWAP1 \t\t\tie) {\\n             \n              POP \t\t\tie) {\\n             \n              DUP2 \t\t\to\n              LT \t\t\toterie) {\\n             \n              ISZERO \t\t\tf (addresses[i] == loterie) {\\...\n              PUSH [tag] 67\t\t\tf (addresses[i] == loterie) {\\...\n              JUMPI \t\t\tf (addresses[i] == loterie) {\\...\n              ORIGIN \t\t\t    retur\n              PUSH FFFFFFFFFFFFFFFFFFFFFFFFFFFFFFFFFFFFFFFF\t\t\t   }\\n        }\\n        retur\n              AND \t\t\t   }\\n        }\\n        retur\n              PUSH 3\t\t\t   }\\n       \n              DUP3 \t\t\t}\n              DUP2 \t\t\t   }\\n        }\\n\n              SLOAD \t\t\t   }\\n        }\\n\n              DUP2 \t\t\t   }\\n        }\\n\n              LT \t\t\t   }\\n        }\\n\n              PUSH [tag] 69\t\t\t   }\\n        }\\n\n              JUMPI \t\t\t   }\\n        }\\n\n              PUSH [tag] 70\t\t\t   }\\n        }\\n\n              PUSH [tag] 51\t\t\t   }\\n        }\\n\n              JUMP \t\t\t   }\\n        }\\n\n            tag 70\t\t\t   }\\n        }\\n\n              JUMPDEST \t\t\t   }\\n        }\\n\n            tag 69\t\t\t   }\\n        }\\n\n              JUMPDEST \t\t\t   }\\n        }\\n\n              SWAP1 \t\t\t   }\\n        }\\n\n              PUSH 0\t\t\t   }\\n        }\\n\n              MSTORE \t\t\t   }\\n        }\\n\n              PUSH 20\t\t\t   }\\n        }\\n\n              PUSH 0\t\t\t   }\\n        }\\n\n              KECCAK256 \t\t\t   }\\n        }\\n\n              ADD \t\t\t   }\\n        }\\n\n              PUSH 0\t\t\t   }\\n        }\\n\n              SWAP1 \t\t\t   }\\n        }\\n\n              SLOAD \t\t\t   }\\n        }\\n\n              SWAP1 \t\t\t   }\\n        }\\n\n              PUSH 100\t\t\t   }\\n        }\\n\n              EXP \t\t\t   }\\n        }\\n\n              SWAP1 \t\t\t   }\\n        }\\n\n              DIV \t\t\t   }\\n        }\\n\n              PUSH FFFFFFFFFFFFFFFFFFFFFFFFFFFFFFFFFFFFFFFF\t\t\t   }\\n        }\\n\n              AND \t\t\t   }\\n        }\\n\n              PUSH FFFFFFFFFFFFFFFFFFFFFFFFFFFFFFFFFFFFFFFF\t\t\t   }\\n        }\\n        retur\n              AND \t\t\t   }\\n        }\\n        retur\n              SUB \t\t\t   }\\n        }\\n        retur\n              PUSH [tag] 72\t\t\t       }\\n        }\\n        r...\n              JUMPI \t\t\t       }\\n        }\\n        r...\n              PUSH 1\t\t\tpubl\n              SWAP2 \t\t\tfunction getLoteries() publ\n              POP \t\t\tfunction getLoteries() publ\n              PUSH [tag] 67\t\t\tddres\n              JUMP \t\t\tddres\n            tag 72\t\t\t       }\\n        }\\n        r...\n              JUMPDEST \t\t\t       }\\n        }\\n        r...\n              DUP1 \t\t\t re\n              DUP1 \t\t\t re\n              PUSH 1\t\t\t re\n              ADD \t\t\t re\n              SWAP2 \t\t\t re\n              POP \t\t\t re\n              POP \t\t\t re\n              PUSH [tag] 66\t\t\tf (addresses[i] == loterie) {\\...\n              JUMP \t\t\tf (addresses[i] == loterie) {\\...\n            tag 67\t\t\tf (addresses[i] == loterie) {\\...\n              JUMPDEST \t\t\tf (addresses[i] == loterie) {\\...\n              POP \t\t\tf (addresses[i] == loterie) {\\...\n              DUP1 \t\t\tng[] memory names = \n              ISZERO \t\t\ting[] memory names = \n              PUSH [tag] 73\t\t\t     string[] memory names = n...\n              JUMPI \t\t\t     string[] memory names = n...\n              PUSH 40\t\t\t     string[] memory names = n...\n              MLOAD \t\t\t     string[] memory names = n...\n              PUSH 8C379A000000000000000000000000000000000000000000000000000000000\t\t\t     string[] memory names = n...\n              DUP2 \t\t\t     string[] memory names = n...\n              MSTORE \t\t\t     string[] memory names = n...\n              PUSH 4\t\t\t     string[] memory names = n...\n              ADD \t\t\t     string[] memory names = n...\n              PUSH [tag] 74\t\t\t     string[] memory names = n...\n              SWAP1 \t\t\t     string[] memory names = n...\n              PUSH [tag] 75\t\t\t     string[] memory names = n...\n              JUMP \t\t\t     string[] memory names = n...\n            tag 74\t\t\t     string[] memory names = n...\n              JUMPDEST \t\t\t     string[] memory names = n...\n              PUSH 40\t\t\t     string[] memory names = n...\n              MLOAD \t\t\t     string[] memory names = n...\n              DUP1 \t\t\t     string[] memory names = n...\n              SWAP2 \t\t\t     string[] memory names = n...\n              SUB \t\t\t     string[] memory names = n...\n              SWAP1 \t\t\t     string[] memory names = n...\n              REVERT \t\t\t     string[] memory names = n...\n            tag 73\t\t\t     string[] memory names = n...\n              JUMPDEST \t\t\t     string[] memory names = n...\n              PUSH 3\t\t\tsses.length;\n              ORIGIN \t\t\t{\\n       \n              SWAP1 \t\t\tsses.length; i++) {\\n        \n              DUP1 \t\t\tsses.length; i++) {\\n        \n              PUSH 1\t\t\tsses.length; i++) {\\n        \n              DUP2 \t\t\tsses.length; i++) {\\n        \n              SLOAD \t\t\tsses.length; i++) {\\n        \n              ADD \t\t\tsses.length; i++) {\\n        \n              DUP1 \t\t\tsses.length; i++) {\\n        \n              DUP3 \t\t\tsses.length; i++) {\\n        \n              SSTORE \t\t\tsses.length; i++) {\\n        \n              DUP1 \t\t\tsses.length; i++) {\\n        \n              SWAP2 \t\t\tsses.length; i++) {\\n        \n              POP \t\t\tsses.length; i++) {\\n        \n              POP \t\t\tsses.length; i++) {\\n        \n              PUSH 1\t\t\tsses.length; i++) {\\n        \n              SWAP1 \t\t\tsses.length; i++) {\\n        \n              SUB \t\t\tsses.length; i++) {\\n        \n              SWAP1 \t\t\tsses.length; i++) {\\n        \n              PUSH 0\t\t\tsses.length; i++) {\\n        \n              MSTORE \t\t\tsses.length; i++) {\\n        \n              PUSH 20\t\t\tsses.length; i++) {\\n        \n              PUSH 0\t\t\tsses.length; i++) {\\n        \n              KECCAK256 \t\t\tsses.length; i++) {\\n        \n              ADD \t\t\tsses.length; i++) {\\n        \n              PUSH 0\t\t\tsses.length; i++) {\\n        \n              SWAP1 \t\t\tsses.length; i++) {\\n        \n              SWAP2 \t\t\tsses.length; i++) {\\n        \n              SWAP1 \t\t\tsses.length; i++) {\\n        \n              SWAP2 \t\t\tsses.length; i++) {\\n        \n              SWAP1 \t\t\tsses.length; i++) {\\n        \n              SWAP2 \t\t\tsses.length; i++) {\\n        \n              PUSH 100\t\t\tsses.length; i++) {\\n        \n              EXP \t\t\tsses.length; i++) {\\n        \n              DUP2 \t\t\tsses.length; i++) {\\n        \n              SLOAD \t\t\tsses.length; i++) {\\n        \n              DUP2 \t\t\tsses.length; i++) {\\n        \n              PUSH FFFFFFFFFFFFFFFFFFFFFFFFFFFFFFFFFFFFFFFF\t\t\tsses.length; i++) {\\n        \n              MUL \t\t\tsses.length; i++) {\\n        \n              NOT \t\t\tsses.length; i++) {\\n        \n              AND \t\t\tsses.length; i++) {\\n        \n              SWAP1 \t\t\tsses.length; i++) {\\n        \n              DUP4 \t\t\tsses.length; i++) {\\n        \n              PUSH FFFFFFFFFFFFFFFFFFFFFFFFFFFFFFFFFFFFFFFF\t\t\tsses.length; i++) {\\n        \n              AND \t\t\tsses.length; i++) {\\n        \n              MUL \t\t\tsses.length; i++) {\\n        \n              OR \t\t\tsses.length; i++) {\\n        \n              SWAP1 \t\t\tsses.length; i++) {\\n        \n              SSTORE \t\t\tsses.length; i++) {\\n        \n              POP \t\t\tsses.length; i++) {\\n        \n              POP \t\t\tses.push(address(loterie));\\n ...\n              JUMP \t\t\tew Loterie(fee, _name);\\n     ...\n            tag 48\t\t\t participate(address loterie) ...\n              JUMPDEST \t\t\t participate(address loterie) ...\n              PUSH 0\t\t\t    \n              PUSH 0\t\t\tontainsAd\n              PUSH 0\t\t\tontainsAd\n              DUP2 \t\t\tontainsAddr\n              SLOAD \t\t\tontainsAddr\n              DUP1 \t\t\tontainsAddr\n              SWAP3 \t\t\tontainsAddr\n              SWAP2 \t\t\tontainsAddr\n              SWAP1 \t\t\tontainsAddr\n              PUSH [tag] 78\t\t\tontainsAddr\n              SWAP1 \t\t\tontainsAddr\n              PUSH [tag] 79\t\t\tontainsAddr\n              JUMP \t\t\tontainsAddr\n            tag 78\t\t\tontainsAddr\n              JUMPDEST \t\t\tontainsAddr\n              SWAP2 \t\t\tontainsAddr\n              SWAP1 \t\t\tontainsAddr\n              POP \t\t\tontainsAddr\n              SSTORE \t\t\tontainsAddr\n              POP \t\t\tontainsAddr\n              DUP2 \t\t\t   retur\n              TIMESTAMP \t\t\t returns (uint2\n              ORIGIN \t\t\t) {\\n     \n              PUSH 0\t\t\tress(lote\n              SLOAD \t\t\tress(lote\n              PUSH 40\t\t\terie) public view returns (uin...\n              MLOAD \t\t\terie) public view returns (uin...\n              PUSH 20\t\t\terie) public view returns (uin...\n              ADD \t\t\terie) public view returns (uin...\n              PUSH [tag] 80\t\t\terie) public view returns (uin...\n              SWAP4 \t\t\terie) public view returns (uin...\n              SWAP3 \t\t\terie) public view returns (uin...\n              SWAP2 \t\t\terie) public view returns (uin...\n              SWAP1 \t\t\terie) public view returns (uin...\n              PUSH [tag] 81\t\t\terie) public view returns (uin...\n              JUMP \t\t\terie) public view returns (uin...\n            tag 80\t\t\terie) public view returns (uin...\n              JUMPDEST \t\t\terie) public view returns (uin...\n              PUSH 40\t\t\terie) public view returns (uin...\n              MLOAD \t\t\terie) public view returns (uin...\n              PUSH 20\t\t\terie) public view returns (uin...\n              DUP2 \t\t\terie) public view returns (uin...\n              DUP4 \t\t\terie) public view returns (uin...\n              SUB \t\t\terie) public view returns (uin...\n              SUB \t\t\terie) public view returns (uin...\n              DUP2 \t\t\terie) public view returns (uin...\n              MSTORE \t\t\terie) public view returns (uin...\n              SWAP1 \t\t\terie) public view returns (uin...\n              PUSH 40\t\t\terie) public view returns (uin...\n              MSTORE \t\t\terie) public view returns (uin...\n              DUP1 \t\t\t  function getPrice(address lo...\n              MLOAD \t\t\t  function getPrice(address lo...\n              SWAP1 \t\t\t  function getPrice(address lo...\n              PUSH 20\t\t\t  function getPrice(address lo...\n              ADD \t\t\t  function getPrice(address lo...\n              KECCAK256 \t\t\t  function getPrice(address lo...\n              PUSH 0\t\t\tsg.value}();\\n    }\\n\\n    fun...\n              SHR \t\t\tsg.value}();\\n    }\\n\\n    fun...\n              PUSH [tag] 82\t\t\tsg.value}();\\n    }\\n\\n    fun...\n              SWAP2 \t\t\tsg.value}();\\n    }\\n\\n    fun...\n              SWAP1 \t\t\tsg.value}();\\n    }\\n\\n    fun...\n              PUSH [tag] 83\t\t\tsg.value}();\\n    }\\n\\n    fun...\n              JUMP \t\t\tsg.value}();\\n    }\\n\\n    fun...\n            tag 82\t\t\tsg.value}();\\n    }\\n\\n    fun...\n              JUMPDEST \t\t\tsg.value}();\\n    }\\n\\n    fun...\n              SWAP1 \t\t\tparticipate{value:msg.value}()...\n              POP \t\t\tparticipate{value:msg.value}()...\n              SWAP2 \t\t\t participate(address loterie) ...\n              SWAP1 \t\t\t participate(address loterie) ...\n              POP \t\t\t participate(address loterie) ...\n              JUMP \t\t\t participate(address loterie) ...\n            tag 56\t\t\t\n              JUMPDEST \t\t\t\n              POP \t\t\t\n              DUP1 \t\t\t\n              SLOAD \t\t\t\n              PUSH 0\t\t\t\n              DUP3 \t\t\t\n              SSTORE \t\t\t\n              SWAP1 \t\t\t\n              PUSH 0\t\t\t\n              MSTORE \t\t\t\n              PUSH 20\t\t\t\n              PUSH 0\t\t\t\n              KECCAK256 \t\t\t\n              SWAP1 \t\t\t\n              DUP2 \t\t\t\n              ADD \t\t\t\n              SWAP1 \t\t\t\n              PUSH [tag] 85\t\t\t\n              SWAP2 \t\t\t\n              SWAP1 \t\t\t\n              PUSH [tag] 86\t\t\t\n              JUMP \t\t\t\n            tag 85\t\t\t\n              JUMPDEST \t\t\t\n              POP \t\t\t\n              JUMP \t\t\t\n            tag 86\t\t\t\n              JUMPDEST \t\t\t\n            tag 87\t\t\t\n              JUMPDEST \t\t\t\n              DUP1 \t\t\t\n              DUP3 \t\t\t\n              GT \t\t\t\n              ISZERO \t\t\t\n              PUSH [tag] 88\t\t\t\n              JUMPI \t\t\t\n              PUSH 0\t\t\t\n              DUP2 \t\t\t\n              PUSH 0\t\t\t\n              SWAP1 \t\t\t\n              SSTORE \t\t\t\n              POP \t\t\t\n              PUSH 1\t\t\t\n              ADD \t\t\t\n              PUSH [tag] 87\t\t\t\n              JUMP \t\t\t\n            tag 88\t\t\t\n              JUMPDEST \t\t\t\n              POP \t\t\t\n              SWAP1 \t\t\t\n              JUMP \t\t\t\n            tag 89\t\t\t-License-Identifier: GPL-3.0\\n...\n              JUMPDEST \t\t\t-License-Identifier: GPL-3.0\\n...\n              PUSH 0\t\t\t0 <0.9\n              DUP2 \t\t\t./Lot\n              MLOAD \t\t\tfrom \"./Lote\n              SWAP1 \t\t\t{Loterie} from \"./Lote\n              POP \t\t\t{Loterie} from \"./Lote\n              SWAP2 \t\t\t-License-Identifier: GPL-3.0\\n...\n              SWAP1 \t\t\t-License-Identifier: GPL-3.0\\n...\n              POP \t\t\t-License-Identifier: GPL-3.0\\n...\n              JUMP \t\t\t-License-Identifier: GPL-3.0\\n...\n            tag 90\t\t\t*\\n * @title Loterie\\n * @dev ...\n              JUMPDEST \t\t\t*\\n * @title Loterie\\n * @dev ...\n              PUSH 0\t\t\tyFactory {\\n\n              DUP3 \t\t\t=> Lot\n              DUP3 \t\t\tres\n              MSTORE \t\t\tng (address => Lote\n              PUSH 20\t\t\tesse\n              DUP3 \t\t\t ad\n              ADD \t\t\tss[] addresses\n              SWAP1 \t\t\tries;\\n    address[] addresses\n              POP \t\t\tries;\\n    address[] addresses\n              SWAP3 \t\t\t*\\n * @title Loterie\\n * @dev ...\n              SWAP2 \t\t\t*\\n * @title Loterie\\n * @dev ...\n              POP \t\t\t*\\n * @title Loterie\\n * @dev ...\n              POP \t\t\t*\\n * @title Loterie\\n * @dev ...\n              JUMP \t\t\t*\\n * @title Loterie\\n * @dev ...\n            tag 91\t\t\ts owner;\\n\\n    constructor ()...\n              JUMPDEST \t\t\ts owner;\\n\\n    constructor ()...\n              DUP3 \t\t\t(addre\n              DUP2 \t\t\tmDr\n              DUP4 \t\t\tran\n              MCOPY \t\t\tction randomDraw(addres\n              PUSH 0\t\t\t)\n              DUP4 \t\t\t (addr\n              DUP4 \t\t\ttur\n              ADD \t\t\tc returns (addre\n              MSTORE \t\t\t) public returns (address) \n              POP \t\t\ts owner;\\n\\n    constructor ()...\n              POP \t\t\ts owner;\\n\\n    constructor ()...\n              POP \t\t\ts owner;\\n\\n    constructor ()...\n              JUMP \t\t\ts owner;\\n\\n    constructor ()...\n            tag 92\t\t\tress winner = loteries[loterie...\n              JUMPDEST \t\t\tress winner = loteries[loterie...\n              PUSH 0\t\t\tw();\\n\\n\n              PUSH 1F\t\t\ttN\n              NOT \t\t\tn getNa\n              PUSH 1F\t\t\tnc\n              DUP4 \t\t\t\\n    \n              ADD \t\t\t  }\\n\\n    funct\n              AND \t\t\t;\\n    }\\n\\n    function getNa...\n              SWAP1 \t\t\turn winner;\\n    }\\n\\n    func...\n              POP \t\t\turn winner;\\n    }\\n\\n    func...\n              SWAP2 \t\t\tress winner = loteries[loterie...\n              SWAP1 \t\t\tress winner = loteries[loterie...\n              POP \t\t\tress winner = loteries[loterie...\n              JUMP \t\t\tress winner = loteries[loterie...\n            tag 93\t\t\tterie) public view returns (st...\n              JUMPDEST \t\t\tterie) public view returns (st...\n              PUSH 0\t\t\tote\n              PUSH [tag] 124\t\t\t    return loteries[loterie].g...\n              DUP3 \t\t\tame()\n              PUSH [tag] 89\t\t\t    return loteries[loterie].g...\n              JUMP \t\t\t    return loteries[loterie].g...\n            tag 124\t\t\t    return loteries[loterie].g...\n              JUMPDEST \t\t\t    return loteries[loterie].g...\n              PUSH [tag] 125\t\t\tfunction getSolde(address lote...\n              DUP2 \t\t\t      \n              DUP6 \t\t\tt) \n              PUSH [tag] 90\t\t\tfunction getSolde(address lote...\n              JUMP \t\t\tfunction getSolde(address lote...\n            tag 125\t\t\tfunction getSolde(address lote...\n              JUMPDEST \t\t\tfunction getSolde(address lote...\n              SWAP4 \t\t\t  \\n    function getSolde(addr...\n              POP \t\t\t  \\n    function getSolde(addr...\n              PUSH [tag] 126\t\t\tcontainsAddress(loterie),\"Lote...\n              DUP2 \t\t\t retur\n              DUP6 \t\t\t   \n              PUSH 20\t\t\tt\");\n              DUP7 \t\t\t't ex\n              ADD \t\t\toesn't exist\");\\n\n              PUSH [tag] 91\t\t\tcontainsAddress(loterie),\"Lote...\n              JUMP \t\t\tcontainsAddress(loterie),\"Lote...\n            tag 126\t\t\tcontainsAddress(loterie),\"Lote...\n              JUMPDEST \t\t\tcontainsAddress(loterie),\"Lote...\n              PUSH [tag] 127\t\t\tde();\\n    }\\n\\n    function p...\n              DUP2 \t\t\tion pa\n              PUSH [tag] 92\t\t\tde();\\n    }\\n\\n    function p...\n              JUMP \t\t\tde();\\n    }\\n\\n    function p...\n            tag 127\t\t\tde();\\n    }\\n\\n    function p...\n              JUMPDEST \t\t\tde();\\n    }\\n\\n    function p...\n              DUP5 \t\t\tetS\n              ADD \t\t\te].getSolde();\\n    }\\n\\n    f...\n              SWAP2 \t\t\t[loterie].getSolde();\\n    }\\n...\n              POP \t\t\t[loterie].getSolde();\\n    }\\n...\n              POP \t\t\tie doesn't exist\");\\n        r...\n              SWAP3 \t\t\tterie) public view returns (st...\n              SWAP2 \t\t\tterie) public view returns (st...\n              POP \t\t\tterie) public view returns (st...\n              POP \t\t\tterie) public view returns (st...\n              JUMP \t\t\tterie) public view returns (st...\n            tag 12\t\t\tess loterie) public payable {\\...\n              JUMPDEST \t\t\tess loterie) public payable {\\...\n              PUSH 0\t\t\t[lot\n              PUSH 20\t\t\t()\n              DUP3 \t\t\t:msg.valu\n              ADD \t\t\talue:msg.value}();\n              SWAP1 \t\t\tcipate{value:msg.value}();\n              POP \t\t\tcipate{value:msg.value}();\n              DUP2 \t\t\t public v\n              DUP2 \t\t\tteri\n              SUB \t\t\ts loterie) public vi\n              PUSH 0\t\t\td\n              DUP4 \t\t\tgetPrice(\n              ADD \t\t\tion getPrice(addr\n              MSTORE \t\t\t  function getPrice(address lo...\n              PUSH [tag] 129\t\t\t6) {\\n        require(contains...\n              DUP2 \t\t\t    \n              DUP5 \t\t\txist\")\n              PUSH [tag] 93\t\t\t6) {\\n        require(contains...\n              JUMP \t\t\t6) {\\n        require(contains...\n            tag 129\t\t\t6) {\\n        require(contains...\n              JUMPDEST \t\t\t6) {\\n        require(contains...\n              SWAP1 \t\t\t (uint256) {\\n        require(...\n              POP \t\t\t (uint256) {\\n        require(...\n              SWAP3 \t\t\tess loterie) public payable {\\...\n              SWAP2 \t\t\tess loterie) public payable {\\...\n              POP \t\t\tess loterie) public payable {\\...\n              POP \t\t\tess loterie) public payable {\\...\n              JUMP \t\t\tess loterie) public payable {\\...\n            tag 94\t\t\tries[loterie].getPrice();\\n   ...\n              JUMPDEST \t\t\tries[loterie].getPrice();\\n   ...\n              PUSH 0\t\t\tfunctio\n              PUSH FFFFFFFFFFFFFFFFFFFFFFFFFFFFFFFFFFFFFFFF\t\t\tory _name) public {\\n        r...\n              DUP3 \t\t\ting m\n              AND \t\t\t string memory _name) public {...\n              SWAP1 \t\t\te(uint fee, string memory _nam...\n              POP \t\t\te(uint fee, string memory _nam...\n              SWAP2 \t\t\tries[loterie].getPrice();\\n   ...\n              SWAP1 \t\t\tries[loterie].getPrice();\\n   ...\n              POP \t\t\tries[loterie].getPrice();\\n   ...\n              JUMP \t\t\tries[loterie].getPrice();\\n   ...\n            tag 95\t\t\t, \"Only the owner can add a lo...\n              JUMPDEST \t\t\t, \"Only the owner can add a lo...\n              PUSH 0\t\t\t;\\n     \n              PUSH [tag] 132\t\t\tew Loterie(fee, _name);\\n\n              DUP3 \t\t\tame);\n              PUSH [tag] 94\t\t\tew Loterie(fee, _name);\\n\n              JUMP \t\t\tew Loterie(fee, _name);\\n\n            tag 132\t\t\tew Loterie(fee, _name);\\n\n              JUMPDEST \t\t\tew Loterie(fee, _name);\\n\n              SWAP1 \t\t\tloterie = new Loterie(fee, _na...\n              POP \t\t\tloterie = new Loterie(fee, _na...\n              SWAP2 \t\t\t, \"Only the owner can add a lo...\n              SWAP1 \t\t\t, \"Only the owner can add a lo...\n              POP \t\t\t, \"Only the owner can add a lo...\n              JUMP \t\t\t, \"Only the owner can add a lo...\n            tag 96\t\t\tesses.push(address(loterie));\\...\n              JUMPDEST \t\t\tesses.push(address(loterie));\\...\n              PUSH [tag] 134\t\t\tfunction containsAddress\n              DUP2 \t\t\tddres\n              PUSH [tag] 95\t\t\tfunction containsAddress\n              JUMP \t\t\tfunction containsAddress\n            tag 134\t\t\tfunction containsAddress\n              JUMPDEST \t\t\tfunction containsAddress\n              DUP3 \t\t\t\\n  \n              MSTORE \t\t\t\\n    }\\n\\n    function contai...\n              POP \t\t\tesses.push(address(loterie));\\...\n              POP \t\t\tesses.push(address(loterie));\\...\n              JUMP \t\t\tesses.push(address(loterie));\\...\n            tag 17\t\t\trie) private view returns (boo...\n              JUMPDEST \t\t\trie) private view returns (boo...\n              PUSH 0\t\t\t    \n              PUSH 20\t\t\t) \n              DUP3 \t\t\t == loter\n              ADD \t\t\ts[i] == loterie) {\n              SWAP1 \t\t\taddresses[i] == loterie) {\n              POP \t\t\taddresses[i] == loterie) {\n              PUSH [tag] 136\t\t\t       return true;\\n         ...\n              PUSH 0\t\t\t \n              DUP4 \t\t\tn false;\\n\n              ADD \t\t\teturn false;\\n    \n              DUP5 \t\t\t      \n              PUSH [tag] 96\t\t\t       return true;\\n         ...\n              JUMP \t\t\t       return true;\\n         ...\n            tag 136\t\t\t       return true;\\n         ...\n              JUMPDEST \t\t\t       return true;\\n         ...\n              SWAP3 \t\t\trie) private view returns (boo...\n              SWAP2 \t\t\trie) private view returns (boo...\n              POP \t\t\trie) private view returns (boo...\n              POP \t\t\trie) private view returns (boo...\n              JUMP \t\t\trie) private view returns (boo...\n            tag 97\t\t\tn getLoteries() public view re...\n              JUMPDEST \t\t\tn getLoteries() public view re...\n              PUSH 0\t\t\taddress\n              DUP2 \t\t\tmory)\n              SWAP1 \t\t\tstring[] memory)\n              POP \t\t\tstring[] memory)\n              SWAP2 \t\t\tn getLoteries() public view re...\n              SWAP1 \t\t\tn getLoteries() public view re...\n              POP \t\t\tn getLoteries() public view re...\n              JUMP \t\t\tn getLoteries() public view re...\n            tag 98\t\t\ttring[] memory names = new str...\n              JUMPDEST \t\t\ttring[] memory names = new str...\n              PUSH [tag] 139\t\t\t addresses.length; i++) \n              DUP2 \t\t\t i++)\n              PUSH [tag] 97\t\t\t addresses.length; i++) \n              JUMP \t\t\t addresses.length; i++) \n            tag 139\t\t\t addresses.length; i++) \n              JUMPDEST \t\t\t addresses.length; i++) \n              DUP3 \t\t\t; i\n              MSTORE \t\t\t6 i = 0; i < addresses.length;...\n              POP \t\t\ttring[] memory names = new str...\n              POP \t\t\ttring[] memory names = new str...\n              JUMP \t\t\ttring[] memory names = new str...\n            tag 22\t\t\t names[i] = getName(addresses[...\n              JUMPDEST \t\t\t names[i] = getName(addresses[...\n              PUSH 0\t\t\tncti\n              PUSH 20\t\t\tpu\n              DUP3 \t\t\ts loterie\n              ADD \t\t\tdress loterie) pub\n              SWAP1 \t\t\tterie(address loterie) pub\n              POP \t\t\tterie(address loterie) pub\n              PUSH [tag] 141\t\t\t    require(msg.sender == owne...\n              PUSH 0\t\t\ty\n              DUP4 \t\t\tve a lott\n              ADD \t\t\tremove a lottery\"\n              DUP5 \t\t\twner c\n              PUSH [tag] 98\t\t\t    require(msg.sender == owne...\n              JUMP \t\t\t    require(msg.sender == owne...\n            tag 141\t\t\t    require(msg.sender == owne...\n              JUMPDEST \t\t\t    require(msg.sender == owne...\n              SWAP3 \t\t\t names[i] = getName(addresses[...\n              SWAP2 \t\t\t names[i] = getName(addresses[...\n              POP \t\t\t names[i] = getName(addresses[...\n              POP \t\t\t names[i] = getName(addresses[...\n              JUMP \t\t\t names[i] = getName(addresses[...\n            tag 99\t\t\t(uint256 i = 0; i < addresses....\n              JUMPDEST \t\t\t(uint256 i = 0; i < addresses....\n              PUSH 4E487B7100000000000000000000000000000000000000000000000000000000\t\t\t        if (addresses[i] == lo...\n              PUSH 0\t\t\t \n              MSTORE \t\t\ti++){\\n            if (address...\n              PUSH 22\t\t\t- 1]\n              PUSH 4\t\t\tt\n              MSTORE \t\t\tes.length - 1];\n              PUSH 24\t\t\tdres\n              PUSH 0\t\t\t \n              REVERT \t\t\t        address\n            tag 35\t\t\t              return;\\n       ...\n              JUMPDEST \t\t\t              return;\\n       ...\n              PUSH 0\t\t\t}\\n    \n              PUSH 2\t\t\t\n              DUP3 \t\t\t\n              DIV \t\t\t\n              SWAP1 \t\t\t\n              POP \t\t\t\n              PUSH 1\t\t\t\n              DUP3 \t\t\t\n              AND \t\t\t\n              DUP1 \t\t\t\n              PUSH [tag] 144\t\t\t\n              JUMPI \t\t\t\n              PUSH 7F\t\t\t\n              DUP3 \t\t\t\n              AND \t\t\t\n              SWAP2 \t\t\t\n              POP \t\t\t\n            tag 144\t\t\t\n              JUMPDEST \t\t\t\n              PUSH 20\t\t\t\n              DUP3 \t\t\t\n              LT \t\t\t\n              DUP2 \t\t\t\n              SUB \t\t\t\n              PUSH [tag] 145\t\t\t\n              JUMPI \t\t\t\n              PUSH [tag] 146\t\t\t\n              PUSH [tag] 99\t\t\t\n              JUMP \t\t\t\n            tag 146\t\t\t\n              JUMPDEST \t\t\t\n            tag 145\t\t\t\n              JUMPDEST \t\t\t\n              POP \t\t\t\\n\\n\\n\\n}\n              SWAP2 \t\t\t              return;\\n       ...\n              SWAP1 \t\t\t              return;\\n       ...\n              POP \t\t\t              return;\\n       ...\n              JUMP \t\t\t              return;\\n       ...\n            tag 100\t\t\t\n              JUMPDEST \t\t\t\n              PUSH 4F6E6C79206F776E65722063616E20646F207468617421000000000000000000\t\t\t\n              PUSH 0\t\t\t\n              DUP3 \t\t\t\n              ADD \t\t\t\n              MSTORE \t\t\t\n              POP \t\t\t\n              JUMP \t\t\t\n            tag 101\t\t\t\n              JUMPDEST \t\t\t\n              PUSH 0\t\t\t\n              PUSH [tag] 149\t\t\t\n              PUSH 17\t\t\t\n              DUP4 \t\t\t\n              PUSH [tag] 90\t\t\t\n              JUMP \t\t\t\n            tag 149\t\t\t\n              JUMPDEST \t\t\t\n              SWAP2 \t\t\t\n              POP \t\t\t\n              PUSH [tag] 150\t\t\t\n              DUP3 \t\t\t\n              PUSH [tag] 100\t\t\t\n              JUMP \t\t\t\n            tag 150\t\t\t\n              JUMPDEST \t\t\t\n              PUSH 20\t\t\t\n              DUP3 \t\t\t\n              ADD \t\t\t\n              SWAP1 \t\t\t\n              POP \t\t\t\n              SWAP2 \t\t\t\n              SWAP1 \t\t\t\n              POP \t\t\t\n              JUMP \t\t\t\n            tag 43\t\t\t\n              JUMPDEST \t\t\t\n              PUSH 0\t\t\t\n              PUSH 20\t\t\t\n              DUP3 \t\t\t\n              ADD \t\t\t\n              SWAP1 \t\t\t\n              POP \t\t\t\n              DUP2 \t\t\t\n              DUP2 \t\t\t\n              SUB \t\t\t\n              PUSH 0\t\t\t\n              DUP4 \t\t\t\n              ADD \t\t\t\n              MSTORE \t\t\t\n              PUSH [tag] 152\t\t\t\n              DUP2 \t\t\t\n              PUSH [tag] 101\t\t\t\n              JUMP \t\t\t\n            tag 152\t\t\t\n              JUMPDEST \t\t\t\n              SWAP1 \t\t\t\n              POP \t\t\t\n              SWAP2 \t\t\t\n              SWAP1 \t\t\t\n              POP \t\t\t\n              JUMP \t\t\t\n            tag 102\t\t\t\n              JUMPDEST \t\t\t\n              PUSH 546865206E756D62657273206F66207061727469636970616E7473206D757374\t\t\t\n              PUSH 0\t\t\t\n              DUP3 \t\t\t\n              ADD \t\t\t\n              MSTORE \t\t\t\n              PUSH 206265206C6172676572207468616E2032000000000000000000000000000000\t\t\t\n              PUSH 20\t\t\t\n              DUP3 \t\t\t\n              ADD \t\t\t\n              MSTORE \t\t\t\n              POP \t\t\t\n              JUMP \t\t\t\n            tag 103\t\t\t\n              JUMPDEST \t\t\t\n              PUSH 0\t\t\t\n              PUSH [tag] 155\t\t\t\n              PUSH 31\t\t\t\n              DUP4 \t\t\t\n              PUSH [tag] 90\t\t\t\n              JUMP \t\t\t\n            tag 155\t\t\t\n              JUMPDEST \t\t\t\n              SWAP2 \t\t\t\n              POP \t\t\t\n              PUSH [tag] 156\t\t\t\n              DUP3 \t\t\t\n              PUSH [tag] 102\t\t\t\n              JUMP \t\t\t\n            tag 156\t\t\t\n              JUMPDEST \t\t\t\n              PUSH 40\t\t\t\n              DUP3 \t\t\t\n              ADD \t\t\t\n              SWAP1 \t\t\t\n              POP \t\t\t\n              SWAP2 \t\t\t\n              SWAP1 \t\t\t\n              POP \t\t\t\n              JUMP \t\t\t\n            tag 46\t\t\t\n              JUMPDEST \t\t\t\n              PUSH 0\t\t\t\n              PUSH 20\t\t\t\n              DUP3 \t\t\t\n              ADD \t\t\t\n              SWAP1 \t\t\t\n              POP \t\t\t\n              DUP2 \t\t\t\n              DUP2 \t\t\t\n              SUB \t\t\t\n              PUSH 0\t\t\t\n              DUP4 \t\t\t\n              ADD \t\t\t\n              MSTORE \t\t\t\n              PUSH [tag] 158\t\t\t\n              DUP2 \t\t\t\n              PUSH [tag] 103\t\t\t\n              JUMP \t\t\t\n            tag 158\t\t\t\n              JUMPDEST \t\t\t\n              SWAP1 \t\t\t\n              POP \t\t\t\n              SWAP2 \t\t\t\n              SWAP1 \t\t\t\n              POP \t\t\t\n              JUMP \t\t\t\n            tag 51\t\t\t\n              JUMPDEST \t\t\t\n              PUSH 4E487B7100000000000000000000000000000000000000000000000000000000\t\t\t\n              PUSH 0\t\t\t\n              MSTORE \t\t\t\n              PUSH 32\t\t\t\n              PUSH 4\t\t\t\n              MSTORE \t\t\t\n              PUSH 24\t\t\t\n              PUSH 0\t\t\t\n              REVERT \t\t\t\n            tag 104\t\t\t\n              JUMPDEST \t\t\t\n              PUSH 4F776E65722063616E2774207061727469636970617465000000000000000000\t\t\t\n              PUSH 0\t\t\t\n              DUP3 \t\t\t\n              ADD \t\t\t\n              MSTORE \t\t\t\n              POP \t\t\t\n              JUMP \t\t\t\n            tag 105\t\t\t\n              JUMPDEST \t\t\t\n              PUSH 0\t\t\t\n              PUSH [tag] 162\t\t\t\n              PUSH 17\t\t\t\n              DUP4 \t\t\t\n              PUSH [tag] 90\t\t\t\n              JUMP \t\t\t\n            tag 162\t\t\t\n              JUMPDEST \t\t\t\n              SWAP2 \t\t\t\n              POP \t\t\t\n              PUSH [tag] 163\t\t\t\n              DUP3 \t\t\t\n              PUSH [tag] 104\t\t\t\n              JUMP \t\t\t\n            tag 163\t\t\t\n              JUMPDEST \t\t\t\n              PUSH 20\t\t\t\n              DUP3 \t\t\t\n              ADD \t\t\t\n              SWAP1 \t\t\t\n              POP \t\t\t\n              SWAP2 \t\t\t\n              SWAP1 \t\t\t\n              POP \t\t\t\n              JUMP \t\t\t\n            tag 62\t\t\t\n              JUMPDEST \t\t\t\n              PUSH 0\t\t\t\n              PUSH 20\t\t\t\n              DUP3 \t\t\t\n              ADD \t\t\t\n              SWAP1 \t\t\t\n              POP \t\t\t\n              DUP2 \t\t\t\n              DUP2 \t\t\t\n              SUB \t\t\t\n              PUSH 0\t\t\t\n              DUP4 \t\t\t\n              ADD \t\t\t\n              MSTORE \t\t\t\n              PUSH [tag] 165\t\t\t\n              DUP2 \t\t\t\n              PUSH [tag] 105\t\t\t\n              JUMP \t\t\t\n            tag 165\t\t\t\n              JUMPDEST \t\t\t\n              SWAP1 \t\t\t\n              POP \t\t\t\n              SWAP2 \t\t\t\n              SWAP1 \t\t\t\n              POP \t\t\t\n              JUMP \t\t\t\n            tag 106\t\t\t\n              JUMPDEST \t\t\t\n              PUSH 5072696365206D75737420626520657175616C20746F20746865207072696365\t\t\t\n              PUSH 0\t\t\t\n              DUP3 \t\t\t\n              ADD \t\t\t\n              MSTORE \t\t\t\n              PUSH 20646566696E656420627920746865206F776E6572206F6620746865206C6F74\t\t\t\n              PUSH 20\t\t\t\n              DUP3 \t\t\t\n              ADD \t\t\t\n              MSTORE \t\t\t\n              PUSH 7465727900000000000000000000000000000000000000000000000000000000\t\t\t\n              PUSH 40\t\t\t\n              DUP3 \t\t\t\n              ADD \t\t\t\n              MSTORE \t\t\t\n              POP \t\t\t\n              JUMP \t\t\t\n            tag 107\t\t\t\n              JUMPDEST \t\t\t\n              PUSH 0\t\t\t\n              PUSH [tag] 168\t\t\t\n              PUSH 44\t\t\t\n              DUP4 \t\t\t\n              PUSH [tag] 90\t\t\t\n              JUMP \t\t\t\n            tag 168\t\t\t\n              JUMPDEST \t\t\t\n              SWAP2 \t\t\t\n              POP \t\t\t\n              PUSH [tag] 169\t\t\t\n              DUP3 \t\t\t\n              PUSH [tag] 106\t\t\t\n              JUMP \t\t\t\n            tag 169\t\t\t\n              JUMPDEST \t\t\t\n              PUSH 60\t\t\t\n              DUP3 \t\t\t\n              ADD \t\t\t\n              SWAP1 \t\t\t\n              POP \t\t\t\n              SWAP2 \t\t\t\n              SWAP1 \t\t\t\n              POP \t\t\t\n              JUMP \t\t\t\n            tag 65\t\t\t\n              JUMPDEST \t\t\t\n              PUSH 0\t\t\t\n              PUSH 20\t\t\t\n              DUP3 \t\t\t\n              ADD \t\t\t\n              SWAP1 \t\t\t\n              POP \t\t\t\n              DUP2 \t\t\t\n              DUP2 \t\t\t\n              SUB \t\t\t\n              PUSH 0\t\t\t\n              DUP4 \t\t\t\n              ADD \t\t\t\n              MSTORE \t\t\t\n              PUSH [tag] 171\t\t\t\n              DUP2 \t\t\t\n              PUSH [tag] 107\t\t\t\n              JUMP \t\t\t\n            tag 171\t\t\t\n              JUMPDEST \t\t\t\n              SWAP1 \t\t\t\n              POP \t\t\t\n              SWAP2 \t\t\t\n              SWAP1 \t\t\t\n              POP \t\t\t\n              JUMP \t\t\t\n            tag 108\t\t\t\n              JUMPDEST \t\t\t\n              PUSH 41207061727469636970616E742063616E6E6F74207061727469636970617465\t\t\t\n              PUSH 0\t\t\t\n              DUP3 \t\t\t\n              ADD \t\t\t\n              MSTORE \t\t\t\n              PUSH 207365766572616C2074696D6573000000000000000000000000000000000000\t\t\t\n              PUSH 20\t\t\t\n              DUP3 \t\t\t\n              ADD \t\t\t\n              MSTORE \t\t\t\n              POP \t\t\t\n              JUMP \t\t\t\n            tag 109\t\t\t\n              JUMPDEST \t\t\t\n              PUSH 0\t\t\t\n              PUSH [tag] 174\t\t\t\n              PUSH 2E\t\t\t\n              DUP4 \t\t\t\n              PUSH [tag] 90\t\t\t\n              JUMP \t\t\t\n            tag 174\t\t\t\n              JUMPDEST \t\t\t\n              SWAP2 \t\t\t\n              POP \t\t\t\n              PUSH [tag] 175\t\t\t\n              DUP3 \t\t\t\n              PUSH [tag] 108\t\t\t\n              JUMP \t\t\t\n            tag 175\t\t\t\n              JUMPDEST \t\t\t\n              PUSH 40\t\t\t\n              DUP3 \t\t\t\n              ADD \t\t\t\n              SWAP1 \t\t\t\n              POP \t\t\t\n              SWAP2 \t\t\t\n              SWAP1 \t\t\t\n              POP \t\t\t\n              JUMP \t\t\t\n            tag 75\t\t\t\n              JUMPDEST \t\t\t\n              PUSH 0\t\t\t\n              PUSH 20\t\t\t\n              DUP3 \t\t\t\n              ADD \t\t\t\n              SWAP1 \t\t\t\n              POP \t\t\t\n              DUP2 \t\t\t\n              DUP2 \t\t\t\n              SUB \t\t\t\n              PUSH 0\t\t\t\n              DUP4 \t\t\t\n              ADD \t\t\t\n              MSTORE \t\t\t\n              PUSH [tag] 177\t\t\t\n              DUP2 \t\t\t\n              PUSH [tag] 109\t\t\t\n              JUMP \t\t\t\n            tag 177\t\t\t\n              JUMPDEST \t\t\t\n              SWAP1 \t\t\t\n              POP \t\t\t\n              SWAP2 \t\t\t\n              SWAP1 \t\t\t\n              POP \t\t\t\n              JUMP \t\t\t\n            tag 110\t\t\t\n              JUMPDEST \t\t\t\n              PUSH 4E487B7100000000000000000000000000000000000000000000000000000000\t\t\t\n              PUSH 0\t\t\t\n              MSTORE \t\t\t\n              PUSH 11\t\t\t\n              PUSH 4\t\t\t\n              MSTORE \t\t\t\n              PUSH 24\t\t\t\n              PUSH 0\t\t\t\n              REVERT \t\t\t\n            tag 79\t\t\t\n              JUMPDEST \t\t\t\n              PUSH 0\t\t\t\n              PUSH [tag] 180\t\t\t\n              DUP3 \t\t\t\n              PUSH [tag] 97\t\t\t\n              JUMP \t\t\t\n            tag 180\t\t\t\n              JUMPDEST \t\t\t\n              SWAP2 \t\t\t\n              POP \t\t\t\n              PUSH FFFFFFFFFFFFFFFFFFFFFFFFFFFFFFFFFFFFFFFFFFFFFFFFFFFFFFFFFFFFFFFF\t\t\t\n              DUP3 \t\t\t\n              SUB \t\t\t\n              PUSH [tag] 181\t\t\t\n              JUMPI \t\t\t\n              PUSH [tag] 182\t\t\t\n              PUSH [tag] 110\t\t\t\n              JUMP \t\t\t\n            tag 182\t\t\t\n              JUMPDEST \t\t\t\n            tag 181\t\t\t\n              JUMPDEST \t\t\t\n              PUSH 1\t\t\t\n              DUP3 \t\t\t\n              ADD \t\t\t\n              SWAP1 \t\t\t\n              POP \t\t\t\n              SWAP2 \t\t\t\n              SWAP1 \t\t\t\n              POP \t\t\t\n              JUMP \t\t\t\n            tag 111\t\t\t\n              JUMPDEST \t\t\t\n              PUSH 0\t\t\t\n              DUP2 \t\t\t\n              SWAP1 \t\t\t\n              POP \t\t\t\n              SWAP2 \t\t\t\n              SWAP1 \t\t\t\n              POP \t\t\t\n              JUMP \t\t\t\n            tag 112\t\t\t\n              JUMPDEST \t\t\t\n              PUSH [tag] 185\t\t\t\n              PUSH [tag] 186\t\t\t\n              DUP3 \t\t\t\n              PUSH [tag] 97\t\t\t\n              JUMP \t\t\t\n            tag 186\t\t\t\n              JUMPDEST \t\t\t\n              PUSH [tag] 111\t\t\t\n              JUMP \t\t\t\n            tag 185\t\t\t\n              JUMPDEST \t\t\t\n              DUP3 \t\t\t\n              MSTORE \t\t\t\n              POP \t\t\t\n              POP \t\t\t\n              JUMP \t\t\t\n            tag 113\t\t\t\n              JUMPDEST \t\t\t\n              PUSH 0\t\t\t\n              DUP2 \t\t\t\n              PUSH 60\t\t\t\n              SHL \t\t\t\n              SWAP1 \t\t\t\n              POP \t\t\t\n              SWAP2 \t\t\t\n              SWAP1 \t\t\t\n              POP \t\t\t\n              JUMP \t\t\t\n            tag 114\t\t\t\n              JUMPDEST \t\t\t\n              PUSH 0\t\t\t\n              PUSH [tag] 189\t\t\t\n              DUP3 \t\t\t\n              PUSH [tag] 113\t\t\t\n              JUMP \t\t\t\n            tag 189\t\t\t\n              JUMPDEST \t\t\t\n              SWAP1 \t\t\t\n              POP \t\t\t\n              SWAP2 \t\t\t\n              SWAP1 \t\t\t\n              POP \t\t\t\n              JUMP \t\t\t\n            tag 115\t\t\t\n              JUMPDEST \t\t\t\n              PUSH 0\t\t\t\n              PUSH [tag] 191\t\t\t\n              DUP3 \t\t\t\n              PUSH [tag] 114\t\t\t\n              JUMP \t\t\t\n            tag 191\t\t\t\n              JUMPDEST \t\t\t\n              SWAP1 \t\t\t\n              POP \t\t\t\n              SWAP2 \t\t\t\n              SWAP1 \t\t\t\n              POP \t\t\t\n              JUMP \t\t\t\n            tag 116\t\t\t\n              JUMPDEST \t\t\t\n              PUSH [tag] 193\t\t\t\n              PUSH [tag] 194\t\t\t\n              DUP3 \t\t\t\n              PUSH [tag] 95\t\t\t\n              JUMP \t\t\t\n            tag 194\t\t\t\n              JUMPDEST \t\t\t\n              PUSH [tag] 115\t\t\t\n              JUMP \t\t\t\n            tag 193\t\t\t\n              JUMPDEST \t\t\t\n              DUP3 \t\t\t\n              MSTORE \t\t\t\n              POP \t\t\t\n              POP \t\t\t\n              JUMP \t\t\t\n            tag 81\t\t\t\n              JUMPDEST \t\t\t\n              PUSH 0\t\t\t\n              PUSH [tag] 196\t\t\t\n              DUP3 \t\t\t\n              DUP7 \t\t\t\n              PUSH [tag] 112\t\t\t\n              JUMP \t\t\t\n            tag 196\t\t\t\n              JUMPDEST \t\t\t\n              PUSH 20\t\t\t\n              DUP3 \t\t\t\n              ADD \t\t\t\n              SWAP2 \t\t\t\n              POP \t\t\t\n              PUSH [tag] 197\t\t\t\n              DUP3 \t\t\t\n              DUP6 \t\t\t\n              PUSH [tag] 116\t\t\t\n              JUMP \t\t\t\n            tag 197\t\t\t\n              JUMPDEST \t\t\t\n              PUSH 14\t\t\t\n              DUP3 \t\t\t\n              ADD \t\t\t\n              SWAP2 \t\t\t\n              POP \t\t\t\n              PUSH [tag] 198\t\t\t\n              DUP3 \t\t\t\n              DUP5 \t\t\t\n              PUSH [tag] 112\t\t\t\n              JUMP \t\t\t\n            tag 198\t\t\t\n              JUMPDEST \t\t\t\n              PUSH 20\t\t\t\n              DUP3 \t\t\t\n              ADD \t\t\t\n              SWAP2 \t\t\t\n              POP \t\t\t\n              DUP2 \t\t\t\n              SWAP1 \t\t\t\n              POP \t\t\t\n              SWAP5 \t\t\t\n              SWAP4 \t\t\t\n              POP \t\t\t\n              POP \t\t\t\n              POP \t\t\t\n              POP \t\t\t\n              JUMP \t\t\t\n            tag 117\t\t\t\n              JUMPDEST \t\t\t\n              PUSH 4E487B7100000000000000000000000000000000000000000000000000000000\t\t\t\n              PUSH 0\t\t\t\n              MSTORE \t\t\t\n              PUSH 12\t\t\t\n              PUSH 4\t\t\t\n              MSTORE \t\t\t\n              PUSH 24\t\t\t\n              PUSH 0\t\t\t\n              REVERT \t\t\t\n            tag 83\t\t\t\n              JUMPDEST \t\t\t\n              PUSH 0\t\t\t\n              PUSH [tag] 201\t\t\t\n              DUP3 \t\t\t\n              PUSH [tag] 97\t\t\t\n              JUMP \t\t\t\n            tag 201\t\t\t\n              JUMPDEST \t\t\t\n              SWAP2 \t\t\t\n              POP \t\t\t\n              PUSH [tag] 202\t\t\t\n              DUP4 \t\t\t\n              PUSH [tag] 97\t\t\t\n              JUMP \t\t\t\n            tag 202\t\t\t\n              JUMPDEST \t\t\t\n              SWAP3 \t\t\t\n              POP \t\t\t\n              DUP3 \t\t\t\n              PUSH [tag] 203\t\t\t\n              JUMPI \t\t\t\n              PUSH [tag] 204\t\t\t\n              PUSH [tag] 117\t\t\t\n              JUMP \t\t\t\n            tag 204\t\t\t\n              JUMPDEST \t\t\t\n            tag 203\t\t\t\n              JUMPDEST \t\t\t\n              DUP3 \t\t\t\n              DUP3 \t\t\t\n              MOD \t\t\t\n              SWAP1 \t\t\t\n              POP \t\t\t\n              SWAP3 \t\t\t\n              SWAP2 \t\t\t\n              POP \t\t\t\n              POP \t\t\t\n              JUMP \t\t\t\n            .data\n"
}